:100000000C9463000C948B000C948B000C94A7044C
:100010000C94A7040C94A7040C948B000C94AF06CA
:100020000C948B000C948B000C948B000C944B065E
:100030000C948B000C948B000C948B000C948B0014
:100040000C945D040C948B000C944F010C942901CA
:100050000C948B000C948B000C948B000C948B00F4
:100060000C9421050C948B00000000002400270054
:100070002A0000000008000201000003040700003D
:1000800000000000000000000000230026002900FE
:1000900000000000250028002B00040404040404D0
:1000A0000404020202020202030303030303010227
:1000B00004081020408001020408102001020408F6
:1000C00010203C0E1A0E11241FBECFEFD8E0DEBF69
:1000D000CDBF11E0A0E0B1E0ECE7F4E202C0059092
:1000E0000D92A039B107D9F725E0A0E9B1E001C030
:1000F0001D92AB3AB207E1F710E0C2E6D0E004C0CF
:100100002197FE010E942610C136D107C9F70E942F
:10011000840A0C9431120C940000FC01538D448D20
:10012000252F30E0842F90E0821B930B541710F0A2
:10013000CF96089501970895FC01918D828D9817AF
:1001400061F0828DDF01A80FB11D5D968C91928DBB
:100150009F5F9F73928F90E008958FEF9FEF0895B8
:100160008CEE92E00E948F0121E0892B09F420E0BF
:10017000822F0895EF92FF920F931F93CF93DF93F7
:10018000EC0181E0888F9B8D8C8D981305C0E889E8
:10019000F989808185FD26C0F62E0B8D10E00F5F5A
:1001A0001F4F0F731127E02E8C8DE8120CC00FB675
:1001B00007FCFACFE889F989808185FFF5CFCE0168
:1001C0000E941703F1CF8B8DFE01E80FF11DE35A5A
:1001D000FF4FF0829FB7F8940B8FEA89FB898081EB
:1001E00080620AC09FB7F894EE89FF896083E8892E
:1001F000F98980818370806480839FBF81E090E073
:10020000DF91CF911F910F91FF90EF900895CF93C1
:10021000DF93EC01888D8823C9F0EA89FB8980810E
:1002200085FD05C0A889B9898C9186FD0FC00FB6E0
:1002300007FCF5CF808185FFF2CFA889B9898C9121
:1002400085FFEDCFCE010E941703E7CFDF91CF915D
:1002500008951F920F920FB60F9211242F933F9380
:100260004F935F936F937F938F939F93AF93BF93BE
:10027000EF93FF938CEE92E00E941703FF91EF91B2
:10028000BF91AF919F918F917F916F915F914F91AE
:100290003F912F910F900FBE0F901F9018951F92B6
:1002A0000F920FB60F9211242F938F939F93EF937A
:1002B000FF93E091FC02F091FD028081E091020346
:1002C000F091030382FD12C09081809105038F5F3E
:1002D0008F7320910603821751F0E0910503F0E03F
:1002E000E451FD4F958F8093050301C08081FF91FC
:1002F000EF919F918F912F910F900FBE0F901F90B4
:100300001895FC01918D828D981731F0828DE80F40
:10031000F11D858D90E008958FEF9FEF0895FC010A
:10032000918D228D892F90E0805C9F4F821B9109D7
:100330008F739927089580E090E0892B29F00E941F
:10034000B00081110C9400000895833081F028F4EE
:10035000813099F08230A1F008958730A9F088307B
:10036000B9F08430D1F4809180008F7D03C08091FA
:1003700080008F7780938000089584B58F7702C0C6
:1003800084B58F7D84BD08958091B0008F7703C0C0
:100390008091B0008F7D8093B00008952091F80384
:1003A0003091F9032817390771F4909190018091E9
:1003B0009101981741F0E0919001F0E0ED55FD4F6B
:1003C000808190E008958FEF9FEF089508951F9327
:1003D000CF93DF93DC015C968D919C915D970097A4
:1003E00039F421E030E013963C932E9312973BC0F2
:1003F0005196ED91FC91529750962C915097322F37
:1004000030951FB75E964C915E97742F727041FDC8
:100410006095F8944081772311F0422B01C043236B
:100420004083EC012197F1F748E0508160FF02C062
:10043000522B01C053235083EC012197F1F76695AD
:10044000415099F78081772319F08323808302C07C
:10045000282B20831FBF5C968D919C915D970197FF
:10046000F1F781E090E0DF91CF911F910895209105
:10047000F8033091F9032817390771F4809191013D
:100480002091900190E0805C9F4F821B910960E475
:1004900070E00E94FE0F089580E090E008952091A2
:1004A000F8033091F90328173907B9F490919001B6
:1004B00080919101981789F0E0919001F0E0ED555D
:1004C000FD4F80812091900130E02F5F3F4F2F73CF
:1004D00033272093900190E008958FEF9FEF0895C8
:1004E00085ED8093BC008091BC0084FDFCCF109210
:1004F0007D02089540915902262F30E0240F311DCE
:1005000021323105DCF420917D022430C9F4FC0154
:1005100080E090E0861758F4309159022191DC0177
:10052000A75CBD4FA30FB11D2C930196F3CF809113
:100530005902680F6093590280E0089581E00895A0
:1005400082E008958FEF9FEF08958FEF9FEF08955A
:100550008091380290E09195819591090895CF930B
:10056000DF93CB01EA01642F0E947A02CE01DF9172
:10057000CF910895CF93DF931F92CDB7DEB76983F4
:1005800061E0CE0101960E947A0281E090E00F9036
:10059000DF91CF910895089580E090E008950E9442
:1005A0001312CF93DF93FC0124A1222371F0EC01FD
:1005B0000E94D10988A799A79095991F9927991FFB
:1005C000892F90E0DF91CF910895FC0123A1222390
:1005D00031F08CEE92E0DF91CF910C948F01DF919E
:1005E000CF910C943702FC0124A1222351F020A5C5
:1005F00031A54FEF5FEF51A740A737FF0CC00C9418
:10060000D109FC0123A1222321F08CEE92E00C946D
:100610009C000C944F02C9010895FC0123A12223E0
:1006200021F08CEE92E00C94BA000C94E701FC01EE
:10063000848DDF01A80FB11DA35ABF4F2C91848D6B
:1006400090E001968F739927848FA689B7892C93A0
:10065000A089B1898C91837080648C93938D848DF3
:10066000981306C00288F389E02D80818F7D8083F6
:100670000895CF93DF93282F30E0F901EE58FF4F14
:100680008491F901E255FF4FD491F901E656FF4FED
:10069000C491CC2391F081110E94A501EC2FF0E0D0
:1006A000EE0FFF1FEA57FF4FA591B491EC91ED2398
:1006B00081E090E021F480E002C080E090E0DF91F2
:1006C000CF9108951F93CF93DF93282F30E0F90146
:1006D000EE58FF4F8491F901E255FF4FD491F90193
:1006E000E656FF4FC491CC23C1F0162F81110E9412
:1006F000A501EC2FF0E0EE0FFF1FE057FF4FA59193
:10070000B4919FB7F894111104C08C91D095D8235F
:1007100002C0EC91DE2BDC939FBFDF91CF911F9144
:100720000895CF93DF9390E0FC01E255FF4F2491B1
:10073000FC01E656FF4F8491882361F190E0880F19
:10074000991FFC01E859FF4FC591D491FC01E05776
:10075000FF4FA591B491611109C09FB7F8948881AA
:10076000209582238883EC912E230BC0623061F4A4
:100770009FB7F8948881322F309583238883EC913A
:100780002E2B2C939FBF06C08FB7F894E8812E2B99
:1007900028838FBFDF91CF9108951F93CF93DF936D
:1007A000182FEB0161E00E949103209711F460E0A3
:1007B00004C0CF3FD10539F461E0812FDF91CF91A3
:1007C0001F910C946203E12FF0E0EE58FF4FE4918B
:1007D000E330F9F048F4E130B9F0E230A1F584B546
:1007E000806284BDC8BD34C0E730E9F0E83019F15B
:1007F000E43049F580918000806280938000D0933E
:100800008B00C0938A0024C084B5806884BDC7BDB6
:100810001FC080918000806880938000D093890001
:10082000C093880015C08091B00080688093B000AC
:10083000C093B3000DC08091B00080628093B0007F
:10084000C093B40005C0C038D1050CF0B5CFAFCF10
:10085000DF91CF911F9108953FB7F8948091E802FE
:100860009091E902A091EA02B091EB0226B5A89B13
:1008700005C02F3F19F00196A11DB11D3FBFBA2F32
:10088000A92F982F8827820F911DA11DB11DBC0192
:10089000CD0142E0660F771F881F991F4A95D1F757
:1008A00008952FB7F8946091E4027091E502809169
:1008B000E6029091E7022FBF08951F920F920FB6A4
:1008C0000F9211242F933F938F939F93AF93BF93D6
:1008D0008091E4029091E502A091E602B091E702D6
:1008E0003091E30223E0230F2D3720F40196A11D60
:1008F000B11D05C026E8230F0296A11DB11D20934E
:10090000E3028093E4029093E502A093E602B093A1
:10091000E7028091E8029091E902A091EA02B09189
:10092000EB020196A11DB11D8093E8029093E902AC
:10093000A093EA02B093EB02BF91AF919F918F9188
:100940003F912F910F900FBE0F901F9018951F92FF
:100950000F920FB60F9211242F933F934F935F93F3
:100960006F937F938F939F93AF93BF93EF93FF9377
:10097000E091F803F091F903309709F451C0968D96
:10098000A685B785858591FF04C09C91892329F4AC
:1009900047C09C91892309F043C0A389B4899C91E5
:1009A0008589809589238C93868997890197F1F7AA
:1009B000608D718DA685B785558538E020E0CB0127
:1009C0000197F1F7822F90E095958795282F4C910C
:1009D000452309F02068315091F7868D81FD2095DF
:1009E0008091910190E001968F7399273091900149
:1009F000381749F0A0919101B0E0AD55BD4F2C934F
:100A00008093910103C0868D8160868F828D938D46
:100A10000197F1F7A389B4899C918589892B8C93DF
:100A2000FF91EF91BF91AF919F918F917F916F91C6
:100A30005F914F913F912F910F900FBE0F901F909C
:100A400018951F920F920FB60F9211242F933F9378
:100A50004F935F936F937F938F939F93AF93BF93C6
:100A6000EF93FF938091B900887F803609F49CC092
:100A700068F5883209F45BC090F4803109F454C001
:100A800038F4882309F4F2C0883009F44DC0F2C06C
:100A9000883109F44CC0803209F45DC0EBC0803469
:100AA00009F468C048F4803309F455C0883309F06C
:100AB000E1C080937C02D4C0803509F44FC08835F2
:100AC00009F45DC0883409F0D5C0D2C0883909F472
:100AD000C3C0A8F4883709F467C038F4883609F42D
:100AE00063C0803709F460C0C5C0883809F4B4C059
:100AF000803909F45FC0803809F0BCC05BC0803B1E
:100B000009F484C038F4803A09F466C0883A09F4DC
:100B10007DC0B0C0803C09F4A3C0883C09F4A0C0EB
:100B2000883B09F486C0A6C08091A20210C09091B3
:100B3000A1028091A002981770F5E091A10281E0D6
:100B40008E0F8093A102F0E0E058FD4F80818093EA
:100B5000BB0085EC82C080937C028AC0E091A10238
:100B600081E08E0F8093A1028091BB00F0E0E058FD
:100B7000FD4F80839091A1028091A0026AC0E09114
:100B8000A10281E08E0F8093A1028091BB00F0E072
:100B9000E058FD4F808380917F02811169C081E020
:100BA00080937E0284EA5DC083E080937D02109290
:100BB0007B02CFCF80917B02803208F04DC0E09164
:100BC0007B0281E08E0F80937B028091BB00F0E07E
:100BD000E55AFD4F8083BDCF85EC8093BC00109219
:100BE0007D0280917B02803230F4E0917B02F0E064
:100BF000E55AFD4F108260917B0270E08BE592E038
:100C0000E0E0F0E0099510927B0234C084E080932C
:100C10007D0210925A0210925902E0E0F0E009952C
:100C200080915902811105C081E080935902109290
:100C30003902E0915A0281E08E0F80935A02F0E06F
:100C4000E75CFD4F80818093BB0090915A028091B8
:100C50005902981708F47DCF85E88093BC000AC03C
:100C600085EC8093BC0010927D0204C010927C023F
:100C70000E947002FF91EF91BF91AF919F918F9170
:100C80007F916F915F914F913F912F910F900FBE88
:100C90000F901F9018951F920F920FB60F9211246C
:100CA0002F933F938F939F93EF93FF9380913702FE
:100CB00087FF05C0109285001092840005C08091C6
:100CC000370287FD80913702809137028F5F8093D2
:100CD00037028091370287FF20C0809137028C3025
:100CE000E4F4209184003091850080913702082E31
:100CF000000C990BFC01EE0FFF1F8E0F9F1FFC01D4
:100D0000ED5EFD4F81819281820F931F9093890048
:100D1000809388008091370217C080918400909161
:100D20008500049680349C4918F480E49CE905C051
:100D3000809184009091850004969093890080931F
:100D400088008FEF80933702FF91EF919F918F91F1
:100D50003F912F910F900FBE0F901F9018951F92EB
:100D60000F920FB60F9211240F931F932F933F935F
:100D70004F935F936F937F938F939F93AF93BF93A3
:100D8000CF93EF93FF9382E00E943903C82F8091A5
:100D9000AC019091AD0101969093AD018093AC01AF
:100DA00080911202843618F085E08093A70180912B
:100DB000A701833079F018F4823039F072C08430A2
:100DC00011F1853009F44AC06CC0C1116AC010929B
:100DD000120229C0C13009F064C0E091120281E022
:100DE0008E0F80931202F0E08091AC019091AD01E2
:100DF000EA55FE4F80871092AD011092AC0184E05D
:100E00008093A7014EC0C11114C0E091120281E08D
:100E10008E0F80931202F0E08091AC019091AD01B1
:100E2000EA55FE4F80871092AD011092AC0183E02D
:100E3000E7CF8091AC019091AD018536910588F1A5
:100E400085E08093A7010E9451046093A8017093EC
:100E5000A9018093AA019093AB0123C00E94510481
:100E60000091A8011091A9012091AA013091AB0134
:100E7000DC01CB01801B910BA20BB30B893C9105CC
:100E8000A105B10540F0109212021092AD0110922E
:100E9000AC0182E0B5CFC11104C01092AD01109237
:100EA000AC01FF91EF91CF91BF91AF919F918F9145
:100EB0007F916F915F914F913F912F911F910F9172
:100EC0000F900FBE0F901F9018950F931F93CF9305
:100ED000DF938C016F3F710519F014F06FEF70E034
:100EE000EB0161307F4F14F4C1E0DFEFF801868140
:100EF0009781C817D90761F1D783C68361E0D7FD11
:100F00000EC081810E94910361E0F80181810E94FD
:100F100062038FE090E00197F1F7BE0111C0F80184
:100F200081810E94910360E0F80181810E94620347
:100F30008FE090E00197F1F7662777276C1B7D0B18
:100F4000F8018081DF91CF911F910F910C94CD0317
:100F5000DF91CF911F910F91089560E070E080EFD5
:100F600093E00E94650760E070E088EE93E00C94E7
:100F70006507CF92DF92EF92FF920F931F93CF936B
:100F8000DF936C017A018B01C0E0D0E0CE15DF0564
:100F900081F0D8016D918D01D601ED91FC91019008
:100FA000F081E02DC6010995892B11F02196EECF35
:100FB0007E01C701DF91CF911F910F91FF90EF90BC
:100FC000DF90CF900895CF92DF92EF92FF926B0166
:100FD0007C01E091FC02F091FD0282E08083C1146B
:100FE00081EED806E104F104B1F060E079E08DE330
:100FF00090E0A70196010E94A50FDA01C9010197AF
:10100000A109B109B695A795979587959C012115DA
:1010100080E13807B8F0E091FC02F091FD02108207
:1010200060E874E88EE190E0A70196010E94A50FA8
:10103000DA01C9010197A109B109B695A79597955C
:1010400087959C01E091F802F091F9023083E091DC
:10105000FA02F091FB02208310920403E091000356
:10106000F091010386E08083E091FE02F091FF029F
:10107000808180618083E091FE02F091FF02808197
:1010800088608083E091FE02F091FF028081806899
:101090008083E091FE02F091FF0280818F7D80834A
:1010A000FF90EF90DF90CF9008956115710579F072
:1010B000FB0101900020E9F73197AF01461B570B68
:1010C000DC01ED91FC910280F381E02D099480E038
:1010D00090E008958F929F92AF92BF92EF92FF920D
:1010E0000F931F93CF93DF93CDB7DEB7A1970FB6C2
:1010F000F894DEBF0FBECDBF7C01FA01CB0119A26F
:10110000223008F42AE08E010F5D1F4F822E912CB1
:10111000A12CB12CBF01A50194010E94A50FF901DA
:10112000CA01015011096A3014F4605D01C0695CA4
:10113000D8016C93232B242B252B61F7B801C70111
:101140000E945508A1960FB6F894DEBF0FBECDBF22
:10115000DF91CF911F910F91FF90EF90BF90AF90D3
:101160009F908F900895CF92DF92EF92FF920F930E
:101170001F93CF93DF93C091E503D091E6030E94C4
:1011800051040091D5031091D6032091D7033091DB
:10119000D8036B017C01C01AD10AE20AF30A970155
:1011A0008601093011052105310508F475C06093E9
:1011B000D5037093D6038093D7039093D80360E050
:1011C0008091D2030E9491038091D2038E3008F067
:1011D0008E508770806480937C0080917A00806458
:1011E00080937A0080917A0086FDFCCF8091780010
:1011F0002091790090E0922B4091D9035091DA032D
:101200006091DB037091DC03452B462B472B69F47F
:10121000AC01092E000C660B770B4093E103509351
:10122000E2036093E3037093E4034091E103509180
:10123000E2036091E3037091E403841B950B97FF35
:1012400003C091958195910944979CF48091DD03A9
:101250009091DE03A091DF03B091E0030196A11D00
:10126000B11D8093DD039093DE03A093DF03B09361
:10127000E0038091D9039091DA03A091DB03B09150
:10128000DC030196A11DB11D8093D9039093DA036D
:10129000A093DB03B093DC038091D9039091DA0330
:1012A000A091DB03B091DC030597A105B10571F5B1
:1012B0001092D9031092DA031092DB031092DC0330
:1012C0008091DD039091DE03A091DF03B091E003F4
:1012D0000397A105B10570F08091E1039091E203BD
:1012E000A091E303B091E403EC019093E6038093B3
:1012F000E50304C0C091E503D091E6031092DD033D
:101300001092DE031092DF031092E003CE0164E638
:1013100070E00E94FE0F6830710528F4FB01E75F62
:10132000FE4F808101C080E0DF91CF911F910F912E
:10133000FF90EF90DF90CF9008950F931F930E943E
:101340005104609302047093030480930404909307
:1013500005048AEF93E00E94F30297FF1FC00E94EA
:10136000510400910204109103042091040430916F
:101370000504DC01CB01801B910BA20BB30B009188
:10138000FE031091FF0320910004309101048017A7
:101390009107A207B307E8F28FEF9FEF1F910F911C
:1013A0000895AF92BF92CF92DF92EF92FF920F9388
:1013B0001F93CF93DF93FC01E6A0F7A0F3E0EF1AB1
:1013C000F1086C0126E7C20ED11CF60180810E9453
:1013D0003903892B69F5E701CC0FDD1FCC0FDD1F29
:1013E000259700E010E0A12CB12CF2E0EF16F104FB
:1013F00018F0CE010197F1F7F60180810E943903C0
:101400000A2C02C0880F991F0A94E2F7082B192BA7
:10141000FFEFAF1ABF0A28E0A216B10431F782E04D
:10142000E816F10410F02197F1F7C801992702C0DE
:101430008FEF9FEFDF91CF911F910F91FF90EF9072
:10144000DF90CF90BF90AF9008950F931F93CF93ED
:10145000DF93EC0188819981009729F02A813B81F3
:101460002617370788F48B016F5F7F4F0E944D115D
:10147000009761F0998388831B830A832C813D81C7
:10148000232B11F4FC01108281E001C080E0DF9188
:10149000CF911F910F910895EF92FF920F931F9399
:1014A000CF93DF93EC017B018A01BA010E94250AE8
:1014B0002881398181110DC02115310519F0C9012B
:1014C0000E94C410198218821D821C821B821A82FB
:1014D00006C01D830C83B701C9010E942A12CE01E8
:1014E000DF91CF911F910F91FF90EF900895FC0134
:1014F00011821082138212821582148240E050E021
:101500006AE671E00C944C0ACF93DF93CDB7DEB757
:101510002E970FB6F894DEBF0FBECDBF789484B57A
:10152000826084BD84B5816084BD85B5826085BDDF
:1015300085B5816085BD80916E00816080936E006D
:10154000109281008091810082608093810080915F
:101550008100816080938100809180008160809310
:1015600080008091B10084608093B1008091B000D0
:1015700081608093B00080917A00846080937A00CB
:1015800080917A00826080937A0080917A008160F5
:1015900080937A0080917A00806880937A0010921C
:1015A000C1001092CD031092CE031092CF0310927F
:1015B000D00310928B0310928C0310928D03109223
:1015C0008E030E9451044B015C012B013C0128EB6E
:1015D000420E2BE0521E611C711C0E9451046815C2
:1015E00079058A059B0528F0461657066806790690
:1015F000A0F78CEE92E09093CC038093CB0360E055
:1016000072EC81E090E00E94E3070E945104609335
:101610008B0370938C0380938D0390938E0369E505
:1016200071E08091CB039091CC030E9455080E94F9
:1016300051044B015C012B013C018AE0480E511C16
:10164000611C711C0E945104681579058A059B056F
:1016500028F04616570668067906A0F781E08093C1
:101660009F0385E18093E7038093D20386EB93E0A9
:101670009093E6038093E50388E090E09093210443
:101680008093200480911D04882339F060E072EC7F
:1016900081E090E00E94E3079EC010921504109232
:1016A0001404109213041092120410921104109258
:1016B00010048FE190E090931704809316049091AA
:1016C0000604963108F058C021E030E03093110450
:1016D000209310042DE130E0309313042093120482
:1016E0002DE030E0309315042093140440916800FD
:1016F000983058F031E09E3008F430E021E0822F3D
:1017000001C0880F3A95EAF701C084E0842B8093EA
:101710006800983038F09E3040F0963148F020E074
:1017200030E008C02DE630E005C02BE630E002C016
:101730002CE630E030930E0420930D04983030F402
:1017400081E001C0880F9A95EAF70EC0292F30E09A
:101750009E3018F42850310902C02E50310981E022
:1017600001C0880F2A95EAF780930F048091160430
:10177000909117040197F1F780911404909115044A
:10178000892B49F1E091F803F091F90323E0EA3F56
:10179000F20709F1309739F0A389B4899C918589C2
:1017A000809589238C93809118048E7F80931804F0
:1017B00010929101109290018AEF93E09093F903B7
:1017C0008093F803E0910D04F0910E0490818091D4
:1017D0000F04892B808394EF892E99249394A12C54
:1017E000B12C332433940E945104672B682B692B4E
:1017F00041F40E945104623071058105910508F49D
:101800000FC10E9451040091920110919301209107
:10181000940130919501601771078207930740F496
:10182000609392017093930180939401909395013A
:1018300000919201109193012091940130919501B2
:101840006B017C01C01AD10AE20AF30A97018601F2
:101850000A3F11052105310508F4E2C060939201A9
:1018600070939301809394019093950180929703D4
:1018700090929803A0929903B0929A0310929B03BE
:1018800010929C0310929D0310929E0380918F03EF
:1018900090919003A0919103B09192038093930350
:1018A00090939403A0939503B09396030E945104E0
:1018B00060938F03709390038093910390939203AE
:1018C0000E94510460938B0370938C0380938D036B
:1018D00090938E030E9451042B013C016BE671E052
:1018E0008091CB039091CC030E9455082AE041E0FF
:1018F00050E060E070E08091CB039091CC030E94B7
:101900006A0862E771E08091CB039091CC030E945A
:1019100055082AE0B301A2018091CB039091CC033A
:101920000E946A0864E771E08091CB039091CC0338
:101930000E94550880918F0390919003A09191038C
:10194000B0919203B301A201481B590B6A0B7B0BA8
:101950002AE08091CB039091CC030E946A0864E74F
:1019600071E08091CB039091CC030E945508409187
:101970008F03509190036091910370919203809135
:10198000930390919403A0919503B0919603481B03
:10199000590B6A0B7B0B2AE08091CB039091CC030F
:1019A0000E946A0866E771E08091CB039091CC03B6
:1019B0000E9455080E945104AB01BC012AE08091AD
:1019C000CB039091CC030E946A080091CB03109145
:1019D000CC0368E771E0C8010E94550868E671E031
:1019E000C8010E9455080E9451042B013C016B0163
:1019F0007C0125E0C20ED11CE11CF11C0E945104A7
:101A0000641575058605970508F007C10E94510405
:101A100060938F037093900380939103909392034C
:101A20000E94B308882371F080910001882351F04F
:101A300010920001809102018F5F823008F4F4C09F
:101A4000109202010E94B308811105C0809100012B
:101A5000882309F4ECC080910201882331F08130A1
:101A600009F0D6C00E94AD07D3C080910101882340
:101A7000B9F161E87FEF80EF93E00E94650761E8CC
:101A80007FEF88EE93E00E9465070E942C046B01B3
:101A90007C0182EC482E55245394612C712C0E94B9
:101AA0002C04DC01CB018C199D09AE09BF09883ECD
:101AB0009340A105B10598F381E0481A51086108E7
:101AC000710828EEC20E23E0D21EE11CF11C411465
:101AD00051046104710419F70E94AD0710920101CD
:101AE000CE0107960E94770A8AEF93E00E94D10206
:101AF000181619060CF04FC08AEF93E00E94F3020B
:101B0000181619060CF047C0CE0101960E94770AFC
:101B10000E949D096D817E8197FD1AC08D871E866A
:101B20008B010F5F1F4FB801CE0101960E94250A5D
:101B3000882371F329813A818D819E81BE01635F83
:101B40007F4F820F931F0E942A121E830D83E0CFC6
:101B500009811A8101151105C9F061157105B1F0EE
:101B6000CB84DC84C60ED71EB601CE0107960E9438
:101B7000250A882359F02F8138858B859C85B801EB
:101B8000820F931F0E942A12DC86CB8689819A815C
:101B90000E94C410B1CF8B859C85892BA1F10F8148
:101BA00018856FE771E0C8010E942112892B69F442
:101BB00061E87FEF80EF93E00E9465076FE770E0D8
:101BC00088EE93E00E94650709C069E871E0C801EA
:101BD0000E942112892B11F40E94AD071A821982EA
:101BE0001C821B821E821D826F81788561157105A2
:101BF00031F04B855C85CE0101960E944C0A8981AB
:101C00009A810E94C4108F8198850E94C41002C0DE
:101C10000E94AD070E949B01E6CDC616D706E806D6
:101C2000F90608F0EBCEF2CE809302010BCF309292
:101C3000000111CF80916804909169040E94C41042
:101C400089E391E09093FB038093FA038091F8037A
:101C50009091F9038A5F934071F4E0910D04F09143
:101C60000E04908180910F048095892380831092C7
:101C7000F9031092F80308950F931F93CF93DF9306
:101C80001092EF021092EE0288EE93E0A0E0B0E036
:101C90008093F0029093F102A093F202B093F302CA
:101CA00025E131E03093ED022093EC0225EC30E0A9
:101CB0003093F9022093F80224EC30E03093FB02D9
:101CC0002093FA0220EC30E03093FD022093FC02D6
:101CD00021EC30E03093FF022093FE0222EC30E052
:101CE000309301032093000326EC30E0309303038C
:101CF000209302031092050310920603109207032B
:101D00001092080310928F03109290031092910387
:101D100010929203109293031092940310929503E1
:101D200010929603109297031092980310929903C1
:101D300010929A0310929B0310929C0310929D03A1
:101D400010929E031092750410927404809376048E
:101D500090937704A0937804B093790427E231E05C
:101D6000309373042093720421E030E030938D04AB
:101D700020938C0410928E0510928F05109290057E
:101D8000109291051092920510929305109294056D
:101D9000109295051092960510929705109298054D
:101DA0001092990510929A0510929B0510929D052C
:101DB00010929C0510929E0510929F051092A0050E
:101DC0001092A1051092A2051092A3051092A405ED
:101DD0001092A5051092A60526E02093F00327E0B7
:101DE0002093F10329E02093F20325E02093E803F8
:101DF00024E02093E9032AE02093EA0320E12093E2
:101E00007E0421E120937F0423E02093800410923C
:101E1000D1031092D2031092D3031092190410929E
:101E20001A0410921B041092FD031092FC0380937D
:101E3000FE039093FF03A0930004B093010489E391
:101E400091E09093FB038093FA0310921104109297
:101E500010041092130410921204109215041092A0
:101E600014041092170410921604609118046E7FE7
:101E70006D7F609318046695617081E0682780E04B
:101E80000E94620361E080E00E9491030EEA10E08C
:101E9000F801849180930A04CAE9D0E0FE0184919C
:101EA000E82FF0E0EE0FFF1FE057FF4F8591949170
:101EB00090930C0480930B0460E080E00E949103F7
:101EC0008091180481FD04C061E080E00E946203FB
:101ED00010920604F801049100930704FE01C491D6
:101EE000EC2FF0E0EE0FFF1FEA57FF4F8591949122
:101EF00090930904809308048BE491E09093FB0392
:101F00008093FA0388E694E00E94770A10921F04F7
:101F100010921E0480911A04809370048091190419
:101F20008093710481E090911B04953009F080E06A
:101F300080931D048BE491E09093FB038093FA035C
:101F4000DF91CF911F910F910895A1E21A2EAA1B44
:101F5000BB1BFD010DC0AA1FBB1FEE1FFF1FA21759
:101F6000B307E407F50720F0A21BB30BE40BF50B56
:101F7000661F771F881F991F1A9469F760957095DF
:101F8000809590959B01AC01BD01CF0108952F92E2
:101F90003F924F925F926F927F928F929F92AF92F9
:101FA000BF92CF92DF92EF92FF920F931F93CF9346
:101FB000DF93CDB7DEB7CA1BDB0B0FB6F894DEBFDD
:101FC0000FBECDBF09942A88398848885F846E8403
:101FD0007D848C849B84AA84B984C884DF80EE804D
:101FE000FD800C811B81AA81B981CE0FD11D0FB656
:101FF000F894DEBF0FBECDBFED01089597FB072E0D
:1020000016F4009407D077FD09D00E94121007FC47
:1020100005D03EF4909581959F4F089570956195F8
:102020007F4F0895AA1BBB1B51E107C0AA1FBB1F0E
:10203000A617B70710F0A61BB70B881F991F5A9554
:10204000A9F780959095BC01CD010895EE0FFF1F73
:102050000590F491E02D09940F931F93CF93DF9394
:102060008230910510F482E090E0E091A905F091B2
:10207000AA0520E030E0A0E0B0E0309719F14081FF
:1020800051810281138148175907C8F084179507B9
:1020900069F4109731F012960C93129713961C93D3
:1020A00027C00093A9051093AA0522C02115310568
:1020B00019F04217530718F49A01BD01EF01DF012F
:1020C000F801DBCF21153105F9F0281B390B24303D
:1020D000310580F48A819B816115710521F0FB0136
:1020E0009383828304C09093AA058093A905FE017F
:1020F000329644C0FE01E20FF31F81939193225068
:102100003109398328833AC02091A7053091A80569
:10211000232B41F420910501309106013093A8054D
:102120002093A70520910301309104012115310569
:1021300041F42DB73EB74091070150910801241B8F
:10214000350BE091A705F091A805E217F307A0F47D
:102150002E1B3F0B2817390778F0AC014E5F5F4FFD
:102160002417350748F04E0F5F1F5093A805409382
:10217000A7058193919302C0E0E0F0E0CF01DF91E9
:10218000CF911F910F910895CF93DF93009709F49A
:1021900081C0FC01329713821282A091A905B091EF
:1021A000AA05109781F420813181820F931F20911D
:1021B000A7053091A8052817390751F5F093A80510
:1021C000E093A70567C0ED0120E030E0CE17DF0700
:1021D00040F44A815B819E0141155105F1F0EA010D
:1021E000F5CFD383C28340815181840F951FC817D7
:1021F000D90759F488819981840F951F029691839C
:1022000080838A819B81938382832115310529F400
:10221000F093AA05E093A9053DC0E901FB83EA8399
:1022200049915991C40FD51FEC17FD0761F48081C6
:102230009181840F951F0296E90199838883828199
:1022400093819B838A83E0E0F0E012968D919C91CC
:102250001397009719F0FD01DC01F7CF8D919C9148
:1022600011979D012E5F3F4F820F931F2091A7056D
:102270003091A8052817390769F4309729F410928E
:10228000AA051092A90502C013821282B093A80574
:10229000A093A705DF91CF910895A0E0B0E0E3E51A
:1022A000F1E10C94CB0FEC01009721F4CB010E94DB
:1022B0002C10B4C0FC01E60FF71F9C01225031091D
:1022C000E217F30708F4A8C0D9010D911C911197EA
:1022D00006171707B0F00530110508F49BC0C801B8
:1022E00004978617970708F495C002501109061B3A
:1022F000170B019311936D937C93CF010E94C4102F
:1023000089C05B01A01AB10A4C01800E911EA091F8
:10231000A905B091AA05612C712CE12CF12C109724
:1023200009F446C08D919C911197A815B905B1F596
:102330006C0142E0C40ED11CCA14DB0478F14C01DC
:102340008A189B08640142E0C40ED11C1296BC900E
:1023500012971396AC91B5E0CB16D10440F0B2823F
:10236000A38391828082D9016D937C9309C00E5F13
:102370001F4F800F911FF90191838083EB2DFA2F5E
:10238000E114F10431F0D7011396FC93EE93129708
:1023900041C0F093AA05E093A9053CC068167906F0
:1023A00008F43C017D0112960D90BC91A02DB7CF91
:1023B0008091A7059091A80588169906E1F4661604
:1023C0007706C8F48091030190910401009741F4CD
:1023D0008DB79EB74091070150910801841B950B62
:1023E000E817F907C8F4F093A805E093A705F901E9
:1023F000718360830FC0CB010E942C107C01009779
:1024000059F0A801BE010E941812CE010E94C4100A
:10241000C70104C0CE0102C080E090E0CDB7DEB7B6
:10242000EEE00C94E70F81E090E0F8940C94311208
:10243000FB01DC0102C001900D9241505040D8F7E1
:102440000895FB01DC018D91019080190110D9F3F1
:10245000990B0895FB01DC0101900D920020E1F73A
:10246000089510E0C2E6D0E004C0FE010E942610EC
:0C2470002196C336D107C9F7F894FFCFBE
:10247C000101FF0000AB0580000100000002020317
:10248C000400000000BA00B9078D0007018F019C01
:10249C0000810100000000BA02AF02CC02E601A8E4
:1024AC0002A502A20200000000E701B907CC02E677
:1024BC000137024F02CE01000000000D03B907CC1A
:1024CC0002E601D102F302CE01564D4450565F3163
:1024DC007C315F564D4450560D0A00564D445045C4
:1024EC005F003A323A007C005F564D445045005232
:1024FC00756E4D6F746F7273004C696A65766F0000
:107E0000112484B714BE81FFF0D085E080938100F7
:107E100082E08093C00088E18093C10086E0809377
:107E2000C20080E18093C4008EE0C9D0259A86E02C
:107E300020E33CEF91E0309385002093840096BBD3
:107E4000B09BFECF1D9AA8958150A9F7CC24DD24C4
:107E500088248394B5E0AB2EA1E19A2EF3E0BF2EE7
:107E6000A2D0813461F49FD0082FAFD0023811F036
:107E7000013811F484E001C083E08DD089C08234E0
:107E800011F484E103C0853419F485E0A6D080C0E4
:107E9000853579F488D0E82EFF2485D0082F10E0AE
:107EA000102F00270E291F29000F111F8ED06801E7
:107EB0006FC0863521F484E090D080E0DECF843638
:107EC00009F040C070D06FD0082F6DD080E0C81688
:107ED00080E7D80618F4F601B7BEE895C0E0D1E017
:107EE00062D089930C17E1F7F0E0CF16F0E7DF06D8
:107EF00018F0F601B7BEE89568D007B600FCFDCFD4
:107F0000A601A0E0B1E02C9130E011968C91119780
:107F100090E0982F8827822B932B1296FA010C0160
:107F200087BEE89511244E5F5F4FF1E0A038BF0790
:107F300051F7F601A7BEE89507B600FCFDCF97BE46
:107F4000E89526C08437B1F42ED02DD0F82E2BD052
:107F50003CD0F601EF2C8F010F5F1F4F84911BD097
:107F6000EA94F801C1F70894C11CD11CFA94CF0C13
:107F7000D11C0EC0853739F428D08EE10CD085E9AC
:107F80000AD08FE07ACF813511F488E018D01DD067
:107F900080E101D065CF982F8091C00085FFFCCF94
:107FA0009093C60008958091C00087FFFCCF809118
:107FB000C00084FD01C0A8958091C6000895E0E648
:107FC000F0E098E1908380830895EDDF803219F02E
:107FD00088E0F5DFFFCF84E1DECF1F93182FE3DFCA
:107FE0001150E9F7F2DF1F91089580E0E8DFEE27F6
:047FF000FF270994CA
:027FFE00040479
:0400000300007E007B
:00000001FF