:100000000C945D000C9485000C9485000C94850084
:100010000C9485000C9485000C9485000C94E704E6
:100020000C9485000C9485000C9485000C9483043A
:100030000C9485000C9485000C9485000C9485002C
:100040000C940F030C9485000C94DD020C94B70201
:100050000C9485000C9485000C9485000C9485000C
:100060000C9459030C948500000000002300260026
:10007000290000000000250028002B0004040404CF
:100080000404040402020202020203030303030342
:10009000010204081020408001020408102001021F
:1000A00004081020000000080002010000030407FB
:1000B0000000000000000000B60511241FBECFEFB5
:1000C000D8E0DEBFCDBF11E0A0E0B1E0ECECF0E1A4
:1000D00002C005900D92AA34B107D9F724E0AAE432
:1000E000B1E001C01D92A037B207E1F710E0CDE505
:1000F000D0E004C02197FE010E945908CC35D107F9
:10010000C9F70E9439060C9464080C940000CF9241
:10011000DF92EF92FF920F931F93CF93DF936C01C7
:100120007A018B01C0E0D0E0CE15DF0581F0D80167
:100130006D918D01D601ED91FC910190F081E02D42
:10014000C6010995892B11F02196EECF7E01C701DA
:10015000DF91CF911F910F91FF90EF90DF90CF90A3
:1001600008950895FC01538D448D252F30E0842F90
:1001700090E0821B930B541710F0CF9608950197CF
:100180000895FC01918D828D981761F0828DDF01B9
:10019000A80FB11D5D968C91928D9F5F9F73928F7A
:1001A00090E008958FEF9FEF0895FC01918D828D6F
:1001B000981731F0828DE80FF11D858D90E008953C
:1001C0008FEF9FEF0895FC01918D228D892F90E094
:1001D000805C9F4F821B91098F739927089584E655
:1001E00092E00E94E30021E0892B09F420E0822FB5
:1001F0000895FC01848DDF01A80FB11DA35ABF4FE4
:100200002C91848D90E001968F739927848FA68915
:10021000B7892C93A089B1898C91837080648C9369
:10022000938D848D981306C00288F389E02D808118
:100230008F7D80830895EF92FF920F931F93CF934A
:10024000DF93EC0181E0888F9B8D8C8D981305C026
:10025000E889F989808185FD26C0F62E0B8D10E096
:100260000F5F1F4F0F731127E02E8C8DE8120CC00B
:100270000FB607FCFACFE889F989808185FFF5CFB1
:10028000CE010E94F900F1CF8B8DFE01E80FF11D28
:10029000E35AFF4FF0829FB7F8940B8FEA89FB89EE
:1002A000808180620AC09FB7F894EE89FF896083DD
:1002B000E889F98980818370806480839FBF81E0B1
:1002C00090E0DF91CF911F910F91FF90EF900895F3
:1002D000CF93DF93EC01888D8823C9F0EA89FB89ED
:1002E000808185FD05C0A889B9898C9186FD0FC0E4
:1002F0000FB607FCF5CF808185FFF2CFA889B989B9
:100300008C9185FFEDCFCE010E94F900E7CFDF9100
:10031000CF91089580E090E0892B29F00E94EF00B2
:1003200081110C9400000895833081F028F481300D
:1003300099F08230A1F008958730A9F08830B9F0A3
:100340008430D1F4809180008F7D03C08091800043
:100350008F7780938000089584B58F7702C084B52D
:100360008F7D84BD08958091B0008F7703C0809108
:10037000B0008F7D8093B00008951F93CF93DF93DB
:10038000282F30E0F901EC55FF4F8491F901E05737
:10039000FF4FD491F901E458FF4FC491CC23C1F031
:1003A000162F81110E949401EC2FF0E0EE0FFF1F39
:1003B000EE58FF4FA591B4919FB7F894111104C066
:1003C0008C91D095D82302C0EC91DE2BDC939FBF9B
:1003D000DF91CF911F9108952FB7F89460915C023F
:1003E00070915D0280915E0290915F022FBF08952F
:1003F00085ED8093BC008091BC0084FDFCCF109201
:100400003102089540910D02262F30E0240F311D56
:1004100021323105DCF4209131022430C9F4FC0191
:1004200080E090E0861758F430910D022191DC01B4
:10043000A351BE4FA30FB11D2C930196F3CF809112
:100440000D02680F60930D0280E0089581E0089529
:1004500082E008958FEF9FEF08958FEF9FEF08954B
:100460008091EC0190E09195819591090895CF9349
:10047000DF93CB01EA01642F0E940202CE01DF91DB
:10048000CF910895CF93DF931F92CDB7DEB76983E5
:1004900061E0CE0101960E94020281E090E00F909F
:1004A000DF91CF910895089580E090E0089561155F
:1004B000710579F0FB0101900020E9F73197AF0158
:1004C000461B570BDC01ED91FC910280F381E02D7E
:1004D000099480E090E008958F929F92AF92BF922E
:1004E000EF92FF920F931F93CF93DF93CDB7DEB7B9
:1004F000A1970FB6F894DEBF0FBECDBF7C01FA0105
:10050000CB0119A2223008F42AE08E010F5D1F4FA3
:10051000822E912CA12CB12CBF01A50194010E9427
:100520003708F901CA01015011096A3014F4605DFD
:1005300001C0695CD8016C93232B242B252B61F718
:10054000B801C7010E945702A1960FB6F894DEBF0A
:100550000FBECDBFDF91CF911F910F91FF90EF9014
:10056000BF90AF909F908F9008950E945F081F9258
:100570000F920FB60F9211242F933F934F935F93D7
:100580006F937F938F939F93AF93BF93EF93FF935B
:1005900084E692E00E94F900FF91EF91BF91AF9144
:1005A0009F918F917F916F915F914F913F912F918B
:1005B0000F900FBE0F901F9018951F920F920FB6BD
:1005C0000F9211242F938F939F93EF93FF93E091BA
:1005D0007402F09175028081E0917A02F0917B02C1
:1005E00082FD12C0908180917D028F5F8F73209178
:1005F0007E02821751F0E0917D02F0E0EC59FD4F50
:10060000958F80937D0201C08081FF91EF919F9132
:100610008F912F910F900FBE0F901F9018951F92E2
:100620000F920FB60F9211242F933F938F939F93A6
:10063000AF93BF9380915C0290915D02A0915E02A6
:10064000B0915F0230915B0223E0230F2D3720F43D
:100650000196A11DB11D05C026E8230F0296A11D1C
:10066000B11D20935B0280935C0290935D02A09386
:100670005E02B0935F028091570290915802A09160
:100680005902B0915A020196A11DB11D80935702E3
:1006900090935802A0935902B0935A02BF91AF9120
:1006A0009F918F913F912F910F900FBE0F901F90B0
:1006B00018951F920F920FB60F9211242F933F930C
:1006C0004F935F936F937F938F939F93AF93BF935A
:1006D000EF93FF938091B900887F803609F49CC026
:1006E00068F5883209F45BC090F4803109F454C095
:1006F00038F4882309F4F2C0883009F44DC0F2C000
:10070000883109F44CC0803209F45DC0EBC08034FC
:1007100009F468C048F4803309F455C0883309F0FF
:10072000E1C080933002D4C0803509F44FC08835D1
:1007300009F45DC0883409F0D5C0D2C0883909F405
:10074000C3C0A8F4883709F467C038F4883609F4C0
:1007500063C0803709F460C0C5C0883809F4B4C0EC
:10076000803909F45FC0803809F0BCC05BC0803BB1
:1007700009F484C038F4803A09F466C0883A09F470
:100780007DC0B0C0803C09F4A3C0883C09F4A0C07F
:10079000883B09F486C0A6C08091560210C0909193
:1007A000550280915402981770F5E091550281E04E
:1007B0008E0F80935502F0E0EC5CFD4F80818093BA
:1007C000BB0085EC82C0809330028AC0E091550264
:1007D00081E08E0F809355028091BB00F0E0EC5CCD
:1007E000FD4F808390915502809154026AC0E09140
:1007F000550281E08E0F809355028091BB00F0E09E
:10080000EC5CFD4F808380913302811169C081E0EF
:100810008093320284EA5DC083E0809331021092BB
:100820002F02CFCF80912F02803208F04DC0E0918F
:100830002F0281E08E0F80932F028091BB00F0E0A9
:10084000E15FFD4F8083BDCF85EC8093BC001092AB
:10085000310280912F02803230F4E0912F02F0E0DB
:10086000E15FFD4F108260912F0270E08FE092E017
:10087000E0E0F0E0099510922F0234C084E080930C
:10088000310210920E0210920D02E0E0F0E00995A4
:1008900080910D02811105C081E080930D021092BC
:1008A000ED01E0910E0281E08E0F80930E02F0E0E8
:1008B000E351FE4F80818093BB0090910E028091A6
:1008C0000D02981708F47DCF85E88093BC000AC01C
:1008D00085EC8093BC001092310204C0109230026B
:1008E0000E94F801FF91EF91BF91AF919F918F917D
:1008F0007F916F915F914F913F912F910F900FBE1C
:100900000F901F9018951F920F920FB60F921124FF
:100910002F933F938F939F93EF93FF938091EB01DE
:1009200087FF05C0109285001092840005C0809159
:10093000EB0187FD8091EB018091EB018F5F80934C
:10094000EB018091EB0187FF20C08091EB018C309F
:10095000E4F420918400309185008091EB01082E11
:10096000000C990BFC01EE0FFF1F8E0F9F1FFC0167
:10097000E953FE4F81819281820F931F90938900EA
:10098000809388008091EB0117C080918400909142
:100990008500049680349C4918F480E49CE905C0E5
:1009A00080918400909185000496909389008093B3
:1009B00088008FEF8093EB01FF91EF919F918F91D2
:1009C0003F912F910F900FBE0F901F9018951F927F
:1009D0000F920FB60F9211240F931F932F933F93F3
:1009E0004F935F936F937F938F939F93AF93BF9337
:1009F000CF93DF93EF93FF93E6EAF0E08491E2E98F
:100A0000F0E0D491EEE7F0E0C491CC2379F08111CD
:100A10000E949401EC2FF0E0EE0FFF1FE859FF4F0A
:100A2000A591B491EC91ED23C1E009F4C0E080916F
:100A30006001909161010196909361018093600142
:100A40008091C601843618F085E080935B01809127
:100A50005B01833079F018F4823039F072C0843051
:100A600011F1853009F44AC06CC0C1116AC01092FE
:100A7000C60129C0C13009F064C0E091C60181E01F
:100A80008E0F8093C601F0E080916001909161012A
:100A9000E65AFE4F8087109261011092600184E057
:100AA00080935B014EC0C11114C0E091C60181E08A
:100AB0008E0F8093C601F0E08091600190916101FA
:100AC000E65AFE4F8087109261011092600183E028
:100AD000E7CF80916001909161018536910588F1A1
:100AE00085E080935B010E94EC0160935C01709350
:100AF0005D0180935E0190935F0123C00E94EC0131
:100B000000915C0110915D0120915E0130915F01C7
:100B1000DC01CB01801B910BA20BB30B893C91052F
:100B2000A105B10540F01092C6011092610110922A
:100B3000600182E0B5CFC11104C010926101109232
:100B40006001FF91EF91DF91CF91BF91AF919F91A4
:100B50008F917F916F915F914F913F912F911F9155
:100B60000F910F900FBE0F901F901895E4E6F2E0E2
:100B70001382128288EE93E0A0E0B0E08483958334
:100B8000A683B78324E031E03183208325EC30E075
:100B90003587248724EC30E03787268720EC30E047
:100BA000318B208B21EC30E0338B228B22EC30E038
:100BB000358B248B26EC30E0378B268B118E128EF2
:100BC000138E148EE1E0F3E01682178210861186F0
:100BD000128613861486158616861786108A118A41
:100BE000128A138A148A158AE9E4F3E013821282C6
:100BF00084839583A683B78386E191E09183808384
:100C000081E090E09093560380935503109257042F
:100C1000109258041092590410925A0410925B04D6
:100C200010925C0410925D0410925E0410925F04B6
:100C30001092600410926104109262041092630496
:100C40001092640410926604109265041092670476
:100C5000109268041092690410926A0410926B0456
:100C600010926C0410926D0410926E0410926F0436
:100C70000895789484B5826084BD84B5816084BD14
:100C800085B5826085BD85B5816085BD80916E002A
:100C9000816080936E00109281008091810082605B
:100CA0008093810080918100816080938100809198
:100CB00080008160809380008091B1008460809387
:100CC000B1008091B00081608093B00080917A0083
:100CD000846080937A0080917A00826080937A00A9
:100CE00080917A00816080937A0080917A00806898
:100CF00080937A001092C10010924503109246032F
:100D000010924703109248031092030310920403B9
:100D100010920503109206030E94EC016B017C0106
:100D20004B015C0128EB820E2BE0921EA11CB11C32
:100D30000E94EC016C157D058E059F0528F0861636
:100D40009706A806B906A0F784E692E090934403BC
:100D500080934303E0917402F091750282E08083F6
:100D6000E0917002F09171021082E0917202F091B4
:100D7000730280E1808310927C02E0917802F0910E
:100D8000790286E08083E0917602F091770280819B
:100D900080618083E0917602F091770280818860A3
:100DA0008083E0917602F091770280818068808371
:100DB000E0917602F091770280818F7D80830E949E
:100DC000EC016093030370930403809305039093F5
:100DD000060364E271E080914303909144030E9412
:100DE00057020E94EC016B017C014B015C013AE06F
:100DF000830E911CA11CB11C0E94EC016C157D0599
:100E00008E059F0528F086169706A806B906A0F756
:100E100081E08093170384EF882E99249394A12C6A
:100E2000B12C0E94EC01672B682B692B41F40E94C6
:100E3000EC01623071058105910508F40FC10E9433
:100E4000EC01C0906002D0906102E0906202F090EC
:100E500063026C157D058E059F0540F4609360026A
:100E6000709361028093620290936302C09060026B
:100E7000D0906102E0906202F09063029B01AC01AD
:100E80002C193D094E095F0969017A013AEFC31631
:100E9000D104E104F10408F4E1C0609360027093AE
:100EA0006102809362029093630280920F0390929A
:100EB0001003A0921103B092120310921303109228
:100EC000140310921503109216038091070390915A
:100ED0000803A0910903B0910A0380930B03909338
:100EE0000C03A0930D03B0930E030E94EC016093DA
:100EF0000703709308038093090390930A030E94E9
:100F0000EC016093030370930403809305039093B3
:100F100006030E94EC016B017C0166E371E08091A5
:100F20004303909144030E9457022AE041E050E0BD
:100F300060E070E080914303909144030E946C0252
:100F40006DE371E080914303909144030E94570246
:100F50002AE0B701A60180914303909144030E94C7
:100F60006C026FE371E080914303909144030E940F
:100F700057028091070390910803A0910903B09153
:100F80000A03B701A601481B590B6A0B7B0B2AE029
:100F900080914303909144030E946C026FE371E0DF
:100FA00080914303909144030E94570240910703AC
:100FB000509108036091090370910A0380910B031B
:100FC00090910C03A0910D03B0910E03481B590B97
:100FD0006A0B7B0B2AE080914303909144030E94AB
:100FE0006C0261E471E080914303909144030E949C
:100FF00057020E94EC01AB01BC012AE0809143033F
:10100000909144030E946C02E0904303F0904403EB
:1010100063E471E0C7010E94570263E371E0C70116
:101020000E9457020E94EC016B017C012B013C01E4
:1010300045E0440E511C611C711C0E94EC016C15B2
:101040007D058E059F0568F40E94EC0160930703FF
:10105000709308038093090390930A030E948A0106
:10106000E0CE461657066806790638F7EDCFA1E2BE
:101070001A2EAA1BBB1BFD010DC0AA1FBB1FEE1F12
:10108000FF1FA217B307E407F50720F0A21BB30B5D
:10109000E40BF50B661F771F881F991F1A9469F7D9
:1010A00060957095809590959B01AC01BD01CF0135
:1010B0000895EE0FFF1F0590F491E02D099481E053
:0C10C00090E0F8940C946408F894FFCFC2
:1010CC00000000001B018700B2006801E300C100B2
:1010DC00D50000000000420237025402B100300279
:1010EC002D022A02564D4450565F317C315F564DCD
:1010FC004450560D0A00564D4450455F003A323A62
:0A110C00007C005F564D4450450082
:00000001FF
