:100000000C9463000C948B000C948B000C94EC0407
:100010000C94EC040C94EC040C948B000C94F406FB
:100020000C948B000C948B000C948B000C94900619
:100030000C948B000C948B000C948B000C948B0014
:100040000C94A2040C948B000C94C7010C94A10195
:100050000C948B000C948B000C948B000C948B00F4
:100060000C9466050C948B0000000000240027000F
:100070002A0000000008000201000003040700003D
:1000800000000000000000000000230026002900FE
:1000900000000000250028002B00040404040404D0
:1000A0000404020202020202030303030303010227
:1000B00004081020408001020408102001020408F6
:1000C0001020730E320E11241FBECFEFD8E0DEBF1A
:1000D000CDBF11E0A0E0B1E0E6E5F5E202C0059099
:1000E0000D92A23CB107D9F726E0A2ECB1E001C025
:1000F0001D92A730B207E1F710E0C2E6D0E004C0DD
:100100002197FE010E949310C136D107C9F70E94C2
:100110009C0A0C949E120C940000CF92DF92EF92F6
:10012000FF920F931F93CF93DF936C017A018B01A2
:10013000C0E0D0E0CE15DF0581F0D8016D918D01D2
:10014000D601ED91FC910190F081E02DC601099559
:10015000892B11F02196EECF7E01C701DF91CF915F
:100160001F910F91FF90EF90DF90CF900895FC01C9
:10017000538D448D252F30E0842F90E0821B930B0C
:10018000541710F0CF96089501970895FC01918DB2
:10019000828D981761F0828DDF01A80FB11D5D96E9
:1001A0008C91928D9F5F9F73928F90E008958FEF57
:1001B0009FEF0895FC01918D828D981731F0828D0B
:1001C000E80FF11D858D90E008958FEF9FEF089562
:1001D0008EE193E00E94F90121E0892B09F420E0EF
:1001E000822F0895EF92FF920F931F93CF93DF9387
:1001F000EC0181E0888F9B8D8C8D981305C0E88978
:10020000F989808185FD26C0F62E0B8D10E00F5FE9
:100210001F4F0F731127E02E8C8DE8120CC00FB604
:1002200007FCFACFE889F989808185FFF5CFCE01F7
:100230000E948103F1CF8B8DFE01E80FF11DE35A7F
:10024000FF4FF0829FB7F8940B8FEA89FB8980817A
:1002500080620AC09FB7F894EE89FF896083E889BD
:10026000F98980818370806480839FBF81E090E002
:10027000DF91CF911F910F91FF90EF900895CF9351
:10028000DF93EC01888D8823C9F0EA89FB8980819E
:1002900085FD05C0A889B9898C9186FD0FC00FB670
:1002A00007FCF5CF808185FFF2CFA889B9898C91B1
:1002B00085FFEDCFCE010E948103E7CFDF91CF9183
:1002C0000895EF92FF920F931F93CF93DF93EC016A
:1002D000198218821B821A821D821C826115710587
:1002E00049F18B01FB0101900020E9F731977F0173
:1002F000E61AF70AB7010E94700A28813981811134
:100300000DC02115310519F0C9010E943111198262
:1003100018821D821C821B821A820CC0FD82EC8214
:10032000B801C901DF91CF911F910F91FF90EF901C
:100330000C949712DF91CF911F910F91FF90EF9046
:1003400008951F920F920FB60F9211242F933F938F
:100350004F935F936F937F938F939F93AF93BF93CD
:10036000EF93FF938EE193E00E948103FF91EF9161
:10037000BF91AF919F918F917F916F915F914F91BD
:100380003F912F910F900FBE0F901F9018951F92C5
:100390000F920FB60F9211242F938F939F93EF9389
:1003A000FF93E0912E03F0912F038081E0913403BD
:1003B000F091350382FD12C09081809137038F5FE9
:1003C0008F7320913803821751F0E0913703F0E0EA
:1003D000E25EFC4F958F8093370301C08081FF91CF
:1003E000EF919F918F912F910F900FBE0F901F90C3
:1003F0001895FC01918D228D892F90E0805C9F4F94
:10040000821B91098F739927089580E090E0892BD2
:1004100029F00E94E80081110C94000008958330B7
:1004200081F028F4813099F08230A1F0089587306E
:10043000A9F08830B9F08430D1F4809180008F7DAC
:1004400003C0809180008F7780938000089584B5E9
:100450008F7702C084B58F7D84BD08958091B000F0
:100460008F7703C08091B0008F7D8093B000089596
:1004700020912A0430912B042817390771F49091A8
:10048000C2018091C301981741F0E091C201F0E0F0
:10049000EB52FD4F808190E008958FEF9FEF08951C
:1004A00008951F93CF93DF93DC015C968D919C910F
:1004B0005D97009739F421E030E013963C932E933A
:1004C00012973BC05196ED91FC91529750962C910A
:1004D0005097322F30951FB75E964C915E97742FD0
:1004E000727041FD6095F8944081772311F0422BA2
:1004F00001C043234083EC012197F1F748E050818C
:1005000060FF02C0522B01C053235083EC0121979E
:10051000F1F76695415099F78081772319F083238D
:10052000808302C0282B20831FBF5C968D919C91F5
:100530005D970197F1F781E090E0DF91CF911F91F6
:10054000089520912A0430912B042817390771F45B
:100550008091C3012091C20190E0805C9F4F821B7B
:10056000910960E470E00E946B10089580E090E0D3
:10057000089520912A0430912B0428173907B9F4E3
:100580009091C2018091C301981789F0E091C20156
:10059000F0E0EB52FD4F80812091C20130E02F5FEF
:1005A0003F4F2F7333272093C20190E008958FEFC0
:1005B0009FEF089585ED8093BC008091BC0084FD81
:1005C000FCCF1092AF02089540918B02262F30E0AD
:1005D000240F311D21323105DCF42091AF0224308B
:1005E000C9F4FC0180E090E0861758F430918B024A
:1005F0002191DC01A559BD4FA30FB11D2C9301968C
:10060000F3CF80918B02680F60938B0280E0089596
:1006100081E0089582E008958FEF9FEF08958FEFB6
:100620009FEF089580916A0290E0919581959109DC
:100630000895CF93DF93CB01EA01642F0E94E40277
:10064000CE01DF91CF910895CF93DF931F92CDB765
:10065000DEB7698361E0CE0101960E94E40281E089
:1006600090E00F90DF91CF910895089580E090E0A1
:1006700008950E948012CF93DF93FC0124A12223CE
:1006800071F0EC010E94EC0988A799A79095991F39
:100690009927991F892F90E0DF91CF910895FC0150
:1006A00023A1222331F08EE193E0DF91CF910C94CE
:1006B000F901DF91CF910C94A102FC0124A1222326
:1006C00051F020A531A54FEF5FEF51A740A737FFAD
:1006D0000CC00C94EC09FC0123A1222321F08EE133
:1006E00093E00C94C6000C94B902C9010895FC0172
:1006F00023A1222321F08EE193E00C94F2000C94CC
:100700005102FC01848DDF01A80FB11DA35ABF4F18
:100710002C91848D90E001968F739927848FA68900
:10072000B7892C93A089B1898C91837080648C9354
:10073000938D848D981306C00288F389E02D808103
:100740008F7D80830895CF93DF93282F30E0F901C8
:10075000EE58FF4F8491F901E255FF4FD491F90112
:10076000E656FF4FC491CC2391F081110E940F02F5
:10077000EC2FF0E0EE0FFF1FEA57FF4FA591B49169
:10078000EC91ED2381E090E021F480E002C080E074
:1007900090E0DF91CF9108951F93CF93DF93282F9F
:1007A00030E0F901EE58FF4F8491F901E255FF4F17
:1007B000D491F901E656FF4FC491CC23C1F0162F16
:1007C00081110E940F02EC2FF0E0EE0FFF1FE057A7
:1007D000FF4FA591B4919FB7F894111104C08C916B
:1007E000D095D82302C0EC91DE2BDC939FBFDF9124
:1007F000CF911F910895CF93DF9390E0FC01E255D4
:10080000FF4F2491FC01E656FF4F8491882361F14C
:1008100090E0880F991FFC01E859FF4FC591D491D2
:10082000FC01E057FF4FA591B491611109C09FB73A
:10083000F8948881209582238883EC912E230BC025
:10084000623061F49FB7F8948881322F309583230A
:100850008883EC912E2B2C939FBF06C08FB7F89402
:10086000E8812E2B28838FBFDF91CF9108951F93AE
:10087000CF93DF93182FEB0161E00E94FB032097D9
:1008800011F460E004C0CF3FD10539F461E0812F5D
:10089000DF91CF911F910C94CC03E12FF0E0EE5843
:1008A000FF4FE491E330F9F048F4E130B9F0E23081
:1008B000A1F584B5806284BDC8BD34C0E730E9F0DD
:1008C000E83019F1E43049F580918000806280932E
:1008D0008000D0938B00C0938A0024C084B58068C8
:1008E00084BDC7BD1FC08091800080688093800058
:1008F000D0938900C093880015C08091B0008068B3
:100900008093B000C093B3000DC08091B0008062AE
:100910008093B000C093B40005C0C038D1050CF07E
:10092000B5CFAFCFDF91CF911F9108952FB7F89436
:1009300060911A0370911B0380911C0390911D0319
:100940002FBF08951F920F920FB60F9211242F936D
:100950003F938F939F93AF93BF9380911A0390918E
:100960001B03A0911C03B0911D033091190323E0D8
:10097000230F2D3720F40196A11DB11D05C026E8D7
:10098000230F0296A11DB11D2093190380931A0312
:1009900090931B03A0931C03B0931D038091150338
:1009A00090911603A0911703B09118030196A11D11
:1009B000B11D8093150390931603A0931703B09372
:1009C0001803BF91AF919F918F913F912F910F90FD
:1009D0000FBE0F901F9018951F920F920FB60F9297
:1009E00011242F933F934F935F936F937F938F9334
:1009F0009F93AF93BF93EF93FF93E0912A04F091FD
:100A00002B04309709F451C0968DA685B78585854E
:100A100091FF04C09C91892329F447C09C918923AC
:100A200009F043C0A389B4899C9185898095892365
:100A30008C93868997890197F1F7608D718DA685D2
:100A4000B785558538E020E0CB010197F1F7822F7B
:100A500090E095958795282F4C91452309F02068C3
:100A6000315091F7868D81FD20958091C30190E0F2
:100A700001968F7399273091C201381749F0A091E0
:100A8000C301B0E0AB52BD4F2C938093C30103C0B0
:100A9000868D8160868F828D938D0197F1F7A38972
:100AA000B4899C918589892B8C93FF91EF91BF919B
:100AB000AF919F918F917F916F915F914F913F91F6
:100AC0002F910F900FBE0F901F9018951F920F92AD
:100AD0000FB60F9211242F933F934F935F936F9311
:100AE0007F938F939F93AF93BF93EF93FF938091E7
:100AF000B900887F803609F49CC068F5883209F413
:100B00005BC090F4803109F454C038F4882309F4B0
:100B1000F2C0883009F44DC0F2C0883109F44CC0ED
:100B2000803209F45DC0EBC0803409F468C048F439
:100B3000803309F455C0883309F0E1C08093AE02D8
:100B4000D4C0803509F44FC0883509F45DC08834BD
:100B500009F0D5C0D2C0883909F4C3C0A8F48837D9
:100B600009F467C038F4883609F463C0803709F4A3
:100B700060C0C5C0883809F4B4C0803909F45FC0CA
:100B8000803809F0BCC05BC0803B09F484C038F4F5
:100B9000803A09F466C0883A09F47DC0B0C0803C50
:100BA00009F4A3C0883C09F4A0C0883B09F486C0BE
:100BB000A6C08091D40210C09091D3028091D2023D
:100BC000981770F5E091D30281E08E0F8093D302E5
:100BD000F0E0EE54FD4F80818093BB0085EC82C035
:100BE0008093AE028AC0E091D30281E08E0F8093A1
:100BF000D3028091BB00F0E0EE54FD4F80839091D2
:100C0000D3028091D2026AC0E091D30281E08E0FBC
:100C10008093D3028091BB00F0E0EE54FD4F8083BF
:100C20008091B102811169C081E08093B00284EAB1
:100C30005DC083E08093AF021092AD02CFCF809170
:100C4000AD02803208F04DC0E091AD0281E08E0F20
:100C50008093AD028091BB00F0E0E357FD4F8083AD
:100C6000BDCF85EC8093BC001092AF028091AD02A5
:100C7000803230F4E091AD02F0E0E357FD4F108296
:100C80006091AD0270E08DE892E0E0E0F0E009955F
:100C90001092AD0234C084E08093AF0210928C02B7
:100CA00010928B02E0E0F0E0099580918B028111B7
:100CB00005C081E080938B0210926B02E0918C0260
:100CC00081E08E0F80938C02F0E0E559FD4F80812A
:100CD0008093BB0090918C0280918B02981708F44E
:100CE0007DCF85E88093BC000AC085EC8093BC0072
:100CF0001092AF0204C01092AE020E94DA02FF917D
:100D0000EF91BF91AF919F918F917F916F915F9183
:100D10004F913F912F910F900FBE0F901F901895FC
:100D20001F920F920FB60F9211242F933F938F9320
:100D30009F93EF93FF938091690287FF05C0109204
:100D400085001092840005C08091690287FD809122
:100D50006902809169028F5F8093690280916902C4
:100D600087FF20C0809169028C30E4F420918400D8
:100D70003091850080916902082E000C990BFC01CE
:100D8000EE0FFF1F8E0F9F1FFC01EB5BFD4F81815C
:100D90009281820F931F90938900809388008091A5
:100DA000690217C080918400909185000496803478
:100DB0009C4918F480E49CE905C0809184009091DE
:100DC0008500049690938900809388008FEF80932C
:100DD0006902FF91EF919F918F913F912F910F9019
:100DE0000FBE0F901F9018951F920F920FB60F9283
:100DF00011240F931F932F933F934F935F936F9300
:100E00007F938F939F93AF93BF93CF93EF93FF9372
:100E100082E00E94A303C82F8091DE019091DF0140
:100E200001969093DF018093DE0180914402843625
:100E300018F085E08093D9018091D901833079F051
:100E400018F4823039F072C0843011F1853009F421
:100E50004AC06CC0C1116AC01092440229C0C1309E
:100E600009F064C0E091440281E08E0F8093440257
:100E7000F0E08091DE019091DF01E852FE4F808723
:100E80001092DF011092DE0184E08093D9014EC000
:100E9000C11114C0E091440281E08E0F809344029E
:100EA000F0E08091DE019091DF01E852FE4F8087F3
:100EB0001092DF011092DE0183E0E7CF8091DE0126
:100EC0009091DF018536910588F185E08093D90105
:100ED0000E9496046093DA017093DB018093DC0139
:100EE0009093DD0123C00E9496040091DA011091D5
:100EF000DB012091DC013091DD01DC01CB01801BA5
:100F0000910BA20BB30B893C9105A105B10540F0F3
:100F1000109244021092DF011092DE0182E0B5CF00
:100F2000C11104C01092DF011092DE01FF91EF9118
:100F3000CF91BF91AF919F918F917F916F915F9171
:100F40004F913F912F911F910F910F900FBE0F90D6
:100F50001F9018950F931F93CF93DF938C016F3FD2
:100F6000710519F014F06FEF70E0EB0161307F4F05
:100F700014F4C1E0DFEFF80186819781C817D90723
:100F800061F1D783C68361E0D7FD0EC081810E94E5
:100F9000FB0361E0F80181810E94CC038FE090E0C7
:100FA0000197F1F7BE0111C0F80181810E94FB0396
:100FB00060E0F80181810E94CC038FE090E001970E
:100FC000F1F7662777276C1B7D0BF8018081DF9195
:100FD000CF911F910F910C943704DF91CF911F9106
:100FE0000F91089560E070E082E294E00E94AA0709
:100FF00060E070E08AE194E00C94AA07CF92DF925F
:10100000EF92FF926B017C01E0912E03F0912F0390
:1010100082E08083C11481EED806E104F104B1F0CE
:1010200060E079E08DE390E0A70196010E94121044
:10103000DA01C9010197A109B109B695A79597955C
:1010400087959C01211580E13807B8F0E0912E03C7
:10105000F0912F03108260E874E88EE190E0A70120
:1010600096010E941210DA01C9010197A109B10984
:10107000B695A795979587959C01E0912A03F091E5
:101080002B033083E0912C03F0912D0320831092E9
:101090003603E0913203F091330386E08083E091E0
:1010A0003003F0913103808180618083E0913003CF
:1010B000F0913103808188608083E0913003F0916A
:1010C0003103808180688083E0913003F0913103A7
:1010D00080818F7D8083FF90EF90DF90CF90089587
:1010E0006115710579F0FB0101900020E9F7319756
:1010F000AF01461B570BDC01ED91FC910280F3819F
:10110000E02D099480E090E008958F929F92AF9235
:10111000BF92EF92FF920F931F93CF93DF93CDB7C0
:10112000DEB7A1970FB6F894DEBF0FBECDBF7C012E
:10113000FA01CB0119A2223008F42AE08E010F5DDA
:101140001F4F822E912CA12CB12CBF01A50194011F
:101150000E941210F901CA01015011096A3014F4F9
:10116000605D01C0695CD8016C93232B242B252B77
:1011700061F7B801C7010E947008A1960FB6F894F4
:10118000DEBF0FBECDBFDF91CF911F910F91FF90BA
:10119000EF90BF90AF909F908F900895CF92DF9285
:1011A000EF92FF920F931F93CF93DF93C091170499
:1011B000D09118040E94960400910704109108042D
:1011C0002091090430910A046B017C01C01AD10AF4
:1011D000E20AF30A9701860109301105210531055C
:1011E00008F475C0609307047093080480930904A1
:1011F00090930A0460E0809104040E94FB038091B4
:1012000004048E3008F08E508770806480937C00D8
:1012100080917A00806480937A0080917A0086FDC4
:10122000FCCF809178002091790090E0922B409142
:101230000B0450910C0460910D0470910E04452B29
:10124000462B472B69F4AC01092E000C660B770B7B
:101250004093130450931404609315047093160480
:101260004091130450911404609115047091160478
:10127000841B950B97FF03C0919581959109449725
:101280009CF480910F0490911004A0911104B091EE
:1012900012040196A11DB11D80930F0490931004B8
:1012A000A0931104B093120480910B0490910C044C
:1012B000A0910D04B0910E040196A11DB11D809363
:1012C0000B0490930C04A0930D04B0930E04809132
:1012D0000B0490910C04A0910D04B0910E0405979D
:1012E000A105B10571F510920B0410920C04109237
:1012F0000D0410920E0480910F0490911004A0919F
:101300001104B09112040397A105B10570F080910A
:10131000130490911404A0911504B0911604EC01EB
:10132000909318048093170404C0C0911704D091BF
:10133000180410920F0410921004109211041092CD
:101340001204CE0164E670E00E946B1068307105F3
:1013500028F4FB01E85FFE4F808101C080E0DF914F
:10136000CF911F910F91FF90EF90DF90CF90089554
:101370000F931F930E94960460935E0470935F0422
:10138000809360049093610486E594E00E945D037D
:1013900097FF1FC00E94960400915E0410915F04A5
:1013A0002091600430916104DC01CB01801B910B22
:1013B000A20BB30B00915A0410915B0420915C04C2
:1013C00030915D0480179107A207B307E8F28FEF11
:1013D0009FEF1F910F910895AF92BF92CF92DF922E
:1013E000EF92FF920F931F93CF93DF93FC01E6A040
:1013F000F7A0F3E0EF1AF1086C0126E7C20ED11C4A
:10140000F60180810E94A303892B69F5E701CC0FC7
:10141000DD1FCC0FDD1F259700E010E0A12CB12CC3
:10142000F2E0EF16F10418F0CE010197F1F7F601A2
:1014300080810E94A3030A2C02C0880F991F0A947E
:10144000E2F7082B192BFFEFAF1ABF0A28E0A2160C
:10145000B10431F782E0E816F10410F02197F1F7BA
:10146000C801992702C08FEF9FEFDF91CF911F91A5
:101470000F91FF90EF90DF90CF90BF90AF900895C5
:10148000CF93DF93DC01ED91FC91EB01A881B98151
:10149000309711F01097C9F4109759F0EB012C8197
:1014A0003D81232B31F08C9190E0919581959109AC
:1014B00014C0309781F0DC0114968D919C911597A2
:1014C000892B49F0808190E008C0BD01CF01DF91F8
:1014D000CF910C948E1280E090E0DF91CF9108952F
:1014E0000F931F93CF93DF93EC018881998100972D
:1014F00029F02A813B812617370788F48B016F5F1B
:101500007F4F0E94BA11009761F0998388831B83F3
:101510000A832C813D81232B11F4FC01108281E090
:1015200001C080E0DF91CF911F910F910895FC01E0
:10153000808191810C943111CF93DF93CDB7DEB7C9
:101540002E970FB6F894DEBF0FBECDBF789484B54A
:10155000826084BD84B5816084BD85B5826085BDAF
:1015600085B5816085BD80916E00816080936E003D
:10157000109281008091810082608093810080912F
:1015800081008160809381008091800081608093E0
:1015900080008091B10084608093B1008091B000A0
:1015A00081608093B00080917A00846080937A009B
:1015B00080917A00826080937A0080917A008160C5
:1015C00080937A0080917A00806880937A001092EC
:1015D000C1001092FF0310920004109201041092B7
:1015E00002041092BD031092BE031092BF0310922A
:1015F000C0030E9496046B017C012B013C0188EB27
:10160000480E8BE0581E611C711C0E9496046C15DC
:101610007D058E059F0528F0461657066806790653
:10162000A0F78EE193E09093FE038093FD0360E0CA
:1016300072EC81E090E00E94FE070E9496046093A5
:10164000BD037093BE038093BF039093C00368E50E
:1016500071E08091FD039091FE030E9470080E944A
:1016600096046B017C012B013C018AE0480E511C61
:10167000611C711C0E9496046C157D058E059F05EA
:1016800028F04616570668067906A0F781E0809391
:10169000D10385E1809319048093040486EB93E0E1
:1016A000909318048093170488E090E090937D0451
:1016B00080937C0480917904882339F060E072EC97
:1016C00081E090E00E94FE079EC01092710410928B
:1016D000700410926F0410926E0410926D041092B8
:1016E0006C048FE190E09093730480937204909166
:1016F0006204963108F058C021E030E030936D0468
:1017000020936C042DE130E030936F0420936E043D
:101710002DE030E030937104209370044091680014
:10172000983058F031E09E3008F430E021E0822F0C
:1017300001C0880F3A95EAF701C084E0842B8093BA
:101740006800983038F09E3040F0963148F020E044
:1017500030E008C02DE630E005C02BE630E002C0E6
:101760002CE630E030936A0420936904983030F41A
:1017700081E001C0880F9A95EAF70EC0292F30E06A
:101780009E3018F42850310902C02E50310981E0F2
:1017900001C0880F2A95EAF780936B048091720448
:1017A000909173040197F1F7809170049091710406
:1017B000892B49F1E0912A04F0912B0484E0E6356D
:1017C000F80709F1309739F0A389B4899C9185898C
:1017D000809589238C93809174048E7F8093740408
:1017E0001092C3011092C20186E594E090932B04FD
:1017F00080932A04E0916904F0916A0490818091B9
:101800006B04892B808389E190E0A0E0B0E08093B5
:101810005A0490935B04A0935C04B0935D0484EF3E
:10182000C82EDD24D394E12CF12C332433940E9470
:101830009604672B682B692B41F40E949604623052
:1018400071058105910508F40FC10E94960400916D
:10185000C4011091C5012091C6013091C7016017E4
:1018600071078207930740F46093C4017093C50128
:101870008093C6019093C7010091C4011091C501E6
:101880002091C6013091C7014B015C01801A910A79
:10189000A20AB30A950184010A3F11052105310509
:1018A00008F4E2C06093C4017093C5018093C6013F
:1018B0009093C701C092C903D092CA03E092CB03B0
:1018C000F092CC031092CD031092CE031092CF036E
:1018D0001092D0038091C1039091C203A091C303E1
:1018E000B091C4038093C5039093C603A093C7032C
:1018F000B093C8030E9496046093C1037093C2031F
:101900008093C3039093C4030E9496046093BD0325
:101910007093BE038093BF039093C0030E9496040C
:101920002B013C016AE671E08091FD039091FE037A
:101930000E9470082AE041E050E060E070E0809191
:10194000FD039091FE030E94850861E771E080919C
:10195000FD039091FE030E9470082AE0B301A201EA
:101960008091FD039091FE030E94850863E771E07A
:101970008091FD039091FE030E9470088091C10345
:101980009091C203A091C303B091C403B301A2011B
:10199000481B590B6A0B7B0B2AE08091FD03909149
:1019A000FE030E94850863E771E08091FD0390913A
:1019B000FE030E9470084091C1035091C2036091E0
:1019C000C3037091C4038091C5039091C603A09195
:1019D000C703B091C803481B590B6A0B7B0B2AE065
:1019E0008091FD039091FE030E94850865E771E0F8
:1019F0008091FD039091FE030E9470080E9496045E
:101A0000AB01BC012AE08091FD039091FE030E948E
:101A100085080091FD031091FE0367E771E0C8019E
:101A20000E94700867E671E0C8010E9470080E9479
:101A300096042B013C014B015C0185E0880E911C52
:101A4000A11CB11C0E9496046415750586059705B6
:101A500008F0CCC00E9496046093C1037093C20347
:101A60008093C3039093C4030E94CE08882371F02F
:101A700080910001882351F01092000180910101B2
:101A80008F5F823008F4B9C0109201010E94CE0825
:101A9000811105C080910001882309F4B1C08091B3
:101AA0000101882331F0813009F09BC00E94F207C8
:101AB00098C069E671E0CE0107960E94610186E553
:101AC00094E00E943B03181619060CF051C086E5FD
:101AD00094E00E945D03181619060CF049C069E6EF
:101AE00071E0CE0101960E9461010E94B8096D81EA
:101AF0007E8197FD1AC08D871E868B010F5F1F4F59
:101B0000B801CE0101960E94700A882371F32981E1
:101B10003A818D819E81BE01635F7F4F820F931F4B
:101B20000E9497121E830D83E0CF09811A8101154F
:101B30001105C9F061157105B1F08B849C84860E86
:101B4000971EB401CE0107960E94700A882359F0AF
:101B50002F8138858B859C85B801820F931F0E9449
:101B600097129C868B86CE0101960E94970AAFCF72
:101B70000B851C850115110579F180913004909138
:101B800031040817190749F46CE274E0CE01079696
:101B90000E94400A892B09F455C080913604909127
:101BA00037040817190749F462E374E0CE01079679
:101BB0000E94400A892B09F452C01A8219821C82A1
:101BC0001B821E821D820F81188501151105D9F413
:101BD000CE0101960E94970ACE0107960E94970AAD
:101BE00002C00E94F2070E94050221CE86169706C7
:101BF000A806B90608F026CF2DCF8093010146CF65
:101C0000309200014CCF8B849C84B401CE010196AC
:101C10000E94700A29813A8181110DC02115310578
:101C200019F0C9010E9431111A8219821E821D8287
:101C30001C821B82CDCF9E828D82B801C9010E9479
:101C40009712C6CF61E87FEF82E294E00E94AA0774
:101C50006FE770E08AE194E00E94AA07AECF0E948D
:101C6000F207ABCF8AE491E0909357048093560437
:101C700084EC94E00E94970A88E391E090935704E3
:101C80008093560480912A0490912B0486559440A9
:101C900071F4E0916904F0916A04908180916B0481
:101CA00080958923808310922B0410922A0480E56A
:101CB00094E00E94970A8AE494E00E94970A84E4E0
:101CC00094E00E94970A8EE394E00E94970A88E3CA
:101CD00094E00E94970A82E394E00E94970A8CE2C3
:101CE00094E00C94970ACF92DF92EF92FF920F93B9
:101CF0001F93CF93DF93109221031092200398EE4D
:101D0000C92E93E0D92EE12CF12CC0922203D0925F
:101D10002303E0922403F092250384E191E0909361
:101D20001F0380931E0385EC90E090932B03809318
:101D30002A0384EC90E090932D0380932C0380EC95
:101D400090E090932F0380932E0381EC90E090938A
:101D500031038093300382EC90E0909333038093BF
:101D6000320386EC90E09093350380933403109215
:101D70003703109238031092390310923A031092ED
:101D8000C1031092C2031092C3031092C4031092B5
:101D9000C5031092C6031092C7031092C803109295
:101DA000C9031092CA031092CB031092CC03109275
:101DB000CD031092CE031092CF031092D003109255
:101DC000D1041092D004C092D204D092D304E092F5
:101DD000D404F092D50486E291E09093CF048093EE
:101DE000CE0481E090E09093E9048093E80410929F
:101DF000EA051092EB051092EC051092ED05109299
:101E0000EE051092EF051092F0051092F105109278
:101E1000F2051092F3051092F4051092F505109258
:101E2000F6051092F7051092F9051092F805109238
:101E3000FA051092FB051092FC051092FD05109218
:101E4000FE051092FF0510920006109201061092F6
:101E500002066EE771E08CE294E00E94610168E89E
:101E600071E082E394E00E94610163E971E088E33C
:101E700094E00E9461016EE971E08EE394E00E94BB
:101E800061016AEA71E084E494E00E94610167EB19
:101E900071E08AE494E00E9461016CEB71E080E5FE
:101EA00094E00E94610186E08093220487E08093A1
:101EB000230489E08093240485E080931A0484E05D
:101EC00080931B048AE080931C0480E18093DA04F1
:101ED00081E18093DB0483E08093DC0410920304AF
:101EE0001092040410920504109275041092760466
:101EF000109277041092590410925804C0925A0418
:101F0000D0925B04E0925C04F0925D0488E391E07F
:101F1000909357048093560410926D0410926C04B1
:101F200010926F0410926E0410927104109270045B
:101F30001092730410927204609174046E7F6D7F2E
:101F4000609374046695617081E0682780E00E9468
:101F5000CC0361E080E00E94FB030EEA10E0F80190
:101F6000849180936604CAE9D0E0FE018491E82F51
:101F7000F0E0EE0FFF1FE057FF4F85919491909393
:101F800068048093670460E080E00E94FB03809116
:101F9000740481FD04C061E080E00E94CC031092D3
:101FA0006204F801049100936304FE01C491EC2FD4
:101FB000F0E0EE0FFF1FEA57FF4F85919491909349
:101FC0006504809364048AE491E0909357048093BD
:101FD000560469E671E084EC94E00E94610110927D
:101FE0007B0410927A04809176048093CC048091D3
:101FF00075048093CD0481E090917704953009F0C9
:1020000080E0809379048AE491E090935704809370
:102010005604DF91CF911F910F91FF90EF90DF90C9
:10202000CF900895A1E21A2EAA1BBB1BFD010DC083
:10203000AA1FBB1FEE1FFF1FA217B307E407F50778
:1020400020F0A21BB30BE40BF50B661F771F881F54
:10205000991F1A9469F760957095809590959B01EA
:10206000AC01BD01CF0108952F923F924F925F9234
:102070006F927F928F929F92AF92BF92CF92DF9298
:10208000EF92FF920F931F93CF93DF93CDB7DEB7FD
:10209000CA1BDB0B0FB6F894DEBF0FBECDBF099491
:1020A0002A88398848885F846E847D848C849B84E8
:1020B000AA84B984C884DF80EE80FD800C811B81F6
:1020C000AA81B981CE0FD11D0FB6F894DEBF0FBE25
:1020D000CDBFED01089597FB072E16F4009407D0AD
:1020E00077FD09D00E947F1007FC05D03EF4909543
:1020F00081959F4F0895709561957F4F0895AA1B14
:10210000BB1B51E107C0AA1FBB1FA617B70710F0E2
:10211000A61BB70B881F991F5A95A9F78095909514
:10212000BC01CD010895EE0FFF1F0590F491E02D45
:1021300009940F931F93CF93DF938230910510F48E
:1021400082E090E0E0910506F091060620E030E0A4
:10215000A0E0B0E0309719F14081518102811381F4
:1021600048175907C8F08417950769F4109731F09C
:1021700012960C93129713961C9327C00093050692
:102180001093060622C02115310519F04217530796
:1021900018F49A01BD01EF01DF01F801DBCF211531
:1021A0003105F9F0281B390B2430310580F48A8180
:1021B0009B816115710521F0FB019383828304C02B
:1021C0009093060680930506FE01329644C0FE01F8
:1021D000E20FF31F819391932250310939832883B1
:1021E0003AC02091030630910406232B41F420913C
:1021F00004013091050130930406209303062091D9
:102200000201309103012115310541F42DB73EB78C
:102210004091060150910701241B350BE091030604
:10222000F0910406E217F307A0F42E1B3F0B2817CA
:10223000390778F0AC014E5F5F4F2417350748F03F
:102240004E0F5F1F509304064093030681939193B2
:1022500002C0E0E0F0E0CF01DF91CF911F910F913C
:102260000895CF93DF93009709F481C0FC01329762
:1022700013821282A0910506B0910606109781F490
:1022800020813181820F931F209103063091040633
:102290002817390751F5F0930406E093030667C049
:1022A000ED0120E030E0CE17DF0740F44A815B818A
:1022B0009E0141155105F1F0EA01F5CFD383C283A8
:1022C00040815181840F951FC817D90759F488811F
:1022D0009981840F951F0296918380838A819B81C7
:1022E000938382832115310529F4F0930606E09348
:1022F00005063DC0E901FB83EA8349915991C40F6A
:10230000D51FEC17FD0761F480819181840F951F23
:102310000296E90199838883828193819B838A83D2
:10232000E0E0F0E012968D919C911397009719F0E0
:10233000FD01DC01F7CF8D919C9111979D012E5FDE
:102340003F4F820F931F20910306309104062817F8
:10235000390769F4309729F41092060610920506A1
:1023600002C013821282B0930406A0930306DF9189
:10237000CF910895A0E0B0E0E0ECF1E10C943810CA
:10238000EC01009721F4CB010E949910B4C0FC012C
:10239000E60FF71F9C0122503109E217F30708F4FA
:1023A000A8C0D9010D911C91119706171707B0F01D
:1023B0000530110508F49BC0C801049786179707DC
:1023C00008F495C002501109061B170B01931193D5
:1023D0006D937C93CF010E94311189C05B01A01ADB
:1023E000B10A4C01800E911EA0910506B09106061F
:1023F000612C712CE12CF12C109709F446C08D91C1
:102400009C911197A815B905B1F56C0142E0C40E75
:10241000D11CCA14DB0478F14C018A189B086401B2
:1024200042E0C40ED11C1296BC9012971396AC9148
:10243000B5E0CB16D10440F0B282A38391828082B2
:10244000D9016D937C9309C00E5F1F4F800F911FC0
:10245000F90191838083EB2DFA2FE114F10431F01F
:10246000D7011396FC93EE93129741C0F0930606A2
:10247000E09305063CC06816790608F43C017D012E
:1024800012960D90BC91A02DB7CF8091030690912C
:10249000040688169906E1F466167706C8F480915A
:1024A000020190910301009741F48DB79EB74091CE
:1024B000060150910701841B950BE817F907C8F432
:1024C000F0930406E0930306F901718360830FC063
:1024D000CB010E9499107C01009759F0A801BE0120
:1024E0000E948512CE010E943111C70104C0CE01A5
:1024F00002C080E090E0CDB7DEB7EEE00C9454105F
:1025000081E090E0F8940C949E12FB01DC0102C083
:1025100001900D9241505040D8F70895FB01DC0125
:102520008D91019080190110D9F3990B0895FB0149
:10253000DC0101900D920020E1F7089510E0C2E661
:10254000D0E004C0FE010E9493102196C336D1074B
:06255000C9F7F894FFCF6B
:1025560001FF0000070680000100000002020304DC
:1025660000000000F2008D00B7003F01F901C6002F
:10257600DA00000000002403190336035002120398
:102586000F030C030000000051028D0036035002B9
:10259600A102B90238020000000077038D0036035D
:1025A60050023B035D033802564D4450565F317C62
:1025B600315F564D4450560D0A00564D4450455F06
:1025C600003A323A007C005F564D44504500527541
:1025D6006E4D6F746F72730053746F704D6F746FBE
:1025E600727300526F7461746546756C6C0053703B
:1025F60065656455704C6566740053706565645511
:10260600705269676874004F766572004E756C6C1F
:022616000000C2
:00000001FF
