:100000000C9463000C948B000C948B000C94A5034F
:100010000C94A5030C94A5030C948B000C94AD05D3
:100020000C948B000C948B000C948B000C94490561
:100030000C948B000C948B000C948B000C948B0014
:100040000C945B030C948B000C940B080C94E50748
:100050000C948B000C948B000C948B000C948B00F4
:100060000C941F040C948B00000000002400270057
:100070002A0000000008000201000003040700003D
:1000800000000000000000000000230026002900FE
:1000900000000000250028002B00040404040404D0
:1000A0000404020202020202030303030303010227
:1000B00004081020408001020408102001020408F6
:1000C0001020ED0DCB0D11241FBECFEFD8E0DEBF09
:1000D000CDBF11E0A0E0B1E0EEEFF3E202C0059089
:1000E0000D92A838B107D9F725E0A8E8B1E001C022
:1000F0001D92A33AB207E1F710E0C2E6D0E004C0D7
:100100002197FE010E94E70FC136D107C9F70E946F
:10011000B50A0C94F2110C940000FC01918D228D13
:10012000892F90E0805C9F4F821B91098F739927E4
:10013000089580E090E0892B29F00E946C078111DE
:100140000C9400000895833081F028F4813099F0F8
:100150008230A1F008958730A9F08830B9F084305A
:10016000D1F4809180008F7D03C0809180008F77D3
:1001700080938000089584B58F7702C084B58F7D09
:1001800084BD08958091B0008F7703C08091B00046
:100190008F7D8093B00008952091F0033091F1039A
:1001A0002817390771F49091DE028091DF029817C9
:1001B00041F0E091DE02F0E0EB56FD4F808190E0EF
:1001C00008958FEF9FEF089508951F93CF93DF93C6
:1001D000DC015C968D919C915D97009739F421E04C
:1001E00030E013963C932E9312973BC05196ED91BD
:1001F000FC91529750962C915097322F30951FB703
:100200005E964C915E97742F727041FD6095F894E4
:100210004081772311F0422B01C043234083EC013E
:100220002197F1F748E0508160FF02C0522B01C0D6
:1002300053235083EC012197F1F76695415099F7CC
:100240008081772319F08323808302C0282B2083A9
:100250001FBF5C968D919C915D970197F1F781E0AE
:1002600090E0DF91CF911F9108952091F00330919C
:10027000F1032817390771F48091DF022091DE0223
:1002800090E0805C9F4F821B910960E470E00E94C7
:10029000BF0F089580E090E008952091F003309121
:1002A000F10328173907B9F49091DE028091DF023B
:1002B000981789F0E091DE02F0E0EB56FD4F808167
:1002C0002091DE0230E02F5F3F4F2F7333272093C2
:1002D000DE0290E008958FEF9FEF089585ED809303
:1002E000BC008091BC0084FDFCCF10926F02089589
:1002F00040914B02262F30E0240F311D2132310571
:10030000DCF420916F022430C9F4FC0180E090E01D
:10031000861758F430914B022191DC01A55DBD4F49
:10032000A30FB11D2C930196F3CF80914B02680F60
:1003300060934B0280E0089581E0089582E0089583
:100340008FEF9FEF08958FEF9FEF089580912A021E
:1003500090E09195819591090895CF93DF93CB011A
:10036000EA01642F0E947801CE01DF91CF910895B8
:10037000CF93DF931F92CDB7DEB7698361E0CE01E3
:1003800001960E94780181E090E00F90DF91CF917B
:100390000895089580E090E008950E94D411CF93CD
:1003A000DF93FC0124A1222371F0EC010E94210AB9
:1003B00088A799A79095991F9927991F892F90E051
:1003C000DF91CF910895FC0123A1222331F084EE27
:1003D00092E0DF91CF910C948D00DF91CF910C943E
:1003E0003501FC0124A1222351F020A531A54FEFB6
:1003F0005FEF51A740A737FF0CC00C94210AFC0106
:1004000023A1222321F084EE92E00C944A070C945D
:100410004D01C9010895FC0123A1222321F084EE9E
:1004200092E00C9476070C94E500FC01848DDF01CA
:10043000A80FB11DA35ABF4F2C91848D90E0019657
:100440008F739927848FA689B7892C93A089B18946
:100450008C91837080648C93938D848D981306C0E7
:100460000288F389E02D80818F7D80830895CF936A
:10047000DF93282F30E0F901EE58FF4F8491F90106
:10048000E255FF4FD491F901E656FF4FC491CC23BA
:1004900091F081110E94A300EC2FF0E0EE0FFF1FFE
:1004A000EA57FF4FA591B491EC91ED2381E090E0E4
:1004B00021F480E002C080E090E0DF91CF910895C8
:1004C0001F93CF93DF93282F30E0F901EE58FF4FB1
:1004D0008491F901E255FF4FD491F901E656FF4F9F
:1004E000C491CC23C1F0162F81110E94A300EC2FE0
:1004F000F0E0EE0FFF1FE057FF4FA591B4919FB7BB
:10050000F894111104C08C91D095D82302C0EC91BD
:10051000DE2BDC939FBFDF91CF911F910895CF9386
:10052000DF9390E0FC01E255FF4F2491FC01E65679
:10053000FF4F8491882361F190E0880F991FFC019F
:10054000E859FF4FC591D491FC01E057FF4FA591A9
:10055000B491611109C09FB7F894888120958223D6
:100560008883EC912E230BC0623061F49FB7F8941E
:100570008881322F309583238883EC912E2B2C9306
:100580009FBF06C08FB7F894E8812E2B28838FBFBA
:10059000DF91CF9108951F93CF93DF93182FEB0135
:1005A00061E00E948F02209711F460E004C0CF3F09
:1005B000D10539F461E0812FDF91CF911F910C9427
:1005C0006002E12FF0E0EE58FF4FE491E330F9F0E4
:1005D00048F4E130B9F0E230A1F584B5806284BD21
:1005E000C8BD34C0E730E9F0E83019F1E43049F52E
:1005F00080918000806280938000D0938B00C093B4
:100600008A0024C084B5806884BDC7BD1FC08091A6
:100610008000806880938000D0938900C093880018
:1006200015C08091B00080688093B000C093B30083
:100630000DC08091B00080628093B000C093B40080
:1006400005C0C038D1050CF0B5CFAFCFDF91CF9149
:100650001F9108953FB7F8948091DA029091DB02E0
:10066000A091DC02B091DD0226B5A89B05C02F3F0A
:1006700019F00196A11DB11D3FBFBA2FA92F982FC8
:100680008827820F911DA11DB11DBC01CD0142E043
:10069000660F771F881F991F4A95D1F708952FB7C6
:1006A000F8946091D6027091D7028091D80290910F
:1006B000D9022FBF08951F920F920FB60F921124E7
:1006C0002F933F938F939F93AF93BF938091D602C5
:1006D0009091D702A091D802B091D9023091D50261
:1006E00023E0230F2D3720F40196A11DB11D05C075
:1006F00026E8230F0296A11DB11D2093D5028093F9
:10070000D6029093D702A093D802B093D9028091D9
:10071000DA029091DB02A091DC02B091DD02019639
:10072000A11DB11D8093DA029093DB02A093DC023D
:10073000B093DD02BF91AF919F918F913F912F9127
:100740000F900FBE0F901F9018951F920F920FB62B
:100750000F9211242F933F934F935F936F937F9347
:100760008F939F93AF93BF93EF93FF93E091F00329
:10077000F091F103309709F451C0968DA685B785A5
:10078000858591FF04C09C91892329F447C09C91E1
:10079000892309F043C0A389B4899C9185898095F8
:1007A00089238C93868997890197F1F7608D718DE4
:1007B000A685B785558538E020E0CB010197F1F794
:1007C000822F90E095958795282F4C91452309F02D
:1007D0002068315091F7868D81FD20958091DF0250
:1007E00090E001968F7399273091DE02381749F017
:1007F000A091DF02B0E0AB56BD4F2C938093DF0297
:1008000003C0868D8160868F828D938D0197F1F76D
:10081000A389B4899C918589892B8C93FF91EF9151
:10082000BF91AF919F918F917F916F915F914F9108
:100830003F912F910F900FBE0F901F9018951F9210
:100840000F920FB60F9211242F933F934F935F9304
:100850006F937F938F939F93AF93BF93EF93FF9388
:100860008091B900887F803609F49CC068F5883291
:1008700009F45BC090F4803109F454C038F4882343
:1008800009F4F2C0883009F44DC0F2C0883109F48F
:100890004CC0803209F45DC0EBC0803409F468C0FC
:1008A00048F4803309F455C0883309F0E1C08093DF
:1008B0006E02D4C0803509F44FC0883509F45DC09C
:1008C000883409F0D5C0D2C0883909F4C3C0A8F46F
:1008D000883709F467C038F4883609F463C0803774
:1008E00009F460C0C5C0883809F4B4C0803909F47F
:1008F0005FC0803809F0BCC05BC0803B09F484C095
:1009000038F4803A09F466C0883A09F47DC0B0C072
:10091000803C09F4A3C0883C09F4A0C0883B09F4DA
:1009200086C0A6C08091940210C0909193028091DD
:100930009202981770F5E091930281E08E0F8093F8
:100940009302F0E0EE58FD4F80818093BB0085EC70
:1009500082C080936E028AC0E091930281E08E0F84
:10096000809393028091BB00F0E0EE58FD4F8083AE
:1009700090919302809192026AC0E091930281E08B
:100980008E0F809393028091BB00F0E0EE58FD4FF4
:10099000808380917102811169C081E0809370022F
:1009A00084EA5DC083E080936F0210926D02CFCF26
:1009B00080916D02803208F04DC0E0916D0281E0BF
:1009C0008E0F80936D028091BB00F0E0E35BFD4FE2
:1009D0008083BDCF85EC8093BC0010926F02809124
:1009E0006D02803230F4E0916D02F0E0E35BFD4F88
:1009F000108260916D0270E08DE492E0E0E0F0E042
:100A0000099510926D0234C084E080936F021092B9
:100A10004C0210924B02E0E0F0E0099580914B020D
:100A2000811105C081E080934B0210922B02E0916E
:100A30004C0281E08E0F80934C02F0E0E55DFD4FAB
:100A400080818093BB0090914C0280914B0298175B
:100A500008F47DCF85E88093BC000AC085EC8093C4
:100A6000BC0010926F0204C010926E020E946E01D0
:100A7000FF91EF91BF91AF919F918F917F916F9176
:100A80005F914F913F912F910F900FBE0F901F904C
:100A900018951F920F920FB60F9211242F933F9328
:100AA0008F939F93EF93FF938091290287FF05C057
:100AB000109285001092840005C08091290287FD64
:100AC00080912902809129028F5F80932902809171
:100AD000290287FF20C0809129028C30E4F4209104
:100AE00084003091850080912902082E000C990B1A
:100AF000FC01EE0FFF1F8E0F9F1FFC01EB5FFD4FF0
:100B000081819281820F931F909389008093880046
:100B10008091290217C080918400909185000496ED
:100B200080349C4918F480E49CE905C080918400DD
:100B300090918500049690938900809388008FEFB0
:100B400080932902FF91EF919F918F913F912F9177
:100B50000F900FBE0F901F9018951F920F920FB617
:100B60000F9211240F931F932F933F934F935F93F3
:100B70006F937F938F939F93AF93BF93CF93EF9395
:100B8000FF9382E00E943702C82F80919E019091CE
:100B90009F01019690939F0180939E018091040292
:100BA000843618F085E08093990180919901833013
:100BB00079F018F4823039F072C0843011F1853048
:100BC00009F44AC06CC0C1116AC01092040229C065
:100BD000C13009F064C0E091040281E08E0F80937F
:100BE0000402F0E080919E0190919F01E856FE4F33
:100BF000808710929F0110929E0184E0809399015A
:100C00004EC0C11114C0E091040281E08E0F8093A8
:100C10000402F0E080919E0190919F01E856FE4F02
:100C2000808710929F0110929E0183E0E7CF809110
:100C30009E0190919F018536910588F185E0809312
:100C400099010E944F0360939A0170939B018093D6
:100C50009C0190939D0123C00E944F0300919A0133
:100C600010919B0120919C0130919D01DC01CB01F1
:100C7000801B910BA20BB30B893C9105A105B1051B
:100C800040F01092040210929F0110929E0182E0A7
:100C9000B5CFC11104C010929F0110929E01FF9127
:100CA000EF91CF91BF91AF919F918F917F916F9174
:100CB0005F914F913F912F911F910F910F900FBE18
:100CC0000F901F9018950F931F93CF93DF938C0174
:100CD0006F3F710519F014F06FEF70E0EB016130B8
:100CE0007F4F14F4C1E0DFEFF80186819781C817C8
:100CF000D90761F1D783C68361E0D7FD0EC081813A
:100D00000E948F0261E0F80181810E9460028FE001
:100D100090E00197F1F7BE0111C0F80181810E94B6
:100D20008F0260E0F80181810E9460028FE090E014
:100D30000197F1F7662777276C1B7D0BF8018081FF
:100D4000DF91CF911F910F910C94CB02DF91CF9146
:100D50001F910F91089560E070E088EE93E00E948B
:100D6000630660E070E080EE93E00C9463064F92BF
:100D70005F926F927F92AF92BF92CF92DF92EF928B
:100D8000FF920F931F93CF93DF93CDB7DEB7D4506D
:100D90000FB6F894DEBF0FBECDBF8C0182EF93E09B
:100DA0000E94CF019E012F5F3F4F7901892BD1F126
:100DB00069015E01FFEFAF1AFBEFBF0A0E944F030C
:100DC0006093FA037093FB038093FC039093FD03FD
:100DD00082EF93E00E94F10197FF1EC00E944F0333
:100DE0004090FA035090FB036090FC037090FD0369
:100DF000DC01CB0184199509A609B7094090F603D7
:100E00005090F7036090F8037090F90384159505EE
:100E1000A605B705E8F206C0F60181936F01AE168C
:100E2000BF0661F6F80111821082138212821582C8
:100E30001482F70101900020E9F73197AF014E19B4
:100E40005F09B701C8010E94750AC801DC5F0FB6CF
:100E5000F894DEBF0FBECDBFDF91CF911F910F91F0
:100E6000FF90EF90DF90CF90BF90AF907F906F900A
:100E70005F904F900895FC01538D448D252F30E0F5
:100E8000842F90E0821B930B541710F0CF96089597
:100E900001970895FC01918D828D981761F0828DE4
:100EA000DF01A80FB11D5D968C91928D9F5F9F739E
:100EB000928F90E008958FEF9FEF0895FC01918D40
:100EC000828D981731F0828DE80FF11D858D90E0AD
:100ED00008958FEF9FEF089584EE92E00E948D00B9
:100EE00021E0892B09F420E0822F0895EF92FF92F0
:100EF0000F931F93CF93DF93EC0181E0888F9B8D3D
:100F00008C8D981305C0E889F989808185FD26C0FC
:100F1000F62E0B8D10E00F5F1F4F0F731127E02E81
:100F20008C8DE8120CC00FB607FCFACFE889F9895E
:100F3000808185FFF5CFCE010E941502F1CF8B8D08
:100F4000FE01E80FF11DE35AFF4FF0829FB7F894BE
:100F50000B8FEA89FB89808180620AC09FB7F89471
:100F6000EE89FF896083E889F989808183708064D4
:100F700080839FBF81E090E0DF91CF911F910F911F
:100F8000FF90EF900895CF93DF93EC01888D882335
:100F9000C9F0EA89FB89808185FD05C0A889B989E6
:100FA0008C9186FD0FC00FB607FCF5CF808185FFC1
:100FB000F2CFA889B9898C9185FFEDCFCE010E942F
:100FC0001502E7CFDF91CF9108951F920F920FB6D0
:100FD0000F9211242F933F934F935F936F937F93BF
:100FE0008F939F93AF93BF93EF93FF9384EE92E021
:100FF0000E941502FF91EF91BF91AF919F918F9148
:101000007F916F915F914F913F912F910F900FBE04
:101010000F901F9018951F920F920FB60F921124E8
:101020002F938F939F93EF93FF93E091F402F091AE
:10103000F5028081E091FA02F091FB0282FD12C07C
:1010400090818091FD028F5F8F732091FE02821745
:1010500051F0E091FD02F0E0EC51FD4F958F80934F
:10106000FD0201C08081FF91EF919F918F912F919F
:101070000F900FBE0F901F901895CF92DF92EF92B6
:10108000FF920F931F93CF93DF936C017A018B0133
:10109000C0E0D0E0CE15DF0581F0D8016D918D0163
:1010A000D601ED91FC910190F081E02DC6010995EA
:1010B000892B11F02196EECF7E01C701DF91CF91F0
:1010C0001F910F91FF90EF90DF90CF900895CF92F6
:1010D000DF92EF92FF926B017C01E091F402F091BC
:1010E000F50282E08083C11481EED806E104F104A8
:1010F000B1F060E079E08DE390E0A70196010E94F5
:10110000660FDA01C9010197A109B109B695A79542
:10111000979587959C01211580E13807B8F0E091FB
:10112000F402F091F502108260E874E88EE190E03C
:10113000A70196010E94660FDA01C9010197A10972
:10114000B109B695A795979587959C01E091F00216
:10115000F091F1023083E091F202F091F3022083EA
:101160001092FC02E091F802F091F90286E080838F
:10117000E091F602F091F702808180618083E09136
:10118000F602F091F702808188608083E091F60298
:10119000F091F702808180688083E091F602F091FF
:1011A000F70280818F7D8083FF90EF90DF90CF905A
:1011B00008956115710579F0FB0101900020E9F7B0
:1011C0003197AF01461B570BDC01ED91FC9102807A
:1011D000F381E02D099480E090E008958F929F9232
:1011E000AF92BF92EF92FF920F931F93CF93DF9333
:1011F000CDB7DEB7A1970FB6F894DEBF0FBECDBF57
:101200007C01FA01CB0119A2223008F42AE08E01F8
:101210000F5D1F4F822E912CA12CB12CBF01A50177
:1012200094010E94660FF901CA01015011096A3048
:1012300014F4605D01C0695CD8016C93232B242BEE
:10124000252B61F7B801C7010E94D908A1960FB6F6
:10125000F894DEBF0FBECDBFDF91CF911F910F91EC
:10126000FF90EF90BF90AF909F908F900895CF9296
:10127000DF92EF92FF920F931F93CF93DF93C09172
:10128000DD03D091DE030E944F030091CD03109146
:10129000CE032091CF033091D0036B017C01C01AA3
:1012A000D10AE20AF30A97018601093011052105E6
:1012B000310508F475C06093CD037093CE0380931D
:1012C000CF039093D00360E08091CA030E948F0205
:1012D0008091CA038E3008F08E50877080648093AE
:1012E0007C0080917A00806480937A0080917A00FB
:1012F00086FDFCCF809178002091790090E0922BC0
:101300004091D1035091D2036091D3037091D403E3
:10131000452B462B472B69F4AC01092E000C660BBC
:10132000770B4093D9035093DA036093DB037093F8
:10133000DC034091D9035091DA036091DB03709193
:10134000DC03841B950B97FF03C091958195910950
:1013500044979CF48091D5039091D603A091D70334
:10136000B091D8030196A11DB11D8093D503909330
:10137000D603A093D703B093D8038091D103909163
:10138000D203A091D303B091D4030196A11DB11D46
:101390008093D1039093D203A093D303B093D4034B
:1013A0008091D1039091D203A091D303B091D40343
:1013B0000597A105B10571F51092D1031092D203E2
:1013C0001092D3031092D4038091D5039091D60349
:1013D000A091D703B091D8030397A105B10570F090
:1013E0008091D9039091DA03A091DB03B091DC03E3
:1013F000EC019093DE038093DD0304C0C091DD0314
:10140000D091DE031092D5031092D6031092D70329
:101410001092D803CE0164E670E00E94BF0F6830DE
:10142000710528F4FB01E85FFE4F808101C080E078
:10143000DF91CF911F910F91FF90EF90DF90CF90B0
:101440000895AF92BF92CF92DF92EF92FF920F93E7
:101450001F93CF93DF93FC01E6A0F7A0F3E0EF1A10
:10146000F1086C0126E7C20ED11CF60180810E94B2
:101470003702892B69F5E701CC0FDD1FCC0FDD1F8B
:10148000259700E010E0A12CB12CF2E0EF16F1045A
:1014900018F0CE010197F1F7F60180810E94370222
:1014A0000A2C02C0880F991F0A94E2F7082B192B07
:1014B000FFEFAF1ABF0A28E0A216B10431F782E0AD
:1014C000E816F10410F02197F1F7C801992702C03E
:1014D0008FEF9FEFDF91CF911F910F91FF90EF90D2
:1014E000DF90CF90BF90AF900895EF92FF920F934F
:1014F0001F93CF93DF93EC017B018A01888199814F
:10150000009729F02A813B8124173507F8F4B801A8
:101510006F5F7F4F0E940E11009759F09983888367
:101520001B830A832C813D81232B81F4FC011082D3
:101530000DC088819981009711F00E948510198251
:1015400018821D821C821B821A8207C01D830C8395
:10155000B701888199810E94EB11CE01DF91CF9173
:101560001F910F91FF90EF900895CF93DF9300D0DC
:1015700000D000D0CDB7DEB7789484B5826084BD4A
:1015800084B5816084BD85B5826085BD85B5816087
:1015900085BD80916E00816080936E001092810005
:1015A00080918100826080938100809181008160C0
:1015B0008093810080918000816080938000809181
:1015C000B10084608093B1008091B000816080930D
:1015D000B00080917A00846080937A0080917A00D4
:1015E000826080937A0080917A00816080937A0093
:1015F00080917A00806880937A001092C1001092E6
:10160000C5031092C6031092C7031092C80310922C
:1016100083031092840310928503109286030E9424
:101620004F036B017C014B015C0128EB820E2BE028
:10163000921EA11CB11C0E944F036C157D058E05E6
:101640009F0528F086169706A806B906A0F784EE2F
:1016500092E09093C4038093C30360E072EC81E056
:1016600090E00E9467080E944F0360938303709389
:101670008403809385039093860368E571E08091ED
:10168000C3039091C4030E94D9080E944F036B01C9
:101690007C014B015C013AE0830E911CA11CB11C42
:1016A0000E944F036C157D058E059F0528F0861658
:1016B0009706A806B906A0F781E08093970385E115
:1016C0008093DF038093CA0386EB93E09093DE035D
:1016D0008093DD0388E690E09093190480931804CA
:1016E00080911504882339F060E875E280E090E08D
:1016F0000E9467089EC010920D0410920C04109274
:101700000B0410920A0410920904109208048DE947
:1017100091E090930F0480930E049091FE03963114
:1017200008F058C02DEB30E03093090420930804F2
:101730002BE931E030930B0420930A042CE231E0D2
:1017400030930D0420930C0440916800983058F0B9
:1017500031E09E3008F430E021E0822F01C0880F94
:101760003A95EAF701C084E0842B809368009830B2
:1017700038F09E3040F0963148F020E030E008C06C
:101780002DE630E005C02BE630E002C02CE630E06C
:101790003093060420930504983030F481E001C0B2
:1017A000880F9A95EAF70EC0292F30E09E3018F482
:1017B0002850310902C02E50310981E001C0880F44
:1017C0002A95EAF78093070480910E0490910F0404
:1017D0000197F1F780910C0490910D04892B49F148
:1017E000E091F003F091F10343E0E23FF40709F1E7
:1017F000309739F0A389B4899C9185898095892394
:101800008C93809110048E7F809310041092DF02DD
:101810001092DE0282EF93E09093F1038093F00345
:10182000E0910504F0910604908180910704892BD2
:10183000808394EF892E99249394A12CB12C11E0EC
:101840000E944F03672B682B692B41F40E944F03C2
:10185000623071058105910508F410C10E944F03A3
:10186000C090E002D090E102E090E202F090E3024A
:101870006C157D058E059F0540F46093E002709322
:10188000E1028093E2029093E302C090E002D090E4
:10189000E102E090E202F090E3029B01AC012C191E
:1018A0003D094E095F0969017A013AEFC316D10477
:1018B000E104F10408F4E2C06093E0027093E102F5
:1018C0008093E2029093E30280928F0390929003C0
:1018D000A0929103B09292031092930310929403FA
:1018E000109295031092960380918703909188033C
:1018F000A0918903B0918A0380938B0390938C030A
:10190000A0938D03B0938E030E944F0360938703CF
:10191000709388038093890390938A030E944F03F6
:10192000609383037093840380938503909386036D
:101930000E944F036B017C016AE671E08091C30352
:101940009091C4030E94D9082AE041E050E060E091
:1019500070E08091C3039091C4030E94EE0861E798
:1019600071E08091C3039091C4030E94D9082AE0DA
:10197000B701A6018091C3039091C4030E94EE08B1
:1019800063E771E08091C3039091C4030E94D9087A
:101990008091870390918803A0918903B0918A0375
:1019A000B701A601481B590B6A0B7B0B2AE08091FB
:1019B000C3039091C4030E94EE0863E771E0809135
:1019C000C3039091C4030E94D908409187035091AA
:1019D00088036091890370918A0380918B039091B1
:1019E0008C03A0918D03B0918E03481B590B6A0B99
:1019F0007B0B2AE08091C3039091C4030E94EE0800
:101A000065E771E08091C3039091C4030E94D908F7
:101A10000E944F03AB01BC012AE08091C303909167
:101A2000C4030E94EE08E090C303F090C40367E78C
:101A300071E0C7010E94D90867E671E0C7010E9402
:101A4000D9080E944F036B017C012B013C0145E04A
:101A5000440E511C611C711C0E944F036C157D05C6
:101A60008E059F0508F08AC00E944F03609387038C
:101A7000709388038093890390938A030E943709A7
:101A8000882371F080910001882351F010920001A9
:101A9000809101018F5F823008F477C010920101BC
:101AA0000E943709811105C080910001882309F443
:101AB0006FC080910101882331F0813009F059C055
:101AC0000E94AB0656C0CE0101960E94B7068D81DA
:101AD0009E81892B09F448C06EE771E089819A8163
:101AE0000E94E21161E87FEF892B59F488EE93E0C0
:101AF0000E9463066FE770E080EE93E00E94630649
:101B000033C088EE93E00E94630661E87FEF80EEC9
:101B100093E00E9463060E942A032B013C0182ECA1
:101B2000C82EDD24D394E12CF12C0E942A03DC0181
:101B3000CB0184199509A609B709883E9340A105F0
:101B4000B10598F351E0C51AD108E108F10888EE13
:101B5000480E83E0581E611C711CC114D104E104BD
:101B6000F10419F70E94AB0689819A810E948510C1
:101B700002C00E94AB060E94990062CE461657062C
:101B80006806790608F068CF6FCF8093010188CF8F
:101B9000109300018ECF80916004909161040E94A7
:101BA000851088E391E09093F3038093F203809192
:101BB000F0039091F103825F934071F4E09105048A
:101BC000F091060490818091070480958923808399
:101BD0001092F1031092F00308950F931F93CF9387
:101BE000DF931092E7021092E60288EE93E0A0E005
:101BF000B0E08093E8029093E902A093EA02B093E8
:101C0000EB0224E131E03093E5022093E40225EC7D
:101C100030E03093F1022093F00224EC30E0309376
:101C2000F3022093F20220EC30E03093F50220938F
:101C3000F40221EC30E03093F7022093F60222EC1C
:101C400030E03093F9022093F80226EC30E0309334
:101C5000FB022093FA021092FD021092FE021092F3
:101C6000FF021092000310928703109288031092D3
:101C7000890310928A0310928B0310928C031092A6
:101C80008D0310928E0310928F0310929003109286
:101C90009103109292031092930310929403109266
:101CA00095031092960310926D0410926C04809329
:101CB0006E0490936F04A0937004B093710426E2B5
:101CC00031E030936B0420936A0421E030E03093DC
:101CD0008504209384041092860510928705109243
:101CE00088051092890510928A0510928B05109232
:101CF0008C0510928D0510928E0510928F05109212
:101D000090051092910510929205109293051092F1
:101D100095051092940510929605109297051092D1
:101D200098051092990510929A0510929B051092B1
:101D30009C0510929D0510929E0526E02093E803D5
:101D400027E02093E90329E02093EA0325E020938C
:101D5000E00324E02093E1032AE02093E20320E162
:101D60002093760421E12093770423E020937804E4
:101D70001092C9031092CA031092CB03109211045F
:101D800010921204109213041092F5031092F403AF
:101D90008093F6039093F703A093F803B093F903AD
:101DA00088E391E09093F3038093F2031092090487
:101DB0001092080410920B0410920A0410920D0461
:101DC00010920C0410920F0410920E0460911004F3
:101DD0006E7F6D7F609310046695617081E0682767
:101DE00080E00E94600261E080E00E948F020EEAC3
:101DF00010E0F801849180930204CAE9D0E0FE016A
:101E00008491E82FF0E0EE0FFF1FE057FF4F859120
:101E10009491909304048093030460E080E00E9416
:101E20008F028091100481FD04C061E080E00E9477
:101E300060021092FE03F80104910093FF03FE017B
:101E4000C491EC2FF0E0EE0FFF1FEA57FF4F859192
:101E5000949190930104809300048AE491E090931C
:101E6000F3038093F20310926104109260041092C5
:101E7000630410926204109265041092640440E0BE
:101E800050E069E671E080E694E00E94750A1092E5
:101E900017041092160480911204809368048091B4
:101EA00011048093690481E090911304953009F046
:101EB00080E0809315048AE491E09093F30380938B
:101EC000F203DF91CF911F910F910895A1E21A2E95
:101ED000AA1BBB1BFD010DC0AA1FBB1FEE1FFF1FCE
:101EE000A217B307E407F50720F0A21BB30BE40B1E
:101EF000F50B661F771F881F991F1A9469F7609565
:101F00007095809590959B01AC01BD01CF0108951E
:101F10002F923F924F925F926F927F928F929F92F9
:101F2000AF92BF92CF92DF92EF92FF920F931F93E7
:101F3000CF93DF93CDB7DEB7CA1BDB0B0FB6F89498
:101F4000DEBF0FBECDBF09942A88398848885F84D8
:101F50006E847D848C849B84AA84B984C884DF8049
:101F6000EE80FD800C811B81AA81B981CE0FD11D2D
:101F70000FB6F894DEBF0FBECDBFED01089597FBFD
:101F8000072E16F4009407D077FD09D00E94D30FD6
:101F900007FC05D03EF4909581959F4F089570956C
:101FA00061957F4F0895AA1BBB1B51E107C0AA1F73
:101FB000BB1FA617B70710F0A61BB70B881F991FEA
:101FC0005A95A9F780959095BC01CD010895EE0F23
:101FD000FF1F0590F491E02D09940F931F93CF9369
:101FE000DF938230910510F482E090E0E091A1054A
:101FF000F091A20520E030E0A0E0B0E0309719F1C8
:10200000408151810281138148175907C8F0841714
:10201000950769F4109731F012960C931297139666
:102020001C9327C00093A1051093A20522C021157F
:10203000310519F04217530718F49A01BD01EF0159
:10204000DF01F801DBCF21153105F9F0281B390B31
:102050002430310580F48A819B816115710521F05E
:10206000FB019383828304C09093A2058093A10512
:10207000FE01329644C0FE01E20FF31F819391935B
:1020800022503109398328833AC020919F0530912D
:10209000A005232B41F420910401309105013093D8
:1020A000A00520939F052091020130910301211585
:1020B000310541F42DB73EB740910601509107011B
:1020C000241B350BE0919F05F091A005E217F30763
:1020D000A0F42E1B3F0B2817390778F0AC014E5F98
:1020E0005F4F2417350748F04E0F5F1F5093A00530
:1020F00040939F058193919302C0E0E0F0E0CF010F
:10210000DF91CF911F910F910895CF93DF930097A7
:1021100009F481C0FC01329713821282A091A105BB
:10212000B091A205109781F420813181820F931F15
:1021300020919F053091A0052817390751F5F0939C
:10214000A005E0939F0567C0ED0120E030E0CE17C9
:10215000DF0740F44A815B819E0141155105F1F092
:10216000EA01F5CFD383C28340815181840F951F4B
:10217000C817D90759F488819981840F951F029651
:10218000918380838A819B8193838283211531058A
:1021900029F4F093A205E093A1053DC0E901FB837A
:1021A000EA8349915991C40FD51FEC17FD0761F4DB
:1021B00080819181840F951F0296E901998388831C
:1021C000828193819B838A83E0E0F0E012968D9177
:1021D0009C911397009719F0FD01DC01F7CF8D91C9
:1021E0009C9111979D012E5F3F4F820F931F20916D
:1021F0009F053091A0052817390769F4309729F415
:102200001092A2051092A10502C013821282B0930F
:10221000A005A0939F05DF91CF910895A0E0B0E0C5
:10222000E4E1F1E10C948C0FEC01009721F4CB0177
:102230000E94ED0FB4C0FC01E60FF71F9C01225075
:102240003109E217F30708F4A8C0D9010D911C91D8
:10225000119706171707B0F00530110508F49BC059
:10226000C80104978617970708F495C00250110912
:10227000061B170B019311936D937C93CF010E9462
:10228000851089C05B01A01AB10A4C01800E911E15
:10229000A091A105B091A205612C712CE12CF12C2B
:1022A000109709F446C08D919C911197A815B90516
:1022B000B1F56C0142E0C40ED11CCA14DB0478F104
:1022C0004C018A189B08640142E0C40ED11C12968E
:1022D000BC9012971396AC91B5E0CB16D10440F0A8
:1022E000B282A38391828082D9016D937C9309C0CD
:1022F0000E5F1F4F800F911FF90191838083EB2D9B
:10230000FA2FE114F10431F0D7011396FC93EE9308
:10231000129741C0F093A205E093A1053CC0681656
:10232000790608F43C017D0112960D90BC91A02D18
:10233000B7CF80919F059091A00588169906E1F48A
:1023400066167706C8F48091020190910301009708
:1023500041F48DB79EB74091060150910701841B4F
:10236000950BE817F907C8F4F093A005E0939F05D3
:10237000F901718360830FC0CB010E94ED0F7C01D6
:10238000009759F0A801BE010E94D911CE010E9408
:102390008510C70104C0CE0102C080E090E0CDB737
:1023A000DEB7EEE00C94A80F81E090E0F8940C9476
:1023B000F211FB01DC0102C001900D92415050402E
:1023C000D8F70895FB01DC018D910190801901106F
:1023D000D9F3990B0895FB01DC0101900D920020C7
:1023E000E1F7089510E0C2E6D0E004C0FE010E94CB
:0E23F000E70F2196C336D107C9F7F894FFCF47
:1023FE0001FF0000A305800001000000020203049B
:10240E000000000076073D083B07C3078D004A0712
:10241E005E0700000000B801AD01CA01E400A6018C
:10242E00A301A00100000000E5003D08CA01E40080
:10243E0035014D01CC00000000000B023D08CA0121
:10244E00E400CF01F101CC00564D4450565F317C73
:10245E00315F564D4450560D0A00564D4450455F5F
:10246E00003A323A007C005F564D4450450052759A
:08247E006E4D6F746F72730064
:107E0000112484B714BE81FFF0D085E080938100F7
:107E100082E08093C00088E18093C10086E0809377
:107E2000C20080E18093C4008EE0C9D0259A86E02C
:107E300020E33CEF91E0309385002093840096BBD3
:107E4000B09BFECF1D9AA8958150A9F7CC24DD24C4
:107E500088248394B5E0AB2EA1E19A2EF3E0BF2EE7
:107E6000A2D0813461F49FD0082FAFD0023811F036
:107E7000013811F484E001C083E08DD089C08234E0
:107E800011F484E103C0853419F485E0A6D080C0E4
:107E9000853579F488D0E82EFF2485D0082F10E0AE
:107EA000102F00270E291F29000F111F8ED06801E7
:107EB0006FC0863521F484E090D080E0DECF843638
:107EC00009F040C070D06FD0082F6DD080E0C81688
:107ED00080E7D80618F4F601B7BEE895C0E0D1E017
:107EE00062D089930C17E1F7F0E0CF16F0E7DF06D8
:107EF00018F0F601B7BEE89568D007B600FCFDCFD4
:107F0000A601A0E0B1E02C9130E011968C91119780
:107F100090E0982F8827822B932B1296FA010C0160
:107F200087BEE89511244E5F5F4FF1E0A038BF0790
:107F300051F7F601A7BEE89507B600FCFDCF97BE46
:107F4000E89526C08437B1F42ED02DD0F82E2BD052
:107F50003CD0F601EF2C8F010F5F1F4F84911BD097
:107F6000EA94F801C1F70894C11CD11CFA94CF0C13
:107F7000D11C0EC0853739F428D08EE10CD085E9AC
:107F80000AD08FE07ACF813511F488E018D01DD067
:107F900080E101D065CF982F8091C00085FFFCCF94
:107FA0009093C60008958091C00087FFFCCF809118
:107FB000C00084FD01C0A8958091C6000895E0E648
:107FC000F0E098E1908380830895EDDF803219F02E
:107FD00088E0F5DFFFCF84E1DECF1F93182FE3DFCA
:107FE0001150E9F7F2DF1F91089580E0E8DFEE27F6
:047FF000FF270994CA
:027FFE00040479
:0400000300007E007B
:00000001FF