:100000000C94E0000C9408010C9408010C941D055C
:100010000C941D050C941D050C9408010C943507D7
:100020000C9408010C9408010C9408010C94C1066E
:100030000C9408010C9408010C9408010C9408011C
:100040000C94D3040C9408010C94080D0C94E20C4D
:100050000C9408010C9408010C9408010C940801FC
:100060000C9497050C94080100407A10F35A00A0F4
:10007000724E18090010A5D4E80000E87648170071
:1000800000E40B54020000CA9A3B000000E1F505B1
:10009000000080969800000040420F000000A086FB
:1000A00001000000102700000000E803000000002D
:1000B0006400000000000A000000000001000000D1
:1000C00000002C76D888DC674F0823DFC1DFAE59EB
:1000D000E1B1B796E5E3E453C63AE651997696E87E
:1000E000E6C28426EB898C9B62ED407C6FFCEFBC02
:1000F0009C9F40F2BAA56FA5F490055A2AF75C932D
:100100006B6CF9676DC11BFCE0E40D47FEF520E662
:10011000B500D0ED902E0300943577050080841E45
:10012000080000204E0A000000C80C333333330FA0
:10013000986E12831141EF8D2114893BE65516CF3D
:10014000FEE6DB18D1844B381BF77C1D901DA4BB49
:10015000E424203284725E228100C9F124ECA1E5FE
:100160003D2700000000240027002A0000000008AE
:10017000000201000003040700000000000000006E
:1001800000000000230026002900000000002500D8
:1001900028002B00040404040404040402020202E4
:1001A000020203030303030301020408102040803A
:1001B000010204081020010204081020480E060E57
:1001C00011241FBECFEFD8E0DEBFCDBF11E0A0E00D
:1001D000B1E0E2E5F8E302C005900D92AC3CB10756
:1001E000D9F726E0ACECB1E001C01D92A834B2070B
:1001F000E1F710E0CFEDD0E004C02197FE010E94AE
:10020000ED19CE3DD107C9F70E94E00F0C941C1CDC
:100210000C940000FC01538D448D252F30E0842F79
:1002200090E0821B930B541710F0CF96089501971E
:100230000895FC01918D828D981761F0828DDF0108
:10024000A80FB11D5D968C91928D9F5F9F73928FC9
:1002500090E008958FEF9FEF0895FC01918D828DBE
:10026000981731F0828DE80FF11D858D90E008958B
:100270008FEF9FEF0895FC01918D228D892F90E0E3
:10028000805C9F4F821B91098F739927089580E0AE
:1002900090E0892B29F00E94D80C81110C94000069
:1002A0000895833081F028F4813099F08230A1F0F4
:1002B00008958730A9F08830B9F08430D1F4809166
:1002C00080008F7D03C0809180008F7780938000B5
:1002D000089584B58F7702C084B58F7D84BD08955D
:1002E0008091B0008F7703C08091B0008F7D8093A4
:1002F000B00008953FB7F89480911E0390911F03BA
:10030000A0912003B091210326B5A89B05C02F3FE3
:1003100019F00196A11DB11D3FBFBA2FA92F982F2B
:100320008827820F911DA11DB11DBC01CD0142E0A6
:10033000660F771F881F991F4A95D1F7089520915E
:10034000C2033091C3032817390771F49091230336
:1003500080912403981741F0E0912303F0E0E752E5
:10036000FD4F808190E008958FEF9FEF08950895ED
:100370001F93CF93DF93DC015C968D919C915D97E9
:10038000009739F421E030E013963C932E931297B6
:100390003BC05196ED91FC91529750962C915097FD
:1003A000322F30951FB75E964C915E97742F727006
:1003B00041FD6095F8944081772311F0422B01C0F4
:1003C00043234083EC012197F1F748E0508160FF1F
:1003D00002C0522B01C053235083EC012197F1F747
:1003E0006695415099F78081772319F083238083A4
:1003F00002C0282B20831FBF5C968D919C915D9736
:100400000197F1F781E090E0DF91CF911F9108957E
:100410002091C2033091C3032817390771F48091EA
:1004200024032091230390E0805C9F4F821B91095D
:1004300060E470E00E94C519089580E090E008959E
:100440002091C2033091C30328173907B9F4909162
:10045000230380912403981789F0E0912303F0E0AF
:10046000E752FD4F80812091230330E02F5F3F4F03
:100470002F7333272093230390E008958FEF9FEF8E
:10048000089585ED8093BC008091BC0084FDFCCF75
:100490001092B302089540918F02262F30E0240F6E
:1004A000311D21323105DCF42091B3022430C9F42E
:1004B000FC0180E090E0861758F430918F02219182
:1004C000DC01A159BD4FA30FB11D2C930196F3CFB1
:1004D00080918F02680F60938F0280E0089581E021
:1004E000089582E008958FEF9FEF08958FEF9FEFBB
:1004F000089580916E0290E09195819591090895FB
:10050000CF93DF93CB01EA01642F0E944B02CE010F
:10051000DF91CF910895CF93DF931F92CDB7DEB7D0
:10052000698361E0CE0101960E944B0281E090E078
:100530000F90DF91CF91089580E090E008950E94A0
:10054000DA1BCF93DF93FC0124A1222371F0EC018D
:100550000E94E80988A799A79095991F9927991F44
:10056000892F90E0DF91CF910895FC0123A12223F0
:1005700031F085E293E0DF91CF910C943B01DF9164
:10058000CF910C940802FC0124A1222351F020A554
:1005900031A54FEF5FEF51A740A737FF0CC00C9478
:1005A000E809FC0123A1222321F085E293E00C94C9
:1005B00019010C942002C9010895FC01848DDF010A
:1005C000A80FB11DA35ABF4F2C91848D90E00196C6
:1005D0008F739927848FA689B7892C93A089B189B5
:1005E0008C91837080648C93938D848D981306C056
:1005F0000288F389E02D80818F7D80830895EF92BA
:10060000FF920F931F93CF93DF93EC0181E0888FCC
:100610009B8D8C8D981305C0E889F989808185FDB3
:1006200026C0F62E0B8D10E00F5F1F4F0F731127A2
:10063000E02E8C8DE8120CC00FB607FCFACFE889CB
:10064000F989808185FFF5CFCE010E94DD02F1CFCF
:100650008B8DFE01E80FF11DE35AFF4FF0829FB72B
:10066000F8940B8FEA89FB89808180620AC09FB76A
:10067000F894EE89FF896083E889F9898081837025
:10068000806480839FBF81E090E0DF91CF911F91D4
:100690000F91FF90EF900895FC0123A1222321F0F8
:1006A00085E293E00C94FF020C94B801CF93DF93A2
:1006B000EC01888D8823C9F0EA89FB89808185FD5A
:1006C00005C0A889B9898C9186FD0FC00FB607FCBB
:1006D000F5CF808185FFF2CFA889B9898C9185FFFC
:1006E000EDCFCE010E94DD02E7CFDF91CF910895DB
:1006F000CF93DF93282F30E0F901E459FE4F849126
:10070000F901E855FE4FD491F901EC56FE4FC49122
:10071000CC2391F081110E945101EC2FF0E0EE0FFB
:10072000FF1FE058FE4FA591B491EC91ED2381E0BD
:1007300090E021F480E002C080E090E0DF91CF9172
:1007400008951F93CF93DF93282F30E0F901E459E8
:10075000FE4F8491F901E855FE4FD491F901EC5612
:10076000FE4FC491CC23C1F0162F81110E9451017C
:10077000EC2FF0E0EE0FFF1FE657FE4FA591B4916E
:100780009FB7F894111104C08C91D095D82302C062
:10079000EC91DE2BDC939FBFDF91CF911F910895E9
:1007A000CF93DF9390E0FC01E855FE4F2491FC01CC
:1007B000EC56FE4F8491882361F190E0880F991FD9
:1007C000FC01EE59FE4FC591D491FC01E657FE4F56
:1007D000A591B491611109C09FB7F89488812095C3
:1007E00082238883EC912E230BC0623061F49FB783
:1007F000F8948881322F309583238883EC912E2BB7
:100800002C939FBF06C08FB7F894E8812E2B2883C6
:100810008FBFDF91CF9108951F93CF93DF93182F50
:10082000EB0161E00E94D003209711F460E004C066
:10083000CF3FD10539F461E0812FDF91CF911F9136
:100840000C94A103E12FF0E0E459FE4FE491E33072
:10085000F9F048F4E130B9F0E230A1F584B58062F6
:1008600084BDC8BD34C0E730E9F0E83019F1E430A8
:1008700049F580918000806280938000D0938B0046
:10088000C0938A0024C084B5806884BDC7BD1FC0E2
:1008900080918000806880938000D0938900C0930D
:1008A000880015C08091B00080688093B000C0932C
:1008B000B3000DC08091B00080628093B000C093FF
:1008C000B40005C0C038D1050CF0B5CFAFCFDF9173
:1008D000CF911F9108958E3008F08E5087708064FC
:1008E00080937C0080917A00806480937A0080916C
:1008F0007A0086FDFCCF809178002091790090E00D
:10090000922B08958230910538F0880F991F880F37
:10091000991F05970197F1F708958F929F92AF92D3
:10092000BF92CF92DF92EF92FF926B017C010E9407
:100930007A014B015C01C114D104E104F104F1F02E
:100940000E947A01DC01CB0188199909AA09BB0927
:10095000883E9340A105B10570F321E0C21AD10889
:10096000E108F10888EE880E83E0981EA11CB11CF6
:10097000C114D104E104F10419F7DDCFFF90EF9029
:10098000DF90CF90BF90AF909F908F9008952FB73A
:10099000F89460911A0370911B0380911C0390914D
:1009A0001D032FBF08951F920F920FB60F921124AF
:1009B0002F933F938F939F93AF93BF9380911A038D
:1009C00090911B03A0911C03B0911D03309119035A
:1009D00023E0230F2D3720F40196A11DB11D05C082
:1009E00026E8230F0296A11DB11D209319038093C1
:1009F0001A0390931B03A0931C03B0931D038091D3
:100A00001E0390911F03A0912003B0912103019632
:100A1000A11DB11D80931E0390931F03A09320037B
:100A2000B0932103BF91AF919F918F913F912F91EF
:100A30000F900FBE0F901F9018951F920F920FB638
:100A40000F9211242F933F934F935F936F937F9354
:100A50008F939F93AF93BF93EF93FF93E091C20364
:100A6000F091C303309709F451C0968DA685B785E0
:100A7000858591FF04C09C91892329F447C09C91EE
:100A8000892309F043C0A389B4899C918589809505
:100A900089238C93868997890197F1F7608D718DF1
:100AA000A685B785558538E020E0CB010197F1F7A1
:100AB000822F90E095958795282F4C91452309F03A
:100AC0002068315091F7868D81FD20958091240317
:100AD00090E001968F73992730912303381749F0DE
:100AE000A0912403B0E0A752BD4F2C938093240320
:100AF00003C0868D8160868F828D938D0197F1F77B
:100B0000A389B4899C918589892B8C93FF91EF915E
:100B1000BF91AF919F918F917F916F915F914F9115
:100B20003F912F910F900FBE0F901F9018951F921D
:100B30000F920FB60F9211242F933F934F935F9311
:100B40006F937F938F939F93AF93BF93EF93FF9395
:100B50008091B900887F803609F49CC068F588329E
:100B600009F45BC090F4803109F454C038F4882350
:100B700009F4F2C0883009F44DC0F2C0883109F49C
:100B80004CC0803209F45DC0EBC0803409F468C009
:100B900048F4803309F455C0883309F0E1C08093EC
:100BA000B202D4C0803509F44FC0883509F45DC065
:100BB000883409F0D5C0D2C0883909F4C3C0A8F47C
:100BC000883709F467C038F4883609F463C0803781
:100BD00009F460C0C5C0883809F4B4C0803909F48C
:100BE0005FC0803809F0BCC05BC0803B09F484C0A2
:100BF00038F4803A09F466C0883A09F47DC0B0C080
:100C0000803C09F4A3C0883C09F4A0C0883B09F4E7
:100C100086C0A6C08091D80210C09091D702809162
:100C2000D602981770F5E091D70281E08E0F80937D
:100C3000D702F0E0EA54FD4F80818093BB0085EC41
:100C400082C08093B2028AC0E091D70281E08E0F09
:100C50008093D7028091BB00F0E0EA54FD4F80837F
:100C60009091D7028091D6026AC0E091D70281E0CC
:100C70008E0F8093D7028091BB00F0E0EA54FD4FC5
:100C800080838091B502811169C081E08093B402B4
:100C900084EA5DC083E08093B3021092B102CFCFAB
:100CA0008091B102803208F04DC0E091B10281E044
:100CB0008E0F8093B1028091BB00F0E0EF56FD4FA4
:100CC0008083BDCF85EC8093BC001092B3028091ED
:100CD000B102803230F4E091B102F0E0EF56FD4F06
:100CE00010826091B10270E081E992E0E0E0F0E012
:100CF00009951092B10234C084E08093B30210923F
:100D0000900210928F02E0E0F0E0099580918F024E
:100D1000811105C081E080938F0210926F02E091F3
:100D2000900281E08E0F80939002F0E0E159FD4F38
:100D300080818093BB009091900280918F029817E0
:100D400008F47DCF85E88093BC000AC085EC8093D1
:100D5000BC001092B30204C01092B2020E94410281
:100D6000FF91EF91BF91AF919F918F917F916F9183
:100D70005F914F913F912F910F900FBE0F901F9059
:100D800018951F920F920FB60F9211242F933F9335
:100D90008F939F93EF93FF9380916D0287FF05C020
:100DA000109285001092840005C080916D0287FD2D
:100DB00080916D0280916D028F5F80936D028091B2
:100DC0006D0287FF20C080916D028C30E4F4209189
:100DD00084003091850080916D02082E000C990BE3
:100DE000FC01EE0FFF1F8E0F9F1FFC01E75BFD4F05
:100DF00081819281820F931F909389008093880054
:100E000080916D0217C080918400909185000496B6
:100E100080349C4918F480E49CE905C080918400EA
:100E200090918500049690938900809388008FEFBD
:100E300080936D02FF91EF919F918F913F912F9140
:100E40000F900FBE0F901F9018951F93CF93DF93B5
:100E5000EC01162F61E089810E94D003612F898106
:100E6000DF91CF911F910C94A1031F920F920FB6A7
:100E70000F9211240F931F932F933F934F935F93E0
:100E80006F937F938F939F93AF93BF93CF93EF9382
:100E9000FF9382E00E947803C82F8091E201909135
:100EA000E30101969093E3018093E201809148026F
:100EB000843618F085E08093DD018091DD01833078
:100EC00079F018F4823039F072C0843011F1853035
:100ED00009F44AC06CC0C1116AC01092480229C00E
:100EE000C13009F064C0E091480281E08E0F809328
:100EF0004802F0E08091E2019091E301E452FE4F5C
:100F000080871092E3011092E20184E08093DD017A
:100F10004EC0C11114C0E091480281E08E0F809351
:100F20004802F0E08091E2019091E301E452FE4F2B
:100F300080871092E3011092E20183E0E7CF809175
:100F4000E2019091E3018536910588F185E0809377
:100F5000DD010E94C7046093DE017093DF0180937E
:100F6000E0019093E10123C00E94C7040091DE01DB
:100F70001091DF012091E0013091E101DC01CB0112
:100F8000801B910BA20BB30B893C9105A105B10508
:100F900040F0109248021092E3011092E20182E0C8
:100FA000B5CFC11104C01092E3011092E201FF918C
:100FB000EF91CF91BF91AF919F918F917F916F9161
:100FC0005F914F913F912F911F910F910F900FBE05
:100FD0000F901F9018950F931F93CF93DF938C0161
:100FE0006F3F710519F014F06FEF70E0EB016130A5
:100FF0007F4F14F4C1E0DFEFF80186819781C817B5
:10100000D90711F1D783C683D7FD0AC061E0C801B3
:101010000E9425078FE090E00197F1F7BE010CC018
:1010200060E0C8010E9425078FE090E00197F1F78A
:10103000662777276C1B7D0BF8018081DF91CF91AC
:101040001F910F910C940C04DF91CF911F910F9180
:10105000089560E070E085E894E00E94EB0760E0AE
:1010600070E08DE794E00C94EB07FC0164817581DE
:1010700020E030E080E090E02617370791F04081D3
:1010800051814115510529F0DA01A20FB31F4C918E
:1010900001C040E0840F911D47FD9A952F5F3F4F9F
:1010A000EBCF0895CF93DF9300D000D000D0CDB721
:1010B000DEB78091950490919604892BE1F46FE559
:1010C00071E0CE0101960E94AC0DCE0101960E9406
:1010D000980BCE0101960E949E0D69E671E0CE014B
:1010E00001960E94AC0DCE0101960E94980BCE0194
:1010F00001960E949E0D0E940A0C26960FB6F89447
:10110000DEBF0FBECDBFDF91CF9108958091DE038A
:101110009091DF03892B59F1E091C203F091C30351
:1011200083E0E43CF80719F1309739F0A389B489DA
:101130009C918589809589238C938091E2038E7F91
:101140008093E203109224031092230384EC93E033
:101150009093C3038093C203E091D703F091D80327
:1011600090818091D903892B808381E0089580E06C
:101170000895CF92DF92EF92FF920F931F93CF9338
:10118000DF93C0915004D09151040E94C704009194
:1011900040041091410420914204309143046B01BA
:1011A0007C01C01AD10AE20AF30A970186010930CC
:1011B00011052105310508F461C060934004709366
:1011C0004104809342049093430460E080913D0485
:1011D0000E94D00380913D040E946B04409144041E
:1011E000509145046091460470914704452B462B6D
:1011F000472B69F4AC01092E000C660B770B40936A
:101200004C0450934D0460934E0470934F044091EE
:101210004C0450914D0460914E0470914F04841B16
:10122000950B97FF03C091958195910944979CF484
:101230008091480490914904A0914A04B0914B04D4
:101240000196A11DB11D8093480490934904A09379
:101250004A04B0934B048091440490914504A091BA
:101260004604B09147040196A11DB11D809344042A
:1012700090934504A0934604B0934704809144049E
:1012800090914504A0914604B09147040597A105AB
:10129000B10571F510924404109245041092460471
:1012A000109247048091480490914904A0914A0407
:1012B000B0914B040397A105B10570F080914C04E7
:1012C00090914D04A0914E04B0914F04EC01909385
:1012D00051048093500404C0C0915004D091510433
:1012E000109248041092490410924A0410924B0440
:1012F000CE0164E670E00E94C5196830710528F4DB
:10130000FB01E15FFE4F808101C080E0DF91CF9162
:101310001F910F91FF90EF90DF90CF9008950F9362
:101320001F930E94C7046093CC037093CD038093F6
:10133000CE039093CF0384EC93E00E94C30297FF07
:101340001FC00E94C7040091CC031091CD032091CF
:10135000CE033091CF03DC01CB01801B910BA20B9C
:10136000B30B0091C8031091C9032091CA033091B7
:10137000CB0380179107A207B307E8F28FEF9FEF27
:101380001F910F9108951F93CF93DF9310911C0528
:1013900061E0812F0E94D003C0E0D0E061E0812FA6
:1013A0000E94A1038AEC92E00E94820460E0812FF7
:1013B0000E94A1038AEC92E00E948204A8952196E3
:1013C000CF3581E0D80751F7DF91CF911F91089574
:1013D000CF92DF92EF92FF920F931F93CF93DF9301
:1013E000FC01C6A0D7A0F3E0CF1AD1088C010A589F
:1013F0001F4FF80180810E947803892B01F5C0E01E
:10140000D0E0E12CF12CC6010E948204F801808119
:101410000E9478030E2C02C0880F991F0A94E2F7ED
:10142000C82BD92BFFEFEF1AFF0A28E0E216F104D0
:1014300051F7C6010E948204CE01992702C08FEFA6
:101440009FEFDF91CF911F910F91FF90EF90DF9071
:10145000CF900895DF92EF92FF920F931F93CF9357
:10146000DF93FC01048115810115110519F48FEF3B
:101470009FEF1AC0EC010190F081E02DE00FF11F09
:10148000D0801082E880F980062E000C770BC7010F
:101490000E94111CF701E00FF11FD082009739F371
:1014A00028813981821B930BDF91CF911F910F917E
:1014B000FF90EF90DF900895FC0124813581232B6C
:1014C00031F421E061157105A1F0FB0108C0FC01B8
:1014D000808191816115710531F421E0FC018081E9
:1014E000882339F005C00E94F31B21E0892B09F005
:1014F00020E0822F0895EF92FF920F931F93CF93D6
:10150000DF936115710511F480E01CC04115510590
:10151000C1F07B01EC018C819D818A01080F191FAC
:10152000B801CE010E94650D882371F328813981AD
:101530008C819D81B701820F931F0E94FC1B1D832C
:101540000C8381E0DF91CF911F910F91FF90EF907D
:101550000895EF92FF920F931F93CF93DF93CDB730
:10156000DEB764970FB6F894DEBF0FBECDBF7C0127
:10157000CB01BA018E010F5F1F4F22E044E00E94B1
:101580002815FC0101900020E9F73197AF01481BB5
:10159000590BBC01C7010E947B0A64960FB6F894F0
:1015A000DEBF0FBECDBFDF91CF911F910F91FF9096
:1015B000EF900895EF92FF920F931F93CF93DF93D5
:1015C000CDB7DEB728970FB6F894DEBF0FBECDBFFC
:1015D0007C01CB014AE08E010F5F1F4FB8010E94D2
:1015E0006F15F80101900020E9F73197AF01401B1A
:1015F000510BB801C7010E947B0A811103C0C701CA
:101600000E948C0DC70128960FB6F894DEBF0FBE5E
:10161000CDBFDF91CF911F910F91FF90EF90089573
:101620000F931F93CF93DF938C01EB01FC0180811B
:1016300091810097B1F0688179816115710579F028
:10164000428153812C813D814217530740F00E9413
:10165000FC1B8C819D81F8019583848313C00E94BB
:101660008B1A88819981F801918380838A819B817B
:10167000938382838C819D819583848319821882D0
:101680001B821A821D821C82DF91CF911F910F91C4
:101690000895EF92FF920F931F93CF93DF93EC0186
:1016A0007B018A01BA010E94650D811104C0CE013F
:1016B0000E948C0D07C01D830C83B701888199811E
:1016C0000E94FC1BCE01DF91CF911F910F91FF90E3
:1016D000EF900895CF93DF93EC016115710559F0F8
:1016E000FB0101900020E9F73197AF01461B570B32
:1016F0000E94490B02C00E948C0DCE01DF91CF9158
:101700000895CF93DF93EC01FB018617970761F0F3
:10171000608171816115710529F0448155810E94B4
:10172000490B02C00E948C0DCE01DF91CF9108952C
:1017300020910101309102012F5F3F4F3093020150
:101740002093010166E0629FA001639F500D112468
:10175000BC01CA018F569B4F0C94810BBF92CF9254
:10176000DF92EF92FF920F931F93CF93DF937C0151
:101770006B018A01E9012417350720F4812F8901C3
:10178000C42FD82F61EC71E0C7010E94AC0DD601C7
:1017900014968D919C91159708171907C8F48C170A
:1017A0009D0708F4EC01D601ED91FC911197EC0F27
:1017B000FD1FB08010826D917C91600F711FC70179
:1017C0000E946A0BD601ED91FC91EC0FFD1FB082D7
:1017D000C701DF91CF911F910F91FF90EF90DF90A4
:1017E000CF90BF9008950F931F93CF93DF93EC0199
:1017F0008B016BE3C8010E942A0A9C0140E050E083
:10180000B801CE010E94AE0BCE01DF91CF911F91A6
:101810000F9108958F929F92AF92BF92CF92DF92D5
:10182000EF92FF920F931F93CF93DF93CDB7DEB765
:1018300062970FB6F894DEBF0FBECDBF81E9E82EE8
:1018400084E0F82EC12CD12C9BE3992E23E2822E2A
:1018500080910101909102018C159D050CF491C0BD
:10186000B701CE0107960E94A30DBE01695F7F4FAD
:10187000CE0101960E94A30DCE0101960E9435086B
:101880008C01CE0101960E949E0DA0900101B090A6
:1018900002018FEFA81AB80A6EE671E0CE01019638
:1018A0000E94AC0D4B855C856F817885CE010196D9
:1018B0000E947B0A811104C0CE0101960E948C0D0A
:1018C0009D861E8641E050E0BE01635F7F4FCE01E2
:1018D00001960E947B0A811104C0CE0101960E94EC
:1018E0008C0DB801CE0101960E94DA0A8C018D861A
:1018F0001E8641E050E0BE01635F7F4F0E947B0A7D
:10190000811103C0C8010E948C0DB501C8010E945D
:10191000DA0ABC01CE010D960E94A30DCE010196FC
:101920000E949E0DCE0107960E949E0D00E010E0E1
:1019300089899A8908171907C8F4ED85FE853097BB
:1019400029F410920F05EFE0F5E002C0E00FF11F5F
:10195000608185E293E00E94FF0265E070E080E034
:1019600090E00E948D040F5F1F4FE2CFCE010D96D5
:101970000E949E0D8FEFC81AD80A86E0E80EF11C6F
:1019800067CF109200011092220362960FB6F8946E
:10199000DEBF0FBECDBFDF91CF911F910F91FF90A2
:1019A000EF90DF90CF90BF90AF909F908F90089571
:1019B00085E293E00E943B0121E0892B09F420E0BD
:1019C000822F08951F920F920FB60F9211242F931A
:1019D0003F934F935F936F937F938F939F93AF93B7
:1019E000BF93EF93FF9385E293E00E94DD02FF91A6
:1019F000EF91BF91AF919F918F917F916F915F9187
:101A00004F913F912F910F900FBE0F901F901895FF
:101A10001F920F920FB60F9211242F938F939F93C3
:101A2000EF93FF93E0913503F09136038081E091CD
:101A30003B03F0913C0382FD12C0908180913E03F4
:101A40008F5F8F7320913F03821751F0E0913E0327
:101A5000F0E0EB5DFC4F958F80933E0301C08081E9
:101A6000FF91EF919F918F912F910F900FBE0F904B
:101A70001F9018950895CF92DF92EF92FF920F93E7
:101A80001F93CF93DF936C017A018B01C0E0D0E00C
:101A9000CE15DF0581F0D8016D918D01D601ED9154
:101AA000FC910190F081E02DC6010995892B11F080
:101AB0002196EECF7E01C701DF91CF911F910F914B
:101AC000FF90EF90DF90CF9008950F931F93CF93E7
:101AD000DF93EC0188819981009729F02A813B816D
:101AE0002617370788F48B016F5F7F4F0E94141B06
:101AF000009761F0998388831B830A832C813D8141
:101B0000232B11F4FC01108281E001C080E0DF9101
:101B1000CF911F910F910895CF93DF93EC018881AE
:101B20009981009711F00E948B1A198218821D82E8
:101B30001C821B821A82DF91CF910895FC01808163
:101B400091810C948B1AFC011182108213821282F3
:101B5000158214820C94810BFC0111821082138275
:101B60001282158214826115710551F0FB010190FA
:101B70000020E9F73197AF01461B570B0C94490B36
:101B80000895CF92DF92EF92FF920F931F93E82F69
:101B9000F92F05C0015011092109310961F1908126
:101BA00096239417B9F305C0015011092109310991
:101BB00011F1908196239413F7CFC12CD12CE12CF5
:101BC000F12C0AC08FEFC81AD80AE80AF80A0C15D7
:101BD0001D052E053F0579F080818623841791F33A
:101BE0006C2D7D2D8E2D9F2D1F910F91FF90EF90CD
:101BF000DF90CF90089560E070E080E090E01F916A
:101C00000F91FF90EF90DF90CF900895CF93DF93E7
:101C100081E591E09093C5038093C40382E394E04F
:101C20000E949E0D8FE391E09093C5038093C403BF
:101C30008091C2039091C303845C934071F4E0915E
:101C4000D703F091D80390818091D903809589239F
:101C500080831092C3031092C20383E295E00E9436
:101C60009E0DC7ECD4E02697CE010E949E0D84E025
:101C7000C139D807C1F7CFE0D5E02897CE010E943F
:101C80009E0D24E0C73CD207C1F7DF91CF910895A4
:101C9000FF920F931F93CF93DF931092280310921C
:101CA000270388EE93E0A0E0B0E0809329039093AF
:101CB0002A03A0932B03B0932C032BE131E0309344
:101CC00026032093250325EC30E030933203209344
:101CD000310324EC30E0309334032093330320ECC1
:101CE00030E0309336032093350321EC30E030931D
:101CF00038032093370322EC30E030933A032093EB
:101D0000390326EC30E030933C0320933B031092E0
:101D10003E0310923F031092400310924103109231
:101D20001305109212058093140590931505A09346
:101D30001605B09317058DE291E0909311058093FD
:101D4000100581E090E090932A0580932905109278
:101D50002B0610922C0610922D0610922E06109231
:101D60002F06109230061092310610923206109211
:101D700033061092340610923506109236061092F1
:101D800037061092380610923A06109239061092D1
:101D90003B0610923C0610923D0610923E061092B1
:101DA0003F06109240061092410610924206109291
:101DB0004306C7ECD4E00FE015E028E0F22EFE0168
:101DC0008F2D11928A95E9F761EC71E0CE010E94A6
:101DD000AC0D28960C171D0791F7C1E9D4E007EC6C
:101DE00014E061EC71E0CE010E94AC0D26960C1758
:101DF0001D07B9F710928D0410928E0410928F0473
:101E000088E080931C0561EC71E083E295E00E941C
:101E1000AC0D86E08093850487E08093860499E08A
:101E20009093870485E080937D0424E020937E04D2
:101E30008AE080937F043BE030936F043CE0309372
:101E4000700461E0609371043EE0309361043FE010
:101E5000309362042093630420E12093530421E132
:101E60002093540423E02093550490931D05809300
:101E70001E0582E080931F0510923C0410923D04E1
:101E800010923E041092E3031092E4031092E503D3
:101E90001092C7031092C60388EE93E0A0E0B0E072
:101EA0008093C8039093C903A093CA03B093CB0354
:101EB0008FE391E09093C5038093C4031092DB03FA
:101EC0001092DA031092DD031092DC031092DF030C
:101ED0001092DE031092E1031092E0038091E2037E
:101EE0008E7F8D7F8093E20386958170682780E0E6
:101EF0000E94A10361E080E00E94D00308EA11E0A3
:101F0000F80184918093D403C4E9D1E0FE01849167
:101F1000E82FF0E0EE0FFF1FE657FE4F85919491FA
:101F20009093D6038093D50360E080E00E94D003B5
:101F30008091E20381FD04C061E080E00E94A10382
:101F40001092D003F80104910093D103FE01C491D3
:101F5000EC2FF0E0EE0FFF1FE058FE4F85919491BB
:101F60009093D3038093D20381E591E09093C503CE
:101F70008093C40361EC71E082E394E00E94AC0DB5
:101F80001092E9031092E8038091E40380933A04ED
:101F90008091E30380933B0481E09091E5039530C9
:101FA00009F080E08093E70381E591E09093C50319
:101FB0008093C403DF91CF911F910F91FF900895FB
:101FC000CF93DF93CDB7DEB7AA970FB6F894DEBFF5
:101FD0000FBECDBF789484B5826084BD84B5816026
:101FE00084BD85B5826085BD85B5816085BD8091E4
:101FF0006E00816080936E0010928100809181005C
:102000008260809381008091810081608093810053
:10201000809180008160809380008091B100846015
:102020008093B1008091B00081608093B000809176
:102030007A00846080937A0080917A008260809335
:102040007A0080917A00816080937A0080917A0092
:10205000806880937A001092C10085E180935204D9
:1020600080933D0486EB93E0909351048093500459
:1020700088E090E09093EB038093EA038091E7037C
:102080008823B1F1E0913503F091360382E080833B
:10209000E0913103F09132031082E0913303F0912B
:1020A000340380E1808310923D03E0913903F09185
:1020B0003A0386E08083E0913703F0913803808112
:1020C00080618083E0913703F091380380818860DC
:1020D0008083E0913703F0913803808180688083AA
:1020E000E0913703F091380380818F7D808371C048
:1020F0001092DF031092DE031092DD031092DC03D6
:102100001092DB031092DA038FE190E09093E103E9
:102110008093E0039091D003963108F058C021E0FD
:1021200030E03093DB032093DA032DE130E030938D
:10213000DD032093DC032DE030E03093DF032093B8
:10214000DE0340916800983058F031E09E3008F48A
:1021500030E021E0822F01C0880F3A95EAF701C0F4
:1021600084E0842B80936800983038F09E3040F0F3
:10217000963148F020E030E008C02DE630E005C0A0
:102180002BE630E002C02CE630E03093D8032093F9
:10219000D703983030F481E001C0880F9A95EAF7B0
:1021A0000EC0292F30E09E3018F42850310902C0AB
:1021B0002E50310981E001C0880F2A95EAF78093FB
:1021C000D9038091E0039091E1030197F1F70E9418
:1021D000860882E090E0A0E0B0E08093C80390938E
:1021E000C903A093CA03B093CB038091E703811185
:1021F00002C00E94860882E090E0A0E0B0E08093F8
:10220000290390932A03A0932B03B0932C03552406
:10221000539466246A94762C63E2262E312C0E9415
:10222000B908882371F080910301882351F010923E
:102230000301809108018F5F823008F403C410927B
:1022400008010E94B908811105C08091030188230B
:1022500009F4FBC361EC71E0CE0185960E94AC0DE0
:1022600080910801882321F0813009F4D1C3E1C3B2
:1022700080910701882321F00E94C3091092070171
:1022800061EC71E0CE014F960E94AC0D85E293E0C7
:102290000E943B01181619060CF04FC161EC71E069
:1022A000CE0101960E94AC0D0E948F0997FD0CC0D3
:1022B0008F83188641E050E0BE01695F7F4FCE01F9
:1022C00001960E947B0AF0CFBE016F5F7F4FCE0167
:1022D0004F960E94100BCE0101960E949E0D64E75E
:1022E00071E0CE0101960E94AC0D4D815E818BA103
:1022F0009CA18417950788F08F8D98A1009769F0AD
:1023000069817A816115710541F00E94031C892B56
:1023100021F410912203152501C010E0CE01019691
:102320000E949E0D112309F408C18091040190912F
:102330000501019690930501809304016AE3CE01A3
:102340004F960E942A0A2BA13CA1AC014F5F5F4F20
:10235000BE01615E7F4FCE0149960E94AE0BBE0169
:10236000675E7F4FCE010D960E94A30DBE01635F95
:102370007F4FCE0107960E94A30D63E2CE01079620
:102380000E942A0A2B853C85AC014F5F5F4FBE013E
:10239000695F7F4FCE0101960E94AE0B89819A81C1
:1023A000009721F00E944815F62E01C0F12CCE01B5
:1023B00001960E949E0DCE0107960E949E0DBE01C1
:1023C000635F7F4FCE0101960E94A30DBE016F5F38
:1023D0007F4FCE0107960E94F30BCE0101960E941B
:1023E0009E0D009104011091050143E0000F111FA3
:1023F0004A95E1F709531B4FBE01695F7F4FC80142
:102400000E94810B6F2D70E0F80177836683CE0107
:1024100007960E949E0DCE010D960E949E0DBE0154
:10242000675E7F4FCE0143960E94A30DBE016D5E95
:102430007F4FCE0101960E94A30DBE016F5F7F4FBB
:10244000CE0107960E94F30BCE0107960E94350835
:102450008C01CE0107960E949E0DCE0101960E942E
:102460009E0DBE016D5E7F4FCE010D960E94A30DA5
:1024700089899A89892B69F0ED84FE8463E270E092
:10248000C7010E94E81B009721F09C012E193F090B
:1024900002C02FEF3FEF40E050E0BE01635F7F4F8F
:1024A000CE0107960E94AE0B6BE3CE0107960E9409
:1024B0002A0A2B853C85AC014F5F5F4FBE01695FE7
:1024C0007F4FCE0101960E94AE0B89819A810097C1
:1024D00029F00E9448156B017C0103C0C12CD12C4E
:1024E0007601CE0101960E949E0DCE0107960E94B4
:1024F0009E0DCE010D960E949E0DCE0143960E9428
:102500009E0D0C151D0511F050922203BE01675E51
:102510007F4FCE0101960E94A30DBE016F5F7F4FDA
:10252000CE0107960E94F30BCE0101960E949E0DEC
:10253000CE0149960E949E0D0DC018861F821A86F4
:1025400019861C861B86BE01615E7F4FCE010796F1
:102550000E94100BCE014F960E949E0DBE01695F36
:102560007F4FCE0185960E94100BCE0107960E94E8
:102570009E0D69E671E0CE0185960E945C0A882373
:1025800009F429C20091040110910501A8014F5FCF
:102590005F4F37ECC32E34E0D32EF60180E090E09D
:1025A00008171907E4F0268137812417350709F049
:1025B00016C2A7ECB4E021E030E00217130764F084
:1025C000189616966D917C9117974617570709F044
:1025D00006C22F5F3F4FF1CF01963896E1CFA12C75
:1025E000B12CA016B1060CF0B2C0B601CE01019616
:1025F0000E94A30D6FE571E0CE0101960E945C0A76
:10260000882339F00E940A0CCE0101960E949E0D8B
:102610009EC080910001811127C021E9E22E24E0B3
:10262000F22E812C912C809101019091020188154C
:1026300099053CF4709202016092010150920001F0
:1026400013C061EC71E0C7010E946A0BFFEF8F1AA3
:102650009F0A26E0E20EF11C61EC71E0C7010E94C6
:102660005C0A882301F3E6CF68E771E0CE010196AA
:102670000E945C0A882349F06FE770E085E894E0E7
:102680000E94EB076FE770E010C063E871E0CE01D5
:1026900001960E945C0A8823A9F061E87FEF85E833
:1026A00094E00E94EB0761E87FEF8DE794E00E94E1
:1026B000EB0762EC71E080E090E00E948D040E94E4
:1026C00029083AC06FE871E0CE0101960E945C0AC9
:1026D000882319F061E87FEF12C069E971E0CE014B
:1026E00001960E945C0A8111EACF64EA71E0CE0192
:1026F00001960E945C0A882359F067E77FEF85E81E
:1027000094E00E94EB076FE770E08DE794E012C061
:1027100060EB71E0CE0101960E945C0A882361F0B3
:1027200069E870E08DE794E00E94EB0761E87FEFD5
:1027300085E894E00E94EB07CE0101960E949E0D71
:102740008FEFA81AB80AE8E0CE0ED11C4ACF8091CC
:10275000950490919604892B09F03AC16DEB71E0D4
:10276000CE0143960E94AC0D0E94C70400917504EF
:10277000109176042091770430917804DC01CB012C
:10278000801B910BA20BB30B4897A105B10510F06C
:102790005092740480917404882309F45FC00E94ED
:1027A000C7046093750470937604809377049093C4
:1027B00078041092740460E08FE694E00E9425078C
:1027C00083E090E00197F1F761E08FE694E00E94EA
:1027D0002507C1010197F1F760E08FE694E00E94C0
:1027E000250760E0809170040E94D00380917004FE
:1027F00090E0FC01E855FE4F6491FC01EC56FE4F61
:10280000E491F0E0EE0FFF1FE058FE4F85919491A8
:1028100008EB16E520E030E0462F0E94C10D61155F
:1028200071058105910551F06B017C01FFEFCF1A15
:10283000DF0AEF0AFF0A2FE0F22203C0C12CD12CDD
:102840007601C701B6010E94ED1760937904709379
:102850007A0480937B0490937C040CC0609179048B
:1028600070917A0480917B0490917C040E948F196E
:102870006B017C01C114D104E104F10431F480EA5C
:10288000C82E8AE5D82EE12CF12CC701B6010E9492
:10289000ED1720E030E048E652E40E941D19AB013C
:1028A000BC01CE0143960E94A90ABE016D5E7F4F16
:1028B000CE0101960E94A30DCE0101960E94980BB5
:1028C000CE0101960E949E0D62EC71E0CE010D9644
:1028D0000E94AC0D60E0809153040E94D00380916F
:1028E00053040E946B04BC0180E090E00E94EB174F
:1028F00020E030E040EE5FE30E941D192CE53FE848
:1029000042E250E40E942818AB01BC01CE010D96B2
:102910000E94A90ABE01635F7F4FCE0101960E940B
:10292000A30DCE0101960E94980BCE0101960E9444
:102930009E0D67EC71E0CE0107960E94AC0D60E041
:10294000809161040E94D003809161040E946B0415
:10295000BC0180E090E00E94EB1720E030E040EE08
:102960005FE30E941D192CE53FE842E250E40E941B
:102970002818AB01BC01CE0107960E94A90ABE012E
:10298000695F7F4FCE0101960E94A30DCE01019693
:102990000E94980BCE0101960E949E0D69E671E09F
:1029A000CE0101960E94AC0DCE0101960E94980BBB
:1029B000CE0101960E949E0DCE0107960E949E0DAB
:1029C000CE010D960E949E0DCE0143960E949E0D53
:1029D0000E940A0C06C080912203882381F00E9485
:1029E000520861EC71E087EC94E00E946A0B10924F
:1029F000CE041092CD04709205016092040165E04E
:102A000070E080E090E00E948D045092060113C0B7
:102A100080910601882351F00E94C309109206019B
:102A200068EE73E080E090E00E948D045092070110
:102A300002C00E942908CE0185960E949E0D0E9428
:102A40004701EDCB80930801FCCB5092030102CCEF
:102A5000EF920F931F93CF93DF93E80147FD02C0DE
:102A600034E001C034E1042E000C550B57FF03C0C5
:102A7000519541955109E32E022F242FAE010E945A
:102A8000A915CE01DF91CF911F910F91EF9008957D
:102A90001F93FC0199278827BC01E89411911032FB
:102AA000E9F3193010F01E30C8F31B3251F01D321B
:102AB00049F4689406C00E947A15610F711D811D4A
:102AC000911D119110531A30B0F33EF490958095FA
:102AD000709561957F4F8F4F9F4F1F910895BB2732
:102AE0004A3031F4992322F4BDE2909581959F4FAD
:102AF0000C949015592F482F372F262F660F771FCC
:102B0000881F991F660F771F881F991F620F731FF9
:102B1000841F951F660F771F881F991F0895BB2775
:102B2000FB015527AA27880F991FAA1FA41710F089
:102B3000A41B83955051B9F7A05DAA3308F0A95D95
:102B4000A193009779F7B111B1931192CB010C9435
:102B5000DB17A9E0B0E0EFEAF5E10C94EC186A01AC
:102B6000122FB02E2BE3201720F0FF24F394F00E49
:102B700002C02CE3F22E0F2D27E0AE014F5F5F4F16
:102B80000E940317BC014981842F8970813031F084
:102B9000E1FC06C0E0FE06C090E205C09DE203C075
:102BA0009BE201C090E05E2D507143FF3CC091114B
:102BB00002C083E001C084E0811718F4212F281B94
:102BC00001C020E051110BC0F601822F30E28823B2
:102BD00019F031938150FBCFC20ED11C20E0992314
:102BE00029F0D6019C93F60131966F01C601039638
:102BF000E2FE0AC03EE4D6013C9341E411964C93B8
:102C0000119712963C9306C03EE6F601308341E6EA
:102C100041833283FC01322F40E2332309F442C066
:102C200041933150FACF42FF44C0911102C083E07A
:102C300001C084E0811718F4212F281B01C020E077
:102C400051110BC0F601822F30E2882319F0319325
:102C50008150FBCFC20ED11C20E0992329F0D60170
:102C60009C93F60131966F01C6010396E2FE0BC0FC
:102C700039E4D6013C933EE411963C93119736E437
:102C800012963C9307C039E6F60130833EE6318365
:102C900036E63283FC01322F40E2332319F04193B0
:102CA0003150FBCFFC01E20FF11D10828EEF9FEF40
:102CB000A6C021E030E0911102C020E030E01616FD
:102CC00017061CF4FB01319602C0E1E0F0E02E0F84
:102CD0003F1FBB2021F0EB2DF0E0319602C0E0E079
:102CE000F0E02E0F3F1FE12FF0E02E173F071CF4FE
:102CF000121B212F01C020E08E2D887159F4F6019E
:102D0000822F30E2882319F031938150FBCFC20E1D
:102D1000D11C20E0992329F0D6019C93F60131962D
:102D20006F0151110BC0F601822F90E3882319F037
:102D300091938150FBCFC20ED11C20E00F2D060FC6
:102D40009A81342F307144FF03C0913309F401504C
:102D5000101624F4093018F008E001C001E0AB01BE
:102D600077FF02C040E050E0FB01E41BF50BA1E05F
:102D7000B0E0AC0FBD1FEA0FFB1F8EE2A82E4B0187
:102D8000801A91080B2D10E01195019511094F3F04
:102D9000BFEF5B0721F4D601AC9211966D01641769
:102DA00075072CF08416950614F4818101C080E328
:102DB000415051093196D60111967D0140175107B6
:102DC00024F0D6018C936701E2CF6417750739F4BC
:102DD000963320F4953319F4311101C081E3F601E3
:102DE0008083F701822F90E2882319F0919381501C
:102DF000FBCFF701E20FF11D108280E090E02996F1
:102E0000ECE00C940819283008F027E03327DA01A9
:102E1000990F311D87FD916000966105710539F4A8
:102E200032602E5F3D9330E32A95E1F708959F3F8E
:102E300030F080387105610509F03C5F3C5F3D93DF
:102E4000913008F08068911DDF93CF931F930F930B
:102E5000FF92EF92192F987F9695E92F9695969568
:102E6000E90FFF27EE53FF4F99273327EE24FF2466
:102E7000A701E70105900894079428F4360FE71E90
:102E8000F81E491F511D660F771F881F991F069452
:102E9000A1F70590079428F4E70EF81E491F561F66
:102EA000C11D770F881F991F661F0694A1F7059013
:102EB000079428F4F80E491F561FC71FD11D880F0D
:102EC000991F661F771F0694A1F70590079420F4B9
:102ED000490F561FC71FD81F990F661F771F881FDE
:102EE0000694A9F784911095177041F0D695C7956F
:102EF00057954795F794E7941A95C1F7E8E6F0E0FF
:102F000068941590159135916591959105907FE2A2
:102F10007395E118F10A430B560BC90BD009C0F7A2
:102F2000E10CF11E431F561FC91FD01D7EF47033E4
:102F300011F48A95E6CFE894015030F0080F0AF4B6
:102F40000027021708F4202F2395022F7A3328F048
:102F500079E37D932A95E9F710C07D932A9589F648
:102F6000069497956795379517951794E118F10A88
:102F7000430B560BC90BD00998F023957E9173959E
:102F80007A3308F070E37C932013B8F77E91706178
:102F90007D9330F0839571E37D9370E32A95E1F79B
:102FA0001124EF90FF900F911F91CF91DF919927FE
:102FB00087FD90950895DC01FC01672F71917723BF
:102FC000E1F7329704C07C916D9370836291AE17E4
:102FD000BF07C8F30895E89409C097FB3EF49095A5
:102FE0008095709561957F4F8F4F9F4F9923A9F0E2
:102FF000F92F96E9BB279395F69587957795679571
:10300000B795F111F8CFFAF4BB0F11F460FF1BC0B4
:103010006F5F7F4F8F4F9F4F16C0882311F096E947
:1030200011C0772321F09EE8872F762F05C06623F5
:1030300071F096E8862F70E060E02AF09A95660FAE
:10304000771F881FDAF7880F9695879597F9089567
:103050000E943B180C94AC180E949E1838F00E94F5
:10306000A51820F0952311F00C9495180C949B183A
:1030700011240C94E0180E94BD1870F3959FC1F3C1
:10308000950F50E0551F629FF001729FBB27F00D16
:10309000B11D639FAA27F00DB11DAA1F649F66276B
:1030A000B00DA11D661F829F2227B00DA11D621FBA
:1030B000739FB00DA11D621F839FA00D611D221F74
:1030C000749F3327A00D611D231F849F600D211D58
:1030D000822F762F6A2F11249F5750409AF0F1F0DB
:1030E00088234AF0EE0FFF1FBB1F661F771F881F44
:1030F00091505040A9F79E3F510580F00C949518CF
:103100000C94E0185F3FE4F3983ED4F386957795EE
:103110006795B795F795E7959F5FC1F7FE2B880FE9
:10312000911D9695879597F9089597F99F6780E87F
:1031300070E060E008959FEF80EC089500240A9409
:103140001616170618060906089500240A94121682
:103150001306140605060895092E0394000C11F4B5
:10316000882352F0BB0F40F4BF2B11F460FF04C062
:103170006F5F7F4F8F4F9F4F089557FD9058440FBB
:10318000551F59F05F3F71F04795880F97FB991FC6
:1031900061F09F3F79F08795089512161306140683
:1031A000551FF2CF4695F1DF08C016161706180610
:1031B000991FF1CF86957105610508940895E894EB
:1031C000BB2766277727CB0197F908952F923F9267
:1031D0004F925F926F927F928F929F92AF92BF9227
:1031E000CF92DF92EF92FF920F931F93CF93DF93D3
:1031F000CDB7DEB7CA1BDB0B0FB6F894DEBF0FBE30
:10320000CDBF09942A88398848885F846E847D847C
:103210008C849B84AA84B984C884DF80EE80FD807E
:103220000C811B81AA81B981CE0FD11D0FB6F894F4
:10323000DEBF0FBECDBFED0108950E9431190C9481
:10324000AC180E94A51858F00E949E1840F029F46E
:103250005F3F29F00C94951851110C94E0180C94D0
:103260009B180E94BD1868F39923B1F3552391F37D
:10327000951B550BBB27AA2762177307840738F0E5
:103280009F5F5F4F220F331F441FAA1FA9F335D042
:103290000E2E3AF0E0E832D091505040E695001CF6
:1032A000CAF72BD0FE2F29D0660F771F881FBB1FB0
:1032B000261737074807AB07B0E809F0BB0B802D8E
:1032C000BF01FF2793585F4F3AF09E3F510578F0BA
:1032D0000C9495180C94E0185F3FE4F3983ED4F3F7
:1032E000869577956795B795F7959F5FC9F7880F8E
:1032F000911D9695879597F90895E1E0660F771FE0
:10330000881FBB1F621773078407BA0720F0621B70
:10331000730B840BBA0BEE1F88F7E09508950E949B
:1033200096196894B1110C94E01808950E94C5187C
:1033300088F09F5798F0B92F9927B751B0F0E1F076
:10334000660F771F881F991F1AF0BA95C9F714C026
:10335000B13091F00E94DF18B1E008950C94DF18AD
:10336000672F782F8827B85F39F0B93FCCF386955F
:1033700077956795B395D9F73EF4909580957095BC
:1033800061957F4F8F4F9F4F089597FB072E16F43F
:10339000009407D077FD09D00E94D91907FC05D009
:1033A0003EF4909581959F4F0895709561957F4F5C
:1033B0000895AA1BBB1B51E107C0AA1FBB1FA6177C
:1033C000B70710F0A61BB70B881F991F5A95A9F7CE
:1033D00080959095BC01CD010895EE0FFF1F0590DB
:1033E000F491E02D09940F931F93CF93DF938230D4
:1033F000910510F482E090E0E0914606F0914706D6
:1034000020E030E0A0E0B0E0309719F14081518138
:103410000281138148175907C8F08417950769F48A
:10342000109731F012960C93129713961C9327C0A5
:10343000009346061093470622C02115310519F066
:103440004217530718F49A01BD01EF01DF01F8019B
:10345000DBCF21153105F9F0281B390B243031055C
:1034600080F48A819B816115710521F0FB019383B2
:10347000828304C09093470680934606FE013296ED
:1034800044C0FE01E20FF31F819391932250310952
:10349000398328833AC02091440630914506232B76
:1034A00041F420910B0130910C013093450620939B
:1034B00044062091090130910A012115310541F49A
:1034C0002DB73EB740910D0150910E01241B350BD5
:1034D000E0914406F0914506E217F307A0F42E1B95
:1034E0003F0B2817390778F0AC014E5F5F4F241768
:1034F000350748F04E0F5F1F509345064093440632
:103500008193919302C0E0E0F0E0CF01DF91CF9191
:103510001F910F910895CF93DF93009709F481C015
:10352000FC01329713821282A0914606B0914706A1
:10353000109781F420813181820F931F20914406DE
:10354000309145062817390751F5F0934506E09369
:10355000440667C0ED0120E030E0CE17DF0740F4FD
:103560004A815B819E0141155105F1F0EA01F5CFD9
:10357000D383C28340815181840F951FC817D90717
:1035800059F488819981840F951F029691838083D5
:103590008A819B81938382832115310529F4F093DD
:1035A0004706E09346063DC0E901FB83EA83499163
:1035B0005991C40FD51FEC17FD0761F480819181EB
:1035C000840F951F0296E9019983888382819381F4
:1035D0009B838A83E0E0F0E012968D919C91139793
:1035E000009719F0FD01DC01F7CF8D919C911197A7
:1035F0009D012E5F3F4F820F931F20914406309113
:1036000045062817390769F4309729F410924706C0
:103610001092460602C013821282B0934506A09310
:103620004406DF91CF910895A0E0B0E0EAE1FBE12C
:103630000C94EA18EC01009721F4CB010E94F319D5
:10364000B4C0FC01E60FF71F9C0122503109E217BC
:10365000F30708F4A8C0D9010D911C911197061722
:103660001707B0F00530110508F49BC0C801049796
:103670008617970708F495C002501109061B170B0F
:10368000019311936D937C93CF010E948B1A89C093
:103690005B01A01AB10A4C01800E911EA091460652
:1036A000B0914706612C712CE12CF12C109709F494
:1036B00046C08D919C911197A815B905B1F56C0183
:1036C00042E0C40ED11CCA14DB0478F14C018A1804
:1036D0009B08640142E0C40ED11C1296BC90129764
:1036E0001396AC91B5E0CB16D10440F0B282A3831F
:1036F00091828082D9016D937C9309C00E5F1F4F28
:10370000800F911FF90191838083EB2DFA2FE11433
:10371000F10431F0D7011396FC93EE93129741C058
:10372000F0934706E09346063CC06816790608F415
:103730003C017D0112960D90BC91A02DB7CF8091D8
:1037400044069091450688169906E1F466167706B8
:10375000C8F48091090190910A01009741F48DB756
:103760009EB740910D0150910E01841B950BE817F7
:10377000F907C8F4F0934506E0934406F901718314
:1037800060830FC0CB010E94F3197C01009759F0B0
:10379000A801BE010E94DF1BCE010E948B1AC70147
:1037A00004C0CE0102C080E090E0CDB7DEB7EEE00D
:1037B0000C94061981E090E0F8940C941C1CFB0119
:1037C000DC0102C001900D9241505040D8F708959D
:1037D000FC018191861721F08823D9F79927089554
:1037E0003197CF010895FB01DC018D910190801983
:1037F0000110D9F3990B0895FB01DC0101900D92A2
:103800000020E1F70895FB01DC014150504030F009
:103810008D910190801919F40020B9F7881B990B3C
:103820000895FC0181E090E00190061609F4CF01B3
:103830000020D1F70197089510E0CFEDD0E004C04B
:10384000FE010E94ED192196C03ED107C9F7F894F8
:02385000FFCFA8
:1038520001FFFF01FFFF0101FF0000480680000198
:103862000000000202030400000000FF023B0D0AF8
:103872000156033B0119012D01000000008B02805B
:10388200029C02B70179027602730200000000B8BE
:10389200013B0D9C02B701080220029F01000000BB
:1038A200004C033B0D9C02B701A102C3029F0153CE
:1038B200656E64416761696E004F766572004D42C4
:1038C2006F743A004D533A00526F746174654C65DF
:1038D200667400526F74617465526967687400524D
:1038E200756E4D6F746F72730053746F704D6F7499
:1038F2006F727300537065656455704C6566740031
:103902005370656564557052696768740046555313
:0C39120027004C55532700525553270046
:107E0000112484B714BE81FFF0D085E080938100F7
:107E100082E08093C00088E18093C10086E0809377
:107E2000C20080E18093C4008EE0C9D0259A86E02C
:107E300020E33CEF91E0309385002093840096BBD3
:107E4000B09BFECF1D9AA8958150A9F7CC24DD24C4
:107E500088248394B5E0AB2EA1E19A2EF3E0BF2EE7
:107E6000A2D0813461F49FD0082FAFD0023811F036
:107E7000013811F484E001C083E08DD089C08234E0
:107E800011F484E103C0853419F485E0A6D080C0E4
:107E9000853579F488D0E82EFF2485D0082F10E0AE
:107EA000102F00270E291F29000F111F8ED06801E7
:107EB0006FC0863521F484E090D080E0DECF843638
:107EC00009F040C070D06FD0082F6DD080E0C81688
:107ED00080E7D80618F4F601B7BEE895C0E0D1E017
:107EE00062D089930C17E1F7F0E0CF16F0E7DF06D8
:107EF00018F0F601B7BEE89568D007B600FCFDCFD4
:107F0000A601A0E0B1E02C9130E011968C91119780
:107F100090E0982F8827822B932B1296FA010C0160
:107F200087BEE89511244E5F5F4FF1E0A038BF0790
:107F300051F7F601A7BEE89507B600FCFDCF97BE46
:107F4000E89526C08437B1F42ED02DD0F82E2BD052
:107F50003CD0F601EF2C8F010F5F1F4F84911BD097
:107F6000EA94F801C1F70894C11CD11CFA94CF0C13
:107F7000D11C0EC0853739F428D08EE10CD085E9AC
:107F80000AD08FE07ACF813511F488E018D01DD067
:107F900080E101D065CF982F8091C00085FFFCCF94
:107FA0009093C60008958091C00087FFFCCF809118
:107FB000C00084FD01C0A8958091C6000895E0E648
:107FC000F0E098E1908380830895EDDF803219F02E
:107FD00088E0F5DFFFCF84E1DECF1F93182FE3DFCA
:107FE0001150E9F7F2DF1F91089580E0E8DFEE27F6
:047FF000FF270994CA
:027FFE00040479
:0400000300007E007B
:00000001FF