:100000000C9462000C948A000C948A000C948A0070
:100010000C948A000C948A000C948A000C94860636
:100020000C948A000C948A000C948A000C9422068A
:100030000C948A000C948A000C948A000C948A0018
:100040000C94AE040C948A000C947C040C9456041A
:100050000C948A000C948A000C948A000C948A00F8
:100060000C94F8040C948A0000000000240027007F
:100070002A0000000000250028002B0000000008D6
:10008000000201000003040700000000000000005F
:1000900000000000230026002900040404040404D6
:1000A0000404020202020202030303030303010227
:1000B00004081020408001020408102001020408F6
:1000C00010209A0711241FBECFEFD8E0DEBFCDBFAE
:1000D00011E0A0E0B1E0E2E2F7E102C005900D928C
:1000E000AE32B107D9F724E0AEE2B1E001C01D9213
:1000F000AF33B207E1F710E0C2E6D0E004C02197C9
:10010000FE010E94840BC136D107C9F70E9428085E
:100110000C948F0B0C940000CF92DF92EF92FF9221
:100120000F931F93CF93DF936C017A018B01C0E093
:10013000D0E0CE15DF0581F0D8016D918D01D6019B
:10014000ED91FC910190F081E02DC6010995892B7C
:1001500011F02196EECF7E01C701DF91CF911F9163
:100160000F91FF90EF90DF90CF900895FC01538D99
:10017000448D252F30E0842F90E0821B930B541781
:1001800010F0CF96089501970895FC01918D828D0E
:10019000981761F0828DDF01A80FB11D5D968C91DB
:1001A000928D9F5F9F73928F90E008958FEF9FEFE6
:1001B0000895FC01918D828D981731F0828DE80FA2
:1001C000F11D858D90E008958FEF9FEF0895FC015C
:1001D000918D228D892F90E0805C9F4F821B910929
:1001E0008F739927089586E492E00E94E70021E04A
:1001F000892B09F420E0822F0895FC01848DDF0112
:10020000A80FB11DA35ABF4F2C91848D90E0019689
:100210008F739927848FA689B7892C93A089B18978
:100220008C91837080648C93938D848D981306C019
:100230000288F389E02D80818F7D80830895EF927D
:10024000FF920F931F93CF93DF93EC0181E0888F90
:100250009B8D8C8D981305C0E889F989808185FD77
:1002600026C0F62E0B8D10E00F5F1F4F0F73112766
:10027000E02E8C8DE8120CC00FB607FCFACFE8898F
:10028000F989808185FFF5CFCE010E94FD00F1CF75
:100290008B8DFE01E80FF11DE35AFF4FF0829FB7EF
:1002A000F8940B8FEA89FB89808180620AC09FB72E
:1002B000F894EE89FF896083E889F98980818370E9
:1002C000806480839FBF81E090E0DF91CF911F9198
:1002D0000F91FF90EF900895CF93DF93EC01888DFD
:1002E0008823C9F0EA89FB89808185FD05C0A8893A
:1002F000B9898C9186FD0FC00FB607FCF5CF8081C0
:1003000085FFF2CFA889B9898C9185FFEDCFCE0109
:100310000E94FD00E7CFDF91CF91089580E090E04B
:10032000892B29F00E94F30081110C94000008959C
:10033000833081F028F4813099F08230A1F0089563
:100340008730A9F08830B9F08430D1F480918000F2
:100350008F7D03C0809180008F7780938000089507
:1003600084B58F7702C084B58F7D84BD0895809158
:10037000B0008F7703C08091B0008F7D8093B00074
:1003800008951F93CF93DF93282F30E0F901E458AD
:10039000FF4F8491F901E255FF4FD491F901E656E0
:1003A000FF4FC491CC23C1F0162F81110E949801F8
:1003B000EC2FF0E0EE0FFF1FEE58FF4FA591B49128
:1003C0009FB7F894111104C08C91D095D82302C026
:1003D000EC91DE2BDC939FBFDF91CF911F910895AD
:1003E000CF93DF9390E0FC01E255FF4F2491FC0195
:1003F000E656FF4F8491882361F190E0880F991FA2
:10040000FC01E859FF4FC591D491FC01EE58FF4F14
:10041000A591B491611109C09FB7F8948881209586
:1004200082238883EC912E230BC0623061F49FB746
:10043000F8948881322F309583238883EC912E2B7A
:100440002C939FBF06C08FB7F894E8812E2B28838A
:100450008FBFDF91CF9108951F93CF93DF93182F14
:10046000EB0161E00E94F001209711F460E004C00C
:10047000CF3FD10539F461E0812FDF91CF911F91FA
:100480000C94C101E12FF0E0E458FF4FE491E33018
:10049000F9F048F4E130B9F0E230A1F584B58062BA
:1004A00084BDC8BD34C0E730E9F0E83019F1E4306C
:1004B00049F580918000806280938000D0938B000A
:1004C000C0938A0024C084B5806884BDC7BD1FC0A6
:1004D00080918000806880938000D0938900C093D1
:1004E000880015C08091B00080688093B000C093F0
:1004F000B3000DC08091B00080628093B000C093C3
:10050000B40005C0C038D1050CF0B5CFAFCFDF9136
:10051000CF911F9108953FB7F89480914002909138
:100520004102A0914202B091430226B5A89B05C0AA
:100530002F3F19F00196A11DB11D3FBFBA2FA92F62
:10054000982F8827820F911DA11DB11DBC01CD01DF
:1005500042E0660F771F881F991F4A95D1F70895CB
:100560002FB7F89460913C0270913D0280913E0259
:1005700090913F022FBF0895CF92DF92EF92FF92AA
:100580000F931F93CF93DF93C0911E04D0911F044C
:100590000E94B00200910E0410910F0420911004EB
:1005A000309111046B017C01C01AD10AE20AF30AEE
:1005B00097018601093011052105310508F475C040
:1005C00060930E0470930F048093100490931104B1
:1005D00060E080910B040E94F00180910B048E304A
:1005E00008F08E508770806480937C0080917A0040
:1005F000806480937A0080917A0086FDFCCF8091A0
:1006000078002091790090E0922B40911204509153
:1006100013046091140470911504452B462B472B4D
:1006200069F4AC01092E000C660B770B40931A0499
:1006300050931B0460931C0470931D0440911A0492
:1006400050911B0460911C0470911D04841B950B38
:1006500097FF03C091958195910944979CF48091EF
:10066000160490911704A0911804B09119040196F2
:10067000A11DB11D8093160490931704A093180434
:10068000B09319048091120490911304A091140462
:10069000B09115040196A11DB11D80931204909391
:1006A0001304A0931404B093150480911204909144
:1006B0001304A0911404B09115040597A105B10588
:1006C00071F51092120410921304109214041092F7
:1006D00015048091160490911704A0911804B0910C
:1006E00019040397A105B10570F080911A04909147
:1006F0001B04A0911C04B0911D04EC0190931F04F5
:1007000080931E0404C0C0911E04D0911F04109257
:100710001604109217041092180410921904CE01B6
:1007200064E670E00E945C0B6830710528F4FB0100
:10073000EE5FFE4F808101C080E0DF91CF911F917D
:100740000F91FF90EF90DF90CF90089585ED80930B
:10075000BC008091BC0084FDFCCF1092150208956E
:100760004091F101262F30E0240F311D2132310557
:10077000DCF4209115022430C9F4FC0180E090E003
:10078000861758F43091F1012191DC01AF52BE4F30
:10079000A30FB11D2C930196F3CF8091F101680F47
:1007A0006093F10180E0089581E0089582E008956A
:1007B00008958FEF9FEF08958FEF9FEF0895809139
:1007C000D00190E09195819591090895CF93DF93A1
:1007D000CB01EA01642F0E94B003CE01DF91CF91DB
:1007E0000895CF93DF931F92CDB7DEB7698361E0A1
:1007F000CE0101960E94B00381E090E00F90DF915E
:10080000CF91089508951F93CF93DF93EC01162F96
:1008100061E089810E94F001612F8981DF91CF9190
:100820001F910C94C1010F931F93CF93DF938C0101
:100830006F3F710519F014F06FEF70E0EB0161305C
:100840007F4F14F4C1E0DFEFF80186819781C8176C
:10085000D90711F1D783C683D7FD0AC061E0C8016B
:100860000E9403048FE090E00197F1F7BE010CC0F5
:1008700060E0C8010E9403048FE090E00197F1F767
:10088000662777276C1B7D0BF8018081DF91CF9164
:100890001F910F910C942C02DF91CF911F910F911A
:1008A000089580E090E008950E948A0B1F920F92B5
:1008B0000FB60F9211242F933F934F935F936F9333
:1008C0007F938F939F93AF93BF93EF93FF9386E4B0
:1008D00092E00E94FD00FF91EF91BF91AF919F9137
:1008E0008F917F916F915F914F913F912F910F90D9
:1008F0000FBE0F901F9018951F920F920FB60F9278
:1009000011242F938F939F93EF93FF93E0915602BF
:10091000F09157028081E0915C02F0915D0282FDCE
:1009200012C0908180915F028F5F8F73209160026F
:10093000821751F0E0915F02F0E0EA5BFD4F958F86
:1009400080935F0201C08081FF91EF919F918F9111
:100950002F910F900FBE0F901F9018951F920F921E
:100960000FB60F9211242F933F938F939F93AF93C2
:10097000BF9380913C0290913D02A0913E02B091C4
:100980003F0230913B0223E0230F2D3720F40196E4
:10099000A11DB11D05C026E8230F0296A11DB11DA2
:1009A00020933B0280933C0290933D02A0933E0231
:1009B000B0933F028091400290914102A091420287
:1009C000B09143020196A11DB11D80934002909306
:1009D0004102A0934202B0934302BF91AF919F9115
:1009E0008F913F912F910F900FBE0F901F901895F0
:1009F0001F920F920FB60F9211242F933F934F9394
:100A00005F936F937F938F939F93AF93BF93EF9376
:100A1000FF938091B900887F803609F49CC068F507
:100A2000883209F45BC090F4803109F454C038F482
:100A3000882309F4F2C0883009F44DC0F2C088312F
:100A400009F44CC0803209F45DC0EBC0803409F475
:100A500068C048F4803309F455C0883309F0E1C018
:100A600080931402D4C0803509F44FC0883509F44E
:100A70005DC0883409F0D5C0D2C0883909F4C3C03C
:100A8000A8F4883709F467C038F4883609F463C0DD
:100A9000803709F460C0C5C0883809F4B4C0803913
:100AA00009F45FC0803809F0BCC05BC0803B09F42A
:100AB00084C038F4803A09F466C0883A09F47DC0ED
:100AC000B0C0803C09F4A3C0883C09F4A0C0883BB6
:100AD00009F486C0A6C080913A0210C090913902F4
:100AE00080913802981770F5E091390281E08E0FFD
:100AF00080933902F0E0E85EFD4F80818093BB0077
:100B000085EC82C0809314028AC0E091390281E0B2
:100B10008E0F809339028091BB00F0E0E85EFD4FBC
:100B2000808390913902809138026AC0E091390245
:100B300081E08E0F809339028091BB00F0E0E85E87
:100B4000FD4F808380911702811169C081E08093FD
:100B5000160284EA5DC083E08093150210921302AE
:100B6000CFCF80911302803208F04DC0E091130284
:100B700081E08E0F809313028091BB00F0E0ED5076
:100B8000FE4F8083BDCF85EC8093BC001092150290
:100B900080911302803230F4E0911302F0E0ED50C6
:100BA000FE4F10826091130270E083EF91E0E0E06D
:100BB000F0E009951092130234C084E0809315028E
:100BC0001092F2011092F101E0E0F0E009958091BD
:100BD000F101811105C081E08093F1011092D101F2
:100BE000E091F20181E08E0F8093F201F0E0EF528C
:100BF000FE4F80818093BB009091F2018091F101C2
:100C0000981708F47DCF85E88093BC000AC085EC76
:100C10008093BC001092150204C0109214020E942E
:100C2000A603FF91EF91BF91AF919F918F917F911B
:100C30006F915F914F913F912F910F900FBE0F9049
:100C40001F9018951F920F920FB60F9211242F9399
:100C50003F938F939F93EF93FF938091CF0187FFF3
:100C600005C0109285001092840005C08091CF01CC
:100C700087FD8091CF018091CF018F5F8093CF015D
:100C80008091CF0187FF20C08091CF018C30E4F4A8
:100C900020918400309185008091CF01082E000CB6
:100CA000990BFC01EE0FFF1F8E0F9F1FFC01E555F6
:100CB000FE4F81819281820F931F909389008093D0
:100CC00088008091CF0117C08091840090918500A9
:100CD000049680349C4918F480E49CE905C0809116
:100CE00084009091850004969093890080938800F9
:100CF0008FEF8093CF01FF91EF919F918F913F9163
:100D00002F910F900FBE0F901F9018951F920F926A
:100D10000FB60F9211240F931F932F933F934F936E
:100D20005F936F937F938F939F93AF93BF93CF9373
:100D3000DF93EF93FF93EEE7F0E08491E0EBF0E0D8
:100D4000D491ECE9F0E0C491CC2379F081110E94B8
:100D50009801EC2FF0E0EE0FFF1FE057FF4FA59139
:100D6000B491EC91ED23C1E009F4C0E0809144011D
:100D700090914501019690934501809344018091A3
:100D8000AA01843618F085E080933F0180913F01ED
:100D9000833079F018F4823039F072C0843011F168
:100DA000853009F44AC06CC0C1116AC01092AA0112
:100DB00029C0C13009F064C0E091AA0181E08E0F22
:100DC0008093AA01F0E08091440190914501E25C9A
:100DD000FE4F8087109245011092440184E0809379
:100DE0003F014EC0C11114C0E091AA0181E08E0FF5
:100DF0008093AA01F0E08091440190914501E25C6A
:100E0000FE4F8087109245011092440183E0E7CFA6
:100E100080914401909145018536910588F185E0E6
:100E200080933F010E94B0026093400170934101A2
:100E3000809342019093430123C00E94B00200912D
:100E40004001109141012091420130914301DC01A8
:100E5000CB01801B910BA20BB30B893C9105A10523
:100E6000B10540F01092AA01109245011092440180
:100E700082E0B5CFC11104C0109245011092440127
:100E8000FF91EF91DF91CF91BF91AF919F918F91A2
:100E90007F916F915F914F913F912F911F910F9192
:100EA0000F900FBE0F901F901895CF92DF92EF9288
:100EB000FF920F931F93E82FF92F05C001501109DE
:100EC0002109310961F1908196239417B9F305C086
:100ED000015011092109310911F1908196239413D0
:100EE000F7CFC12CD12CE12CF12C0AC08FEFC81AFE
:100EF000D80AE80AF80A0C151D052E053F0579F0F9
:100F000080818623841791F36C2D7D2D8E2D9F2D4E
:100F10001F910F91FF90EF90DF90CF90089560E0C8
:100F200070E080E090E01F910F91FF90EF90DF90D4
:100F3000CF900895E6E4F2E01382128288EE93E007
:100F4000A0E0B0E084839583A683B7832EE031E0F0
:100F50003183208325EC30E03587248724EC30E092
:100F60003787268720EC30E0318B208B21EC30E076
:100F7000338B228B22EC30E0358B248B26EC30E057
:100F8000378B268B118E128E138E148EE3EEF2E0C9
:100F90001382128284839583A683B78380E291E0D3
:100FA0009183808381E090E09093F0028093EF0240
:100FB0001092F1031092F2031092F3031092F403D3
:100FC0001092F5031092F6031092F7031092F803B3
:100FD0001092F9031092FA031092FB031092FC0393
:100FE0001092FD031092FE03109200041092FF0372
:100FF000109201041092020410920304109204044F
:10100000109205041092060410920704109208042E
:1010100010920904E7E3F4E086E0808387E08183AF
:1010200089E08283EFE2F4E085E0808384E08183DD
:101030008AE08283E1E2F4E080E1808381E18183E0
:1010400083E08283EAE0F4E0108211821282089544
:10105000789484B5826084BD84B5816084BD85B593
:10106000826085BD85B5816085BD80916E0081609F
:1010700080936E0010928100809181008260809345
:101080008100809181008160809381008091800047
:101090008160809380008091B10084608093B10072
:1010A0008091B00081608093B00080917A0084606C
:1010B00080937A0080917A00826080937A00809198
:1010C0007A00816080937A0080917A0080688093B2
:1010D0007A001092C10085E18093200480930B0474
:1010E00086EB93E090931F0480931E04E0915602D8
:1010F000F091570282E08083E0915202F091530216
:101100001082E0915402F091550283E380831092A3
:101110005E02E0915A02F0915B0286E08083E091EA
:101120005802F0915902808180618083E0915802D9
:10113000F0915902808188608083E0915802F0919B
:101140005902808180688083E0915802F0915902B1
:1011500080818F7D8083DD24D394C3E0D0E033E2AF
:10116000E32EF12C0E94BC02882371F080910001D3
:10117000882351F010920001809101018F5F83302C
:1011800008F435C1109201010E94BC02811105C012
:1011900080910001882309F42DC1809101018130E3
:1011A00009F4F0C080F0823009F012C160E070E014
:1011B00087E394E00E94130460E070E08FE294E023
:1011C0000E94130405C10E94B002809027049090F1
:1011D0002804A0902904B0902A04DC01CB018819CE
:1011E0009909AA09BB094897A105B10510F0D09249
:1011F000260480912604882309F45EC00E94B00270
:1012000060932704709328048093290490932A0400
:101210001092260460E081E294E00E940304CE0173
:101220000197F1F761E081E294E00E940304C701B5
:101230000197F1F760E081E294E00E94030460E02E
:10124000809122040E94F0018091220490E0FC0130
:10125000E255FF4F6491FC01E656FF4FE491F0E048
:10126000EE0FFF1FE057FF4F8591949108EB16E5B5
:1012700020E030E0462F0E94550761157105810579
:10128000910551F04B015C012FEF821A920AA20ADC
:10129000B20A8FE0B82203C0812C912C5401C50101
:1012A000B4010E94FF0960932B0470932C04809377
:1012B0002D0490932E040CC060912B0470912C048B
:1012C00080912D0490912E040E94210B4B015C0112
:1012D00081149104A104B10431F490EA892E9AE5B5
:1012E000992EA12CB12CC501B4010E94FF0920E068
:1012F00030E048E652E40E94AF0A20E030E040EAE5
:1013000051E40E94570B18164CF461E87FEF87E315
:1013100094E00E9413046FE770E062C06FE770E032
:1013200087E394E00E9413046FE770E08FE294E09B
:101330000E9413040E948B022B013C0183EE882E35
:1013400099249394A12CB12C0E948B02DC01CB0137
:1013500084199509A609B709883E9340A105B105EE
:1013600098F321E0821A9108A108B10888EE480E8E
:1013700083E0581E611C711C81149104A104B10406
:1013800019F732C086E492E00E94E70018161906A9
:1013900044F486E492E00E94C50090934502809355
:1013A00044028091440290914502C197E9F461E8BA
:1013B0007FEF87E394E00E9413046FE770E08FE211
:1013C00094E00E94130410924502109244020CC053
:1013D00060E070E087E394E00E94130460E070E056
:1013E0008FE294E00E9413040E948E01BBCE809392
:1013F0000101CACED0920001D0CEE89409C097FB7B
:101400003EF490958095709561957F4F8F4F9F4FDB
:101410009923A9F0F92F96E9BB279395F69587951F
:1014200077956795B795F111F8CFFAF4BB0F11F4E2
:1014300060FF1BC06F5F7F4F8F4F9F4F16C0882389
:1014400011F096E911C0772321F09EE8872F762FBF
:1014500005C0662371F096E8862F70E060E02AF000
:101460009A95660F771F881FDAF7880F96958795EC
:1014700097F90895990F0008550FAA0BE0E8FEEFC1
:1014800016161706E807F907C0F012161306E40748
:10149000F50798F0621B730B840B950B39F40A2641
:1014A00061F0232B242B252B21F408950A2609F41F
:1014B000A140A6958FEF811D811D089597F99F6723
:1014C00080E870E060E008959FEF80EC08950024CC
:1014D0000A941616170618060906089500240A9499
:1014E00012161306140605060895092E0394000C1F
:1014F00011F4882352F0BB0F40F4BF2B11F460FFAE
:1015000004C06F5F7F4F8F4F9F4F089557FD9058D6
:10151000440F551F59F05F3F71F04795880F97FBB7
:10152000991F61F09F3F79F0879508951216130671
:101530001406551FF2CF4695F1DF08C016161706A0
:101540001806991FF1CF86957105610508940895D5
:10155000E894BB2766277727CB0197F908950E9467
:10156000C30A0C94750A0E946E0A58F00E94670A1A
:1015700040F029F45F3F29F00C945E0A51110C945D
:10158000A90A0C94640A0E94860A68F39923B1F3AD
:10159000552391F3951B550BBB27AA276217730799
:1015A000840738F09F5F5F4F220F331F441FAA1F2D
:1015B000A9F335D00E2E3AF0E0E832D091505040E9
:1015C000E695001CCAF72BD0FE2F29D0660F771F97
:1015D000881FBB1F261737074807AB07B0E809F07D
:1015E000BB0B802DBF01FF2793585F4F3AF09E3F02
:1015F000510578F00C945E0A0C94A90A5F3FE4F35D
:10160000983ED4F3869577956795B795F7959F5F44
:10161000C9F7880F911D9695879597F90895E1E090
:10162000660F771F881FBB1F621773078407BA07EF
:1016300020F0621B730B840BBA0BEE1F88F7E0954A
:1016400008950E94280B6894B1110C94A90A08957A
:101650000E948E0A88F09F5798F0B92F9927B751AA
:10166000B0F0E1F0660F771F881F991F1AF0BA9546
:10167000C9F714C0B13091F00E94A80AB1E00895F2
:101680000C94A80A672F782F8827B85F39F0B93FE4
:10169000CCF3869577956795B395D9F73EF49095F9
:1016A0008095709561957F4F8F4F9F4F08950E9451
:1016B0003A0A08F48FEF089597FB072E16F400946A
:1016C00007D077FD09D00E94700B07FC05D03EF4CF
:1016D000909581959F4F0895709561957F4F0895DE
:1016E000AA1BBB1B51E107C0AA1FBB1FA617B70748
:1016F00010F0A61BB70B881F991F5A95A9F7809564
:101700009095BC01CD010895EE0FFF1F0590F49157
:10171000E02D099481E090E0F8940C948F0BF894FC
:02172000FFCFF9
:1017220001FF0100000002020304000000001F018B
:101732008C00B6006C01E700C500D9000000000073
:0E174200F103E6035104D803DF03DC03D903EF
:107E0000112484B714BE81FFF0D085E080938100F7
:107E100082E08093C00088E18093C10086E0809377
:107E2000C20080E18093C4008EE0C9D0259A86E02C
:107E300020E33CEF91E0309385002093840096BBD3
:107E4000B09BFECF1D9AA8958150A9F7CC24DD24C4
:107E500088248394B5E0AB2EA1E19A2EF3E0BF2EE7
:107E6000A2D0813461F49FD0082FAFD0023811F036
:107E7000013811F484E001C083E08DD089C08234E0
:107E800011F484E103C0853419F485E0A6D080C0E4
:107E9000853579F488D0E82EFF2485D0082F10E0AE
:107EA000102F00270E291F29000F111F8ED06801E7
:107EB0006FC0863521F484E090D080E0DECF843638
:107EC00009F040C070D06FD0082F6DD080E0C81688
:107ED00080E7D80618F4F601B7BEE895C0E0D1E017
:107EE00062D089930C17E1F7F0E0CF16F0E7DF06D8
:107EF00018F0F601B7BEE89568D007B600FCFDCFD4
:107F0000A601A0E0B1E02C9130E011968C91119780
:107F100090E0982F8827822B932B1296FA010C0160
:107F200087BEE89511244E5F5F4FF1E0A038BF0790
:107F300051F7F601A7BEE89507B600FCFDCF97BE46
:107F4000E89526C08437B1F42ED02DD0F82E2BD052
:107F50003CD0F601EF2C8F010F5F1F4F84911BD097
:107F6000EA94F801C1F70894C11CD11CFA94CF0C13
:107F7000D11C0EC0853739F428D08EE10CD085E9AC
:107F80000AD08FE07ACF813511F488E018D01DD067
:107F900080E101D065CF982F8091C00085FFFCCF94
:107FA0009093C60008958091C00087FFFCCF809118
:107FB000C00084FD01C0A8958091C6000895E0E648
:107FC000F0E098E1908380830895EDDF803219F02E
:107FD00088E0F5DFFFCF84E1DECF1F93182FE3DFCA
:107FE0001150E9F7F2DF1F91089580E0E8DFEE27F6
:047FF000FF270994CA
:027FFE00040479
:0400000300007E007B
:00000001FF