:100000000C9462000C948A000C948A000C948A0070
:100010000C948A000C948A000C948A000C94A50518
:100020000C948A000C948A000C948A000C9441056C
:100030000C948A000C948A000C948A000C948A0018
:100040000C94CD030C948A000C949B030C947503C0
:100050000C948A000C948A000C948A000C948A00F8
:100060000C9417040C948A00000000002300260062
:10007000290000000008000201000003040700003E
:1000800000000000000000000000250028002B00F8
:1000900000000000240027002A00040404040404D3
:1000A0000404020202020202030303030303010227
:1000B00004081020408001020408102001020408F6
:1000C0001020850611241FBECFEFD8E0DEBFCDBFC4
:1000D00011E0A0E0B1E0EAE0FFE002C005900D927F
:1000E000A432B107D9F724E0A4E2B1E001C01D9227
:1000F000AC31B207E1F710E0C2E6D0E004C02197CE
:10010000FE010E947807C136D107C9F70E940E0789
:100110000C9483070C94000090E0FC01E255FF4F23
:100120002491FC01E656FF4F8491882399F090E0DA
:10013000880F991FFC01E057FF4FA591B491FC0176
:10014000EA57FF4F859194918FB7F894EC91E22B89
:10015000EC938FBF0895CF92DF92EF92FF920F93AF
:100160001F93CF93DF936C017A018B01C0E0D0E045
:10017000CE15DF0581F0D8016D918D01D601ED918D
:10018000FC910190F081E02DC6010995892B11F0B9
:100190002196EECF7E01C701DF91CF911F910F9184
:1001A000FF90EF90DF90CF900895FC01538D448D28
:1001B000252F30E0842F90E0821B930B541710F012
:1001C000CF96089501970895FC01918D828D98171F
:1001D00061F0828DDF01A80FB11D5D968C91928D2B
:1001E0009F5F9F73928F90E008958FEF9FEF089528
:1001F000FC01918D828D981731F0828DE80FF11DF1
:10020000858D90E008958FEF9FEF0895FC01918D0B
:10021000228D892F90E0805C9F4F821B91098F7304
:10022000992708958AE392E00E94060121E0892B34
:1002300009F420E0822F0895FC01848DDF01A80FCE
:10024000B11DA35ABF4F2C91848D90E001968F73FE
:100250009927848FA689B7892C93A089B1898C911D
:10026000837080648C93938D848D981306C002886C
:10027000F389E02D80818F7D80830895EF92FF9236
:100280000F931F93CF93DF93EC0181E0888F9B8DB9
:100290008C8D981305C0E889F989808185FD26C079
:1002A000F62E0B8D10E00F5F1F4F0F731127E02EFE
:1002B0008C8DE8120CC00FB607FCFACFE889F989DB
:1002C000808185FFF5CFCE010E941C01F1CF8B8D7F
:1002D000FE01E80FF11DE35AFF4FF0829FB7F8943B
:1002E0000B8FEA89FB89808180620AC09FB7F894EE
:1002F000EE89FF896083E889F98980818370806451
:1003000080839FBF81E090E0DF91CF911F910F919B
:10031000FF90EF900895CF93DF93EC01888D8823B1
:10032000C9F0EA89FB89808185FD05C0A889B98962
:100330008C9186FD0FC00FB607FCF5CF808185FF3D
:10034000F2CFA889B9898C9185FFEDCFCE010E94AB
:100350001C01E7CFDF91CF91089580E090E0892BD9
:1003600029F00E94120181110C940000089583303D
:1003700081F028F4813099F08230A1F0089587301F
:10038000A9F08830B9F08430D1F4809180008F7D5D
:1003900003C0809180008F7780938000089584B59A
:1003A0008F7702C084B58F7D84BD08958091B000A1
:1003B0008F7703C08091B0008F7D8093B000089547
:1003C0001F93CF93DF93282F30E0F901EE58FF4FB2
:1003D0008491F901E255FF4FD491F901E656FF4FA0
:1003E000C491CC23C1F0162F81110E94B701EC2FCC
:1003F000F0E0EE0FFF1FEA57FF4FA591B4919FB7B2
:10040000F894111104C08C91D095D82302C0EC91BE
:10041000DE2BDC939FBFDF91CF911F9108951F9337
:10042000CF93DF93182FEB010E948C00209711F4DB
:1004300060E004C0CF3FD10539F461E0812FDF9146
:10044000CF911F910C94E001E12FF0E0EE58FF4FA7
:10045000E491E330F9F048F4E130B9F0E230A1F58D
:1004600084B5806284BDC8BD34C0E730E9F0E830AF
:1004700019F1E43049F5809180008062809380001A
:10048000D0938B00C0938A0024C084B5806884BD5B
:10049000C7BD1FC080918000806880938000D0938A
:1004A0008900C093880015C08091B0008068809357
:1004B000B000C093B3000DC08091B0008062809303
:1004C000B000C093B40005C0C038D1050CF0B5CF62
:1004D000AFCFDF91CF911F9108953FB7F8948091EE
:1004E000360290913702A0913802B091390226B5B8
:1004F000A89B05C02F3F19F00196A11DB11D3FBF5C
:10050000BA2FA92F982F8827820F911DA11DB11DE9
:10051000BC01CD0142E0660F771F881F991F4A95E5
:10052000D1F708958F929F92AF92BF92CF92DF92B0
:10053000EF92FF926B017C010E946D024B015C0106
:10054000C114D104E104F104F1F00E946D02DC0158
:10055000CB0188199909AA09BB09883E9340A105D6
:10056000B10570F321E0C21AD108E108F10888EE64
:10057000880E83E0981EA11CB11CC114D104E104B3
:10058000F10419F7DDCFFF90EF90DF90CF90BF908F
:10059000AF909F908F90089585ED8093BC008091DF
:1005A000BC0084FDFCCF10920B0208954091E7013E
:1005B000262F30E0240F311D21323105DCF420914B
:1005C0000B022430C9F4FC0180E090E0861758F457
:1005D0003091E7012191DC01A953BE4FA30FB11D5A
:1005E0002C930196F3CF8091E701680F6093E701A8
:1005F00080E0089581E0089582E0089508958FEFE6
:100600009FEF08958FEF9FEF08958091C60190E0CE
:100610009195819591090895CF93DF93CB01EA01DC
:10062000642F0E94D602CE01DF91CF910895CF931F
:10063000DF931F92CDB7DEB7698361E0CE010196EB
:100640000E94D60281E090E00F90DF91CF91089553
:1006500008950F931F93CF93DF938C016F3F710524
:1006600019F014F06FEF70E0EB0161307F4F14F47C
:10067000C1E0DFEFF80186819781C817D90759F1EA
:10068000D783C683D7FD0EC081810E948C0061E0B4
:10069000F80181810E94E0018FE090E00197F1F77D
:1006A000BE0111C0F80181810E948C0060E0F80158
:1006B00081810E94E0018FE090E00197F1F76627C9
:1006C00077276C1B7D0BF8018081DF91CF911F9103
:1006D0000F910C940F02DF91CF911F910F9108950C
:1006E00080E090E008950E947E071F920F920FB65F
:1006F0000F9211242F933F934F935F936F937F93A8
:100700008F939F93AF93BF93EF93FF938AE392E00E
:100710000E941C01FF91EF91BF91AF919F918F912A
:100720007F916F915F914F913F912F910F900FBEED
:100730000F901F9018951F920F920FB60F921124D1
:100740002F938F939F93EF93FF93E0914A02F09141
:100750004B028081E0915002F091510282FD12C063
:100760009081809153028F5F8F7320915402821782
:1007700051F0E0915302F0E0E65CFD4F958F8093DD
:10078000530201C08081FF91EF919F918F912F9132
:100790000F900FBE0F901F9018951F920F920FB6DB
:1007A0000F9211242F933F938F939F93AF93BF93F7
:1007B0008091320290913302A0913402B0913502BF
:1007C0003091310223E0230F2D3720F40196A11D33
:1007D000B11D05C026E8230F0296A11DB11D20936F
:1007E00031028093320290933302A0933402B0938B
:1007F00035028091360290913702A0913802B09173
:1008000039020196A11DB11D8093360290933702E3
:10081000A0933802B0933902BF91AF919F918F910D
:100820003F912F910F900FBE0F901F9018951F9220
:100830000F920FB60F9211242F933F934F935F9314
:100840006F937F938F939F93AF93BF93EF93FF9398
:100850008091B900887F803609F49CC068F58832A1
:1008600009F45BC090F4803109F454C038F4882353
:1008700009F4F2C0883009F44DC0F2C0883109F49F
:100880004CC0803209F45DC0EBC0803409F468C00C
:1008900048F4803309F455C0883309F0E1C08093EF
:1008A0000A02D4C0803509F44FC0883509F45DC010
:1008B000883409F0D5C0D2C0883909F4C3C0A8F47F
:1008C000883709F467C038F4883609F463C0803784
:1008D00009F460C0C5C0883809F4B4C0803909F48F
:1008E0005FC0803809F0BCC05BC0803B09F484C0A5
:1008F00038F4803A09F466C0883A09F47DC0B0C083
:10090000803C09F4A3C0883C09F4A0C0883B09F4EA
:1009100086C0A6C08091300210C090912F028091B5
:100920002E02981770F5E0912F0281E08E0F8093D0
:100930002F02F0E0E25FFD4F80818093BB0085ECE9
:1009400082C080930A028AC0E0912F0281E08E0F5C
:1009500080932F028091BB00F0E0E25FFD4F808327
:1009600090912F0280912E026AC0E0912F0281E0C7
:100970008E0F80932F028091BB00F0E0E25FFD4F6D
:10098000808380910D02811169C081E080930C0207
:1009900084EA5DC083E080930B0210920902CFCFFE
:1009A00080910902803208F04DC0E091090281E097
:1009B0008E0F809309028091BB00F0E0E751FE4F5B
:1009C0008083BDCF85EC8093BC0010920B02809198
:1009D0000902803230F4E0910902F0E0E751FE4F65
:1009E00010826091090270E089EE91E0E0E0F0E0B1
:1009F00009951092090234C084E080930B02109292
:100A0000E8011092E701E0E0F0E009958091E7014C
:100A1000811105C081E08093E7011092C701E09148
:100A2000E80181E08E0F8093E801F0E0E953FE4F8A
:100A300080818093BB009091E8018091E701981735
:100A400008F47DCF85E88093BC000AC085EC8093D4
:100A5000BC0010920B0204C010920A020E94CC0249
:100A6000FF91EF91BF91AF919F918F917F916F9186
:100A70005F914F913F912F910F900FBE0F901F905C
:100A800018951F920F920FB60F9211242F933F9338
:100A90008F939F93EF93FF938091C50187FF05C0CC
:100AA000109285001092840005C08091C50187FDD9
:100AB0008091C5018091C5018F5F8093C5018091B0
:100AC000C50187FF20C08091C5018C30E4F42091DE
:100AD0008400309185008091C501082E000C990B8F
:100AE000FC01EE0FFF1F8E0F9F1FFC01EF55FE4F05
:100AF00081819281820F931F909389008093880057
:100B00008091C50117C08091840090918500049662
:100B100080349C4918F480E49CE905C080918400ED
:100B200090918500049690938900809388008FEFC0
:100B30008093C501FF91EF919F918F913F912F91EC
:100B40000F900FBE0F901F9018951F920F920FB627
:100B50000F9211240F931F932F933F934F935F9303
:100B60006F937F938F939F93AF93BF93CF93DF93B5
:100B7000EF93FF93E4E7F0E08491E0EBF0E0D491B1
:100B8000ECE9F0E0C491CC2379F081110E94B70127
:100B9000EC2FF0E0EE0FFF1FE859FF4FA591B49145
:100BA000EC91ED2381E009F480E020913A0130914D
:100BB0003B012F5F3F4F30933B0120933A019091CF
:100BC000A001943618F095E090933501909135018D
:100BD000933079F018F4923039F082C0943009F1F2
:100BE000953009F453C07CC081117AC01092A001E5
:100BF00028C0813009F074C0E091A0018E0F80936D
:100C0000A001F0E080913A0190913B01EC5CFE4F35
:100C1000808710923B0110923A0184E08093350165
:100C20005FC0811114C0E091A00181E08E0F80931C
:100C3000A001F0E080913A0190913B01EC5CFE4F05
:100C4000808710923B0110923A0183E0E7CF8091B8
:100C50003A0190913B018536910508F441C085E049
:100C6000809335012FB7F89480913202909133022E
:100C7000A0913402B09135022FBF8093360190933A
:100C80003701A0933801B09339012AC09FB7F89477
:100C900040913202509133026091340270913502DA
:100CA0009FBF00913601109137012091380130919A
:100CB0003901401B510B620B730B493C5105610517
:100CC000710540F01092A00110923B0110923A0180
:100CD00082E0A4CF811104C010923B0110923A012E
:100CE000FF91EF91DF91CF91BF91AF919F918F9144
:100CF0007F916F915F914F913F912F911F910F9134
:100D00000F900FBE0F901F901895EAE3F2E0138248
:100D1000128288EE93E0A0E0B0E084839583A683FE
:100D2000B78324E031E03183208325EC30E0358740
:100D3000248724EC30E03787268720EC30E0318BA5
:100D4000208B21EC30E0338B228B22EC30E0358B92
:100D5000248B26EC30E0378B268B118E128E138E6F
:100D6000148EE7EDF2E01382128284839583A683CA
:100D7000B78386E191E09183808381E090E0909356
:100D8000E4028093E3021092E5031092E6031092CE
:100D9000E7031092E8031092E9031092EA0310921D
:100DA000EB031092EC031092ED031092EE031092FD
:100DB000EF031092F0031092F1031092F2031092DD
:100DC000F4031092F3031092F5031092F6031092BD
:100DD000F7031092F8031092F9031092FA0310929D
:100DE000FB031092FC031092FD03E4E1F4E086E0C3
:100DF000808387E0818389E08283ECE0F4E085E012
:100E0000808384E081838AE08283EEEFF3E080E1F7
:100E1000808381E1818383E082830895789484B51F
:100E2000826084BD84B5816084BD85B5826085BDE6
:100E300085B5816085BD80916E00816080936E0074
:100E40001092810080918100826080938100809166
:100E50008100816080938100809180008160809317
:100E600080008091B10084608093B1008091B000D7
:100E700081608093B00080917A00846080937A00D2
:100E800080917A00826080937A0080917A008160FC
:100E900080937A0080917A00806880937A00109223
:100EA000C10068EC70E084E194E00E94290368ECE2
:100EB00070E08CE094E00E94290364E371E080E03C
:100EC00090E00E94920260E070E084E194E00E9471
:100ED000290360E070E08CE094E00E94290360ED5B
:100EE00077E080E090E00E9492020E94AD01D9CFAD
:100EF000EE0FFF1F0590F491E02D099481E090E042
:0A0F0000F8940C948307F894FFCFD7
:100F0A00000000003E01AB00D5008B010601E400A1
:100F1A00F8000000000017030C037003FE0205032B
:040F2A000203FF02BD
:107E0000112484B714BE81FFF0D085E080938100F7
:107E100082E08093C00088E18093C10086E0809377
:107E2000C20080E18093C4008EE0C9D0259A86E02C
:107E300020E33CEF91E0309385002093840096BBD3
:107E4000B09BFECF1D9AA8958150A9F7CC24DD24C4
:107E500088248394B5E0AB2EA1E19A2EF3E0BF2EE7
:107E6000A2D0813461F49FD0082FAFD0023811F036
:107E7000013811F484E001C083E08DD089C08234E0
:107E800011F484E103C0853419F485E0A6D080C0E4
:107E9000853579F488D0E82EFF2485D0082F10E0AE
:107EA000102F00270E291F29000F111F8ED06801E7
:107EB0006FC0863521F484E090D080E0DECF843638
:107EC00009F040C070D06FD0082F6DD080E0C81688
:107ED00080E7D80618F4F601B7BEE895C0E0D1E017
:107EE00062D089930C17E1F7F0E0CF16F0E7DF06D8
:107EF00018F0F601B7BEE89568D007B600FCFDCFD4
:107F0000A601A0E0B1E02C9130E011968C91119780
:107F100090E0982F8827822B932B1296FA010C0160
:107F200087BEE89511244E5F5F4FF1E0A038BF0790
:107F300051F7F601A7BEE89507B600FCFDCF97BE46
:107F4000E89526C08437B1F42ED02DD0F82E2BD052
:107F50003CD0F601EF2C8F010F5F1F4F84911BD097
:107F6000EA94F801C1F70894C11CD11CFA94CF0C13
:107F7000D11C0EC0853739F428D08EE10CD085E9AC
:107F80000AD08FE07ACF813511F488E018D01DD067
:107F900080E101D065CF982F8091C00085FFFCCF94
:107FA0009093C60008958091C00087FFFCCF809118
:107FB000C00084FD01C0A8958091C6000895E0E648
:107FC000F0E098E1908380830895EDDF803219F02E
:107FD00088E0F5DFFFCF84E1DECF1F93182FE3DFCA
:107FE0001150E9F7F2DF1F91089580E0E8DFEE27F6
:047FF000FF270994CA
:027FFE00040479
:0400000300007E007B
:00000001FF