:100000000C9463000C948B000C948B000C94B7043C
:100010000C94B7040C94B7040C948B000C94BF069A
:100020000C948B000C948B000C948B000C945B064E
:100030000C948B000C948B000C948B000C948B0014
:100040000C946D040C948B000C9407030C94E10247
:100050000C948B000C948B000C948B000C948B00F4
:100060000C9431050C948B00000000002400270044
:100070002A0000000008000201000003040700003D
:1000800000000000000000000000230026002900FE
:1000900000000000250028002B00040404040404D0
:1000A0000404020202020202030303030303010227
:1000B00004081020408001020408102001020408F6
:1000C0001020190DF70C11241FBECFEFD8E0DEBFB2
:1000D000CDBF11E0A0E0B1E0EAECF5E202C005908E
:1000E0000D92AC36B107D9F725E0ACE6B1E001C01E
:1000F0001D92AB33B207E1F710E0C2E6D0E004C0D6
:100100002197FE010E94D610C136D107C9F70E947F
:10011000970A0C94D8120C940000FC01538D448D66
:10012000252F30E0842F90E0821B930B541710F0A2
:10013000CF96089501970895FC01918D828D9817AF
:1001400061F0828DDF01A80FB11D5D968C91928DBB
:100150009F5F9F73928F90E008958FEF9FEF0895B8
:10016000FC01918D828D981731F0828DE80FF11D81
:10017000858D90E008958FEF9FEF0895FC01918D9C
:10018000228D892F90E0805C9F4F821B91098F7395
:100190009927089584EC92E00E94BE0021E0892B0B
:1001A00009F420E0822F0895FC01848DDF01A80F5F
:1001B000B11DA35ABF4F2C91848D90E001968F738F
:1001C0009927848FA689B7892C93A089B1898C91AE
:1001D000837080648C93938D848D981306C00288FD
:1001E000F389E02D80818F7D80830895EF92FF92C7
:1001F0000F931F93CF93DF93EC0181E0888F9B8D4A
:100200008C8D981305C0E889F989808185FD26C009
:10021000F62E0B8D10E00F5F1F4F0F731127E02E8E
:100220008C8DE8120CC00FB607FCFACFE889F9896B
:10023000808185FFF5CFCE010E94D400F1CF8B8D58
:10024000FE01E80FF11DE35AFF4FF0829FB7F894CB
:100250000B8FEA89FB89808180620AC09FB7F8947E
:10026000EE89FF896083E889F989808183708064E1
:1002700080839FBF81E090E0DF91CF911F910F912C
:10028000FF90EF900895CF93DF93EC01888D882342
:10029000C9F0EA89FB89808185FD05C0A889B989F3
:1002A0008C9186FD0FC00FB607FCF5CF808185FFCE
:1002B000F2CFA889B9898C9185FFEDCFCE010E943C
:1002C000D400E7CFDF91CF91089580E090E0892BB3
:1002D00029F00E94CA0081110C9400000895833017
:1002E00081F028F4813099F08230A1F008958730B0
:1002F000A9F08830B9F08430D1F4809180008F7DEE
:1003000003C0809180008F7780938000089584B52A
:100310008F7702C084B58F7D84BD08958091B00031
:100320008F7703C08091B0008F7D8093B0000895D7
:1003300020919603309197032817390771F4909113
:10034000C2028091C302981741F0E091C202F0E02E
:10035000E758FD4F808190E008958FEF9FEF08955B
:1003600008951F93CF93DF93DC015C968D919C9150
:100370005D97009739F421E030E013963C932E937B
:1003800012973BC05196ED91FC91529750962C914B
:100390005097322F30951FB75E964C915E97742F11
:1003A000727041FD6095F8944081772311F0422BE3
:1003B00001C043234083EC012197F1F748E05081CD
:1003C00060FF02C0522B01C053235083EC012197E0
:1003D000F1F76695415099F78081772319F08323CF
:1003E000808302C0282B20831FBF5C968D919C9137
:1003F0005D970197F1F781E090E0DF91CF911F9138
:10040000089520919603309197032817390771F4C6
:100410008091C3022091C20290E0805C9F4F821BBA
:10042000910960E470E00E94AE10089580E090E0D1
:100430000895209196033091970328173907B9F44E
:100440009091C2028091C302981789F0E091C20294
:10045000F0E0E758FD4F80812091C20230E02F5F2D
:100460003F4F2F7333272093C20290E008958FEF00
:100470009FEF089585ED8093BC008091BC0084FDC2
:10048000FCCF10925302089540912F02262F30E0A6
:10049000240F311D21323105DCF420915302243028
:1004A000C9F4FC0180E090E0861758F430912F02E7
:1004B0002191DC01A15FBD4FA30FB11D2C930196CB
:1004C000F3CF80912F02680F60932F0280E0089590
:1004D00081E0089582E008958FEF9FEF08958FEFF8
:1004E0009FEF089580910E0290E09195819591097A
:1004F0000895CF93DF93CB01EA01642F0E94440259
:10050000CE01DF91CF910895CF93DF931F92CDB7A6
:10051000DEB7698361E0CE0101960E94440281E06A
:1005200090E00F90DF91CF9108950895FC0123A1F1
:10053000222321F084EC92E00C94F6000C94B1019B
:1005400080E090E008950E94C312CF93DF93FC01F6
:1005500024A1222371F0EC010E94D70988A799A752
:100560009095991F9927991F892F90E0DF91CF913E
:100570000895FC0123A1222331F084EC92E0DF9165
:10058000CF910C94BE00DF91CF910C940102FC013D
:1005900024A1222351F020A531A54FEF5FEF51A7F1
:1005A00040A737FF0CC00C94D709FC0123A12223DC
:1005B00021F084EC92E00C949C000C941902C90187
:1005C00008951F920F920FB60F9211242F933F930D
:1005D0004F935F936F937F938F939F93AF93BF934B
:1005E000EF93FF9384EC92E00E94D400FF91EF918F
:1005F000BF91AF919F918F917F916F915F914F913B
:100600003F912F910F900FBE0F901F9018951F9242
:100610000F920FB60F9211242F938F939F93EF9306
:10062000FF93E091D402F091D5028081E091DA024B
:10063000F091DB0282FD12C090818091DD028F5F1C
:100640008F732091DE02821751F0E091DD02F0E01D
:10065000EC53FD4F958F8093DD0201C08081FF91A7
:10066000EF919F918F912F910F900FBE0F901F9040
:100670001895CF93DF93282F30E0F901EE58FF4F04
:100680008491F901E255FF4FD491F901E656FF4FED
:10069000C491CC2391F081110E946F01EC2FF0E006
:1006A000EE0FFF1FEA57FF4FA591B491EC91ED2398
:1006B00081E090E021F480E002C080E090E0DF91F2
:1006C000CF9108951F93CF93DF93282F30E0F90146
:1006D000EE58FF4F8491F901E255FF4FD491F90193
:1006E000E656FF4FC491CC23C1F0162F81110E9412
:1006F0006F01EC2FF0E0EE0FFF1FE057FF4FA591C9
:10070000B4919FB7F894111104C08C91D095D8235F
:1007100002C0EC91DE2BDC939FBFDF91CF911F9144
:100720000895CF93DF9390E0FC01E255FF4F2491B1
:10073000FC01E656FF4F8491882361F190E0880F19
:10074000991FFC01E859FF4FC591D491FC01E05776
:10075000FF4FA591B491611109C09FB7F8948881AA
:10076000209582238883EC912E230BC0623061F4A4
:100770009FB7F8948881322F309583238883EC913A
:100780002E2B2C939FBF06C08FB7F894E8812E2B99
:1007900028838FBFDF91CF9108951F93CF93DF936D
:1007A000182FEB0161E00E949103209711F460E0A3
:1007B00004C0CF3FD10539F461E0812FDF91CF91A3
:1007C0001F910C946203E12FF0E0EE58FF4FE4918B
:1007D000E330F9F048F4E130B9F0E230A1F584B546
:1007E000806284BDC8BD34C0E730E9F0E83019F15B
:1007F000E43049F580918000806280938000D0933E
:100800008B00C0938A0024C084B5806884BDC7BDB6
:100810001FC080918000806880938000D093890001
:10082000C093880015C08091B00080688093B000AC
:10083000C093B3000DC08091B00080628093B0007F
:10084000C093B40005C0C038D1050CF0B5CFAFCF10
:10085000DF91CF911F9108951F93CF93DF93EC0108
:10086000162F61E089810E949103612F8981DF91B8
:10087000CF911F910C9462033FB7F8948091BE0210
:100880009091BF02A091C002B091C10226B5A89B71
:1008900005C02F3F19F00196A11DB11D3FBFBA2F12
:1008A000A92F982F8827820F911DA11DB11DBC0172
:1008B000CD0142E0660F771F881F991F4A95D1F737
:1008C00008952FB7F8946091BA027091BB0280919D
:1008D000BC029091BD022FBF08951F920F920FB6D8
:1008E0000F9211242F933F938F939F93AF93BF93B6
:1008F0008091BA029091BB02A091BC02B091BD025E
:100900003091B90223E0230F2D3720F40196A11D69
:10091000B11D05C026E8230F0296A11DB11D20932D
:10092000B9028093BA029093BB02A093BC02B09329
:10093000BD028091BE029091BF02A091C002B09111
:10094000C1020196A11DB11D8093BE029093BF020A
:10095000A093C002B093C102BF91AF919F918F91BC
:100960003F912F910F900FBE0F901F9018951F92DF
:100970000F920FB60F9211242F933F934F935F93D3
:100980006F937F938F939F93AF93BF93EF93FF9357
:10099000E0919603F0919703309709F451C0968D3A
:1009A000A685B785858591FF04C09C91892329F48C
:1009B00047C09C91892309F043C0A389B4899C91C5
:1009C0008589809589238C93868997890197F1F78A
:1009D000608D718DA685B785558538E020E0CB0107
:1009E0000197F1F7822F90E095958795282F4C91EC
:1009F000452309F02068315091F7868D81FD2095BF
:100A00008091C30290E001968F7399273091C202C2
:100A1000381749F0A091C302B0E0A758BD4F2C93FE
:100A20008093C30203C0868D8160868F828D938DF3
:100A30000197F1F7A389B4899C918589892B8C93BF
:100A4000FF91EF91BF91AF919F918F917F916F91A6
:100A50005F914F913F912F910F900FBE0F901F907C
:100A600018951F920F920FB60F9211242F933F9358
:100A70004F935F936F937F938F939F93AF93BF93A6
:100A8000EF93FF938091B900887F803609F49CC072
:100A900068F5883209F45BC090F4803109F454C0E1
:100AA00038F4882309F4F2C0883009F44DC0F2C04C
:100AB000883109F44CC0803209F45DC0EBC0803449
:100AC00009F468C048F4803309F455C0883309F04C
:100AD000E1C080935202D4C0803509F44FC08835FC
:100AE00009F45DC0883409F0D5C0D2C0883909F452
:100AF000C3C0A8F4883709F467C038F4883609F40D
:100B000063C0803709F460C0C5C0883809F4B4C038
:100B1000803909F45FC0803809F0BCC05BC0803BFD
:100B200009F484C038F4803A09F466C0883A09F4BC
:100B30007DC0B0C0803C09F4A3C0883C09F4A0C0CB
:100B4000883B09F486C0A6C08091780210C09091BD
:100B5000770280917602981770F5E091770281E034
:100B60008E0F80937702F0E0EA5AFD4F80818093E8
:100B7000BB0085EC82C0809352028AC0E09177026C
:100B800081E08E0F809377028091BB00F0E0EA5AFB
:100B9000FD4F808390917702809176026AC0E09148
:100BA000770281E08E0F809377028091BB00F0E0A6
:100BB000EA5AFD4F808380915502811169C081E01E
:100BC0008093540284EA5DC083E0809353021092C4
:100BD0005102CFCF80915102803208F04DC0E09198
:100BE000510281E08E0F809351028091BB00F0E0B2
:100BF000EF5CFD4F8083BDCF85EC8093BC001092ED
:100C0000530280915102803230F4E0915102F0E0C1
:100C1000EF5CFD4F10826091510270E081E392E041
:100C2000E0E0F0E009951092510234C084E0809336
:100C300053021092300210922F02E0E0F0E009958A
:100C400080912F02811105C081E080932F021092C4
:100C50000F02E091300281E08E0F80933002F0E0CD
:100C6000E15FFD4F80818093BB00909130028091C5
:100C70002F02981708F47DCF85E88093BC000AC046
:100C800085EC8093BC001092530204C01092520273
:100C90000E943A02FF91EF91BF91AF919F918F9186
:100CA0007F916F915F914F913F912F910F900FBE68
:100CB0000F901F9018951F920F920FB60F9211244C
:100CC0002F933F938F939F93EF93FF9380910D0208
:100CD00087FF05C0109285001092840005C08091A6
:100CE0000D0287FD80910D0280910D028F5F809330
:100CF0000D0280910D0287FF20C080910D028C3083
:100D0000E4F4209184003091850080910D02082E3A
:100D1000000C990BFC01EE0FFF1F8E0F9F1FFC01B3
:100D2000E751FE4F81819281820F931F909389003A
:100D30008093880080910D0217C08091840090916B
:100D40008500049680349C4918F480E49CE905C031
:100D500080918400909185000496909389008093FF
:100D600088008FEF80930D02FF91EF919F918F91FB
:100D70003F912F910F900FBE0F901F9018951F92CB
:100D80000F920FB60F9211240F931F932F933F933F
:100D90004F935F936F937F938F939F93AF93BF9383
:100DA000CF93EF93FF9382E00E943903C82F809185
:100DB0008201909183010196909383018093820137
:100DC0008091E801843618F085E080937D01809160
:100DD0007D01833079F018F4823039F072C08430AC
:100DE00011F1853009F44AC06CC0C1116AC010927B
:100DF000E80129C0C13009F064C0E091E80181E058
:100E00008E0F8093E801F0E0809182019091830140
:100E1000E458FE4F8087109283011092820184E093
:100E200080937D014EC0C11114C0E091E80181E0C2
:100E30008E0F8093E801F0E0809182019091830110
:100E4000E458FE4F8087109283011092820183E064
:100E5000E7CF80918201909183018536910588F1D9
:100E600085E080937D010E94610460937E01709310
:100E70007F01809380019093810123C00E946104CF
:100E800000917E0110917F012091800130918101BC
:100E9000DC01CB01801B910BA20BB30B893C9105AC
:100EA000A105B10540F01092E80110928301109263
:100EB000820182E0B5CFC11104C01092830110926B
:100EC0008201FF91EF91CF91BF91AF919F918F914F
:100ED0007F916F915F914F913F912F911F910F9152
:100EE0000F900FBE0F901F9018950F931F93CF93E5
:100EF000DF938C016F3F710519F014F06FEF70E014
:100F0000EB0161307F4F14F4C1E0DFEFF80186811F
:100F10009781C817D90711F1D783C683D7FD0AC0B7
:100F200061E0C8010E942C048FE090E00197F1F786
:100F3000BE010CC060E0C8010E942C048FE090E06C
:100F40000197F1F7662777276C1B7D0BF8018081ED
:100F5000DF91CF911F910F910C94CD03DF91CF9131
:100F60001F910F91089560E070E08EE893E00E9479
:100F7000750760E070E086E893E00C947507CF9207
:100F8000DF92EF92FF920F931F93CF93DF936C0149
:100F90007A018B01C0E0D0E0CE15DF0581F0D801E9
:100FA0006D918D01D601ED91FC910190F081E02DC4
:100FB000C6010995892B11F02196EECF7E01C7015C
:100FC000DF91CF911F910F91FF90EF90DF90CF9025
:100FD0000895CF92DF92EF92FF926B017C01E09136
:100FE000D402F091D50282E08083C11481EED8064C
:100FF000E104F104B1F060E079E08DE390E0A70155
:1010000096010E94720FDA01C9010197A109B10985
:10101000B695A795979587959C01211580E138078E
:10102000B8F0E091D402F091D502108260E874E843
:101030008EE190E0A70196010E94720FDA01C901CA
:101040000197A109B109B695A795979587959C0138
:10105000E091D002F091D1023083E091D202F09180
:10106000D30220831092DC02E091D802F091D902E1
:1010700086E08083E091D602F091D7028081806182
:101080008083E091D602F091D702808188608083CE
:10109000E091D602F091D702808180688083E09150
:1010A000D602F091D70280818F7D8083FF90EF90F0
:1010B000DF90CF900895CF92DF92EF92FF920F933F
:1010C0001F93CF93DF93C0917503D09176030E9455
:1010D00061040091650310916603209167033091CC
:1010E00068036B017C01C01AD10AE20AF30A970176
:1010F0008601093011052105310508F475C060939A
:10110000650370936603809367039093680360E0C0
:10111000809162030E949103809162038E3008F0F7
:101120008E508770806480937C0080917A00806408
:1011300080937A0080917A0086FDFCCF80917800C0
:101140002091790090E0922B4091690350916A03BD
:1011500060916B0370916C03452B462B472B69F410
:10116000AC01092E000C660B770B40937103509372
:1011700072036093730370937403409171035091F1
:1011800072036091730370917403841B950B97FF36
:1011900003C091958195910944979CF480916D03CA
:1011A00090916E03A0916F03B09170030196A11D01
:1011B000B11D80936D0390936E03A0936F03B09362
:1011C00070038091690390916A03A0916B03B091C1
:1011D0006C030196A11DB11D8093690390936A036E
:1011E000A0936B03B0936C038091690390916A03A1
:1011F000A0916B03B0916C030597A105B10571F542
:101200001092690310926A0310926B0310926C03A0
:1012100080916D0390916E03A0916F03B091700364
:101220000397A105B10570F080917103909172034D
:10123000A0917303B0917403EC01909376038093B3
:10124000750304C0C0917503D091760310926D03AD
:1012500010926E0310926F0310927003CE0164E639
:1012600070E00E94AE106830710528F4FB01E85F61
:10127000FE4F808101C080E0DF91CF911F910F91DF
:10128000FF90EF90DF90CF9008958F929F92AF9252
:10129000BF92CF92DF92EF92FF92CF93DF93EC0158
:1012A000BC018EE893E00E947507BE0186E893E0DA
:1012B0000E947507BE0180E090E00E94890E9B01AC
:1012C000AC0160E078EA8DE697E40E94011020E02E
:1012D00030E040E850E40E94950F0E947A106B01C4
:1012E0007C010E943C044B015C01C114D104E10467
:1012F000F104F1F00E943C04DC01CB01881999094A
:10130000AA09BB09883E9340A105B10570F321E00D
:10131000C21AD108E108F10888EE880E83E0981E11
:10132000A11CB11CC114D104E104F10419F7DDCFF3
:10133000DF91CF91FF90EF90DF90CF90BF90AF9073
:101340009F908F9008950F931F930E946104609364
:10135000A0037093A1038093A2039093A30388E951
:1013600093E00E94C70297FF1FC00E946104009192
:10137000A0031091A1032091A2033091A303DC01EB
:10138000CB01801B910BA20BB30B00919C0310911E
:101390009D0320919E0330919F0380179107A20720
:1013A000B307E8F28FEF9FEF1F910F910895AF926F
:1013B000BF92CF92DF92EF92FF920F931F93CF9342
:1013C000DF93FC01E6A0F7A0F3E0EF1AF1086C014F
:1013D00026E7C20ED11CF60180810E943903892BB9
:1013E00069F5E701CC0FDD1FCC0FDD1F259700E06D
:1013F00010E0A12CB12CF2E0EF16F10418F0CE01B0
:101400000197F1F7F60180810E9439030A2C02C08E
:10141000880F991F0A94E2F7082B192BFFEFAF1AD8
:10142000BF0A28E0A216B10431F782E0E816F10401
:1014300010F02197F1F7C801992702C08FEF9FEFB5
:10144000DF91CF911F910F91FF90EF90DF90CF90A0
:10145000BF90AF9008950F931F93CF93DF93EC014C
:1014600088819981009729F02A813B8126173707C7
:1014700088F48B016F5F7F4F0E94FD11009761F030
:10148000998388831B830A832C813D81232B11F44C
:10149000FC01108281E001C080E0DF91CF911F91BB
:1014A0000F910895CF92DF92EF92FF920F931F93C7
:1014B000E82FF92F05C0015011092109310961F107
:1014C000908196239417B9F305C0015011092109A1
:1014D000310911F1908196239413F7CFC12CD12CAF
:1014E000E12CF12C0AC08FEFC81AD80AE80AF80AD2
:1014F0000C151D052E053F0579F080818623841784
:1015000091F36C2D7D2D8E2D9F2D1F910F91FF90AE
:10151000EF90DF90CF90089560E070E080E090E081
:101520001F910F91FF90EF90DF90CF900895CF9390
:10153000DF93CDB7DEB728970FB6F894DEBF0FBEA6
:10154000CDBF789484B5826084BD84B5816084BD4C
:1015500085B5826085BD85B5816085BD80916E0051
:10156000816080936E001092810080918100826082
:1015700080938100809181008160809381008091BF
:1015800080008160809380008091B10084608093AE
:10159000B1008091B00081608093B00080917A00AA
:1015A000846080937A0080917A00826080937A00D0
:1015B00080917A00816080937A0080917A008068BF
:1015C00080937A001092C10085E180937703809325
:1015D000620386EB93E0909376038093750360E05B
:1015E00072EC81E090E00E94E90788E090E090933F
:1015F000BF038093BE038091BB03882339F060E072
:1016000072EC81E090E00E94E9079EC01092B30363
:101610001092B2031092B1031092B0031092AF0374
:101620001092AE038FE190E09093B5038093B403E2
:101630009091A403963108F058C021E030E0309337
:10164000AF032093AE032DE130E03093B10320933C
:10165000B0032DE030E03093B3032093B203409108
:101660006800983058F031E09E3008F430E021E016
:10167000822F01C0880F3A95EAF701C084E0842BDD
:1016800080936800983038F09E3040F0963148F0F2
:1016900020E030E008C02DE630E005C02BE630E069
:1016A00002C02CE630E03093AC032093AB039830BB
:1016B00030F481E001C0880F9A95EAF70EC0292F17
:1016C00030E09E3018F42850310902C02E50310904
:1016D00081E001C0880F2A95EAF78093AD038091DD
:1016E000B4039091B5030197F1F78091B203909103
:1016F000B303892B49F1E0919603F091970323E01E
:10170000E839F20709F1309739F0A389B4899C913F
:101710008589809589238C938091B6038E7F8093F1
:10172000B6031092C3021092C20288E993E090932C
:10173000970380939603E091AB03F091AC03908103
:101740008091AD03892B808340E150E068E571E032
:1017500084EC92E00E94BF0742E050E069E671E04D
:1017600084EC92E00E94BF07BB24B39423E0E22EF6
:10177000F12C33E2C32ED12C0E945B08882371F038
:1017800080910001882351F01092000180910101A5
:101790008F5F833008F425C1109201010E945B081D
:1017A000811105C080910001882309F41DC1809139
:1017B0000101813009F4B6C030F0823009F00CC16B
:1017C0000E94B30709C10E94610440907E035090BB
:1017D0007F036090800370908103DC01CB0184194A
:1017E0009509A609B7094897A105B10510F0B0926F
:1017F0007D0380917D03882309F45EC00E9461040B
:1018000060937E0370937F038093800390938103A2
:1018100010927D0360E088E793E00E942C04C701EA
:101820000197F1F761E088E793E00E942C04C6017C
:101830000197F1F760E088E793E00E942C0460E0F4
:10184000809179030E9491038091790390E0FC01DB
:10185000E255FF4F6491FC01E656FF4FE491F0E042
:10186000EE0FFF1FEA57FF4F8591949108EB16E5A5
:1018700020E030E0462F0E94520A61157105810573
:10188000910551F02B013C012FEF421A520A620AD6
:10189000720A8FE0782203C0412C512C3201C3011F
:1018A000B2010E948B0E6093820370938303809336
:1018B0008403909385030CC060918203709183032D
:1018C00080918403909185030E9473102B013C0149
:1018D000411451046104710431F480EA482E8AE510
:1018E000582E612C712CC301B2010E948B0E20E096
:1018F00030E048E652E40E94011020E030E040EA87
:1019000051E40E94A9101816F4F561E87FEF8EE803
:1019100093E00E9475076FE770E086E893E00E940D
:1019200075075CC00E94B30788E993E00E94A50296
:10193000892B09F453C01A8219821C821B821E82D1
:101940001D8260E070E0CE0101960E942B0A298181
:101950003A8181111DC02115310519F0C9010E947C
:1019600074111A8219821E821D821C821B820E949F
:10197000A30997FF15C06D807E8089819A810E949E
:101980007411672859F18FE790E00E94450926C03D
:101990001E821D826BE671E0C9010E94D112E7CF61
:1019A0008F8318866D807E802FEF621A720AB301D2
:1019B000CE0101960E942B0A8823C9F229813A811F
:1019C0008D819E81BE01695F7F4F820F931F0E94B0
:1019D000D1127E826D82CBCF0E94B3070E94650137
:1019E000CBCE80930101DACEB0920001E0CE80919F
:1019F0000604909107040E94741188E391E090938B
:101A00009903809398038091960390919703885946
:101A1000934071F4E091AB03F091AC03908180911D
:101A2000AD038095892380831092970310929603CB
:101A300008951092C7021092C60288EE93E0A0E0CB
:101A4000B0E08093C8029093C902A093CA02B093F9
:101A5000CB0224E131E03093C5022093C40225EC8F
:101A600030E03093D1022093D00224EC30E0309368
:101A7000D3022093D20220EC30E03093D5022093A1
:101A8000D40221EC30E03093D7022093D60222EC2E
:101A900030E03093D9022093D80226EC30E0309326
:101AA000DB022093DA021092DD021092DE02109225
:101AB000DF021092E002109213041092120480933D
:101AC000140490931504A0931604B093170426E20F
:101AD00031E0309311042093100421E030E0309382
:101AE0001D0420931C0410921E0510921F051092D5
:101AF00020051092210510922205109223051092C4
:101B000024051092250510922605109227051092A3
:101B100028051092290510922A0510922B05109283
:101B20002D0510922C0510922E0510922F05109263
:101B30003005109231051092320510923305109243
:101B40003405109235051092360526E020938E0359
:101B500027E020938F0329E02093900325E0209332
:101B6000860324E0209387032AE02093880340E142
:101B70004093780331E13093790323E020937A0393
:101B80001092610310926203109263034093B703B3
:101B90003093B8032093B90310929B0310929A03D9
:101BA00080939C0390939D03A0939E03B0939F0307
:101BB00088E391E090939903809398031092AF0388
:101BC0001092AE031092B1031092B0031092B303BF
:101BD0001092B2031092B5031092B4036091B60351
:101BE0006E7F6D7F6093B6036695617081E06827B4
:101BF00080E10E94620361E080E10E949103EEEBCC
:101C0000F0E0E491E093A803EAEAF0E0E491F0E088
:101C1000EE0FFF1FE057FF4F859194919093AA0319
:101C20008093A90360E081E10E9491038091B60353
:101C300081FD04C061E081E10E94620381E1809343
:101C4000A403EFEBF0E0E491E093A503EBEAF0E00E
:101C5000E491F0E0EE0FFF1FEA57FF4F859194915A
:101C60009093A7038093A6038AE491E0909399034D
:101C700080939803109207041092060410920904AE
:101C80001092080410920B0410920A0460E070E0B5
:101C900086E094E00E942B0A20910604309107040C
:101CA000811113C02115310519F0C9010E94741169
:101CB000109207041092060410920B0410920A046A
:101CC000109209041092080409C010920B0410929B
:101CD0000A046BE671E0C9010E94D1121092BD03A3
:101CE0001092BC038091B80380930E048091B703D7
:101CF00080930F0481E09091B903953009F080E062
:101D00008093BB038AE491E09093990380939803B6
:101D10000895E89409C097FB3EF4909580957095DE
:101D200061957F4F8F4F9F4F9923A9F0F92F96E927
:101D3000BB279395F695879577956795B795F1119C
:101D4000F8CFFAF4BB0F11F460FF1BC06F5F7F4F39
:101D50008F4F9F4F16C0882311F096E911C077234B
:101D600021F09EE8872F762F05C0662371F096E854
:101D7000862F70E060E02AF09A95660F771F881F23
:101D8000DAF7880F9695879597F90895990F0008C7
:101D9000550FAA0BE0E8FEEF16161706E807F9073D
:101DA000C0F012161306E407F50798F0621B730BD8
:101DB000840B950B39F40A2661F0232B242B252B59
:101DC00021F408950A2609F4A140A6958FEF811DFC
:101DD000811D089597F99F6780E870E060E008959D
:101DE0009FEF80EC089500240A9416161706180633
:101DF0000906089500240A9412161306140605060F
:101E00000895092E0394000C11F4882352F0BB0F9F
:101E100040F4BF2B11F460FF04C06F5F7F4F8F4F02
:101E20009F4F089557FD9058440F551F59F05F3F3D
:101E300071F04795880F97FB991F61F09F3F79F0EC
:101E400087950895121613061406551FF2CF46956E
:101E5000F1DF08C0161617061806991FF1CF8695F0
:101E60007105610508940895E894BB2766277727D4
:101E7000CB0197F908952F923F924F925F926F9204
:101E80007F928F929F92AF92BF92CF92DF92EF920A
:101E9000FF920F931F93CF93DF93CDB7DEB7CA1B8B
:101EA000DB0B0FB6F894DEBF0FBECDBF09942A88B6
:101EB000398848885F846E847D848C849B84AA845E
:101EC000B984C884DF80EE80FD800C811B81AA81EB
:101ED000B981CE0FD11D0FB6F894DEBF0FBECDBFB6
:101EE000ED010895A1E21A2EAA1BBB1BFD010DC036
:101EF000AA1FBB1FEE1FFF1FA217B307E407F507BA
:101F000020F0A21BB30BE40BF50B661F771F881F95
:101F1000991F1A9469F760957095809590959B012B
:101F2000AC01BD01CF0108955058BB27AA270E94DC
:101F3000AC0F0C94010F0E94F30E38F00E94FA0EC1
:101F400020F039F49F3F19F426F40C94F00E0EF4AF
:101F5000E095E7FB0C94EA0EE92F0E94120F58F36C
:101F6000BA17620773078407950720F079F4A6F57E
:101F70000C94340F0EF4E0950B2EBA2FA02D0B010C
:101F8000B90190010C01CA01A0011124FF27591BBE
:101F900099F0593F50F4503E68F11A16F040A22FC4
:101FA000232F342F4427585FF3CF46953795279535
:101FB000A795F0405395C9F77EF41F16BA0B620B34
:101FC000730B840BBAF09150A1F0FF0FBB1F661F7B
:101FD000771F881FC2F70EC0BA0F621F731F841FBE
:101FE00048F4879577956795B795F7959E3F08F0E4
:101FF000B0CF9395880F08F09927EE0F97958795A6
:1020000008950E9415100C94010F0E94FA0E58F0CA
:102010000E94F30E40F029F45F3F29F00C94EA0E81
:1020200051110C94350F0C94F00E0E94120F68F3AE
:102030009923B1F3552391F3951B550BBB27AA2781
:1020400062177307840738F09F5F5F4F220F331FBB
:10205000441FAA1FA9F335D00E2E3AF0E0E832D083
:1020600091505040E695001CCAF72BD0FE2F29D086
:10207000660F771F881FBB1F261737074807AB0758
:10208000B0E809F0BB0B802DBF01FF2793585F4FCD
:102090003AF09E3F510578F00C94EA0E0C94350FFF
:1020A0005F3FE4F3983ED4F3869577956795B795AF
:1020B000F7959F5FC9F7880F911D9695879597F9BA
:1020C0000895E1E0660F771F881FBB1F6217730733
:1020D0008407BA0720F0621B730B840BBA0BEE1F48
:1020E00088F7E09508950E947A106894B1110C94D5
:1020F000350F08950E941A0F88F09F5798F0B92F56
:102100009927B751B0F0E1F0660F771F881F991F2C
:102110001AF0BA95C9F714C0B13091F00E94340F8B
:10212000B1E008950C94340F672F782F8827B85F9B
:1021300039F0B93FCCF3869577956795B395D9F784
:102140003EF490958095709561957F4F8F4F9F4F8E
:1021500008950E94C60E08F48FEF089597FB072E8E
:1021600016F4009407D077FD09D00E94C21007FC36
:1021700005D03EF4909581959F4F08957095619597
:102180007F4F0895AA1BBB1B51E107C0AA1FBB1FAD
:10219000A617B70710F0A61BB70B881F991F5A95F3
:1021A000A9F780959095BC01CD010895EE0FFF1F12
:1021B0000590F491E02D09940F931F93CF93DF9333
:1021C0008230910510F482E090E0E0913905F091C1
:1021D0003A0520E030E0A0E0B0E0309719F140810E
:1021E00051810281138148175907C8F08417950758
:1021F00069F4109731F012960C93129713961C9372
:1022000027C00093390510933A0522C021153105E6
:1022100019F04217530718F49A01BD01EF01DF01CD
:10222000F801DBCF21153105F9F0281B390B2430DB
:10223000310580F48A819B816115710521F0FB01D4
:102240009383828304C090933A0580933905FE01FD
:10225000329644C0FE01E20FF31F81939193225006
:102260003109398328833AC02091370530913805E8
:10227000232B41F42091040130910501309338055E
:10228000209337052091020130910301211531057A
:1022900041F42DB73EB74091060150910701241B30
:1022A000350BE0913705F0913805E217F307A0F4FC
:1022B0002E1B3F0B2817390778F0AC014E5F5F4F9C
:1022C0002417350748F04E0F5F1F50933805409391
:1022D00037058193919302C0E0E0F0E0CF01DF91F8
:1022E000CF911F910F910895CF93DF93009709F439
:1022F00081C0FC01329713821282A0913905B091FE
:102300003A05109781F420813181820F931F20912B
:102310003705309138052817390751F5F0933805FE
:10232000E093370567C0ED0120E030E0CE17DF070E
:1023300040F44A815B819E0141155105F1F0EA01AB
:10234000F5CFD383C28340815181840F951FC81775
:10235000D90759F488819981840F951F029691833A
:1023600080838A819B81938382832115310529F49F
:10237000F0933A05E09339053DC0E901FB83EA8318
:1023800049915991C40FD51FEC17FD0761F4808165
:102390009181840F951F0296E90199838883828138
:1023A00093819B838A83E0E0F0E012968D919C916B
:1023B0001397009719F0FD01DC01F7CF8D919C91E7
:1023C00011979D012E5F3F4F820F931F209137057C
:1023D000309138052817390769F4309729F410929D
:1023E0003A051092390502C013821282B093380563
:1023F000A0933705DF91CF910895A0E0B0E0E3E02E
:10240000F2E10C943F0FEC01009721F4CB010E9404
:10241000DC10B4C0FC01E60FF71F9C01225031090B
:10242000E217F30708F4A8C0D9010D911C91119788
:1024300006171707B0F00530110508F49BC0C80156
:1024400004978617970708F495C002501109061BD8
:10245000170B019311936D937C93CF010E9474111C
:1024600089C05B01A01AB10A4C01800E911EA09197
:102470003905B0913A05612C712CE12CF12C1097A3
:1024800009F446C08D919C911197A815B905B1F535
:102490006C0142E0C40ED11CCA14DB0478F14C017B
:1024A0008A189B08640142E0C40ED11C1296BC90AD
:1024B00012971396AC91B5E0CB16D10440F0B282DE
:1024C000A38391828082D9016D937C9309C00E5FB2
:1024D0001F4F800F911FF90191838083EB2DFA2FFD
:1024E000E114F10431F0D7011396FC93EE931297A7
:1024F00041C0F0933A05E09339053CC0681679066F
:1025000008F43C017D0112960D90BC91A02DB7CF2F
:10251000809137059091380588169906E1F4661682
:102520007706C8F48091020190910301009741F46D
:102530008DB79EB74091060150910701841B950B02
:10254000E817F907C8F4F0933805E0933705F90167
:10255000718360830FC0CB010E94DC107C01009767
:1025600059F0A801BE010E94C812CE010E94741148
:10257000C70104C0CE0102C080E090E0CDB7DEB755
:10258000EEE00C945B0F81E090E0F8940C94D8128C
:10259000FB01DC0102C001900D9241505040D8F780
:1025A0000895FB01DC0101900D920020E1F70895F0
:1025B00010E0C2E6D0E004C0FE010E94D6102196D1
:0A25C000C336D107C9F7F894FFCF26
:1025CA0001FF00003B058000010000000202030435
:1025DA0000000000F600BF078D004301BE009C000A
:1025EA00B0000000000084027902A002B001720269
:1025FA006F026C0200000000B101BF07A002B00127
:10260A00010219029801000000009602BF07A00209
:10261A00B001A502C7029801426C7565746F6F74A8
:0C262A006820537461727421000D0A00D6
:00000001FF
