:100000000C9463000C948B000C948B000C94F10402
:100010000C94F1040C94F1040C948B000C94F906EC
:100020000C948B000C948B000C948B000C94950614
:100030000C948B000C948B000C948B000C948B0014
:100040000C94A7040C948B000C942C030C940603C2
:100050000C948B000C948B000C948B000C948B00F4
:100060000C946B050C948B0000000000240027000A
:100070002A0000000008000201000003040700003D
:1000800000000000000000000000230026002900FE
:1000900000000000250028002B00040404040404D0
:1000A0000404020202020202030303030303010227
:1000B00004081020408001020408102001020408F6
:1000C0001020BA0C980C11241FBECFEFD8E0DEBF71
:1000D000CDBF11E0A0E0B1E0E0E3F5E202C00590A1
:1000E0000D92AC36B107D9F725E0ACE6B1E001C01E
:1000F0001D92A13CB207E1F710E0C2E6D0E004C0D7
:100100002197FE010E948910C136D107C9F70E94CC
:100110003E0A0C948B120C940000FC01538D448D0C
:10012000252F30E0842F90E0821B930B541710F0A2
:10013000CF96089501970895FC01918D828D9817AF
:1001400061F0828DDF01A80FB11D5D968C91928DBB
:100150009F5F9F73928F90E008958FEF9FEF0895B8
:10016000FC01918D828D981731F0828DE80FF11D81
:10017000858D90E008958FEF9FEF0895FC01918D9C
:10018000228D892F90E0805C9F4F821B91098F7395
:10019000992708958AE493E00E94BE0021E0892B0C
:1001A00009F420E0822F0895FC01848DDF01A80F5F
:1001B000B11DA35ABF4F2C91848D90E001968F738F
:1001C0009927848FA689B7892C93A089B1898C91AE
:1001D000837080648C93938D848D981306C00288FD
:1001E000F389E02D80818F7D80830895EF92FF92C7
:1001F0000F931F93CF93DF93EC0181E0888F9B8D4A
:100200008C8D981305C0E889F989808185FD26C009
:10021000F62E0B8D10E00F5F1F4F0F731127E02E8E
:100220008C8DE8120CC00FB607FCFACFE889F9896B
:10023000808185FFF5CFCE010E94D400F1CF8B8D58
:10024000FE01E80FF11DE35AFF4FF0829FB7F894CB
:100250000B8FEA89FB89808180620AC09FB7F8947E
:10026000EE89FF896083E889F989808183708064E1
:1002700080839FBF81E090E0DF91CF911F910F912C
:10028000FF90EF900895CF93DF93EC01888D882342
:10029000C9F0EA89FB89808185FD05C0A889B989F3
:1002A0008C9186FD0FC00FB607FCF5CF808185FFCE
:1002B000F2CFA889B9898C9185FFEDCFCE010E943C
:1002C000D400E7CFDF91CF91089580E090E0892BB3
:1002D00029F00E94CA0081110C9400000895833017
:1002E00081F028F4813099F08230A1F008958730B0
:1002F000A9F08830B9F08430D1F4809180008F7DEE
:1003000003C0809180008F7780938000089584B52A
:100310008F7702C084B58F7D84BD08958091B00031
:100320008F7703C08091B0008F7D8093B0000895D7
:100330003FB7F8948091BE029091BF02A091C00295
:10034000B091C10226B5A89B05C02F3F19F00196B8
:10035000A11DB11D3FBFBA2FA92F982F8827820F4B
:10036000911DA11DB11DBC01CD0142E0660F771F9B
:10037000881F991F4A95D1F7089520911C04309148
:100380001D042817390771F49091C2028091C302AD
:10039000981741F0E091C202F0E0E758FD4F8081EC
:1003A00090E008958FEF9FEF089508951F93CF93E6
:1003B000DF93DC015C968D919C915D97009739F4F9
:1003C00021E030E013963C932E9312973BC0519658
:1003D000ED91FC91529750962C915097322F309579
:1003E0001FB75E964C915E97742F727041FD6095B9
:1003F000F8944081772311F0422B01C043234083BE
:10040000EC012197F1F748E0508160FF02C0522BC8
:1004100001C053235083EC012197F1F766954150B9
:1004200099F78081772319F08323808302C0282BDA
:1004300020831FBF5C968D919C915D970197F1F78A
:1004400081E090E0DF91CF911F91089520911C04ED
:1004500030911D042817390771F48091C30220914F
:10046000C20290E0805C9F4F821B910960E470E0C3
:100470000E946110089580E090E0089520911C048E
:1004800030911D0428173907B9F49091C202809168
:10049000C302981789F0E091C202F0E0E758FD4FDF
:1004A00080812091C20230E02F5F3F4F2F733327AE
:1004B0002093C20290E008958FEF9FEF089585ED9D
:1004C0008093BC008091BC0084FDFCCF109253024D
:1004D000089540912F02262F30E0240F311D213244
:1004E0003105DCF4209153022430C9F4FC0180E092
:1004F00090E0861758F430912F022191DC01A15F22
:10050000BD4FA30FB11D2C930196F3CF80912F0205
:10051000680F60932F0280E0089581E0089582E0E3
:1005200008958FEF9FEF08958FEF9FEF08958091CB
:100530000E0290E09195819591090895CF93DF93F4
:10054000CB01EA01642F0E946902CE01DF91CF91B5
:100550000895CF93DF931F92CDB7DEB7698361E033
:10056000CE0101960E94690281E090E00F90DF9138
:10057000CF9108950895FC0123A1222321F08AE45C
:1005800093E00C94F6000C94D60180E090E008957E
:100590000E947612CF93DF93FC0124A1222371F0F5
:1005A000EC010E94A50988A799A79095991F992702
:1005B000991F892F90E0DF91CF910895FC0123A12D
:1005C000222331F08AE493E0DF91CF910C94BE00B6
:1005D000DF91CF910C942602FC0124A1222351F03B
:1005E00020A531A54FEF5FEF51A740A737FF0CC003
:1005F0000C94A509FC0123A1222321F08AE493E0B5
:100600000C949C000C943E02C90108951F920F9215
:100610000FB60F9211242F933F934F935F936F93D5
:100620007F938F939F93AF93BF93EF93FF938AE44E
:1006300093E00E94D400FF91EF91BF91AF919F9101
:100640008F917F916F915F914F913F912F910F907B
:100650000FBE0F901F9018951F920F920FB60F921A
:1006600011242F938F939F93EF93FF93E0915A035D
:10067000F0915B038081E0916003F091610382FD62
:1006800012C09081809163038F5F8F732091640308
:10069000821751F0E0916303F0E0E65BFC4F958F29
:1006A0008093630301C08081FF91EF919F918F91AF
:1006B0002F910F900FBE0F901F901895CF93DF933F
:1006C000282F30E0F901EE58FF4F8491F901E255EF
:1006D000FF4FD491F901E656FF4FC491CC2391F01E
:1006E00081110E946F01EC2FF0E0EE0FFF1FEA571F
:1006F000FF4FA591B491EC91ED2381E090E021F4BE
:1007000080E002C080E090E0DF91CF9108951F93D8
:10071000CF93DF93282F30E0F901EE58FF4F8491FB
:10072000F901E255FF4FD491F901E656FF4FC4910C
:10073000CC23C1F0162F81110E946F01EC2FF0E045
:10074000EE0FFF1FE057FF4FA591B4919FB7F894AC
:10075000111104C08C91D095D82302C0EC91DE2BEE
:10076000DC939FBFDF91CF911F910895CF93DF93CB
:1007700090E0FC01E255FF4F2491FC01E656FF4F4B
:100780008491882361F190E0880F991FFC01E8595A
:10079000FF4FC591D491FC01E057FF4FA591B49153
:1007A000611109C09FB7F8948881209582238883BE
:1007B000EC912E230BC0623061F49FB7F8948881CE
:1007C000322F309583238883EC912E2B2C939FBF5F
:1007D00006C08FB7F894E8812E2B28838FBFDF9156
:1007E000CF9108951F93CF93DF93182FEB0161E012
:1007F0000E94B603209711F460E004C0CF3FD105FA
:1008000039F461E0812FDF91CF911F910C94870320
:10081000E12FF0E0EE58FF4FE491E330F9F048F4B7
:10082000E130B9F0E230A1F584B5806284BDC8BD85
:1008300034C0E730E9F0E83019F1E43049F580914F
:100840008000806280938000D0938B00C0938A00E8
:1008500024C084B5806884BDC7BD1FC0809180005E
:10086000806880938000D0938900C093880015C071
:100870008091B00080688093B000C093B3000DC039
:100880008091B00080628093B000C093B40005C036
:10089000C038D1050CF0B5CFAFCFDF91CF911F910C
:1008A00008951F93CF93DF93EC01162F61E08981A8
:1008B0000E94B603612F8981DF91CF911F910C9423
:1008C00087038F929F92AF92BF92CF92DF92EF9267
:1008D000FF926B017C010E9498014B015C01C114E5
:1008E000D104E104F104F1F00E949801DC01CB0194
:1008F00088199909AA09BB09883E9340A105B10549
:1009000070F321E0C21AD108E108F10888EE880EE0
:1009100083E0981EA11CB11CC114D104E104F104B0
:1009200019F7DDCFFF90EF90DF90CF90BF90AF90A1
:100930009F908F9008952FB7F8946091BA027091AC
:10094000BB028091BC029091BD022FBF08951F92FF
:100950000F920FB60F9211242F933F938F939F9373
:10096000AF93BF938091BA029091BB02A091BC0259
:10097000B091BD023091B90223E0230F2D3720F44E
:100980000196A11DB11D05C026E8230F0296A11DE9
:10099000B11D2093B9028093BA029093BB02A09339
:1009A000BC02B093BD028091BE029091BF02A091A3
:1009B000C002B091C1020196A11DB11D8093BE027B
:1009C0009093BF02A093C002B093C102BF91AF91B8
:1009D0009F918F913F912F910F900FBE0F901F907D
:1009E00018951F920F920FB60F9211242F933F93D9
:1009F0004F935F936F937F938F939F93AF93BF9327
:100A0000EF93FF93E0911C04F0911D04309709F4DB
:100A100051C0968DA685B785858591FF04C09C91B0
:100A2000892329F447C09C91892309F043C0A389F5
:100A3000B4899C918589809589238C93868997892F
:100A40000197F1F7608D718DA685B785558538E0E2
:100A500020E0CB010197F1F7822F90E095958795E3
:100A6000282F4C91452309F02068315091F7868D4D
:100A700081FD20958091C30290E001968F739927A4
:100A80003091C202381749F0A091C302B0E0A758D4
:100A9000BD4F2C938093C30203C0868D8160868FE7
:100AA000828D938D0197F1F7A389B4899C918589F3
:100AB000892B8C93FF91EF91BF91AF919F918F9173
:100AC0007F916F915F914F913F912F910F900FBE4A
:100AD0000F901F9018951F920F920FB60F9211242E
:100AE0002F933F934F935F936F937F938F939F9336
:100AF000AF93BF93EF93FF938091B900887F8036C7
:100B000009F49CC068F5883209F45BC090F4803128
:100B100009F454C038F4882309F4F2C0883009F489
:100B20004DC0F2C0883109F44CC0803209F45DC078
:100B3000EBC0803409F468C048F4803309F455C030
:100B4000883309F0E1C080935202D4C0803509F4A3
:100B50004FC0883509F45DC0883409F0D5C0D2C0D3
:100B6000883909F4C3C0A8F4883709F467C038F499
:100B7000883609F463C0803709F460C0C5C088387E
:100B800009F4B4C0803909F45FC0803809F0BCC0F2
:100B90005BC0803B09F484C038F4803A09F466C035
:100BA000883A09F47DC0B0C0803C09F4A3C0883CF9
:100BB00009F4A0C0883B09F486C0A6C080917802E1
:100BC00010C09091770280917602981770F5E091AD
:100BD000770281E08E0F80937702F0E0EA5AFD4FB2
:100BE00080818093BB0085EC82C0809352028AC0D2
:100BF000E091770281E08E0F809377028091BB00B5
:100C0000F0E0EA5AFD4F808390917702809176025E
:100C10006AC0E091770281E08E0F80937702809125
:100C2000BB00F0E0EA5AFD4F8083809155028111AC
:100C300069C081E08093540284EA5DC083E08093C0
:100C4000530210925102CFCF80915102803208F0AE
:100C50004DC0E091510281E08E0F8093510280914E
:100C6000BB00F0E0EF5CFD4F8083BDCF85EC80934F
:100C7000BC001092530280915102803230F4E09116
:100C80005102F0E0EF5CFD4F10826091510270E084
:100C900081E392E0E0E0F0E009951092510234C067
:100CA00084E0809353021092300210922F02E0E011
:100CB000F0E0099580912F02811105C081E08093B9
:100CC0002F0210920F02E091300281E08E0F80938C
:100CD0003002F0E0E15FFD4F80818093BB00909196
:100CE000300280912F02981708F47DCF85E8809319
:100CF000BC000AC085EC8093BC001092530204C073
:100D0000109252020E945F02FF91EF91BF91AF914A
:100D10009F918F917F916F915F914F913F912F9113
:100D20000F900FBE0F901F9018951F920F920FB645
:100D30000F9211242F933F938F939F93EF93FF93E1
:100D400080910D0287FF05C01092850010928400EB
:100D500005C080910D0287FD80910D0280910D02EA
:100D60008F5F80930D0280910D0287FF20C08091DC
:100D70000D028C30E4F42091840030918500809144
:100D80000D02082E000C990BFC01EE0FFF1F8E0FB9
:100D90009F1FFC01E751FE4F81819281820F931FBB
:100DA000909389008093880080910D0217C08091F4
:100DB000840090918500049680349C4918F480E466
:100DC0009CE905C0809184009091850004969093E1
:100DD0008900809388008FEF80930D02FF91EF913F
:100DE0009F918F913F912F910F900FBE0F901F9069
:100DF00018951F920F920FB60F9211240F931F9305
:100E00002F933F934F935F936F937F938F939F9312
:100E1000AF93BF93CF93EF93FF9382E00E945E0363
:100E2000C82F809182019091830101969093830154
:100E3000809382018091E801843618F085E08093E8
:100E40007D0180917D01833079F018F4823039F092
:100E500072C0843011F1853009F44AC06CC0C111F0
:100E60006AC01092E80129C0C13009F064C0E09165
:100E7000E80181E08E0F8093E801F0E0809182012B
:100E800090918301E458FE4F808710928301109265
:100E9000820184E080937D014EC0C11114C0E091B5
:100EA000E80181E08E0F8093E801F0E080918201FB
:100EB00090918301E458FE4F808710928301109235
:100EC000820183E0E7CF8091820190918301853692
:100ED000910588F185E080937D010E949B046093D9
:100EE0007E0170937F01809380019093810123C0E4
:100EF0000E949B0400917E0110917F01209180014E
:100F000030918101DC01CB01801B910BA20BB30B53
:100F1000893C9105A105B10540F01092E8011092BD
:100F200083011092820182E0B5CFC11104C01092FA
:100F3000830110928201FF91EF91CF91BF91AF9108
:100F40009F918F917F916F915F914F913F912F91E1
:100F50001F910F910F900FBE0F901F9018950F9338
:100F60001F93CF93DF938C016F3F710519F014F03D
:100F70006FEF70E0EB0161307F4F14F4C1E0DFEF01
:100F8000F80186819781C817D90711F1D783C683E5
:100F9000D7FD0AC061E0C8010E9451048FE090E0D3
:100FA0000197F1F7BE010CC060E0C8010E94510436
:100FB0008FE090E00197F1F7662777276C1B7D0B98
:100FC000F8018081DF91CF911F910F910C94F20372
:100FD000DF91CF911F910F91089560E070E084E15F
:100FE00094E00E94AF0760E070E08CE094E00C9425
:100FF000AF07CF92DF92EF92FF920F931F93CF93A1
:10100000DF936C017A018B01C0E0D0E0CE15DF05E3
:1010100081F0D8016D918D01D601ED91FC91019087
:10102000F081E02DC6010995892B11F02196EECFB4
:101030007E01C701DF91CF911F910F91FF90EF903B
:10104000DF90CF900895CF92DF92EF92FF926B01E5
:101050007C01E0915A03F0915B0382E08083C1142C
:1010600081EED806E104F104B1F060E079E08DE3AF
:1010700090E0A70196010E94250FDA01C9010197AE
:10108000A109B109B695A795979587959C0121155A
:1010900080E13807B8F0E0915A03F0915B031082C9
:1010A00060E874E88EE190E0A70196010E94250FA8
:1010B000DA01C9010197A109B109B695A7959795DC
:1010C00087959C01E0915603F09157033083E0919E
:1010D0005803F0915903208310926203E0915E035C
:1010E000F0915F0386E08083E0915C03F0915D0303
:1010F000808180618083E0915C03F0915D03808159
:1011000088608083E0915C03F0915D03808180685A
:101110008083E0915C03F0915D0380818F7D80830B
:10112000FF90EF90DF90CF900895CF92DF92EF92F3
:10113000FF920F931F93CF93DF93C091FB03D09146
:10114000FC030E949B040091EB031091EC0320919F
:10115000ED033091EE036B017C01C01AD10AE20A63
:10116000F30A97018601093011052105310508F4BC
:1011700075C06093EB037093EC038093ED03909341
:10118000EE0360E08091E8030E94B6038091E803DB
:101190008E3008F08E508770806480937C00809140
:1011A0007A00806480937A0080917A0086FDFCCF7B
:1011B000809178002091790090E0922B4091EF038C
:1011C0005091F0036091F1037091F203452B462B8F
:1011D000472B69F4AC01092E000C660B770B40938A
:1011E000F7035093F8036093F9037093FA03409167
:1011F000F7035091F8036091F9037091FA03841B8F
:10120000950B97FF03C091958195910944979CF4A4
:101210008091F3039091F403A091F503B091F6034C
:101220000196A11DB11D8093F3039093F403A09345
:10123000F503B093F6038091EF039091F003A09132
:10124000F103B091F2030196A11DB11D8093EF034C
:101250009093F003A093F103B093F2038091EF0316
:101260009091F003A091F103B091F2030597A105CD
:10127000B10571F51092EF031092F0031092F10393
:101280001092F2038091F3039091F403A091F5037F
:10129000B091F6030397A105B10570F08091F703B3
:1012A0009091F803A091F903B091FA03EC019093A7
:1012B000FC038093FB0304C0C091FB03D091FC03AB
:1012C0001092F3031092F4031092F5031092F603B8
:1012D000CE0164E670E00E9461106830710528F468
:1012E000FB01E85FFE4F808101C080E0DF91CF917C
:1012F0001F910F91FF90EF90DF90CF900895CF93C3
:10130000DF93EC01BC0184E194E00E94AF07BE01D1
:101310008CE094E00E94AF07BE0180E090E00E9464
:101320003C0E9B01AC0160E078EA8DE697E40E94F8
:10133000B40F20E030E040E850E40E94480F0E94E3
:101340002D10DF91CF910C946104AF92BF92CF9298
:10135000DF92EF92FF920F931F93CF93DF93FC01E5
:10136000E6A0F7A0F3E0EF1AF1086C0126E7C20E41
:10137000D11CF60180810E945E03892B69F5E7018B
:10138000CC0FDD1FCC0FDD1F259700E010E0A12C56
:10139000B12CF2E0EF16F10418F0CE010197F1F74D
:1013A000F60180810E945E030A2C02C0880F991FFB
:1013B0000A94E2F7082B192BFFEFAF1ABF0A28E0B7
:1013C000A216B10431F782E0E816F10410F021977B
:1013D000F1F7C801992702C08FEF9FEFDF91CF91FE
:1013E0001F910F91FF90EF90DF90CF90BF90AF9043
:1013F0000895CF92DF92EF92FF920F931F93E82F01
:10140000F92F05C0015011092109310961F19081BD
:1014100096239417B9F305C0015011092109310928
:1014200011F1908196239413F7CFC12CD12CE12C8C
:10143000F12C0AC08FEFC81AD80AE80AF80A0C156E
:101440001D052E053F0579F080818623841791F3D1
:101450006C2D7D2D8E2D9F2D1F910F91FF90EF9064
:10146000DF90CF90089560E070E080E090E01F9101
:101470000F91FF90EF90DF90CF900895789484B50E
:10148000826084BD84B5816084BD85B5826085BD80
:1014900085B5816085BD80916E00816080936E000E
:1014A0001092810080918100826080938100809100
:1014B00081008160809381008091800081608093B1
:1014C00080008091B10084608093B1008091B00071
:1014D00081608093B00080917A00846080937A006C
:1014E00080917A00826080937A0080917A00816096
:1014F00080937A0080917A00806880937A001092BD
:10150000C10085E18093FD038093E80386EB93E0BF
:101510009093FC038093FB0360E072EC81E090E029
:101520000E94230888E090E090934504809344044F
:1015300080914104882339F060E072EC81E090E012
:101540000E9423089EC01092390410923804109211
:1015500037041092360410923504109234048FE14F
:1015600090E090933B0480933A0490912A04963142
:1015700008F058C021E030E0309335042093340463
:101580002DE130E030933704209336042DE030E035
:10159000309339042093380440916800983058F013
:1015A00031E09E3008F430E021E0822F01C0880F46
:1015B0003A95EAF701C084E0842B80936800983064
:1015C00038F09E3040F0963148F020E030E008C01E
:1015D0002DE630E005C02BE630E002C02CE630E01E
:1015E0003093320420933104983030F481E001C00C
:1015F000880F9A95EAF70EC0292F30E09E3018F434
:101600002850310902C02E50310981E001C0880FF5
:101610002A95EAF78093330480913A0490913B0431
:101620000197F1F78091380490913904892B49F1A1
:10163000E0911C04F0911D0424E0EE31F20709F161
:10164000309739F0A389B4899C9185898095892345
:101650008C9380913C048E7F80933C041092C30253
:101660001092C2028EE194E090931D0480931C04BA
:10167000E0913104F0913204908180913304892B00
:10168000808340E150E068E571E08AE493E00E94E5
:10169000F90742E050E069E671E08AE493E00E94D5
:1016A000F907DD24D394C3E0D0E023E2E22EF12C4D
:1016B0000E949508882371F080910001882351F0E1
:1016C00010920001809101018F5F833008F42AC1DC
:1016D000109201010E949508811105C080910001BE
:1016E000882309F422C180910101813009F4BBC033
:1016F00030F0823009F011C10E94ED070EC10E9446
:101700009B0400910404109105042091060430917B
:101710000704DC01CB01801B910BA20BB30B489794
:10172000A105B10510F0D092030480910304882331
:1017300009F45EC00E949B04609304047093050446
:1017400080930604909307041092030460E08EEFE8
:1017500093E00E945104CE010197F1F761E08EEF12
:1017600093E00E945104C7010197F1F760E08EEF0A
:1017700093E00E94510460E08091FF030E94B60351
:101780008091FF0390E0FC01E255FF4F6491FC0162
:10179000E656FF4FE491F0E0EE0FFF1FEA57FF4FD0
:1017A0008591949108EB16E520E030E0462F0E94E9
:1017B000F909611571058105910551F04B015C0135
:1017C0002FEF821A920AA20AB20A8FE0B82203C04F
:1017D000812C912C5401C501B4010E943E0E6093EE
:1017E00008047093090480930A0490930B040CC0BE
:1017F000609108047091090480910A0490910B048F
:101800000E9426104B015C0181149104A104B104D3
:1018100031F480EA882E8AE5982EA12CB12CC501DE
:10182000B4010E943E0E20E030E048E652E40E94FF
:10183000B40F20E030E040EA51E40E945C1018163A
:101840006CF461E87FEF84E194E00E94AF076FE7FA
:1018500070E08CE094E00E94AF0761C08FE790E0F9
:101860000E947F095CC00E94ED078EE194E00E9417
:10187000CA02892B09F441C08EE194E00E94EC0277
:101880008C0190934903809348030196C1F08FE740
:1018900090E00E947F098091460390914703FC01EC
:1018A000EA53FD4F008301969093470380934603CC
:1018B00061E070E080E090E00E946104DDCF109272
:1018C000C5021092C4020091C4021091C502809119
:1018D000460390914703081719077CF4F801EA536F
:1018E000FD4F60818AE493E00E94F6000F5F1F4F76
:1018F0001093C5020093C402E6CF8AE493E00E94ED
:10190000BE00892B61F08AE493E00E949C00682F5E
:101910008EE194E00E94BB0202C00E94ED070E948B
:101920006501C6CE80930101D5CED0920001DBCEF9
:1019300080918C0490918D040E94271188E391E09E
:1019400090931F0480931E0480911C0490911D04A9
:101950008E51944071F4E0913104F0913204908101
:101960008091330480958923808310921D04109206
:101970001C04089510924D0310924C0388EE93E0DE
:10198000A0E0B0E080934E0390934F03A0935003E8
:10199000B093510324E131E030934B0320934A0389
:1019A00025EC30E0309357032093560324EC30E0CD
:1019B000309359032093580320EC30E030935B03BD
:1019C00020935A0321EC30E030935D0320935C03B5
:1019D00022EC30E030935F0320935E0326EC30E08E
:1019E00030936103209360031092630310926403A9
:1019F0001092650310926603109299041092980455
:101A000080939A0490939B04A0939C04B0939D04AC
:101A100026E231E0309397042093960421E030E0F1
:101A20003093A3042093A2041092A4051092A5055C
:101A30001092A6051092A7051092A8051092A9056C
:101A40001092AA051092AB051092AC051092AD054C
:101A50001092AE051092AF051092B0051092B1052C
:101A60001092B3051092B2051092B4051092B5050C
:101A70001092B6051092B7051092B8051092B905EC
:101A80001092BA051092BB051092BC0526E0209377
:101A9000140427E02093150429E02093160425E080
:101AA00020930C0424E020930D042AE020930E04DC
:101AB00040E14093FE0331E13093FF0323E02093A4
:101AC00000041092E7031092E8031092E903409398
:101AD0003D0430933E0420933F0410922104109261
:101AE00020048093220490932304A0932404B093B1
:101AF000250488E391E090931F0480931E041092C4
:101B00003504109234041092370410923604109267
:101B100039041092380410923B0410923A046091F8
:101B20003C046E7F6D7F60933C046695617081E03C
:101B3000682780E10E94870361E080E10E94B6038C
:101B4000EEEBF0E0E491E0932E04EAEAF0E0E491B9
:101B5000F0E0EE0FFF1FE057FF4F859194919093B7
:101B6000300480932F0460E081E10E94B6038091ED
:101B70003C0481FD04C061E081E10E94870381E1B2
:101B800080932A04EFEBF0E0E491E0932B04EBEA7E
:101B9000F0E0E491F0E0EE0FFF1FEA57FF4F859170
:101BA000949190932D0480932C048AE491E0909377
:101BB0001F0480931E0410928D0410928C041092C6
:101BC0008F0410928E04109291041092900461E0A0
:101BD00070E080E090E00E94B011009789F090934F
:101BE0008D0480938C0410928F0410928E042091A7
:101BF000900430919104232B91F5FC0110822FC0A9
:101C000080918C0490918D04009711F00E9427110F
:101C100010928D0410928C041092910410929004F2
:101C200010928F0410928E0410924304109242047A
:101C300080913E048093940480913D0480939504A8
:101C400081E090913F04953009F080E08093410459
:101C50008AE491E090931F0480931E0408951092EB
:101C60009104109290046BE671E080918C04909145
:101C70008D040E948412D8CFE89409C097FB3EF4EB
:101C800090958095709561957F4F8F4F9F4F9923C9
:101C9000A9F0F92F96E9BB279395F6958795779547
:101CA0006795B795F111F8CFFAF4BB0F11F460FF07
:101CB0001BC06F5F7F4F8F4F9F4F16C0882311F05F
:101CC00096E911C0772321F09EE8872F762F05C073
:101CD000662371F096E8862F70E060E02AF09A950E
:101CE000660F771F881FDAF7880F9695879597F903
:101CF0000895990F0008550FAA0BE0E8FEEF16169D
:101D00001706E807F907C0F012161306E407F507EF
:101D100098F0621B730B840B950B39F40A2661F063
:101D2000232B242B252B21F408950A2609F4A14006
:101D3000A6958FEF811D811D089597F99F6780E813
:101D400070E060E008959FEF80EC089500240A940D
:101D50001616170618060906089500240A94121686
:101D60001306140605060895092E0394000C11F4B9
:101D7000882352F0BB0F40F4BF2B11F460FF04C066
:101D80006F5F7F4F8F4F9F4F089557FD9058440FBF
:101D9000551F59F05F3F71F04795880F97FB991FCA
:101DA00061F09F3F79F08795089512161306140687
:101DB000551FF2CF4695F1DF08C016161706180614
:101DC000991FF1CF86957105610508940895E894EF
:101DD000BB2766277727CB0197F908952F923F926B
:101DE0004F925F926F927F928F929F92AF92BF922B
:101DF000CF92DF92EF92FF920F931F93CF93DF93D7
:101E0000CDB7DEB7CA1BDB0B0FB6F894DEBF0FBE33
:101E1000CDBF09942A88398848885F846E847D8480
:101E20008C849B84AA84B984C884DF80EE80FD8082
:101E30000C811B81AA81B981CE0FD11D0FB6F894F8
:101E4000DEBF0FBECDBFED010895A1E21A2EAA1B81
:101E5000BB1BFD010DC0AA1FBB1FEE1FFF1FA2175A
:101E6000B307E407F50720F0A21BB30BE40BF50B57
:101E7000661F771F881F991F1A9469F760957095E0
:101E8000809590959B01AC01BD01CF0108955058FC
:101E9000BB27AA270E945F0F0C94B40E0E94A60EC7
:101EA00038F00E94AD0E20F039F49F3F19F426F46B
:101EB0000C94A30E0EF4E095E7FB0C949D0EE92F15
:101EC0000E94C50E58F3BA17620773078407950777
:101ED00020F079F4A6F50C94E70E0EF4E0950B2EA5
:101EE000BA2FA02D0B01B90190010C01CA01A0016C
:101EF0001124FF27591B99F0593F50F4503E68F1C7
:101F00001A16F040A22F232F342F4427585FF3CF07
:101F1000469537952795A795F0405395C9F77EF4D8
:101F20001F16BA0B620B730B840BBAF09150A1F021
:101F3000FF0FBB1F661F771F881FC2F70EC0BA0FA7
:101F4000621F731F841F48F4879577956795B7952F
:101F5000F7959E3F08F0B0CF9395880F08F099272A
:101F6000EE0F9795879508950E94C80F0C94B40EB4
:101F70000E94AD0E58F00E94A60E40F029F45F3F7B
:101F800029F00C949D0E51110C94E80E0C94A30EA4
:101F90000E94C50E68F39923B1F3552391F3951B65
:101FA000550BBB27AA2762177307840738F09F5F7A
:101FB0005F4F220F331F441FAA1FA9F335D00E2EE7
:101FC0003AF0E0E832D091505040E695001CCAF754
:101FD0002BD0FE2F29D0660F771F881FBB1F261717
:101FE00037074807AB07B0E809F0BB0B802DBF01EE
:101FF000FF2793585F4F3AF09E3F510578F00C94BD
:102000009D0E0C94E80E5F3FE4F3983ED4F3869562
:1020100077956795B795F7959F5FC9F7880F911DDD
:102020009695879597F90895E1E0660F771F881FC9
:10203000BB1F621773078407BA0720F0621B730B7C
:10204000840BBA0BEE1F88F7E09508950E942D10BF
:102050006894B1110C94E80E08950E94CD0E88F09A
:102060009F5798F0B92F9927B751B0F0E1F0660F5C
:10207000771F881F991F1AF0BA95C9F714C0B1309D
:1020800091F00E94E70EB1E008950C94E70E672FDF
:10209000782F8827B85F39F0B93FCCF386957795CC
:1020A0006795B395D9F73EF49095809570956195B5
:1020B0007F4F8F4F9F4F08950E94790E08F48FEF46
:1020C000089597FB072E16F4009407D077FD09D0EA
:1020D0000E94751007FC05D03EF4909581959F4FA6
:1020E0000895709561957F4F0895AA1BBB1B51E120
:1020F00007C0AA1FBB1FA617B70710F0A61BB70B78
:10210000881F991F5A95A9F780959095BC01CD011C
:102110000895EE0FFF1F0590F491E02D09940F93A1
:102120001F93CF93DF938230910510F482E090E00B
:10213000E091BF05F091C00520E030E0A0E0B0E004
:10214000309719F140815181028113814817590755
:10215000C8F08417950769F4109731F012960C9324
:10216000129713961C9327C00093BF051093C005C8
:1021700022C02115310519F04217530718F49A01AE
:10218000BD01EF01DF01F801DBCF21153105F9F0C9
:10219000281B390B2430310580F48A819B8161151D
:1021A000710521F0FB019383828304C09093C005E5
:1021B0008093BF05FE01329644C0FE01E20FF31F7B
:1021C0008193919322503109398328833AC0209119
:1021D000BD053091BE05232B41F4209104013091BF
:1021E00005013093BE052093BD0520910201309179
:1021F00003012115310541F42DB73EB74091060189
:1022000050910701241B350BE091BD05F091BE05EF
:10221000E217F307A0F42E1B3F0B2817390778F0BD
:10222000AC014E5F5F4F2417350748F04E0F5F1F1C
:102230005093BE054093BD058193919302C0E0E0A9
:10224000F0E0CF01DF91CF911F910F910895CF93CF
:10225000DF93009709F481C0FC0132971382128248
:10226000A091BF05B091C005109781F42081318104
:10227000820F931F2091BD053091BE0528173907A5
:1022800051F5F093BE05E093BD0567C0ED0120E078
:1022900030E0CE17DF0740F44A815B819E01411593
:1022A0005105F1F0EA01F5CFD383C283408151811A
:1022B000840F951FC817D90759F488819981840F15
:1022C000951F0296918380838A819B819383828369
:1022D0002115310529F4F093C005E093BF053DC0F9
:1022E000E901FB83EA8349915991C40FD51FEC178B
:1022F000FD0761F480819181840F951F0296E901A9
:1023000099838883828193819B838A83E0E0F0E0D4
:1023100012968D919C911397009719F0FD01DC01A5
:10232000F7CF8D919C9111979D012E5F3F4F820FAA
:10233000931F2091BD053091BE052817390769F418
:10234000309729F41092C0051092BF0502C0138285
:102350001282B093BE05A093BD05DF91CF91089581
:10236000A0E0B0E0E6EBF1E10C94F20EEC01009796
:1023700021F4CB010E948F10B4C0FC01E60FF71FBF
:102380009C0122503109E217F30708F4A8C0D901D3
:102390000D911C91119706171707B0F00530110524
:1023A00008F49BC0C80104978617970708F495C0E6
:1023B00002501109061B170B019311936D937C9327
:1023C000CF010E94271189C05B01A01AB10A4C01FC
:1023D000800E911EA091BF05B091C005612C712C9B
:1023E000E12CF12C109709F446C08D919C91119726
:1023F000A815B905B1F56C0142E0C40ED11CCA1490
:10240000DB0478F14C018A189B08640142E0C40E99
:10241000D11C1296BC9012971396AC91B5E0CB16D6
:10242000D10440F0B282A38391828082D9016D935E
:102430007C9309C00E5F1F4F800F911FF90191839C
:102440008083EB2DFA2FE114F10431F0D7011396BC
:10245000FC93EE93129741C0F093C005E093BF0543
:102460003CC06816790608F43C017D0112960D9077
:10247000BC91A02DB7CF8091BD059091BE05881667
:102480009906E1F466167706C8F4809102019091EE
:102490000301009741F48DB79EB74091060150911A
:1024A0000701841B950BE817F907C8F4F093BE05E4
:1024B000E093BD05F901718360830FC0CB010E94D9
:1024C0008F107C01009759F0A801BE010E947B1279
:1024D000CE010E942711C70104C0CE0102C080E0D6
:1024E00090E0CDB7DEB7EEE00C940E0F81E090E007
:1024F000F8940C948B12FB01DC0102C001900D9248
:1025000041505040D8F70895FB01DC0101900D9235
:102510000020E1F7089510E0C2E6D0E004C0FE011B
:102520000E9489102196C336D107C9F7F894FFCFCE
:1025300001FF0000C1058000010000000202030449
:1025400000000000F600F9078D004301BE009C006A
:10255000B00000000000A9029E02C502D50197024A
:102560009402910200000000D601F907C502D501CE
:1025700026023E02BD0100000000BB02F907C502B1
:10258000D501CA02EC02BD01426C7565746F6F74AF
:0C2590006820537461727421000D0A0071
:107E0000112484B714BE81FFF0D085E080938100F7
:107E100082E08093C00088E18093C10086E0809377
:107E2000C20080E18093C4008EE0C9D0259A86E02C
:107E300020E33CEF91E0309385002093840096BBD3
:107E4000B09BFECF1D9AA8958150A9F7CC24DD24C4
:107E500088248394B5E0AB2EA1E19A2EF3E0BF2EE7
:107E6000A2D0813461F49FD0082FAFD0023811F036
:107E7000013811F484E001C083E08DD089C08234E0
:107E800011F484E103C0853419F485E0A6D080C0E4
:107E9000853579F488D0E82EFF2485D0082F10E0AE
:107EA000102F00270E291F29000F111F8ED06801E7
:107EB0006FC0863521F484E090D080E0DECF843638
:107EC00009F040C070D06FD0082F6DD080E0C81688
:107ED00080E7D80618F4F601B7BEE895C0E0D1E017
:107EE00062D089930C17E1F7F0E0CF16F0E7DF06D8
:107EF00018F0F601B7BEE89568D007B600FCFDCFD4
:107F0000A601A0E0B1E02C9130E011968C91119780
:107F100090E0982F8827822B932B1296FA010C0160
:107F200087BEE89511244E5F5F4FF1E0A038BF0790
:107F300051F7F601A7BEE89507B600FCFDCF97BE46
:107F4000E89526C08437B1F42ED02DD0F82E2BD052
:107F50003CD0F601EF2C8F010F5F1F4F84911BD097
:107F6000EA94F801C1F70894C11CD11CFA94CF0C13
:107F7000D11C0EC0853739F428D08EE10CD085E9AC
:107F80000AD08FE07ACF813511F488E018D01DD067
:107F900080E101D065CF982F8091C00085FFFCCF94
:107FA0009093C60008958091C00087FFFCCF809118
:107FB000C00084FD01C0A8958091C6000895E0E648
:107FC000F0E098E1908380830895EDDF803219F02E
:107FD00088E0F5DFFFCF84E1DECF1F93182FE3DFCA
:107FE0001150E9F7F2DF1F91089580E0E8DFEE27F6
:047FF000FF270994CA
:027FFE00040479
:0400000300007E007B
:00000001FF