:100000000C9463000C948B000C948B000C945304A0
:100010000C9453040C9453040C948B000C948106A0
:100020000C948B000C948B000C948B000C940D069C
:100030000C948B000C948B000C948B000C948B0014
:100040000C9409040C948B000C947B090C945509B6
:100050000C948B000C948B000C948B000C948B00F4
:100060000C94E3040C948B00000000002400270093
:100070002A0000000008000201000003040700003D
:1000800000000000000000000000230026002900FE
:1000900000000000250028002B00040404040404D0
:1000A0000404020202020202030303030303010227
:1000B00004081020408001020408102001020408F6
:1000C0001020C112901211241FBECFEFD8E0DEBF66
:1000D000CDBF11E0A0E0B1E0E4EEF2E302C0059094
:1000E0000D92AA3CB107D9F726E0AAECB1E001C015
:1000F0001D92AD37B207E1F710E0C2E6D0E004C0D0
:100100002197FE010E943617C136D107C9F70E9418
:10011000B40D0C9465190C940000FC01538D448DB2
:10012000252F30E0842F90E0821B930B541710F0A2
:10013000CF96089501970895FC01918D828D9817AF
:1001400061F0828DDF01A80FB11D5D968C91928DBB
:100150009F5F9F73928F90E008958FEF9FEF0895B8
:10016000FC01918D828D981731F0828DE80FF11D81
:10017000858D90E008958FEF9FEF0895FC01918D9C
:10018000228D892F90E0805C9F4F821B91098F7395
:100190009927089580E090E0892B29F00E94E008DB
:1001A00081110C9400000895833081F028F481308F
:1001B00099F08230A1F008958730A9F08830B9F025
:1001C0008430D1F4809180008F7D03C080918000C5
:1001D0008F7780938000089584B58F7702C084B5AF
:1001E0008F7D84BD08958091B0008F7703C080918A
:1001F000B0008F7D8093B00008953FB7F894809150
:100200001C0390911D03A0911E03B0911F0326B5FE
:10021000A89B05C02F3F19F00196A11DB11D3FBF3E
:10022000BA2FA92F982F8827820F911DA11DB11DCC
:10023000BC01CD0142E0660F771F881F991F4A95C8
:10024000D1F708952091220330912303281739070D
:1002500071F49091200380912103981741F0E0916F
:100260002003F0E0E952FD4F808190E008958FEF88
:100270009FEF089508951F93CF93DF93DC015C9661
:100280008D919C915D97009739F421E030E01396B1
:100290003C932E9312973BC05196ED91FC9152974F
:1002A00050962C915097322F30951FB75E964C91F7
:1002B0005E97742F727041FD6095F89440817723AA
:1002C00011F0422B01C043234083EC012197F1F749
:1002D00048E0508160FF02C0522B01C0532350837D
:1002E000EC012197F1F76695415099F780817723CA
:1002F00019F08323808302C0282B20831FBF5C96C4
:100300008D919C915D970197F1F781E090E0DF91ED
:10031000CF911F9108952091220330912303281734
:10032000390771F4809121032091200390E0805CD3
:100330009F4F821B910960E470E00E94221708958C
:1003400080E090E008952091220330912303281744
:100350003907B9F49091200380912103981789F00F
:10036000E0912003F0E0E952FD4F808120912003CD
:1003700030E02F5F3F4F2F7333272093200390E00F
:1003800008958FEF9FEF089585ED8093BC008091D5
:10039000BC0084FDFCCF1092B102089540918D0203
:1003A000262F30E0240F311D21323105DCF420915D
:1003B000B1022430C9F4FC0180E090E0861758F4C3
:1003C00030918D022191DC01A359BD4FA30FB11DC6
:1003D0002C930196F3CF80918D02680F60938D026C
:1003E00080E0089581E0089582E008958FEF9FEF07
:1003F00008958FEF9FEF089580916C0290E09195A2
:10040000819591090895CF93DF93CB01EA01642F81
:100410000E94CE01CE01DF91CF910895CF93DF935B
:100420001F92CDB7DEB7698361E0CE0101960E94CD
:10043000CE0181E090E00F90DF91CF91089580E0B0
:1004400090E008950E942319CF93DF93FC0124A12B
:10045000222371F0EC010E949D0B88A799A790952B
:10046000991F9927991F892F90E0DF91CF910895C7
:10047000FC0123A1222331F087E293E0DF91CF91A9
:100480000C94BE00DF91CF910C948B01FC0124A150
:10049000222351F020A531A54FEF5FEF51A740A7D0
:1004A00037FF0CC00C949D0BFC0123A1222321F0EB
:1004B00087E293E00C949C000C94A301C901089579
:1004C000FC0123A1222321F087E293E00C94EA08A7
:1004D0000C943B01FC01848DDF01A80FB11DA35AD0
:1004E000BF4F2C91848D90E001968F739927848F54
:1004F000A689B7892C93A089B1898C918370806477
:100500008C93938D848D981306C00288F389E02D17
:1005100080818F7D80830895CF93DF93EC01888D58
:100520008823C9F0EA89FB89808185FD05C0A889F7
:10053000B9898C9186FD0FC00FB607FCF5CF80817D
:1005400085FFF2CFA889B9898C9185FFEDCFCE01C7
:100550000E946A02E7CFDF91CF910895CF93DF9396
:10056000282F30E0F901EE58FF4F8491F901E25550
:10057000FF4FD491F901E656FF4FC491CC2391F07F
:1005800081110E94D400EC2FF0E0EE0FFF1FEA571C
:10059000FF4FA591B491EC91ED2381E090E021F41F
:1005A00080E002C080E090E0DF91CF9108951F933A
:1005B000CF93DF93282F30E0F901EE58FF4F84915D
:1005C000F901E255FF4FD491F901E656FF4FC4916E
:1005D000CC23C1F0162F81110E94D400EC2FF0E043
:1005E000EE0FFF1FE057FF4FA591B4919FB7F8940E
:1005F000111104C08C91D095D82302C0EC91DE2B50
:10060000DC939FBFDF91CF911F910895CF93DF932C
:1006100090E0FC01E255FF4F2491FC01E656FF4FAC
:100620008491882361F190E0880F991FFC01E859BB
:10063000FF4FC591D491FC01E057FF4FA591B491B4
:10064000611109C09FB7F89488812095822388831F
:10065000EC912E230BC0623061F49FB7F89488812F
:10066000322F309583238883EC912E2B2C939FBFC0
:1006700006C08FB7F894E8812E2B28838FBFDF91B7
:10068000CF9108951F93CF93DF93182FEB0161E073
:100690000E940603209711F460E004C0CF3FD1050B
:1006A00039F461E0812FDF91CF911F910C94D70233
:1006B000E12FF0E0EE58FF4FE491E330F9F048F419
:1006C000E130B9F0E230A1F584B5806284BDC8BDE7
:1006D00034C0E730E9F0E83019F1E43049F58091B1
:1006E0008000806280938000D0938B00C0938A004A
:1006F00024C084B5806884BDC7BD1FC080918000C0
:10070000806880938000D0938900C093880015C0D2
:100710008091B00080688093B000C093B3000DC09A
:100720008091B00080628093B000C093B40005C097
:10073000C038D1050CF0B5CFAFCFDF91CF911F916D
:1007400008958E3008F08E508770806480937C000E
:1007500080917A00806480937A0080917A0086FD8F
:10076000FCCF809178002091790090E0922B089541
:100770008230910538F0880F991F880F991F0597CF
:100780000197F1F708958F929F92AF92BF92CF9207
:10079000DF92EF92FF926B017C010E94FD004B0102
:1007A0005C01C114D104E104F104F1F00E94FD00E8
:1007B000DC01CB0188199909AA09BB09883E93403D
:1007C000A105B10570F321E0C21AD108E108F108D2
:1007D00088EE880E83E0981EA11CB11CC114D104C0
:1007E000E104F10419F7DDCFFF90EF90DF90CF9097
:1007F000BF90AF909F908F9008952FB7F89460911D
:1008000018037091190380911A0390911B032FBF55
:1008100008951F920F920FB60F9211242F933F93BA
:100820008F939F93AF93BF93809118039091190377
:10083000A0911A03B0911B033091170323E0230FFB
:100840002D3720F40196A11DB11D05C026E8230F08
:100850000296A11DB11D2093170380931803909356
:100860001903A0931A03B0931B0380911C0390916A
:100870001D03A0911E03B0911F030196A11DB11D80
:1008800080931C0390931D03A0931E03B0931F033A
:10089000BF91AF919F918F913F912F910F900FBE7C
:1008A0000F901F9018951F920F920FB60F92112460
:1008B0002F933F934F935F936F937F938F939F9368
:1008C000AF93BF93EF93FF93E0912203F091230343
:1008D000309709F451C0968DA685B785858591FF1F
:1008E00004C09C91892329F447C09C91892309F075
:1008F00043C0A389B4899C918589809589238C9371
:10090000868997890197F1F7608D718DA685B785E6
:10091000558538E020E0CB010197F1F7822F90E078
:1009200095958795282F4C91452309F020683150E3
:1009300091F7868D81FD20958091210390E00196AD
:100940008F73992730912003381749F0A091210324
:10095000B0E0A952BD4F2C938093210303C0868D34
:100960008160868F828D938D0197F1F7A389B48979
:100970009C918589892B8C93FF91EF91BF91AF91C9
:100980009F918F917F916F915F914F913F912F91A7
:100990000F900FBE0F901F901895E0912203F091D9
:1009A0002303E817F90769F4A389B4899C91858921
:1009B000809589238C93109223031092220381E067
:1009C000089580E008951F920F920FB60F921124A0
:1009D0002F933F934F935F936F937F938F939F9347
:1009E000AF93BF93EF93FF938091B900887F8036D8
:1009F00009F49CC068F5883209F45BC090F480313A
:100A000009F454C038F4882309F4F2C0883009F49A
:100A10004DC0F2C0883109F44CC0803209F45DC089
:100A2000EBC0803409F468C048F4803309F455C041
:100A3000883309F0E1C08093B002D4C0803509F456
:100A40004FC0883509F45DC0883409F0D5C0D2C0E4
:100A5000883909F4C3C0A8F4883709F467C038F4AA
:100A6000883609F463C0803709F460C0C5C088388F
:100A700009F4B4C0803909F45FC0803809F0BCC003
:100A80005BC0803B09F484C038F4803A09F466C046
:100A9000883A09F47DC0B0C0803C09F4A3C0883C0A
:100AA00009F4A0C0883B09F486C0A6C08091D60294
:100AB00010C09091D5028091D402981770F5E09102
:100AC000D50281E08E0F8093D502F0E0EC54FD4F0B
:100AD00080818093BB0085EC82C08093B0028AC085
:100AE000E091D50281E08E0F8093D5028091BB000A
:100AF000F0E0EC54FD4F80839091D5028091D402B8
:100B00006AC0E091D50281E08E0F8093D50280917A
:100B1000BB00F0E0EC54FD4F80838091B302811163
:100B200069C081E08093B20284EA5DC083E0809373
:100B3000B1021092AF02CFCF8091AF02803208F0A5
:100B40004DC0E091AF0281E08E0F8093AF028091A3
:100B5000BB00F0E0E157FD4F8083BDCF85EC809373
:100B6000BC001092B1028091AF02803230F4E0916B
:100B7000AF02F0E0E157FD4F10826091AF0270E0EC
:100B80008FE892E0E0E0F0E009951092AF0234C007
:100B900084E08093B10210928E0210928D02E0E008
:100BA000F0E0099580918D02811105C081E080936C
:100BB0008D0210926D02E0918E0281E08E0F809383
:100BC0008E02F0E0E359FD4F80818093BB0090914D
:100BD0008E0280918D02981708F47DCF85E880936E
:100BE000BC000AC085EC8093BC001092B10204C026
:100BF0001092B0020E94C401FF91EF91BF91AF919A
:100C00009F918F917F916F915F914F913F912F9124
:100C10000F900FBE0F901F9018951F920F920FB656
:100C20000F9211242F933F938F939F93EF93FF93F2
:100C300080916B0287FF05C010928500109284009E
:100C400005C080916B0287FD80916B0280916B02E1
:100C50008F5F80936B0280916B0287FF20C0809131
:100C60006B028C30E4F420918400309185008091F7
:100C70006B02082E000C990BFC01EE0FFF1F8E0F6C
:100C80009F1FFC01E95BFD4F81819281820F931FC1
:100C9000909389008093880080916B0217C08091A7
:100CA000840090918500049680349C4918F480E477
:100CB0009CE905C0809184009091850004969093F2
:100CC0008900809388008FEF80936B02FF91EF91F2
:100CD0009F918F913F912F910F900FBE0F901F907A
:100CE00018951F93CF93DF93EC01162F61E0898154
:100CF0000E940603612F8981DF91CF911F910C948F
:100D0000D7021F920F920FB60F9211240F931F93C9
:100D10002F933F934F935F936F937F938F939F9303
:100D2000AF93BF93CF93EF93FF9382E00E94AE0205
:100D3000C82F8091E0019091E10101969093E1012B
:100D40008093E00180914602843618F085E080931C
:100D5000DB018091DB01833079F018F4823039F0C7
:100D600072C0843011F1853009F44AC06CC0C111E1
:100D70006AC01092460229C0C13009F064C0E091F7
:100D8000460281E08E0F80934602F0E08091E00100
:100D90009091E101E652FE4F80871092E10110929E
:100DA000E00184E08093DB014EC0C11114C0E091EA
:100DB000460281E08E0F80934602F0E08091E001D0
:100DC0009091E101E652FE4F80871092E10110926E
:100DD000E00183E0E7CF8091E0019091E101853669
:100DE000910588F185E08093DB010E94FD0360930B
:100DF000DC017093DD018093DE019093DF0123C05D
:100E00000E94FD030091DC011091DD012091DE01C3
:100E10003091DF01DC01CB01801B910BA20BB30BE6
:100E2000893C9105A105B10540F01092460210924F
:100E3000E1011092E00182E0B5CFC11104C010922F
:100E4000E1011092E001FF91EF91CF91BF91AF913D
:100E50009F918F917F916F915F914F913F912F91D2
:100E60001F910F910F900FBE0F901F9018950F9329
:100E70001F93CF93DF938C016F3F710519F014F02E
:100E80006FEF70E0EB0161307F4F14F4C1E0DFEFF2
:100E9000F80186819781C817D90711F1D783C683D6
:100EA000D7FD0AC061E0C8010E9471068FE090E0A2
:100EB0000197F1F7BE010CC060E0C8010E94710605
:100EC0008FE090E00197F1F7662777276C1B7D0B89
:100ED000F8018081DF91CF911F910F910C94420313
:100EE000DF91CF911F910F91089560E070E085E848
:100EF00094E00E94370760E070E08DE794E00C9486
:100F00003707CF93DF93EC0166277727681B790BB0
:100F100085E894E00E943707BE018DE794E0DF91F9
:100F2000CF910C943707CF93DF93CDECD4E063E6F9
:100F300071E0CE010E94E00C1F821E82289685E09F
:100F4000C534D807A1F78FEF9FEF909302018093EC
:100F50000101DF91CF910895FC016481758120E04A
:100F600030E080E090E02617370791F04081518112
:100F70004115510529F0DA01A20FB31F4C9101C0B0
:100F800040E0840F911D47FD9A952F5F3F4FEBCFB7
:100F90000895AF92BF92CF92DF92EF92FF920F939C
:100FA0001F93CF93DF93CDB7DEB762970FB6F89458
:100FB000DEBF0FBECDBF01E914E0E12CF12C809122
:100FC000240390912503E816F9060CF062C0B801DD
:100FD000CE010D960E943709BE01635F7F4FCE019F
:100FE00001960E943709CE0101960E94AC075C0170
:100FF000CE0101960E940E0DC0902403D0902503CF
:101000006CE571E0CE0101960E94400949895A8938
:101010006D857E85CE0101960E94300C811104C041
:10102000CE0101960E945E0C60E671E0CE01019651
:101030000E94A60CB5010E94700C62E671E00E944D
:10104000A60CB6010E94700CBC01CE0107960E944E
:101050003709CE0101960E940E0DCE010D960E9419
:101060000E0D4B855C856F81788584EC93E00E9442
:10107000B6086CE070E080E090E00E94C303CE010F
:1010800007960E940E0D8FEFE81AF80A0A5F1F4FAD
:1010900096CF62960FB6F894DEBF0FBECDBFDF913C
:1010A000CF911F910F91FF90EF90DF90CF90BF9065
:1010B000AF9008951F93CF93DF9300D000D000D05E
:1010C000CDB7DEB764E671E0CE0101960E9440091B
:1010D000209124033091250316E0129FC001139F35
:1010E000900D1124BE016F5F7F4F8F569B4F0E9462
:1010F000F70C80912403909125030196909325038A
:1011000080932403CE0101960E940E0D6EE671E0DD
:10111000CE0101960E9440092091240330912503BD
:10112000129FC001139F900D1124BE016F5F7F4F6E
:101130008F569B4F0E94F70C8091240390912503BA
:1011400001969093250380932403CE0101960E947B
:101150000E0D0E94C90726960FB6F894DEBF0FBE8B
:10116000CDBFDF91CF911F9108950895CF92DF9267
:10117000EF92FF920F931F93CF93DF936C017A014D
:101180008B01C0E0D0E0CE15DF0581F0D8016D9174
:101190008D01D601ED91FC910190F081E02DC60109
:1011A0000995892B11F02196EECF7E01C701DF91C1
:1011B000CF911F910F91FF90EF90DF90CF90089506
:1011C00087E293E00E94BE0021E0892B09F420E031
:1011D000822F0895EF92FF920F931F93CF93DF9387
:1011E000EC0181E0888F9B8D8C8D981305C0E88978
:1011F000F989808185FD26C0F62E0B8D10E00F5FEA
:101200001F4F0F731127E02E8C8DE8120CC00FB604
:1012100007FCFACFE889F989808185FFF5CFCE01F7
:101220000E946A02F1CF8B8DFE01E80FF11DE35A97
:10123000FF4FF0829FB7F8940B8FEA89FB8980817A
:1012400080620AC09FB7F894EE89FF896083E889BD
:10125000F98980818370806480839FBF81E090E002
:10126000DF91CF911F910F91FF90EF900895FC01B6
:101270001182108213821282158214820C94F70C50
:10128000FC01118210821382128215821482611570
:10129000710551F0FB0101900020E9F73197AF0192
:1012A000461B570B0C94BF0C08951F920F920FB65C
:1012B0000F9211242F933F934F935F936F937F93DC
:1012C0008F939F93AF93BF93EF93FF9387E293E046
:1012D0000E946A02FF91EF91BF91AF919F918F9110
:1012E0007F916F915F914F913F912F910F900FBE22
:1012F0000F901F9018951F920F920FB60F92112406
:101300002F938F939F93EF93FF93E0913703F09187
:1013100038038081E0913D03F0913E0382FD12C0CD
:101320009081809140038F5F8F73209141038217DA
:1013300051F0E0914003F0E0E95DFC4F958F809320
:10134000400301C08081FF91EF919F918F912F9178
:101350000F900FBE0F901F9018950F931F93CF9370
:10136000DF93EC0188819981009729F02A813B81E4
:101370002617370788F48B016F5F7F4F0E945D1837
:10138000009761F0998388831B830A832C813D81B8
:10139000232B11F4FC01108281E001C080E0DF9179
:1013A000CF911F910F910895CF92DF92EF92FF920C
:1013B0000F931F930E94FD0360937504709376044E
:1013C00080937704909378041092740460E08FE621
:1013D00094E00E94710683E090E00197F1F761E0EC
:1013E0008FE694E00E94710683E290E00197F1F7A6
:1013F00060E08FE694E00E94710660E080917004E6
:101400000E9406038091700490E0FC01E255FF4FBA
:101410006491FC01E656FF4FE491F0E0EE0FFF1FF0
:10142000EA57FF4F8591949100E315E720E030E003
:10143000462F0E946F0D611571058105910551F0D0
:10144000DC01CB010196A11DB11D6C017D012FE0D6
:10145000F22203C0C12CD12C7601C701B6010E9433
:10146000D1146093790470937A0480937B049093F1
:101470007C04C701B6011F910F91FF90EF90DF90A0
:10148000CF900895CF92DF92EF92FF920F931F9328
:10149000CF93DF93C0915004D09151040E94FD037B
:1014A0000091400410914104209142043091430482
:1014B0006B017C01C01AD10AE20AF30A9701860186
:1014C000093011052105310508F461C0609340041D
:1014D00070934104809342049093430460E08091B0
:1014E0003D040E94060380913D040E94A1034091A7
:1014F0004404509145046091460470914704452B83
:10150000462B472B69F4AC01092E000C660B770BB8
:1015100040934C0450934D0460934E0470934F04D9
:1015200040914C0450914D0460914E0470914F04D1
:10153000841B950B97FF03C0919581959109449762
:101540009CF48091480490914904A0914A04B09180
:101550004B040196A11DB11D80934804909349044A
:10156000A0934A04B0934B048091440490914504A5
:10157000A0914604B09147040196A11DB11D80932E
:10158000440490934504A0934604B093470480918B
:10159000440490914504A0914604B09147040597F6
:1015A000A105B10571F51092440410924504109202
:1015B0004604109247048091480490914904A091F8
:1015C0004A04B0914B040397A105B10570F08091D6
:1015D0004C0490914D04A0914E04B0914F04EC0145
:1015E000909351048093500404C0C0915004D09152
:1015F0005104109248041092490410924A04109227
:101600004B04CE0164E670E00E9422176830710539
:1016100028F4FB01E45FFE4F808101C080E0DF9190
:10162000CF911F910F91FF90EF90DF90CF90089591
:101630000F931F930E94FD036093CC037093CD031F
:101640008093CE039093CF0384EC93E00E944602F4
:1016500097FF1FC00E94FD030091CC031091CD03A2
:101660002091CE033091CF03DC01CB01801B910B85
:10167000A20BB30B0091C8031091C9032091CA03B8
:101680003091CB0380179107A207B307E8F28FEFE1
:101690009FEF1F910F9108950F931F93CF93DF93A7
:1016A000EB018C3631F485E894E00E943707BE01E7
:1016B0000AC000271127061B170BB80185E894E024
:1016C0000E943707B8018DE794E00E9437078EE348
:1016D0009FEDBE010E940E17072E000C880B990B80
:1016E0000E94C303DF91CF911F910F910C94750756
:1016F0001F93CF93DF931091510561E0812F0E94DA
:101700000603C0E0D0E061E0812F0E94D7028AEC9E
:1017100092E00E94B80360E0812F0E94D7028AEC19
:1017200092E00E94B803A8952196CF3581E0D807B2
:1017300051F7DF91CF911F910895CF92DF92EF92F1
:10174000FF920F931F93CF93DF93FC01C6A0D7A006
:10175000F3E0CF1AD1088C010A581F4FF80180819D
:101760000E94AE02892B01F5C0E0D0E0E12CF12C03
:10177000C6010E94B803F80180810E94AE020E2CBF
:1017800002C0880F991F0A94E2F7C82BD92BFFEFEC
:10179000EF1AFF0A28E0E216F10451F7C6010E9491
:1017A000B803CE01992702C08FEF9FEFDF91CF9151
:1017B0001F910F91FF90EF90DF90CF900895DF92EF
:1017C000EF92FF920F931F93CF93DF93FC0104815D
:1017D00015810115110519F48FEF9FEF1AC0EC0167
:1017E0000190F081E02DE00FF11FD0801082E880A1
:1017F000F980062E000C770BC7010E945A19F701D9
:10180000E00FF11FD082009739F328813981821BC4
:10181000930BDF91CF911F910F91FF90EF90DF908D
:101820000895FC0124813581232B31F421E06115D9
:101830007105A1F0FB0108C0FC0180819181611557
:10184000710531F421E0FC018081882339F005C065
:101850000E943C1921E0892B09F020E0822F089595
:10186000EF92FF920F931F93CF93DF936115710552
:1018700011F480E01CC041155105C1F07B01EC0161
:101880008C819D818A01080F191FB801CE010E9429
:10189000AD09882371F3288139818C819D81B7013D
:1018A000820F931F0E9445191D830C8381E0DF91F5
:1018B000CF911F910F91FF90EF900895CF93DF93F9
:1018C000EC0188819981009711F00E94D417198248
:1018D00018821D821C821B821A82DF91CF9108958B
:1018E000EF92FF920F931F93CF93DF93CDB7DEB7A5
:1018F00028970FB6F894DEBF0FBECDBF7C01CB0199
:101900004AE08E010F5F1F4FB8010E948014F8015A
:1019100001900020E9F73197AF01401B510BB8014E
:10192000C7010E94300C811103C0C7010E945E0CE8
:10193000C70128960FB6F894DEBF0FBECDBFDF916A
:10194000CF911F910F91FF90EF900895CF93DF9368
:10195000EC016115710561F0FB0101900020E9F7D0
:101960003197AF01461B570B0E94300C811103C009
:10197000CE010E945E0CCE01DF91CF910895EF92CF
:10198000FF920F931F93CF93DF93EC017B018A01AA
:10199000BA010E94AD09811104C0CE010E945E0C03
:1019A00007C01D830C83B701888199810E94451966
:1019B000CE01DF91CF911F910F91FF90EF9008958D
:1019C000CF93DF93EC016115710559F0FB01019094
:1019D0000020E9F73197AF01461B570B0E94BF0C5F
:1019E00002C00E945E0CCE01DF91CF910895CF938B
:1019F000DF93EC01FB018617970761F0608171812D
:101A00006115710529F0448155810E94BF0C02C007
:101A10000E945E0CCE01DF91CF910895FC01808180
:101A200091810C94D417BF92CF92DF92EF92FF92E4
:101A30000F931F93CF93DF937C016B018A01E90120
:101A40002417350720F4812F8901C42FD82F63E68E
:101A500071E0C7010E944009D60114968D919C91B6
:101A6000159708171907C8F48C179D0708F4EC019F
:101A7000D601ED91FC911197EC0FFD1FB080108203
:101A80006D917C91600F711FC7010E94E00CD6011F
:101A9000ED91FC91EC0FFD1FB082C701DF91CF915A
:101AA0001F910F91FF90EF90DF90CF90BF9008951E
:101AB0000F931F93CF93DF93EC018B016BE3C8016E
:101AC0000E94DF0B9C0140E050E0B801CE010E9473
:101AD000130DCE01DF91CF911F910F910895CF92F9
:101AE000DF92EF92FF920F931F93E82FF92F05C01B
:101AF000015011092109310961F190819623941750
:101B0000B9F305C0015011092109310911F1908182
:101B100096239413F7CFC12CD12CE12CF12C0AC0C1
:101B20008FEFC81AD80AE80AF80A0C151D052E0509
:101B30003F0579F080818623841791F36C2D7D2DEC
:101B40008E2D9F2D1F910F91FF90EF90DF90CF90E2
:101B5000089560E070E080E090E01F910F91FF90A9
:101B6000EF90DF90CF900895CF93DF93CDB7DEB79E
:101B7000AA970FB6F894DEBF0FBECDBF789484B598
:101B8000826084BD84B5816084BD85B5826085BD79
:101B900085B5816085BD80916E00816080936E0007
:101BA00010928100809181008260809381008091F9
:101BB00081008160809381008091800081608093AA
:101BC00080008091B10084608093B1008091B0006A
:101BD00081608093B00080917A00846080937A0065
:101BE00080917A00826080937A0080917A0081608F
:101BF00080937A0080917A00806880937A001092B6
:101C0000C10085E18093520480933D0486EB93E00C
:101C1000909351048093500488E090E09093EB03FC
:101C20008093EA038091E7038823A9F1E0913703C9
:101C3000F091380382E08083E0913303F091340324
:101C40001082E0913503F091360380E18083109299
:101C50003F03E0913B03F0913C0386E08083E091F9
:101C60003903F0913A03808180618083E0913903E8
:101C7000F0913A03808188608083E0913903F0918C
:101C80003A03808180688083E0913903F0913A03C0
:101C900080818F7D98C01092DF031092DE03109236
:101CA000DD031092DC031092DB031092DA038FE164
:101CB00090E09093E1038093E0039091D0039631FC
:101CC00008F058C021E030E03093DB032093DA03C2
:101CD0002DE130E03093DD032093DC032DE030E094
:101CE0003093DF032093DE0340916800983058F072
:101CF00031E09E3008F430E021E0822F01C0880FEF
:101D00003A95EAF701C084E0842B8093680098300C
:101D100038F09E3040F0963148F42CE630E008C0B0
:101D20002DE630E005C02BE630E002C020E030E0D8
:101D30003093D8032093D703983030F481E001C06A
:101D4000880F9A95EAF70EC0292F30E09E3018F4DC
:101D50002850310902C02E50310981E001C0880F9E
:101D60002A95EAF78093D9038091E0039091E103EB
:101D70000197F1F78091DE039091DF03892B21F128
:101D8000809122039091230323E0843C9207E1F0A9
:101D9000009711F00E94CD048091E2038E7F809322
:101DA000E203109221031092200384EC93E09093BD
:101DB000230380932203E091D703F091D80390810D
:101DC0008091D903892B808381E090E0A0E0B0E08E
:101DD0008093C8039093C903A093CA03B093CB0325
:101DE0003324339432E0432E512C612C712C0E9409
:101DF000420A882371F080910001882351F01092EB
:101E00000001809105018F5F823008F474C3109245
:101E100005010E94420A811105C0809100018823BA
:101E200009F46CC363E671E0CE0185960E94400917
:101E300010910501112321F0113009F46CC252C335
:101E400080910401882321F00E94780B10920401F4
:101E500063E671E0CE014F960E9440090E94180B84
:101E600097FD0CC089831A8241E050E0BE016F5F8C
:101E70007F4FCE014F960E94300CF0CF6CE571E0A1
:101E8000CE0101960E9440094D815E818BA19CA1EB
:101E90008417950778F08F8D98A1009759F0698184
:101EA0007A816115710531F00E944C1911E0892B7E
:101EB00009F010E0CE0101960E940E0D112309F4E5
:101EC0000DC1809101019091020101969093020150
:101ED000809301016AE3CE014F960E94DF0B2BA194
:101EE0003CA1AC014F5F5F4FBE01615E7F4FCE01F1
:101EF00049960E94130DBE01675E7F4FCE010D967D
:101F00000E943709BE01635F7F4FCE0107960E9492
:101F1000370963E2CE0107960E94DF0B2B853C85D3
:101F2000AC014F5F5F4FBE01695F7F4FCE010196ED
:101F30000E94130D89819A81009721F00E94591403
:101F4000F62E01C0F12CCE0101960E940E0DCE019D
:101F500007960E940E0DBE01635F7F4FCE01019672
:101F60000E943709BE016F5F7F4FCE0107960E9426
:101F7000580DCE0101960E940E0D009101011091A5
:101F8000020123E0000F111F2A95E1F703531B4FB5
:101F9000BE01695F7F4FC8010E94F70C6F2D70E092
:101FA000F80177836683CE0107960E940E0DCE015D
:101FB0000D960E940E0DBE01675E7F4FCE014396C7
:101FC0000E943709BE016D5E7F4FCE0101960E94CF
:101FD0003709BE016F5F7F4FCE0107960E94580DF3
:101FE000CE0107960E94AC078C01CE0107960E9495
:101FF0000E0DCE0101960E940E0DBE016D5E7F4F4B
:10200000CE010D960E94370989899A89892B69F03A
:10201000ED84FE8463E270E0C7010E9431190097ED
:1020200021F09C012E193F0902C02FEF3FEF40E045
:1020300050E0BE01635F7F4FCE0107960E94130DF3
:102040006BE3CE0107960E94DF0B2B853C85AC012C
:102050004F5F5F4FBE01695F7F4FCE0101960E94C7
:10206000130D89819A81009729F00E9459146B0100
:102070007C0103C0C12CD12C7601CE0101960E94B7
:102080000E0DCE0107960E940E0DCE010D960E94F8
:102090000E0DCE0143960E940E0D0C151D0539F054
:1020A00063E771E0CE0107960E94400912C0BE01AD
:1020B000675E7F4FCE0101960E943709BE016F5FB8
:1020C0007F4FCE0107960E94580DCE0101960E94C7
:1020D0000E0DCE0149960E940E0D12C08F8D98A153
:1020E00098878F8389A19AA19A8789878BA19CA1C0
:1020F0009C878B8718A21F8E1AA219A21CA21BA252
:10210000CE014F960E940E0D8DA19EA1009741F029
:102110006F8178856115710509F0F3C10E94D417AC
:102120008F8198859EA38DA389859A8598A78FA373
:102130008B859C859AA789A718861F821A8619867F
:102140001C861B86CE0107960E940E0D6EE671E07E
:10215000CE0185960E94110C882309F4CDC0009110
:10216000010110910201B8016F5F7F4F9DECE92ED4
:1021700094E0F92EF70180E090E008171907E4F0E9
:10218000268137812617370709F0BEC0ADECB4E0D1
:1021900021E030E00217130764F0189616964D916F
:1021A0005C9117976417750709F0AEC02F5F3F4F1A
:1021B000F1CF01963896E1CFC12CD12CC016D106B3
:1021C0000CF097C0B701CE0101960E94370964E672
:1021D00071E0CE0101960E94110C882319F00E9433
:1021E000C90723C08091260381111FC081E9A82E51
:1021F00084E0B82E812C912C8091240390912503AA
:102200008815990564F063E671E0C5010E94E00C51
:10221000FFEF8F1A9F0A26E0A20EB11CEDCF10929D
:102220002503109224033092260364E871E0CE0166
:1022300001960E94110C882321F06FE770E08CE674
:102240000BC06FE871E0CE0101960E94110C88234B
:1022500031F06FE770E084E60E944C0B3FC06BE901
:1022600071E0CE0101960E94110C882329F08FE7BE
:1022700090E00E94810732C065EA71E0CE010196CC
:102280000E94110C882319F00E94750727C060EB8B
:1022900071E0CE0101960E94110C882359F067E786
:1022A0007FEF85E894E00E9437076FE770E08DE7E5
:1022B00094E012C06CEB71E0CE0101960E94110C0B
:1022C000882361F069E870E08DE794E00E943707A9
:1022D00061E87FEF85E894E00E943707CE01019620
:1022E0000E940E0D8FEFC81AD80AE8E0EE0EF11C1E
:1022F00065CF109226030AC063E771E0CE01859690
:102300000E94110C882321F00E945A080E94930712
:1023100030920301E9C080910301882321F00E94DB
:10232000780B109203018FE790E00E9481070E94D2
:10233000FD0300917504109176042091770430918B
:102340007804DC01CB01801B910BA20BB30B4897E7
:10235000A105B10510F030927404809174048823B3
:1023600019F00E94D4090AC06091790470917A042E
:1023700080917B0490917C040E94D816A301920165
:102380000E94EE15CA01B9010E94D1142DEC3CEC5B
:1023900048EE51E40E94661620E030E0A9010E9458
:1023A000CA14882309F495C00E94FD0300917504A6
:1023B000109176042091770430917804DC01CB01F0
:1023C000801B910BA20BB30B4897A105B10510F030
:1023D0003092740480917404882319F00E94D40907
:1023E0000AC06091790470917A0480917B04909185
:1023F0007C040E94D816A30192010E94EE15CA0126
:10240000B9010E94D1142DEC3CEC48EE51E40E943D
:10241000661620E030E040E251E40E94CA1487FFD3
:102420000BC081E89FEF0E94810768EE73E080E0B7
:1024300090E00E94C30348C060E0809161040E9464
:102440000603809161040E94A103BC0180E090E03A
:102450000E94CF1420E030E040EE5FE30E94661659
:102460002CE53FE842E250E40E94301520E030E0E5
:1024700040EA51E40E94CA1487FF04C06FE770E08D
:102480008CE625C060E0809153040E940603809191
:1024900053040E94A103BC0180E090E00E94CF148D
:1024A00020E030E040EE5FE30E9466162CE53FE856
:1024B00042E250E40E94301520E030E040EA51E46E
:1024C0000E94CA1487FF05C06FE770E084E60E948F
:1024D0004C0B62E070E080E090E00E94C303309219
:1024E000040102C00E947507CE0185960E940E0D60
:1024F0000E94CA007CCC809305018BCC30920001F5
:1025000091CC4FA158A52B853C854217530708F461
:1025100005CE0E9445198B859C859AA789A710CE68
:10252000CF93DF938EE491E09093C5038093C4032F
:1025300082E394E00E940E0D8CE391E09093C5033A
:102540008093C40384EC93E00E94CD0488E595E079
:102550000E940E0DCDECD4E02697CE010E940E0D08
:1025600084E0C139D807C1F7C5E4D5E02897CE018A
:102570000E940E0D84E0CD3CD807C1F7DF91CF91CA
:102580000895FF920F931F93CF93DF9310922A0326
:102590001092290388EE93E0A0E0B0E080932B0333
:1025A00090932C03A0932D03B0932E0328E131E0E8
:1025B000309328032093270325EC30E03093340335
:1025C0002093330324EC30E030933603209335031B
:1025D00020EC30E0309338032093370321EC30E0D7
:1025E00030933A032093390322EC30E030933C03DC
:1025F00020933B0326EC30E030933E0320933D03D1
:102600001092400310924103109242031092430330
:1026100010924805109247058093490590934A050A
:10262000A0934B05B0934C058AE291E09093460548
:102630008093450581E090E090935F0580935E056F
:102640001092600610926106109262061092630664
:102650001092640610926506109266061092670644
:10266000109268061092690610926A0610926B0624
:1026700010926C0610926D0610926F0610926E0604
:1026800010927006109271061092720610927306E4
:1026900010927406109275061092760610927706C4
:1026A00010927806CDECD4E005E415E028E0F22E97
:1026B000FE018F2D11928A95E9F763E671E0CE0154
:1026C0000E94400928960C171D0791F7C1E9D4E034
:1026D0000DEC14E063E671E0CE010E9440092696FD
:1026E0000C171D07B9F710928D0410928E041092EA
:1026F0008F0488E08093510563E671E088E595E0FA
:102700000E94400986E08093850487E080938604D8
:1027100099E09093870485E080937D0424E02093E2
:102720007E048AE080937F043BE030936F043CE0BA
:102730003093700461E0609371043EE03093610473
:102740003FE0309362042093630420E1209353041C
:1027500021E12093540423E02093550490935205E3
:102760008093530582E08093540510923C041092AC
:102770003D0410923E041092E3031092E403109281
:10278000E5031092C7031092C60388EE93E0A0E021
:10279000B0E08093C8039093C903A093CA03B09399
:1027A000CB038CE391E09093C5038093C403109214
:1027B000DB031092DA031092DD031092DC03109217
:1027C000DF031092DE031092E1031092E003809188
:1027D000E2038E7F8D7F8093E20386958170682768
:1027E00080E00E94D70261E080E00E9406030EEACA
:1027F00010E0F80184918093D403CAE9D0E0FE018F
:102800008491E82FF0E0EE0FFF1FE057FF4F859116
:1028100094919093D6038093D50360E080E00E946A
:1028200006038091E20381FD04C061E080E00E9424
:10283000D7021092D003F80104910093D103FE0156
:10284000C491EC2FF0E0EE0FFF1FEA57FF4F859188
:1028500094919093D3038093D2038EE491E090936C
:10286000C5038093C40363E671E082E394E00E94B1
:1028700040091092E9031092E8038091E4038093E9
:102880003A048091E30380933B0481E09091E50357
:10289000953009F080E08093E7038EE491E0909317
:1028A000C5038093C403DF91CF911F910F91FF90D7
:1028B00008951F93FC0199278827BC01E894119182
:1028C0001032E9F3193010F01E30C8F31B3251F00A
:1028D0001D3249F4689406C00E948B14610F711D6B
:1028E000811D911D119110531A30B0F33EF4909553
:1028F0008095709561957F4F8F4F9F4F1F910895E1
:10290000BB274A3031F4992322F4BDE2909581959A
:102910009F4F0C94A114592F482F372F262F660F45
:10292000771F881F991F660F771F881F991F620FD7
:10293000731F841F951F660F771F881F991F0895A7
:10294000BB27FB015527AA27880F991FAA1FA41789
:1029500010F0A41B83955051B9F7A05DAA3308F07D
:10296000A95DA193009779F7B111B1931192CB01B1
:102970000C94BA14DC01FC01672F71917723E1F705
:10298000329704C07C916D9370836291AE17BF073C
:10299000C8F308950E940C1508F481E00895E894A6
:1029A00009C097FB3EF490958095709561957F4F97
:1029B0008F4F9F4F9923A9F0F92F96E9BB27939545
:1029C000F695879577956795B795F111F8CFFAF455
:1029D000BB0F11F460FF1BC06F5F7F4F8F4F9F4F86
:1029E00016C0882311F096E911C0772321F09EE8E4
:1029F000872F762F05C0662371F096E8862F70E04A
:102A000060E02AF09A95660F771F881FDAF7880F23
:102A10009695879597F90895990F0008550FAA0B79
:102A2000E0E8FEEF16161706E807F907C0F01216E1
:102A30001306E407F50798F0621B730B840B950BE4
:102A400039F40A2661F0232B242B252B21F4089539
:102A50000A2609F4A140A6958FEF811D811D0895D6
:102A60000E9443150C94B4150E94A61538F00E94DC
:102A7000AD1520F0952311F00C949D150C94A31521
:102A800011240C94E8150E94C51570F3959FC1F3AD
:102A9000950F50E0551F629FF001729FBB27F00D0C
:102AA000B11D639FAA27F00DB11DAA1F649F662761
:102AB000B00DA11D661F829F2227B00DA11D621FB0
:102AC000739FB00DA11D621F839FA00D611D221F6A
:102AD000749F3327A00D611D231F849F600D211D4E
:102AE000822F762F6A2F11249F5750409AF0F1F0D1
:102AF00088234AF0EE0FFF1FBB1F661F771F881F3A
:102B000091505040A9F79E3F510580F00C949D15BF
:102B10000C94E8155F3FE4F3983ED4F386957795DF
:102B20006795B795F795E7959F5FC1F7FE2B880FDF
:102B3000911D9695879597F9089597F99F6780E875
:102B400070E060E008959FEF80EC089500240A94FF
:102B50001616170618060906089500240A94121678
:102B60001306140605060895092E0394000C11F4AB
:102B7000882352F0BB0F40F4BF2B11F460FF04C058
:102B80006F5F7F4F8F4F9F4F089557FD9058440FB1
:102B9000551F59F05F3F71F04795880F97FB991FBC
:102BA00061F09F3F79F08795089512161306140679
:102BB000551FF2CF4695F1DF08C016161706180606
:102BC000991FF1CF86957105610508940895E894E1
:102BD000BB2766277727CB0197F90895052E97FB2A
:102BE0001EF400940E94051657FD07D00E9444165B
:102BF00007FC03D04EF40C94051650954095309583
:102C000021953F4F4F4F5F4F089590958095709558
:102C100061957F4F8F4F9F4F08952F923F924F9214
:102C20005F926F927F928F929F92AF92BF92CF925C
:102C3000DF92EF92FF920F931F93CF93DF93CDB765
:102C4000DEB7CA1BDB0B0FB6F894DEBF0FBECDBFDD
:102C500009942A88398848885F846E847D848C84AE
:102C60009B84AA84B984C884DF80EE80FD800C81B7
:102C70001B81AA81B981CE0FD11D0FB6F894DEBF9A
:102C80000FBECDBFED010895A1E21A2EAA1BBB1BFA
:102C9000FD010DC0AA1FBB1FEE1FFF1FA217B30728
:102CA000E407F50720F0A21BB30BE40BF50B661F3E
:102CB000771F881F991F1A9469F760957095809502
:102CC00090959B01AC01BD01CF0108950E947A1639
:102CD0000C94B4150E94AD1558F00E94A61540F052
:102CE00029F45F3F29F00C949D1551110C94E815BF
:102CF0000C94A3150E94C51568F39923B1F35523CD
:102D000091F3951B550BBB27AA27621773078407FE
:102D100038F09F5F5F4F220F331F441FAA1FA9F394
:102D200035D00E2E3AF0E0E832D091505040E69582
:102D3000001CCAF72BD0FE2F29D0660F771F881FE3
:102D4000BB1F261737074807AB07B0E809F0BB0BD6
:102D5000802DBF01FF2793585F4F3AF09E3F5105EA
:102D600078F00C949D150C94E8155F3FE4F3983EC1
:102D7000D4F3869577956795B795F7959F5FC9F7D3
:102D8000880F911D9695879597F90895E1E0660F54
:102D9000771F881FBB1F621773078407BA0720F0CD
:102DA000621B730B840BBA0BEE1F88F7E095089536
:102DB0000E94DF166894B1110C94E81508950E94E2
:102DC000CD1588F09F5798F0B92F9927B751B0F0DB
:102DD000E1F0660F771F881F991F1AF0BA95C9F79F
:102DE00014C0B13091F00E94E715B1E008950C9441
:102DF000E715672F782F8827B85F39F0B93FCCF3F4
:102E0000869577956795B395D9F73EF4909580951B
:102E1000709561957F4F8F4F9F4F0895AA1BBB1BE5
:102E200051E107C0AA1FBB1FA617B70710F0A61BCA
:102E3000B70B881F991F5A95A9F780959095BC01EB
:102E4000CD01089597FB072E16F4009407D077FD67
:102E500009D00E940E1707FC05D03EF4909581958D
:102E60009F4F0895709561957F4F0895EE0FFF1F56
:102E70000590F491E02D09940F931F93CF93DF9366
:102E80008230910510F482E090E0E0917B06F091B1
:102E90007C0620E030E0A0E0B0E0309719F14081FE
:102EA00051810281138148175907C8F0841795078B
:102EB00069F4109731F012960C93129713961C93A5
:102EC00027C000937B0610937C0622C02115310594
:102ED00019F04217530718F49A01BD01EF01DF0101
:102EE000F801DBCF21153105F9F0281B390B24300F
:102EF000310580F48A819B816115710521F0FB0108
:102F00009383828304C090937C0680937B06FE01AA
:102F1000329644C0FE01E20FF31F81939193225039
:102F20003109398328833AC02091790630917A0695
:102F3000232B41F4209108013091090130937A0646
:102F40002093790620910601309107012115310562
:102F500041F42DB73EB740910A0150910B01241B5B
:102F6000350BE0917906F0917A06E217F307A0F4A9
:102F70002E1B3F0B2817390778F0AC014E5F5F4FCF
:102F80002417350748F04E0F5F1F50937A06409381
:102F900079068193919302C0E0E0F0E0CF01DF91E8
:102FA000CF911F910F910895CF93DF93009709F46C
:102FB00081C0FC01329713821282A0917B06B091EE
:102FC0007C06109781F420813181820F931F20911C
:102FD000790630917A062817390751F5F0937A0669
:102FE000E093790667C0ED0120E030E0CE17DF07FF
:102FF00040F44A815B819E0141155105F1F0EA01DF
:10300000F5CFD383C28340815181840F951FC817A8
:10301000D90759F488819981840F951F029691836D
:1030200080838A819B81938382832115310529F4D2
:10303000F0937C06E0937B063DC0E901FB83EA83C5
:1030400049915991C40FD51FEC17FD0761F4808198
:103050009181840F951F0296E9019983888382816B
:1030600093819B838A83E0E0F0E012968D919C919E
:103070001397009719F0FD01DC01F7CF8D919C911A
:1030800011979D012E5F3F4F820F931F209179066C
:1030900030917A062817390769F4309729F410928D
:1030A0007C0610927B0602C013821282B0937A06CD
:1030B000A0937906DF91CF910895A0E0B0E0E3E618
:1030C000F8E10C941116EC01009721F4CB010E9459
:1030D0003C17B4C0FC01E60FF71F9C0122503109D8
:1030E000E217F30708F4A8C0D9010D911C911197BC
:1030F00006171707B0F00530110508F49BC0C8018A
:1031000004978617970708F495C002501109061B0B
:10311000170B019311936D937C93CF010E94D417E9
:1031200089C05B01A01AB10A4C01800E911EA091CA
:103130007B06B0917C06612C712CE12CF12C109750
:1031400009F446C08D919C911197A815B905B1F568
:103150006C0142E0C40ED11CCA14DB0478F14C01AE
:103160008A189B08640142E0C40ED11C1296BC90E0
:1031700012971396AC91B5E0CB16D10440F0B28211
:10318000A38391828082D9016D937C9309C00E5FE5
:103190001F4F800F911FF90191838083EB2DFA2F30
:1031A000E114F10431F0D7011396FC93EE931297DA
:1031B00041C0F0937C06E0937B063CC0681679061C
:1031C00008F43C017D0112960D90BC91A02DB7CF63
:1031D0008091790690917A0688169906E1F4661630
:1031E0007706C8F48091060190910701009741F499
:1031F0008DB79EB740910A0150910B01841B950B2E
:10320000E817F907C8F4F0937A06E0937906F90114
:10321000718360830FC0CB010E943C177C01009733
:1032200059F0A801BE010E942819CE010E94D417AE
:10323000C70104C0CE0102C080E090E0CDB7DEB788
:10324000EEE00C942D1681E090E0F8940C94651952
:10325000FB01DC0102C001900D9241505040D8F7B3
:103260000895FC018191861721F08823D9F79927C9
:1032700008953197CF010895FB01DC018D910190F4
:1032800080190110D9F3990B0895FB01DC0101901D
:103290000D920020E1F70895FB01DC014150504000
:1032A00030F08D910190801919F40020B9F7881B36
:1032B000990B0895FC0181E090E00190061609F455
:1032C000CF010020D1F70197089510E0C2E6D0E0C9
:1032D00004C0FE010E9436172196C336D107C9F7F4
:0432E000F894FFCF90
:1032E40001FFFF0101FF00007D06800001000000D6
:1032F4000202030400000000EA08B6088D008C02F4
:10330400BE009C00B000000000000E0203021F0279
:103314003A01FC01F901F601000000003B01B60886
:103324001F023A018B01A301220100000000600288
:10333400B6081F023A012402460222014D533A0004
:103344003B00230053656E64416761696E004F76EC
:103354006572004E656973707261766E61506F724A
:10336400756B6100526F746174654C6566740052CC
:103374006F7461746552696768740052756E4D6F3D
:10338400746F72730053746F704D6F746F72730047
:10339400537065656455704C65667400537065655B
:0A33A40064557052696768740000F8
:107E0000112484B714BE81FFF0D085E080938100F7
:107E100082E08093C00088E18093C10086E0809377
:107E2000C20080E18093C4008EE0C9D0259A86E02C
:107E300020E33CEF91E0309385002093840096BBD3
:107E4000B09BFECF1D9AA8958150A9F7CC24DD24C4
:107E500088248394B5E0AB2EA1E19A2EF3E0BF2EE7
:107E6000A2D0813461F49FD0082FAFD0023811F036
:107E7000013811F484E001C083E08DD089C08234E0
:107E800011F484E103C0853419F485E0A6D080C0E4
:107E9000853579F488D0E82EFF2485D0082F10E0AE
:107EA000102F00270E291F29000F111F8ED06801E7
:107EB0006FC0863521F484E090D080E0DECF843638
:107EC00009F040C070D06FD0082F6DD080E0C81688
:107ED00080E7D80618F4F601B7BEE895C0E0D1E017
:107EE00062D089930C17E1F7F0E0CF16F0E7DF06D8
:107EF00018F0F601B7BEE89568D007B600FCFDCFD4
:107F0000A601A0E0B1E02C9130E011968C91119780
:107F100090E0982F8827822B932B1296FA010C0160
:107F200087BEE89511244E5F5F4FF1E0A038BF0790
:107F300051F7F601A7BEE89507B600FCFDCF97BE46
:107F4000E89526C08437B1F42ED02DD0F82E2BD052
:107F50003CD0F601EF2C8F010F5F1F4F84911BD097
:107F6000EA94F801C1F70894C11CD11CFA94CF0C13
:107F7000D11C0EC0853739F428D08EE10CD085E9AC
:107F80000AD08FE07ACF813511F488E018D01DD067
:107F900080E101D065CF982F8091C00085FFFCCF94
:107FA0009093C60008958091C00087FFFCCF809118
:107FB000C00084FD01C0A8958091C6000895E0E648
:107FC000F0E098E1908380830895EDDF803219F02E
:107FD00088E0F5DFFFCF84E1DECF1F93182FE3DFCA
:107FE0001150E9F7F2DF1F91089580E0E8DFEE27F6
:047FF000FF270994CA
:027FFE00040479
:0400000300007E007B
:00000001FF