:100000000C9463000C948B000C948B000C940004F3
:100010000C9400040C9400040C948B000C942E0699
:100020000C948B000C948B000C948B000C94BA05F0
:100030000C948B000C948B000C948B000C948B0014
:100040000C94B6030C948B000C94800D0C945A0DF8
:100050000C948B000C948B000C948B000C948B00F4
:100060000C9490040C948B000000000024002700E6
:100070002A0000000008000201000003040700003D
:1000800000000000000000000000230026002900FE
:1000900000000000250028002B00040404040404D0
:1000A0000404020202020202030303030303010227
:1000B00004081020408001020408102001020408F6
:1000C00010201E0EF70D11241FBECFEFD8E0DEBFAB
:1000D000CDBF11E0A0E0B1E0E4E3FFE202C0059093
:1000E0000D92A83CB107D9F726E0A8ECB1E001C019
:1000F0001D92AA30B207E1F710E0C2E6D0E004C0DA
:100100002197FE010E945E15C136D107C9F70E94F2
:100110009F0F0C948D170C940000FC01918D228D83
:10012000892F90E0805C9F4F821B91098F739927E4
:10013000089580E090E0892B29F00E94C30C811182
:100140000C9400000895833081F028F4813099F0F8
:100150008230A1F008958730A9F08830B9F084305A
:10016000D1F4809180008F7D03C0809180008F77D3
:1001700080938000089584B58F7702C084B58F7D09
:1001800084BD08958091B0008F7703C08091B00046
:100190008F7D8093B00008953FB7F89480911A0343
:1001A00090911B03A0911C03B0911D0326B5A89B41
:1001B00005C02F3F19F00196A11DB11D3FBFBA2FF9
:1001C000A92F982F8827820F911DA11DB11DBC0159
:1001D000CD0142E0660F771F881F991F4A95D1F71E
:1001E000089520910406309105062817390771F407
:1001F0009091020680910306981741F0E091020663
:10020000F0E0EB52FD4F808190E008958FEF9FEF7B
:10021000089508951F93CF93DF93DC015C968D9131
:100220009C915D97009739F421E030E013963C9360
:100230002E9312973BC05196ED91FC915297509698
:100240002C915097322F30951FB75E964C915E9748
:10025000742F727041FD6095F8944081772311F0FE
:10026000422B01C043234083EC012197F1F748E082
:10027000508160FF02C0522B01C053235083EC0118
:100280002197F1F76695415099F78081772319F00E
:100290008323808302C0282B20831FBF5C968D910F
:1002A0009C915D970197F1F781E090E0DF91CF910C
:1002B0001F910895209104063091050628173907EB
:1002C00071F4809103062091020690E0805C9F4FBC
:1002D000821B910960E470E00E944A15089580E055
:1002E00090E00895209104063091050628173907FB
:1002F000B9F49091020680910306981789F0E09175
:100300000206F0E0EB52FD4F80812091020630E0C2
:100310002F5F3F4F2F7333272093020690E00895FD
:100320008FEF9FEF089585ED8093BC008091BC0016
:1003300084FDFCCF1092AF02089540918B02262FCE
:1003400030E0240F311D21323105DCF42091AF0261
:100350002430C9F4FC0180E090E0861758F4309115
:100360008B022191DC01A559BD4FA30FB11D2C9328
:100370000196F3CF80918B02680F60938B0280E02F
:10038000089581E0089582E008958FEF9FEF08952A
:100390008FEF9FEF089580916A0290E0919581958B
:1003A00091090895CF93DF93CB01EA01642F0E9456
:1003B0009D01CE01DF91CF910895CF93DF931F92DE
:1003C000CDB7DEB7698361E0CE0101960E949D0141
:1003D00081E090E00F90DF91CF91089580E090E070
:1003E00008950E944B17CF93DF93FC0124A1222391
:1003F00071F0EC010E941C0B88A799A79095991F9A
:100400009927991F892F90E0DF91CF910895FC01E2
:1004100023A1222331F08EE193E0DF91CF910C9460
:100420008D00DF91CF910C945A01FC0124A122236D
:1004300051F020A531A54FEF5FEF51A740A737FF3F
:100440000CC00C941C0BFC0123A1222321F08EE193
:1004500093E00C94A10C0C947201C9010895FC0165
:1004600023A1222321F08EE193E00C94CD0C0C9477
:100470000A01FC01848DDF01A80FB11DA35ABF4FF3
:100480002C91848D90E001968F739927848FA68993
:10049000B7892C93A089B1898C91837080648C93E7
:1004A000938D848D981306C00288F389E02D808196
:1004B0008F7D80830895CF93DF93282F30E0F9015B
:1004C000EE58FF4F8491F901E255FF4FD491F901A5
:1004D000E656FF4FC491CC2391F081110E94A300F6
:1004E000EC2FF0E0EE0FFF1FEA57FF4FA591B491FC
:1004F000EC91ED2381E090E021F480E002C080E007
:1005000090E0DF91CF9108951F93CF93DF93282F31
:1005100030E0F901EE58FF4F8491F901E255FF4FA9
:10052000D491F901E656FF4FC491CC23C1F0162FA8
:1005300081110E94A300EC2FF0E0EE0FFF1FE057A7
:10054000FF4FA591B4919FB7F894111104C08C91FD
:10055000D095D82302C0EC91DE2BDC939FBFDF91B6
:10056000CF911F910895CF93DF9390E0FC01E25566
:10057000FF4F2491FC01E656FF4F8491882361F1DF
:1005800090E0880F991FFC01E859FF4FC591D49165
:10059000FC01E057FF4FA591B491611109C09FB7CD
:1005A000F8948881209582238883EC912E230BC0B8
:1005B000623061F49FB7F8948881322F309583239D
:1005C0008883EC912E2B2C939FBF06C08FB7F89495
:1005D000E8812E2B28838FBFDF91CF9108951F9341
:1005E000CF93DF93182FEB0161E00E94B3022097B5
:1005F00011F460E004C0CF3FD10539F461E0812FF0
:10060000DF91CF911F910C948402E12FF0E0EE581E
:10061000FF4FE491E330F9F048F4E130B9F0E23013
:10062000A1F584B5806284BDC8BD34C0E730E9F06F
:10063000E83019F1E43049F58091800080628093C0
:100640008000D0938B00C0938A0024C084B580685A
:1006500084BDC7BD1FC080918000806880938000EA
:10066000D0938900C093880015C08091B000806845
:100670008093B000C093B3000DC08091B000806241
:100680008093B000C093B40005C0C038D1050CF011
:10069000B5CFAFCFDF91CF911F9108958E3008F085
:1006A0008E508770806480937C0080917A00806493
:1006B00080937A0080917A0086FDFCCF809178004B
:1006C0002091790090E0922B08958230910538F0C6
:1006D000880F991F880F991F05970197F1F70895C3
:1006E0008F929F92AF92BF92CF92DF92EF92FF9242
:1006F0006B017C010E94CC004B015C01C114D10450
:10070000E104F104F1F00E94CC00DC01CB01881976
:100710009909AA09BB09883E9340A105B10570F368
:1007200021E0C21AD108E108F10888EE880E83E0C2
:10073000981EA11CB11CC114D104E104F10419F7E5
:10074000DDCFFF90EF90DF90CF90BF90AF909F9064
:100750008F9008952FB7F894609116037091170346
:1007600080911803909119032FBF08951F920F9243
:100770000FB60F9211242F933F938F939F93AF93B4
:10078000BF938091160390911703A0911803B09125
:1007900019033091150323E0230F2D3720F4019620
:1007A000A11DB11D05C026E8230F0296A11DB11D94
:1007B000209315038093160390931703A0931803B7
:1007C000B093190380911A0390911B03A0911C030D
:1007D000B0911D030196A11DB11D80931A03909342
:1007E0001B03A0931C03B0931D03BF91AF919F9176
:1007F0008F913F912F910F900FBE0F901F901895E2
:100800001F920F920FB60F9211242F933F934F9385
:100810005F936F937F938F939F93AF93BF93EF9368
:10082000FF93E0910406F0910506309709F451C05A
:10083000968DA685B785858591FF04C09C918923F7
:1008400029F447C09C91892309F043C0A389B48946
:100850009C918589809589238C93868997890197B6
:10086000F1F7608D718DA685B785558538E020E05C
:10087000CB010197F1F7822F90E095958795282F6E
:100880004C91452309F02068315091F7868D81FD08
:1008900020958091030690E001968F7399273091FF
:1008A0000206381749F0A0910306B0E0AB52BD4FE5
:1008B0002C938093030603C0868D8160868F828D82
:1008C000938D0197F1F7A389B4899C918589892B30
:1008D0008C93FF91EF91BF91AF919F918F917F91F9
:1008E0006F915F914F913F912F910F900FBE0F909D
:1008F0001F901895E0910406F0910506E817F90796
:1009000069F4A389B4899C918589809589238C9306
:10091000109205061092040681E0089580E0089583
:100920001F920F920FB60F9211242F933F934F9364
:100930005F936F937F938F939F93AF93BF93EF9347
:10094000FF938091B900887F803609F49CC068F5D8
:10095000883209F45BC090F4803109F454C038F453
:10096000882309F4F2C0883009F44DC0F2C0883100
:1009700009F44CC0803209F45DC0EBC0803409F446
:1009800068C048F4803309F455C0883309F0E1C0E9
:100990008093AE02D4C0803509F44FC0883509F485
:1009A0005DC0883409F0D5C0D2C0883909F4C3C00D
:1009B000A8F4883709F467C038F4883609F463C0AE
:1009C000803709F460C0C5C0883809F4B4C08039E4
:1009D00009F45FC0803809F0BCC05BC0803B09F4FB
:1009E00084C038F4803A09F466C0883A09F47DC0BE
:1009F000B0C0803C09F4A3C0883C09F4A0C0883B87
:100A000009F486C0A6C08091D40210C09091D30290
:100A10008091D202981770F5E091D30281E08E0F99
:100A20008093D302F0E0EE54FD4F80818093BB00B1
:100A300085EC82C08093AE028AC0E091D30281E04F
:100A40008E0F8093D3028091BB00F0E0EE54FD4FF7
:100A500080839091D3028091D2026AC0E091D30248
:100A600081E08E0F8093D3028091BB00F0E0EE54C2
:100A7000FD4F80838091B102811169C081E0809334
:100A8000B00284EA5DC083E08093AF021092AD02B1
:100A9000CFCF8091AD02803208F04DC0E091AD0221
:100AA00081E08E0F8093AD028091BB00F0E0E357B0
:100AB000FD4F8083BDCF85EC8093BC001092AF02C8
:100AC0008091AD02803230F4E091AD02F0E0E35766
:100AD000FD4F10826091AD0270E08DE892E0E0E0A1
:100AE000F0E009951092AD0234C084E08093AF022B
:100AF00010928C0210928B02E0E0F0E00995809158
:100B00008B02811105C081E080938B0210926B02F1
:100B1000E0918C0281E08E0F80938C02F0E0E55929
:100B2000FD4F80818093BB0090918C0280918B025D
:100B3000981708F47DCF85E88093BC000AC085EC47
:100B40008093BC001092AF0204C01092AE020E94CB
:100B50009301FF91EF91BF91AF919F918F917F9101
:100B60006F915F914F913F912F910F900FBE0F901A
:100B70001F9018951F920F920FB60F9211242F936A
:100B80003F938F939F93EF93FF938091690287FF29
:100B900005C0109285001092840005C08091690202
:100BA00087FD80916902809169028F5F809369025D
:100BB0008091690287FF20C0809169028C30E4F443
:100BC000209184003091850080916902082E000CEC
:100BD000990BFC01EE0FFF1F8E0F9F1FFC01EB5BBB
:100BE000FD4F81819281820F931F909389008093A2
:100BF00088008091690217C08091840090918500DF
:100C0000049680349C4918F480E49CE905C08091E6
:100C100084009091850004969093890080938800C9
:100C20008FEF80936902FF91EF919F918F913F9198
:100C30002F910F900FBE0F901F9018951F93CF9379
:100C4000DF93EC01162F61E089810E94B302612FCE
:100C50008981DF91CF911F910C9484021F920F9292
:100C60000FB60F9211240F931F932F933F934F931F
:100C70005F936F937F938F939F93AF93BF93CF9324
:100C8000EF93FF9382E00E945B02C82F8091DE0108
:100C90009091DF0101969093DF018093DE018091B6
:100CA0004402843618F085E08093D9018091D901FF
:100CB000833079F018F4823039F072C0843011F149
:100CC000853009F44AC06CC0C1116AC01092440258
:100CD00029C0C13009F064C0E091440281E08E0F68
:100CE00080934402F0E08091DE019091DF01E852B0
:100CF000FE4F80871092DF011092DE0184E0809326
:100D0000D9014EC0C11114C0E091440281E08E0FA0
:100D100080934402F0E08091DE019091DF01E8527F
:100D2000FE4F80871092DF011092DE0183E0E7CF53
:100D30008091DE019091DF018536910588F185E093
:100D40008093D9010E94AA036093DA017093DB01BA
:100D50008093DC019093DD0123C00E94AA030091DF
:100D6000DA011091DB012091DC013091DD01DC0121
:100D7000CB01801B910BA20BB30B893C9105A10504
:100D8000B10540F0109244021092DF011092DE0192
:100D900082E0B5CFC11104C01092DF011092DE01D4
:100DA000FF91EF91CF91BF91AF919F918F917F91E3
:100DB0006F915F914F913F912F911F910F910F90E4
:100DC0000FBE0F901F9018950F931F93CF93DF9333
:100DD0008C016F3F710519F014F06FEF70E0EB01BB
:100DE00061307F4F14F4C1E0DFEFF8018681978115
:100DF000C817D90711F1D783C683D7FD0AC061E0B0
:100E0000C8010E941E068FE090E00197F1F7BE0135
:100E10000CC060E0C8010E941E068FE090E00197C0
:100E2000F1F7662777276C1B7D0BF8018081DF9136
:100E3000CF911F910F910C94EF02DF91CF911F91F1
:100E40000F91089560E070E08CE794E00E94E40662
:100E500060E070E084E794E00C94E406CF93DF93C5
:100E6000EC0166277727681B790B8CE794E00E94DA
:100E7000E406BE0184E794E0DF91CF910C94E40690
:100E80004091010150910201E8E8F4E080E090E037
:100E900048175907A4F0A8E8B4E021E030E0421771
:100EA000530754F01796768116966C911697761321
:100EB00008C02F5F3F4FF3CF01963796E9CF81E00F
:100EC000089580E00895DF92EF92FF920F931F93B1
:100ED000CF93DF93CDB7DEB727970FB6F894DEBF79
:100EE0000FBECDBF08E814E087E0D82ECE010196F2
:100EF0007C01F7018D2D11928A95E9F76FE571E07C
:100F0000C7010E94450DF80180819181009771F021
:100F100069817A816115710539F0428153812D8192
:100F20003E8142175307A8F50E94FC1589819A81DA
:100F3000F801918380838B819C81938382838D814F
:100F40009E81958384831A8219821C821B821E8251
:100F50001D828F81F8018683C7010E940E0C095FF4
:100F60001F4FF4E00E3C1F0721F68FEF9FEF909389
:100F700002018093010127960FB6F894DEBF0FBEE1
:100F8000CDBFDF91CF911F910F91FF90EF90DF9038
:100F900008950E946D178D819E81F8019583848349
:100FA000D6CFEF92FF920F931F93CF93DF93CDB7DE
:100FB000DEB7A4970FB6F894DEBF0FBECDBF8C018D
:100FC0006FE571E0CE014F960E94450D0E94970A91
:100FD00097FD1CC089831A82EBA0FCA08FEFE81A52
:100FE000F80AB701CE014F960E94AF0B882371F328
:100FF0002F8D38A18BA19CA1BE016F5F7F4F820F07
:10100000931F0E946D17FCA2EBA2E0CF6CE571E08C
:10101000CE0101960E94450D4D815E818BA19CA160
:101020008417950778F08F8D98A1009759F0698102
:101030007A816115710531F00E947417FF24F394D1
:10104000892B09F0F12CCE0101960E940E0CFF2095
:1010500009F4F2C0809101019091020101969093F0
:101060000201809301016AE3CE014F960E945E0B5C
:101070002BA13CA1AC014F5F5F4FBE01615E7F4F72
:10108000CE0143960E94130CBE016D5E7F4FCE01D0
:101090000D960E943C0DBE01635F7F4FCE01079607
:1010A0000E943C0D63E2CE0107960E945E0B2B85E9
:1010B0003C85AC014F5F5F4FBE01695F7F4FCE0142
:1010C00001960E94130C89819A81009721F00E9459
:1010D000B612E62E01C0E12CCE0101960E940E0C44
:1010E000CE0107960E940E0CBE01635F7F4FCE01BA
:1010F00001960E943C0D6BE3CE0101960E945E0BAF
:101100009C0140E050E0BE016F5F7F4FCE0107962B
:101110000E94130CCE0101960E940E0C2091010139
:101120003091020187E0F82EF29EC001F39E900DEF
:101130001124BE01695F7F4F88579B4F0E94F70BB8
:101140008091010190910201F89EF001F99EF00D4D
:101150001124E857FB4FE682CE0107960E940E0C41
:10116000CE010D960E940E0C80910101909102011A
:10117000F89EB001F99E700D112468577B4FCE0187
:1011800049960E943C0DBE01675E7F4FCE010196DD
:101190000E943C0DCE0101960E940E0CBE01675EBE
:1011A0007F4FCE010D960E943C0D89899A89892B2B
:1011B00069F0ED84FE8463E270E0C7010E94591774
:1011C000009721F09C012E193F0902C02FEF3FEF3D
:1011D00040E050E0BE01635F7F4FCE0107960E9462
:1011E000130C6BE3CE0107960E945E0B2B853C85AA
:1011F000AC014F5F5F4FBE01695F7F4FCE0101962B
:101200000E94130CCE0101960E940E0CCE0107968F
:101210000E940E0CCE010D960E940E0CCE01499636
:101220000E940E0C60E671E0C8010E94450DCE01DF
:1012300043960E940E0C13C08F8D98A1F8019183E4
:10124000808389A19AA1938382838BA19CA195839A
:10125000848318A21F8E1AA219A21CA21BA2CE015F
:101260004F960E940E0CC801A4960FB6F894DEBFEC
:101270000FBECDBFDF91CF911F910F91FF90EF90E7
:101280000895CF93DF93EC0188819981009711F045
:101290000E94FC15198218821D821C821B821A82F0
:1012A000DF91CF910895CF92DF92EF92FF920F934B
:1012B0001F930E94AA0360936C0470936D04809343
:1012C0006E0490936F0410926B0460E086E694E0E5
:1012D0000E941E0683E090E00197F1F761E086E648
:1012E00094E00E941E0683E290E00197F1F760E02F
:1012F00086E694E00E941E0660E0809167040E94EA
:10130000B3028091670490E0FC01E255FF4F6491C5
:10131000FC01E656FF4FE491F0E0EE0FFF1FEA57A5
:10132000FF4F8591949100E315E720E030E0462FD0
:101330000E94B20D611571058105910551F0DC0126
:10134000CB010196A11DB11D6C017D012FE0F222A0
:1013500003C0C12CD12C7601C701B6010E94F9123D
:10136000609370047093710480937204909373047B
:10137000C701B6011F910F91FF90EF90DF90CF90C2
:101380000895CF92DF92EF92FF920F931F93CF9326
:10139000DF93C0914704D09148040E94AA030091B2
:1013A0003704109138042091390430913A046B01CC
:1013B0007C01C01AD10AE20AF30A970186010930BA
:1013C00011052105310508F461C06093370470935D
:1013D00038048093390490933A0460E08091340497
:1013E0000E94B302809134040E944E0340913B045A
:1013F00050913C0460913D0470913E04452B462B76
:10140000472B69F4AC01092E000C660B770B409357
:101410004304509344046093450470934604409100
:101420004304509144046091450470914604841B28
:10143000950B97FF03C091958195910944979CF472
:1014400080913F0490914004A0914104B0914204E6
:101450000196A11DB11D80933F0490934004A09379
:101460004104B093420480913B0490913C04A091CC
:101470003D04B0913E040196A11DB11D80933B0433
:1014800090933C04A0933D04B0933E0480913B04B0
:1014900090913C04A0913D04B0913E040597A105B4
:1014A000B10571F510923B0410923C0410923D047A
:1014B00010923E0480913F0490914004A091410419
:1014C000B09142040397A105B10570F080914304E7
:1014D00090914404A0914504B0914604EC0190938E
:1014E00048048093470404C0C0914704D091480445
:1014F00010923F0410924004109241041092420452
:10150000CE0164E670E00E944A156830710528F447
:10151000FB01E45FFE4F808101C080E0DF91CF914D
:101520001F910F91FF90EF90DF90CF9008950F9350
:101530001F930E94AA036093C3037093C403809314
:10154000C5039093C6038BEB93E00E94150297FFAF
:101550001FC00E94AA030091C3031091C4032091ED
:10156000C5033091C603DC01CB01801B910BA20B9C
:10157000B30B0091BF031091C0032091C1033091C0
:10158000C20380179107A207B307E8F28FEF9FEF1E
:101590001F910F9108950F931F93CF93DF93EB014A
:1015A0008C3631F48CE794E00E94E406BE010AC058
:1015B00000271127061B170BB8018CE794E00E9447
:1015C000E406B80184E794E00E94E4068EE39FED10
:1015D000BE010E943615072E000C880B990B0E9445
:1015E0007003DF91CF911F910F910C9422071F93ED
:1015F000CF93DF931091DA0461E0812F0E94B30250
:10160000C0E0D0E061E0812F0E9484028AEC92E089
:101610000E94650360E0812F0E9484028AEC92E0C0
:101620000E946503A8952196CF3581E0D80751F730
:10163000DF91CF911F910895CF92DF92EF92FF92A9
:101640000F931F93CF93DF93FC01C6A0D7A0F3E0C5
:10165000CF1AD1088C010A581F4FF80180810E94CF
:101660005B02892B01F5C0E0D0E0E12CF12CC60132
:101670000E946503F80180810E945B020E2C02C06B
:10168000880F991F0A94E2F7C82BD92BFFEFEF1AA6
:10169000FF0A28E0E216F10451F7C6010E94650333
:1016A000CE01992702C08FEF9FEFDF91CF911F915D
:1016B0000F91FF90EF90DF90CF900895DF92EF921F
:1016C000FF920F931F93CF93DF93FC010481158149
:1016D0000115110519F48FEF9FEF1AC0EC0101906D
:1016E000F081E02DE00FF11FD0801082E880F980BA
:1016F000062E000C770BC7010E948217F701E00F3E
:10170000F11FD082009739F328813981821B930B16
:10171000DF91CF911F910F91FF90EF90DF9008958F
:10172000FC0124813581232B31F421E06115710501
:10173000A1F0FB0108C0FC01808191816115710558
:1017400031F421E0FC018081882339F005C00E943A
:10175000641721E0892B09F020E0822F08950F9370
:101760001F93CF93DF93EC0188819981009729F033
:101770002A813B812617370788F48B016F5F7F4FE3
:101780000E948516009761F0998388831B830A83E2
:101790002C813D81232B11F4FC01108281E001C0DA
:1017A00080E0DF91CF911F910F910895EF92FF920A
:1017B0000F931F93CF93DF93EC017B018A01BA0152
:1017C0000E94AF0B811104C0CE010E94410907C0E5
:1017D0001D830C83B701888199810E946D17CE010A
:1017E000DF91CF911F910F91FF90EF900895CF93CC
:1017F000DF93EC01FB018617970761F0608171812F
:101800006115710529F0448155810E94D60B02C0F3
:101810000E944109CE01DF91CF910895FC018081A2
:1018200091810C94FC15BF92CF92DF92EF92FF92C0
:101830000F931F93CF93DF937C016B01EA01890122
:101840002417350720F48D2FE901042F182F6FE599
:1018500071E0C7010E94450DD60114968D919C91AF
:101860001597C817D90740F58017910708F48C0120
:10187000D601ED91FC911197E00FF11FB08010821D
:101880006D917C916C0F7D1F6115710561F0FB01FD
:1018900001900020E9F73197AF01461B570BC701B4
:1018A0000E94D60B03C0C7010E944109D601ED91E9
:1018B000FC91E00FF11FB082C701DF91CF911F9122
:1018C0000F91FF90EF90DF90CF90BF900895089513
:1018D000CF92DF92EF92FF920F931F93CF93DF93FC
:1018E0006C017A018B01C0E0D0E0CE15DF0581F0FC
:1018F000D8016D918D01D601ED91FC910190F0819F
:10190000E02DC6010995892B11F02196EECF7E01BD
:10191000C701DF91CF911F910F91FF90EF90DF9062
:10192000CF900895FC01538D448D252F30E0842FF6
:1019300090E0821B930B541710F0CF9608950197F7
:101940000895FC01918D828D981761F0828DDF01E1
:10195000A80FB11D5D968C91928D9F5F9F73928FA2
:1019600090E008958FEF9FEF0895FC01918D828D97
:10197000981731F0828DE80FF11D858D90E0089564
:101980008FEF9FEF08958EE193E00E948D0021E09C
:10199000892B09F420E0822F0895EF92FF920F9394
:1019A0001F93CF93DF93EC0181E0888F9B8D8C8D0B
:1019B000981305C0E889F989808185FD26C0F62E37
:1019C0000B8D10E00F5F1F4F0F731127E02E8C8DD2
:1019D000E8120CC00FB607FCFACFE889F9898081BC
:1019E00085FFF5CFCE010E943902F1CF8B8DFE012C
:1019F000E80FF11DE35AFF4FF0829FB7F8940B8F69
:101A0000EA89FB89808180620AC09FB7F894EE89D9
:101A1000FF896083E889F98980818370806480838D
:101A20009FBF81E090E0DF91CF911F910F91FF90D8
:101A3000EF900895CF93DF93EC01888D8823C9F050
:101A4000EA89FB89808185FD05C0A889B9898C91C7
:101A500086FD0FC00FB607FCF5CF808185FFF2CF62
:101A6000A889B9898C9185FFEDCFCE010E943902FA
:101A7000E7CFDF91CF910895FC011182108213828C
:101A80001282158214820C94F70BFC0111821082D1
:101A900013821282158214826115710551F0FB01C7
:101AA00001900020E9F73197AF01461B570B0C94CA
:101AB000D60B08951F920F920FB60F9211242F93F9
:101AC0003F934F935F936F937F938F939F93AF93C6
:101AD000BF93EF93FF938EE193E00E943902FF9151
:101AE000EF91BF91AF919F918F917F916F915F9196
:101AF0004F913F912F910F900FBE0F901F9018950F
:101B00001F920F920FB60F9211242F938F939F93D2
:101B1000EF93FF93E0912E03F0912F038081E091EA
:101B20003403F091350382FD12C090818091370318
:101B30008F5F8F7320913803821751F0E091370344
:101B4000F0E0E25EFC4F958F8093370301C0808107
:101B5000FF91EF919F918F912F910F900FBE0F905A
:101B60001F901895CF92DF92EF92FF920F931F93E1
:101B7000E82FF92F05C0015011092109310961F140
:101B8000908196239417B9F305C0015011092109DA
:101B9000310911F1908196239413F7CFC12CD12CE8
:101BA000E12CF12C0AC08FEFC81AD80AE80AF80A0B
:101BB0000C151D052E053F0579F0808186238417BD
:101BC00091F36C2D7D2D8E2D9F2D1F910F91FF90E8
:101BD000EF90DF90CF90089560E070E080E090E0BB
:101BE0001F910F91FF90EF90DF90CF900895CF93CA
:101BF000DF938EE491E09093BC038093BB0389E272
:101C000094E00E940E0C8CE391E09093BC038093CF
:101C1000BB038BEB93E00E947A0481EE94E00E9478
:101C20000E0CCEECD4E02797CE010E940E0C84E07F
:101C3000C838D807C1F7DF91CF9108950F931F934C
:101C4000CF93DF93109221031092200388EE93E04C
:101C5000A0E0B0E08093220390932303A093240399
:101C6000B093250328E131E030931F0320931E0336
:101C700025EC30E030932B0320932A0324EC30E052
:101C800030932D0320932C0320EC30E030932F036E
:101C900020932E0321EC30E0309331032093300366
:101CA00022EC30E0309333032093320326EC30E013
:101CB0003093350320933403109237031092380386
:101CC0001092390310923A031092D1041092D0046A
:101CD0008093D2049093D304A093D404B093D504FA
:101CE0008AE291E09093CF048093CE0481E090E06B
:101CF0009093E8048093E7041092E9051092EA05B6
:101D00001092EB051092EC051092ED051092EE0585
:101D10001092EF051092F0051092F1051092F20565
:101D20001092F3051092F4051092F5051092F60545
:101D30001092F8051092F7051092F9051092FA0525
:101D40001092FB051092FC051092FD051092FE0505
:101D50001092FF051092000610920106C8E8D4E028
:101D60006FE571E0CE010E94450D279684E0CE3CE0
:101D7000D807B1F71092840410928504109286045B
:101D800088E08093DA046FE571E081EE94E00E94D0
:101D9000450D86E080937C0487E080937D0499E084
:101DA00090937E0485E08093740424E0209375046E
:101DB0008AE0809376043BE0309366043CE0309305
:101DC000670461E0609368043EE0309358043FE0AC
:101DD0003093590420935A0420E120934A0421E1CE
:101DE00020934B0423E020934C049093DB048093D6
:101DF000DC0482E08093DD041092330410923404FA
:101E0000109235041092DA031092DB031092DC0377
:101E10001092BE031092BD0388EE93E0A0E0B0E004
:101E20008093BF039093C003A093C103B093C203F8
:101E30008CE391E09093BC038093BB031092D20398
:101E40001092D1031092D4031092D3031092D603B0
:101E50001092D5031092D8031092D7038091D90322
:101E60008E7F8D7F8093D90386958170682780E06F
:101E70000E94840261E080E00E94B3020EEA10E05A
:101E8000F80184918093CB03CAE9D0E0FE018491EC
:101E9000E82FF0E0EE0FFF1FE057FF4F8591949180
:101EA0009093CD038093CC0360E080E00E94B30266
:101EB0008091D90381FD04C061E080E00E9484022A
:101EC0001092C703F80104910093C803FE01C49166
:101ED000EC2FF0E0EE0FFF1FEA57FF4F8591949132
:101EE0009093CA038093C9038EE491E09093BC035E
:101EF0008093BB036FE571E089E294E00E94450D99
:101F00001092E0031092DF038091DB038093310491
:101F10008091DA038093320481E09091DC03953064
:101F200009F080E08093DE038EE491E09093BC039F
:101F30008093BB03DF91CF911F910F910895CF93B1
:101F4000DF9300D000D000D0CDB7DEB7789484B551
:101F5000826084BD84B5816084BD85B5826085BDA5
:101F600085B5816085BD80916E00816080936E0033
:101F70001092810080918100826080938100809125
:101F800081008160809381008091800081608093D6
:101F900080008091B10084608093B1008091B00096
:101FA00081608093B00080917A00846080937A0091
:101FB00080917A00826080937A0080917A008160BB
:101FC00080937A0080917A00806880937A001092E2
:101FD000C10085E1809349048093340486EB93E04B
:101FE000909348048093470488E090E09093E20344
:101FF0008093E1038091DE038823A9F1E0912E0311
:10200000F0912F0382E08083E0912A03F0912B036B
:102010001082E0912C03F0912D0380E180831092D7
:102020003603E0913203F091330386E08083E09140
:102030003003F0913103808180618083E09130032F
:10204000F0913103808188608083E0913003F091CA
:102050003103808180688083E0913003F091310307
:1020600080818F7D98C01092D6031092D503109274
:10207000D4031092D3031092D2031092D1038FE1B4
:1020800090E09093D8038093D7039091C703963143
:1020900008F058C021E030E03093D2032093D10300
:1020A0002DE130E03093D4032093D3032DE030E0D2
:1020B0003093D6032093D50340916800983058F0B0
:1020C00031E09E3008F430E021E0822F01C0880F1B
:1020D0003A95EAF701C084E0842B80936800983039
:1020E00038F09E3040F0963148F020E030E008C0F3
:1020F0002DE630E005C02BE630E002C02CE630E0F3
:102100003093CF032093CE03983030F481E001C0A8
:10211000880F9A95EAF70EC0292F30E09E3018F408
:102120002850310902C02E50310981E001C0880FCA
:102130002A95EAF78093D0038091D7039091D80332
:102140000197F1F78091D5039091D603892B21F166
:10215000809104069091050623E08B3B9207E1F005
:10216000009711F00E947A048091D9038E7F8093AA
:10217000D90310920306109202068BEB93E0909322
:10218000050680930406E091CE03F091CF03908181
:102190008091D003892B808382E090E0A0E0B0E0C2
:1021A0008093BF039093C003A093C103B093C20375
:1021B00011E092E0492E512C612C712C0E94C10932
:1021C000882371F080910001882351F01092000162
:1021D000809105018F5F823008F4C2C11092050121
:1021E0000E94C109811105C080910001882309F472
:1021F000BAC180910501882321F0813009F4BCC067
:10220000AAC180910401882321F00E94F70A10924C
:102210000401CE0101960E94D10761E771E0CE0171
:1022200001960E94900B882321F00E944007082FFE
:1022300001C000E0CE0101960E940E0C002309F4BB
:102240007DC0A0900101B090020188E8E82E84E0F2
:10225000F82EC12CD12CCA14DB040CF085C0B701B8
:10226000CE0101960E943C0D66E771E0CE01019619
:102270000E94900B882321F06FE770E08CE60BC082
:1022800061E871E0CE0101960E94900B882331F045
:102290006FE770E084E60E94CB0A3FC06DE871E012
:1022A000CE0101960E94900B882329F08FE790E0E1
:1022B0000E942E0732C067E971E0CE0101960E94AC
:1022C000900B882319F00E94220727C062EA71E070
:1022D000CE0101960E94900B882359F067E77FEFAB
:1022E0008CE794E00E94E4066FE770E084E794E0F6
:1022F00012C06EEA71E0CE0101960E94900B882315
:1023000061F069E870E084E794E00E94E40661E827
:102310007FEF8CE794E00E94E40665E070E080E0E7
:1023200090E00E947003CE0101960E940E0C8FEF88
:10233000C81AD80A27E0E20EF11C8DCFCE01019613
:102340000E94D10760E671E0CE0101960E94900BD9
:1023500081110DC00E944007082F0127CE01019670
:102360000E940E0C002329F00E94630702C001E0C6
:10237000F5CF10930301F1C080910301882361F030
:102380000E94F70A4BE050E06BEB71E08EE193E0C6
:102390000E94680C109203018FE790E00E942E07C4
:1023A0000E94AA03C0906C04D0906D04E0906E046B
:1023B000F0906F04DC01CB018C199D09AE09BF09B7
:1023C0004897A105B10510F010936B0480916B0440
:1023D000882319F00E9453090AC06091700470911B
:1023E000710480917204909173040E940015A301FE
:1023F00092010E941614CA01B9010E94F9122DEC33
:102400003CEC48EE51E40E948E1420E030E0A9013B
:102410000E94F212882309F495C00E94AA03C0907A
:102420006C04D0906D04E0906E04F0906F04DC01B9
:10243000CB018C199D09AE09BF094897A105B105CB
:1024400010F010936B0480916B04882319F00E94A4
:1024500053090AC0609170047091710480917204F4
:10246000909173040E940015A30192010E9416141A
:10247000CA01B9010E94F9122DEC3CEC48EE51E47E
:102480000E948E1420E030E040E251E40E94F212FB
:1024900087FF0BC081E89FEF0E942E0768EE73E074
:1024A00080E090E00E94700348C060E08091580492
:1024B0000E94B302809158040E944E03BC0180E048
:1024C00090E00E94F71220E030E040EE5FE30E94CF
:1024D0008E142CE53FE842E250E40E94581320E0BD
:1024E00030E040EA51E40E94F21287FF04C06FE737
:1024F00070E08CE625C060E080914A040E94B3023F
:1025000080914A040E944E03BC0180E090E00E944A
:10251000F71220E030E040EE5FE30E948E142CE5DD
:102520003FE842E250E40E94581320E030E040EAE5
:1025300051E40E94F21287FF05C06FE770E084E665
:102540000E94CB0A62E070E080E090E00E9470039D
:102550001093040102C00E9422070E9499002ECE0F
:10256000809305013DCE1093000143CE1F93FC01E3
:1025700099278827BC01E89411911032E9F31930AA
:1025800010F01E30C8F31B3251F01D3249F468942C
:1025900006C00E94DD12610F711D811D911D1191F8
:1025A00010531A30B0F33EF4909580957095619574
:1025B0007F4F8F4F9F4F1F910895592F482F372FCF
:1025C000262F660F771F881F991F660F771F881F9A
:1025D000991F620F731F841F951F660F771F881F37
:1025E000991F08950E94341308F481E00895E89437
:1025F00009C097FB3EF490958095709561957F4F4B
:102600008F4F9F4F9923A9F0F92F96E9BB279395F8
:10261000F695879577956795B795F111F8CFFAF408
:10262000BB0F11F460FF1BC06F5F7F4F8F4F9F4F39
:1026300016C0882311F096E911C0772321F09EE897
:10264000872F762F05C0662371F096E8862F70E0FD
:1026500060E02AF09A95660F771F881FDAF7880FD7
:102660009695879597F90895990F0008550FAA0B2D
:10267000E0E8FEEF16161706E807F907C0F0121695
:102680001306E407F50798F0621B730B840B950B98
:1026900039F40A2661F0232B242B252B21F40895ED
:1026A0000A2609F4A140A6958FEF811D811D08958A
:1026B0000E946B130C94DC130E94CE1338F00E941E
:1026C000D51320F0952311F00C94C5130C94CB1363
:1026D00011240C9410140E94ED1370F3959FC1F314
:1026E000950F50E0551F629FF001729FBB27F00DC0
:1026F000B11D639FAA27F00DB11DAA1F649F662715
:10270000B00DA11D661F829F2227B00DA11D621F63
:10271000739FB00DA11D621F839FA00D611D221F1D
:10272000749F3327A00D611D231F849F600D211D01
:10273000822F762F6A2F11249F5750409AF0F1F084
:1027400088234AF0EE0FFF1FBB1F661F771F881FED
:1027500091505040A9F79E3F510580F00C94C5134D
:102760000C9410145F3FE4F3983ED4F3869577956C
:102770006795B795F795E7959F5FC1F7FE2B880F93
:10278000911D9695879597F9089597F99F6780E829
:1027900070E060E008959FEF80EC089500240A94B3
:1027A0001616170618060906089500240A9412162C
:1027B0001306140605060895092E0394000C11F45F
:1027C000882352F0BB0F40F4BF2B11F460FF04C00C
:1027D0006F5F7F4F8F4F9F4F089557FD9058440F65
:1027E000551F59F05F3F71F04795880F97FB991F70
:1027F00061F09F3F79F0879508951216130614062D
:10280000551FF2CF4695F1DF08C0161617061806B9
:10281000991FF1CF86957105610508940895E89494
:10282000BB2766277727CB0197F90895052E97FBDD
:102830001EF400940E942D1457FD07D00E946C14C2
:1028400007FC03D04EF40C942D1450954095309510
:1028500021953F4F4F4F5F4F08959095809570950C
:1028600061957F4F8F4F9F4F08952F923F924F92C8
:102870005F926F927F928F929F92AF92BF92CF9210
:10288000DF92EF92FF920F931F93CF93DF93CDB719
:10289000DEB7CA1BDB0B0FB6F894DEBF0FBECDBF91
:1028A00009942A88398848885F846E847D848C8462
:1028B0009B84AA84B984C884DF80EE80FD800C816B
:1028C0001B81AA81B981CE0FD11D0FB6F894DEBF4E
:1028D0000FBECDBFED010895A1E21A2EAA1BBB1BAE
:1028E000FD010DC0AA1FBB1FEE1FFF1FA217B307DC
:1028F000E407F50720F0A21BB30BE40BF50B661FF2
:10290000771F881F991F1A9469F7609570958095B5
:1029100090959B01AC01BD01CF0108950E94A214C6
:102920000C94DC130E94D51358F00E94CE1340F093
:1029300029F45F3F29F00C94C51351110C94101425
:102940000C94CB130E94ED1368F39923B1F3552334
:1029500091F3951B550BBB27AA27621773078407B2
:1029600038F09F5F5F4F220F331F441FAA1FA9F348
:1029700035D00E2E3AF0E0E832D091505040E69536
:10298000001CCAF72BD0FE2F29D0660F771F881F97
:10299000BB1F261737074807AB07B0E809F0BB0B8A
:1029A000802DBF01FF2793585F4F3AF09E3F51059E
:1029B00078F00C94C5130C9410145F3FE4F3983E28
:1029C000D4F3869577956795B795F7959F5FC9F787
:1029D000880F911D9695879597F90895E1E0660F08
:1029E000771F881FBB1F621773078407BA0720F081
:1029F000621B730B840BBA0BEE1F88F7E0950895EA
:102A00000E9407156894B1110C94101408950E9447
:102A1000F51388F09F5798F0B92F9927B751B0F068
:102A2000E1F0660F771F881F991F1AF0BA95C9F752
:102A300014C0B13091F00E940F14B1E008950C94CD
:102A40000F14672F782F8827B85F39F0B93FCCF380
:102A5000869577956795B395D9F73EF490958095CF
:102A6000709561957F4F8F4F9F4F0895AA1BBB1B99
:102A700051E107C0AA1FBB1FA617B70710F0A61B7E
:102A8000B70B881F991F5A95A9F780959095BC019F
:102A9000CD01089597FB072E16F4009407D077FD1B
:102AA00009D00E94361507FC05D03EF4909581951B
:102AB0009F4F0895709561957F4F0895EE0FFF1F0A
:102AC0000590F491E02D09940F931F93CF93DF931A
:102AD0008230910510F482E090E0E0910806F091D8
:102AE000090620E030E0A0E0B0E0309719F1408125
:102AF00051810281138148175907C8F0841795073F
:102B000069F4109731F012960C93129713961C9358
:102B100027C0009308061093090622C0211531052D
:102B200019F04217530718F49A01BD01EF01DF01B4
:102B3000F801DBCF21153105F9F0281B390B2430C2
:102B4000310580F48A819B816115710521F0FB01BB
:102B50009383828304C09093090680930806FE0144
:102B6000329644C0FE01E20FF31F819391932250ED
:102B70003109398328833AC020910606309107062F
:102B8000232B41F42091080130910901309307066D
:102B90002093060620910601309107012115310589
:102BA00041F42DB73EB740910A0150910B01241B0F
:102BB000350BE0910606F0910706E217F307A0F443
:102BC0002E1B3F0B2817390778F0AC014E5F5F4F83
:102BD0002417350748F04E0F5F1F509307064093A8
:102BE00006068193919302C0E0E0F0E0CF01DF910F
:102BF000CF911F910F910895CF93DF93009709F420
:102C000081C0FC01329713821282A0910806B09114
:102C10000906109781F420813181820F931F209142
:102C20000606309107062817390751F5F093070675
:102C3000E093060667C0ED0120E030E0CE17DF0725
:102C400040F44A815B819E0141155105F1F0EA0192
:102C5000F5CFD383C28340815181840F951FC8175C
:102C6000D90759F488819981840F951F0296918321
:102C700080838A819B81938382832115310529F486
:102C8000F0930906E09308063DC0E901FB83EA835F
:102C900049915991C40FD51FEC17FD0761F480814C
:102CA0009181840F951F0296E9019983888382811F
:102CB00093819B838A83E0E0F0E012968D919C9152
:102CC0001397009719F0FD01DC01F7CF8D919C91CE
:102CD00011979D012E5F3F4F820F931F2091060693
:102CE000309107062817390769F4309729F41092B4
:102CF00009061092080602C013821282B0930706DA
:102D0000A0930606DF91CF910895A0E0B0E0EBE834
:102D1000F6E10C943914EC01009721F4CB010E94E8
:102D20006415B4C0FC01E60FF71F9C012250310965
:102D3000E217F30708F4A8C0D9010D911C9111976F
:102D400006171707B0F00530110508F49BC0C8013D
:102D500004978617970708F495C002501109061BBF
:102D6000170B019311936D937C93CF010E94FC1577
:102D700089C05B01A01AB10A4C01800E911EA0917E
:102D80000806B0910906612C712CE12CF12C1097EA
:102D900009F446C08D919C911197A815B905B1F51C
:102DA0006C0142E0C40ED11CCA14DB0478F14C0162
:102DB0008A189B08640142E0C40ED11C1296BC9094
:102DC00012971396AC91B5E0CB16D10440F0B282C5
:102DD000A38391828082D9016D937C9309C00E5F99
:102DE0001F4F800F911FF90191838083EB2DFA2FE4
:102DF000E114F10431F0D7011396FC93EE9312978E
:102E000041C0F0930906E09308063CC068167906B5
:102E100008F43C017D0112960D90BC91A02DB7CF16
:102E2000809106069091070688169906E1F46616C9
:102E30007706C8F48091060190910701009741F44C
:102E40008DB79EB740910A0150910B01841B950BE1
:102E5000E817F907C8F4F0930706E0930606F901AE
:102E6000718360830FC0CB010E9464157C010097C1
:102E700059F0A801BE010E945017CE010E94FC1516
:102E8000C70104C0CE0102C080E090E0CDB7DEB73C
:102E9000EEE00C94551481E090E0F8940C948D17BA
:102EA000FB01DC0102C001900D9241505040D8F767
:102EB0000895FC018191861721F08823D9F799277D
:102EC00008953197CF010895FB01DC018D910190A8
:102ED00080190110D9F3990B0895FB01DC010190D1
:102EE0000D920020E1F70895FB01DC0141505040B4
:102EF00030F08D910190801919F40020B9F7881BEA
:102F0000990B0895FC0181E090E00190061609F408
:102F1000CF010020D1F70197089510E0C2E6D0E07C
:102F200004C0FE010E945E152196C336D107C9F781
:042F3000F894FFCF43
:102F340001FFFF0101FF00000A06800001000000FC
:102F44000202030400000000CD0C680C920C1A0D60
:102F54008D00A10CB50C00000000DD01D201EE01D2
:102F64000901CB01C801C501000000000A01680C79
:102F7400EE0109015A017201F100000000002F0264
:102F8400680CEE010901F3011502F1004D533A00FA
:102F94004E656973707261766E61506F72756B61A4
:102FA400004F76657200526F746174654C65667487
:102FB40000526F7461746552696768740052756E6B
:102FC4004D6F746F72730053746F704D6F746F72C2
:102FD4007300537065656455704C65667400537076
:102FE40065656455705269676874004B7265636502
:082FF40057726974653B00008F
:107E0000112484B714BE81FFF0D085E080938100F7
:107E100082E08093C00088E18093C10086E0809377
:107E2000C20080E18093C4008EE0C9D0259A86E02C
:107E300020E33CEF91E0309385002093840096BBD3
:107E4000B09BFECF1D9AA8958150A9F7CC24DD24C4
:107E500088248394B5E0AB2EA1E19A2EF3E0BF2EE7
:107E6000A2D0813461F49FD0082FAFD0023811F036
:107E7000013811F484E001C083E08DD089C08234E0
:107E800011F484E103C0853419F485E0A6D080C0E4
:107E9000853579F488D0E82EFF2485D0082F10E0AE
:107EA000102F00270E291F29000F111F8ED06801E7
:107EB0006FC0863521F484E090D080E0DECF843638
:107EC00009F040C070D06FD0082F6DD080E0C81688
:107ED00080E7D80618F4F601B7BEE895C0E0D1E017
:107EE00062D089930C17E1F7F0E0CF16F0E7DF06D8
:107EF00018F0F601B7BEE89568D007B600FCFDCFD4
:107F0000A601A0E0B1E02C9130E011968C91119780
:107F100090E0982F8827822B932B1296FA010C0160
:107F200087BEE89511244E5F5F4FF1E0A038BF0790
:107F300051F7F601A7BEE89507B600FCFDCF97BE46
:107F4000E89526C08437B1F42ED02DD0F82E2BD052
:107F50003CD0F601EF2C8F010F5F1F4F84911BD097
:107F6000EA94F801C1F70894C11CD11CFA94CF0C13
:107F7000D11C0EC0853739F428D08EE10CD085E9AC
:107F80000AD08FE07ACF813511F488E018D01DD067
:107F900080E101D065CF982F8091C00085FFFCCF94
:107FA0009093C60008958091C00087FFFCCF809118
:107FB000C00084FD01C0A8958091C6000895E0E648
:107FC000F0E098E1908380830895EDDF803219F02E
:107FD00088E0F5DFFFCF84E1DECF1F93182FE3DFCA
:107FE0001150E9F7F2DF1F91089580E0E8DFEE27F6
:047FF000FF270994CA
:027FFE00040479
:0400000300007E007B
:00000001FF