:100000000C9463000C948B000C948B000C94B6043D
:100010000C94B6040C94B6040C948B000C94BE069D
:100020000C948B000C948B000C948B000C945A064F
:100030000C948B000C948B000C948B000C948B0014
:100040000C946C040C948B000C9406030C94E0024A
:100050000C948B000C948B000C948B000C948B00F4
:100060000C9430050C948B00000000002400270045
:100070002A0000000008000201000003040700003D
:1000800000000000000000000000230026002900FE
:1000900000000000250028002B00040404040404D0
:1000A0000404020202020202030303030303010227
:1000B00004081020408001020408102001020408F6
:1000C0001020FB0CD90C11241FBECFEFD8E0DEBFEF
:1000D000CDBF11E0A0E0B1E0ECEFF4E202C005908A
:1000E0000D92AA35B107D9F725E0AAE5B1E001C024
:1000F0001D92A932B207E1F710E0C2E6D0E004C0D9
:100100002197FE010E946F10C136D107C9F70E94E6
:100110004E0A0C9471120C940000FC01538D448D16
:10012000252F30E0842F90E0821B930B541710F0A2
:10013000CF96089501970895FC01918D828D9817AF
:1001400061F0828DDF01A80FB11D5D968C91928DBB
:100150009F5F9F73928F90E008958FEF9FEF0895B8
:10016000FC01918D828D981731F0828DE80FF11D81
:10017000858D90E008958FEF9FEF0895FC01918D9C
:10018000228D892F90E0805C9F4F821B91098F7395
:100190009927089582EB92E00E94BE0021E0892B0E
:1001A00009F420E0822F0895FC01848DDF01A80F5F
:1001B000B11DA35ABF4F2C91848D90E001968F738F
:1001C0009927848FA689B7892C93A089B1898C91AE
:1001D000837080648C93938D848D981306C00288FD
:1001E000F389E02D80818F7D80830895EF92FF92C7
:1001F0000F931F93CF93DF93EC0181E0888F9B8D4A
:100200008C8D981305C0E889F989808185FD26C009
:10021000F62E0B8D10E00F5F1F4F0F731127E02E8E
:100220008C8DE8120CC00FB607FCFACFE889F9896B
:10023000808185FFF5CFCE010E94D400F1CF8B8D58
:10024000FE01E80FF11DE35AFF4FF0829FB7F894CB
:100250000B8FEA89FB89808180620AC09FB7F8947E
:10026000EE89FF896083E889F989808183708064E1
:1002700080839FBF81E090E0DF91CF911F910F912C
:10028000FF90EF900895CF93DF93EC01888D882342
:10029000C9F0EA89FB89808185FD05C0A889B989F3
:1002A0008C9186FD0FC00FB607FCF5CF808185FFCE
:1002B000F2CFA889B9898C9185FFEDCFCE010E943C
:1002C000D400E7CFDF91CF91089580E090E0892BB3
:1002D00029F00E94CA0081110C9400000895833017
:1002E00081F028F4813099F08230A1F008958730B0
:1002F000A9F08830B9F08430D1F4809180008F7DEE
:1003000003C0809180008F7780938000089584B52A
:100310008F7702C084B58F7D84BD08958091B00031
:100320008F7703C08091B0008F7D8093B0000895D7
:1003300020918403309185032817390771F4909137
:10034000B0028091B102981741F0E091B002F0E064
:10035000E959FD4F808190E008958FEF9FEF089558
:1003600008951F93CF93DF93DC015C968D919C9150
:100370005D97009739F421E030E013963C932E937B
:1003800012973BC05196ED91FC91529750962C914B
:100390005097322F30951FB75E964C915E97742F11
:1003A000727041FD6095F8944081772311F0422BE3
:1003B00001C043234083EC012197F1F748E05081CD
:1003C00060FF02C0522B01C053235083EC012197E0
:1003D000F1F76695415099F78081772319F08323CF
:1003E000808302C0282B20831FBF5C968D919C9137
:1003F0005D970197F1F781E090E0DF91CF911F9138
:10040000089520918403309185032817390771F4EA
:100410008091B1022091B00290E0805C9F4F821BDE
:10042000910960E470E00E944710089580E090E038
:100430000895209184033091850328173907B9F472
:100440009091B0028091B102981789F0E091B002CA
:10045000F0E0E959FD4F80812091B00230E02F5F3C
:100460003F4F2F7333272093B00290E008958FEF12
:100470009FEF089585ED8093BC008091BC0084FDC2
:10048000FCCF10924102089540911D02262F30E0CA
:10049000240F311D21323105DCF42091410224303A
:1004A000C9F4FC0180E090E0861758F430911D02F9
:1004B0002191DC01A350BE4FA30FB11D2C930196D7
:1004C000F3CF80911D02680F60931D0280E00895B4
:1004D00081E0089582E008958FEF9FEF08958FEFF8
:1004E0009FEF08958091FC0190E09195819591098D
:1004F0000895CF93DF93CB01EA01642F0E94440259
:10050000CE01DF91CF910895CF93DF931F92CDB7A6
:10051000DEB7698361E0CE0101960E94440281E06A
:1005200090E00F90DF91CF910895FC0123A1222349
:1005300021F082EB92E00C94F6000C94B10180E083
:1005400090E008950E945C12CF93DF93FC0124A1F8
:10055000222371F0EC010E94070988A799A79095C2
:10056000991F9927991F892F90E0DF91CF910895C6
:10057000FC0123A1222331F082EB92E0DF91CF91A5
:100580000C94BE00DF91CF910C940102FC0124A1D8
:10059000222351F020A531A54FEF5FEF51A740A7CF
:1005A00037FF0CC00C940709FC0123A1222321F082
:1005B00082EB92E00C949C000C941902C9010895FE
:1005C0001F920F920FB60F9211242F933F934F93C8
:1005D0005F936F937F938F939F93AF93BF93EF93AB
:1005E000FF9382EB92E00E94D400FF91EF91BF91C4
:1005F000AF919F918F917F916F915F914F913F91BB
:100600002F910F900FBE0F901F9018951F920F9271
:100610000FB60F9211242F938F939F93EF93FF9315
:10062000E091C202F091C3028081E091C802F09192
:10063000C90282FD12C090818091CB028F5F8F73BF
:100640002091CC02821751F0E091CB02F0E0EE5401
:10065000FD4F958F8093CB0201C08081FF91EF9178
:100660009F918F912F910F900FBE0F901F90189513
:10067000CF93DF93282F30E0F901EE58FF4F84919C
:10068000F901E255FF4FD491F901E656FF4FC491AD
:10069000CC2391F081110E946F01EC2FF0E0EE0F5E
:1006A000FF1FEA57FF4FA591B491EC91ED2381E034
:1006B00090E021F480E002C080E090E0DF91CF91F3
:1006C00008951F93CF93DF93282F30E0F901EE5860
:1006D000FF4F8491F901E255FF4FD491F901E6569D
:1006E000FF4FC491CC23C1F0162F81110E946F01DE
:1006F000EC2FF0E0EE0FFF1FE057FF4FA591B491F4
:100700009FB7F894111104C08C91D095D82302C0E2
:10071000EC91DE2BDC939FBFDF91CF911F91089569
:10072000CF93DF9390E0FC01E255FF4F2491FC0151
:10073000E656FF4F8491882361F190E0880F991F5E
:10074000FC01E859FF4FC591D491FC01E057FF4FE0
:10075000A591B491611109C09FB7F8948881209543
:1007600082238883EC912E230BC0623061F49FB703
:10077000F8948881322F309583238883EC912E2B37
:100780002C939FBF06C08FB7F894E8812E2B288347
:100790008FBFDF91CF9108951F93CF93DF93182FD1
:1007A000EB0161E00E949003209711F460E004C027
:1007B000CF3FD10539F461E0812FDF91CF911F91B7
:1007C0000C946103E12FF0E0EE58FF4FE491E33029
:1007D000F9F048F4E130B9F0E230A1F584B5806277
:1007E00084BDC8BD34C0E730E9F0E83019F1E43029
:1007F00049F580918000806280938000D0938B00C7
:10080000C0938A0024C084B5806884BDC7BD1FC062
:1008100080918000806880938000D0938900C0938D
:10082000880015C08091B00080688093B000C093AC
:10083000B3000DC08091B00080628093B000C0937F
:10084000B40005C0C038D1050CF0B5CFAFCFDF91F3
:10085000CF911F9108951F93CF93DF93EC01162F33
:1008600061E089810E949003612F8981DF91CF919E
:100870001F910C9461033FB7F8948091AC02909162
:10088000AD02A091AE02B091AF0226B5A89B05C003
:100890002F3F19F00196A11DB11D3FBFBA2FA92FFF
:1008A000982F8827820F911DA11DB11DBC01CD017C
:1008B00042E0660F771F881F991F4A95D1F7089568
:1008C0002FB7F8946091A8027091A9028091AA02B2
:1008D0009091AB022FBF08951F920F920FB60F9207
:1008E00011242F933F938F939F93AF93BF93809146
:1008F000A8029091A902A091AA02B091AB023091F6
:10090000A70223E0230F2D3720F40196A11DB11D6E
:1009100005C026E8230F0296A11DB11D2093A70252
:100920008093A8029093A902A093AA02B093AB026D
:100930008091AC029091AD02A091AE02B091AF0255
:100940000196A11DB11D8093AC029093AD02A093BE
:10095000AE02B093AF02BF91AF919F918F913F9143
:100960002F910F900FBE0F901F9018951F920F920E
:100970000FB60F9211242F933F934F935F936F9372
:100980007F938F939F93AF93BF93EF93FF93E091E8
:100990008403F0918503309709F451C0968DA685A4
:1009A000B785858591FF04C09C91892329F447C0B0
:1009B0009C91892309F043C0A389B4899C918589BE
:1009C000809589238C93868997890197F1F7608DAB
:1009D000718DA685B785558538E020E0CB0101975C
:1009E000F1F7822F90E095958795282F4C9145231C
:1009F00009F02068315091F7868D81FD2095809116
:100A0000B10290E001968F7399273091B0023817A8
:100A100049F0A091B102B0E0A959BD4F2C93809349
:100A2000B10203C0868D8160868F828D938D019780
:100A3000F1F7A389B4899C918589892B8C93FF91C7
:100A4000EF91BF91AF919F918F917F916F915F9146
:100A50004F913F912F910F900FBE0F901F901895BF
:100A60001F920F920FB60F9211242F933F934F9323
:100A70005F936F937F938F939F93AF93BF93EF9306
:100A8000FF938091B900887F803609F49CC068F597
:100A9000883209F45BC090F4803109F454C038F412
:100AA000882309F4F2C0883009F44DC0F2C08831BF
:100AB00009F44CC0803209F45DC0EBC0803409F405
:100AC00068C048F4803309F455C0883309F0E1C0A8
:100AD00080934002D4C0803509F44FC0883509F4B2
:100AE0005DC0883409F0D5C0D2C0883909F4C3C0CC
:100AF000A8F4883709F467C038F4883609F463C06D
:100B0000803709F460C0C5C0883809F4B4C08039A2
:100B100009F45FC0803809F0BCC05BC0803B09F4B9
:100B200084C038F4803A09F466C0883A09F47DC07C
:100B3000B0C0803C09F4A3C0883C09F4A0C0883B45
:100B400009F486C0A6C08091660210C0909165022B
:100B500080916402981770F5E091650281E08E0F34
:100B600080936502F0E0EC5BFD4F80818093BB00D9
:100B700085EC82C0809340028AC0E091650281E0EA
:100B80008E0F809365028091BB00F0E0EC5BFD4F1F
:100B9000808390916502809164026AC0E091650251
:100BA00081E08E0F809365028091BB00F0E0EC5BEA
:100BB000FD4F808380914302811169C081E0809361
:100BC000420284EA5DC083E08093410210923F02BA
:100BD000CFCF80913F02803208F04DC0E0913F02BC
:100BE00081E08E0F80933F028091BB00F0E0E15ED8
:100BF000FD4F8083BDCF85EC8093BC0010924102F5
:100C000080913F02803230F4E0913F02F0E0E15EFB
:100C1000FD4F108260913F0270E08FE192E0E0E0D2
:100C2000F0E0099510923F0234C084E080934102C5
:100C300010921E0210921D02E0E0F0E009958091F2
:100C40001D02811105C081E080931D021092FD01FB
:100C5000E0911E0281E08E0F80931E02F0E0E350CF
:100C6000FE4F80818093BB0090911E0280911D02F7
:100C7000981708F47DCF85E88093BC000AC085EC06
:100C80008093BC001092410204C0109240020E9466
:100C90003A02FF91EF91BF91AF919F918F917F9118
:100CA0006F915F914F913F912F910F900FBE0F90D9
:100CB0001F9018951F920F920FB60F9211242F9329
:100CC0003F938F939F93EF93FF938091FB0187FF57
:100CD00005C0109285001092840005C08091FB0130
:100CE00087FD8091FB018091FB018F5F8093FB0169
:100CF0008091FB0187FF20C08091FB018C30E4F4E0
:100D000020918400309185008091FB01082E000C19
:100D1000990BFC01EE0FFF1F8E0F9F1FFC01E95284
:100D2000FE4F81819281820F931F9093890080935F
:100D300088008091FB0117C080918400909185000C
:100D4000049680349C4918F480E49CE905C08091A5
:100D50008400909185000496909389008093880088
:100D60008FEF8093FB01FF91EF919F918F913F91C6
:100D70002F910F900FBE0F901F9018951F920F92FA
:100D80000FB60F9211240F931F932F933F934F93FE
:100D90005F936F937F938F939F93AF93BF93CF9303
:100DA000EF93FF9382E00E943803C82F8091700177
:100DB00090917101019690937101809370018091DF
:100DC000D601843618F085E080936B0180916B0129
:100DD000833079F018F4823039F072C0843011F128
:100DE000853009F44AC06CC0C1116AC01092D601A6
:100DF00029C0C13009F064C0E091D60181E08E0FB6
:100E00008093D601F0E08091700190917101E659D4
:100E1000FE4F8087109271011092700184E08093E0
:100E20006B014EC0C11114C0E091D60181E08E0F5C
:100E30008093D601F0E08091700190917101E659A4
:100E4000FE4F8087109271011092700183E0E7CF0E
:100E500080917001909171018536910588F185E04E
:100E600080936B010E94600460936C0170936D012C
:100E700080936E0190936F0123C00E9460040091E3
:100E80006C0110916D0120916E0130916F01DC01B8
:100E9000CB01801B910BA20BB30B893C9105A105E3
:100EA000B10540F01092D6011092710110927001BC
:100EB00082E0B5CFC11104C010927101109270018F
:100EC000FF91EF91CF91BF91AF919F918F917F91C2
:100ED0006F915F914F913F912F911F910F910F90C3
:100EE0000FBE0F901F9018950F931F93CF93DF9312
:100EF0008C016F3F710519F014F06FEF70E0EB019A
:100F000061307F4F14F4C1E0DFEFF80186819781F3
:100F1000C817D90711F1D783C683D7FD0AC061E08E
:100F2000C8010E942B048FE090E00197F1F7BE0109
:100F30000CC060E0C8010E942B048FE090E0019794
:100F4000F1F7662777276C1B7D0BF8018081DF9115
:100F5000CF911F910F910C94CC03DF91CF911F91F2
:100F60000F91089560E070E08CE793E00E947407B1
:100F700060E070E084E793E00C9474070895CF92EA
:100F8000DF92EF92FF920F931F93CF93DF936C0149
:100F90007A018B01C0E0D0E0CE15DF0581F0D801E9
:100FA0006D918D01D601ED91FC910190F081E02DC4
:100FB000C6010995892B11F02196EECF7E01C7015C
:100FC000DF91CF911F910F91FF90EF90DF90CF9025
:100FD0000895CF92DF92EF92FF920F931F93CF93DA
:100FE000DF93C0916303D09164030E946004009179
:100FF00053031091540320915503309156036B0114
:101000007C01C01AD10AE20AF30A9701860109306D
:1010100011052105310508F475C0609353037093E1
:101020005403809355039093560360E080915003DE
:101030000E949003809150038E3008F08E5087708C
:10104000806480937C0080917A00806480937A0031
:1010500080917A0086FDFCCF809178002091790004
:1010600090E0922B4091570350915803609159039F
:1010700070915A03452B462B472B69F4AC01092E7E
:10108000000C660B770B40935F03509360036093F3
:1010900061037093620340915F035091600360911C
:1010A000610370916203841B950B97FF03C09195B8
:1010B0008195910944979CF480915B0390915C0326
:1010C000A0915D03B0915E030196A11DB11D8093B7
:1010D0005B0390935C03A0935D03B0935E038091E8
:1010E000570390915803A0915903B0915A03019668
:1010F000A11DB11D8093570390935803A0935903EA
:10110000B0935A038091570390915803A0915903CB
:10111000B0915A030597A105B10571F510925703D7
:10112000109258031092590310925A0380915B0356
:1011300090915C03A0915D03B0915E030397A105BC
:10114000B10570F080915F0390916003A0916103FD
:10115000B0916203EC01909364038093630304C035
:10116000C0916303D091640310925B0310925C03FF
:1011700010925D0310925E03CE0164E670E00E945F
:1011800047106830710528F4FB01E85FFE4F80814D
:1011900001C080E0DF91CF911F910F91FF90EF9000
:1011A000DF90CF9008950F931F930E946004609387
:1011B0008E0370938F03809390039093910386E83E
:1011C00093E00E94C60297FF1FC00E946004009136
:1011D0008E0310918F032091900330919103DC01D5
:1011E000CB01801B910BA20BB30B00918A031091D2
:1011F0008B0320918C0330918D0380179107A207F8
:10120000B307E8F28FEF9FEF1F910F910895AF9210
:10121000BF92CF92DF92EF92FF920F931F93CF93E3
:10122000DF93FC01E6A0F7A0F3E0EF1AF1086C01F0
:1012300026E7C20ED11CF60180810E943803892B5B
:1012400069F5E701CC0FDD1FCC0FDD1F259700E00E
:1012500010E0A12CB12CF2E0EF16F10418F0CE0151
:101260000197F1F7F60180810E9438030A2C02C031
:10127000880F991F0A94E2F7082B192BFFEFAF1A7A
:10128000BF0A28E0A216B10431F782E0E816F104A3
:1012900010F02197F1F7C801992702C08FEF9FEF57
:1012A000DF91CF911F910F91FF90EF90DF90CF9042
:1012B000BF90AF9008958F929F92AF92BF92CF92BE
:1012C000DF92EF92FF92CF93DF93EC01BC018CE7AA
:1012D00093E00E947407BE0184E793E00E947407C4
:1012E000BE0180E090E00E94440E9B01AC0160E0F2
:1012F00078EA8DE697E40E949A0F20E030E040E81B
:1013000050E40E942E0F0E9413106B017C010E947A
:101310003B044B015C01C114D104E104F104F1F080
:101320000E943B04DC01CB0188199909AA09BB0979
:10133000883E9340A105B10570F321E0C21AD1089F
:10134000E108F10888EE880E83E0981EA11CB11C0C
:10135000C114D104E104F10419F7DDCFDF91CF917D
:10136000FF90EF90DF90CF90BF90AF909F908F90C5
:1013700008950F931F93CF93DF93EC018881998198
:10138000009729F02A813B812617370788F48B01C3
:101390006F5F7F4F0E949611009761F09983888359
:1013A0001B830A832C813D81232B11F4FC011082C5
:1013B00081E001C080E0DF91CF911F910F910895EE
:1013C000CF93DF93EC01198218821B821A821D824F
:1013D0001C8260E070E00E94B90928813981811186
:1013E0000FC02115310519F0C9010E940D11198294
:1013F00018821D821C821B821A82DF91CF91089570
:101400001D821C8268E571E0C901DF91CF910C94C7
:101410006A12CF92DF92EF92FF920F931F93E82F01
:10142000F92F05C0015011092109310961F190819D
:1014300096239417B9F305C0015011092109310908
:1014400011F1908196239413F7CFC12CD12CE12C6C
:10145000F12C0AC08FEFC81AD80AE80AF80A0C154E
:101460001D052E053F0579F080818623841791F3B1
:101470006C2D7D2D8E2D9F2D1F910F91FF90EF9044
:10148000DF90CF90089560E070E080E090E01F91E1
:101490000F91FF90EF90DF90CF900895CF93DF935F
:1014A000CDB7DEB72E970FB6F894DEBF0FBECDBF17
:1014B000789484B5826084BD84B5816084BD85B52F
:1014C000826085BD85B5816085BD80916E0081603B
:1014D00080936E00109281008091810082608093E1
:1014E00081008091810081608093810080918000E3
:1014F0008160809380008091B10084608093B1000E
:101500008091B00081608093B00080917A00846007
:1015100080937A0080917A00826080937A00809133
:101520007A00816080937A0080917A00806880934D
:101530007A001092C10085E1809365038093500387
:1015400086EB93E0909364038093630388E690E0D6
:101550009093AD038093AC038091A9038823A9F1F4
:10156000E091C202F091C30282E08083E091BE026A
:10157000F091BF021082E091C002F091C1028FECA5
:1015800080831092CA02E091C602F091C70286E001
:101590008083E091C402F091C502808180618083E4
:1015A000E091C402F091C502808188608083E0915F
:1015B000C402F091C502808180688083E091C402FA
:1015C000F091C50280818F7D9DC01092A103109281
:1015D000A00310929F0310929E0310929D031092FD
:1015E0009C038DE991E09093A3038093A2039091D3
:1015F0009203963108F058C02DEB30E030939D03F4
:1016000020939C032BE931E030939F0320939E03AA
:101610002CE231E03093A1032093A00340916800B5
:10162000983058F031E09E3008F430E021E0822F0D
:1016300001C0880F3A95EAF701C084E0842B8093BB
:101640006800983038F09E3040F0963148F42CE62F
:1016500030E008C02DE630E005C02BE630E002C0E7
:1016600020E030E030939A0320939903983030F4CF
:1016700081E001C0880F9A95EAF70EC0292F30E06B
:101680009E3018F42850310902C02E50310981E0F3
:1016900001C0880F2A95EAF780939B038091A203EB
:1016A0009091A3030197F1F78091A0039091A1037A
:1016B000892B49F1E0918403F091850323E0E6381A
:1016C000F20709F1309739F0A389B4899C91858993
:1016D000809589238C938091A4038E7F8093A403AB
:1016E0001092B1021092B00286E893E090938503C5
:1016F00080938403E0919903F0919A039081809103
:101700009B03892B8083BB24B39423E0E22EF12C2E
:1017100033E2C32ED12C0E94E907882371F0809117
:101720000001882351F010920001809101018F5F28
:10173000833008F431C1109201010E94E907811140
:1017400005C080910001882309F429C1109101018D
:10175000113009F468C030F0123009F018C10E944D
:10176000B20715C1CE0107960E94E00986E893E012
:101770000E94A402892B09F449C0CE0101960E945F
:10178000E0090E94D30897FD1CC08D871E866D80DE
:101790007E808FEF681A780AB301CE0101960E940D
:1017A000B909882371F329813A818D819E81BE0117
:1017B000635F7F4F820F931F0E946A127E826D8249
:1017C000E0CF8F819885009779F069817A816115E2
:1017D000710541F049855A852D813E814217530795
:1017E00008F0E0C00E940D1189819A8198878F834B
:1017F0008B819C819A8789878D819E819C878B872D
:101800001A82198289819A810E940D118B859C858B
:10181000892B21F08FE790E00E945B098F819885EA
:101820000E940D11B4C00E94600440906C0350905F
:101830006D0360906E0370906F03DC01CB0184191F
:101840009509A609B7094897A105B10510F01093AD
:101850006B0380916B03882309F45EC00E946004CF
:1018600060936C0370936D0380936E0390936F038A
:1018700010926B0360E086E693E00E942B04C701A0
:101880000197F1F761E086E693E00E942B04C60120
:101890000197F1F760E086E693E00E942B0460E098
:1018A000809167030E9490038091670390E0FC01A0
:1018B000E255FF4F6491FC01E656FF4FE491F0E0E2
:1018C000EE0FFF1FEA57FF4F8591949108EB16E545
:1018D00020E030E0462F0E94090A6115710581055C
:1018E000910551F02B013C012FEF421A520A620A76
:1018F000720A8FE0782203C0412C512C3201C301BF
:10190000B2010E94460E609370037093710380933E
:101910007203909373030CC0609170037091710314
:1019200080917203909173030E940C102B013C0173
:10193000411451046104710431F480EA482E8AE5AF
:10194000582E612C712CC301B2010E94460E20E07A
:1019500030E048E652E40E949A0F20E030E040EA8E
:1019600051E40E94421018166CF461E87FEF8CE796
:1019700093E00E9474076FE770E084E793E00E94B1
:10198000740707C08FE790E00E945B0902C00E94C5
:10199000B2070E946501BFCE80930101CECEB09206
:1019A0000001D4CE0E946A128D819E819C878B8714
:1019B00029CF8091F4039091F5030E940D1188E3E3
:1019C00091E09093870380938603809184039091A4
:1019D00085038658934071F4E0919903F0919A033E
:1019E000908180919B038095892380831092850349
:1019F0001092840308950F931F93CF93DF93109257
:101A0000B5021092B40288EE93E0A0E0B0E08093BB
:101A1000B6029093B702A093B802B093B90224E142
:101A200031E03093B3022093B20225EC30E03093E2
:101A3000BF022093BE0224EC30E03093C102209319
:101A4000C00220EC30E03093C3022093C20221ECAC
:101A500030E03093C5022093C40222EC30E0309392
:101A6000C7022093C60226EC30E03093C9022093CF
:101A7000C8021092CB021092CC021092CD021092AA
:101A8000CE021092010410920004809302049093FD
:101A90000304A0930404B093050426E231E03093DC
:101AA000FF032093FE0321E030E030930B042093EA
:101AB0000A0410920C0510920D0510920E0510925A
:101AC0000F05109210051092110510921205109238
:101AD0001305109214051092150510921605109218
:101AE0001705109218051092190510921B051092F7
:101AF0001A0510921C0510921D0510921E051092D9
:101B00001F051092200510922105109222051092B7
:101B100023051092240526E020937C0327E02093E0
:101B20007D0329E020937E0325E02093740324E0C5
:101B3000209375032AE02093760320E12093660327
:101B400021E12093670323E02093680310924F0361
:101B500010925003109251031092A5031092A60305
:101B60001092A703109289031092880380938A032E
:101B700090938B03A0938C03B0938D0388E391E043
:101B8000909387038093860310929D0310929C0389
:101B900010929F0310929E031092A1031092A00333
:101BA0001092A3031092A2036091A4036E7F6D7F35
:101BB0006093A4036695617081E0682780E00E94CD
:101BC000610361E080E00E9490030EEA10E0F801FA
:101BD000849180939603CAE9D0E0FE018491E82FB6
:101BE000F0E0EE0FFF1FE057FF4F85919491909327
:101BF00098038093970360E080E00E9490038091B7
:101C0000A40381FD04C061E080E00E9461031092A2
:101C10009203F801049100939303FE01C491EC2F09
:101C2000F0E0EE0FFF1FEA57FF4F859194919093DC
:101C30009503809394038AE491E0909387038093C3
:101C4000860384EF93E00E94E0091092AB031092A8
:101C5000AA038091A6038093FC038091A50380933F
:101C6000FD0381E09091A703953009F080E0809317
:101C7000A9038AE491E09093870380938603DF9120
:101C8000CF911F910F910895E89409C097FB3EF4FE
:101C900090958095709561957F4F8F4F9F4F9923B9
:101CA000A9F0F92F96E9BB279395F6958795779537
:101CB0006795B795F111F8CFFAF4BB0F11F460FFF7
:101CC0001BC06F5F7F4F8F4F9F4F16C0882311F04F
:101CD00096E911C0772321F09EE8872F762F05C063
:101CE000662371F096E8862F70E060E02AF09A95FE
:101CF000660F771F881FDAF7880F9695879597F9F3
:101D00000895990F0008550FAA0BE0E8FEEF16168C
:101D10001706E807F907C0F012161306E407F507DF
:101D200098F0621B730B840B950B39F40A2661F053
:101D3000232B242B252B21F408950A2609F4A140F6
:101D4000A6958FEF811D811D089597F99F6780E803
:101D500070E060E008959FEF80EC089500240A94FD
:101D60001616170618060906089500240A94121676
:101D70001306140605060895092E0394000C11F4A9
:101D8000882352F0BB0F40F4BF2B11F460FF04C056
:101D90006F5F7F4F8F4F9F4F089557FD9058440FAF
:101DA000551F59F05F3F71F04795880F97FB991FBA
:101DB00061F09F3F79F08795089512161306140677
:101DC000551FF2CF4695F1DF08C016161706180604
:101DD000991FF1CF86957105610508940895E894DF
:101DE000BB2766277727CB0197F908952F923F925B
:101DF0004F925F926F927F928F929F92AF92BF921B
:101E0000CF92DF92EF92FF920F931F93CF93DF93C6
:101E1000CDB7DEB7CA1BDB0B0FB6F894DEBF0FBE23
:101E2000CDBF09942A88398848885F846E847D8470
:101E30008C849B84AA84B984C884DF80EE80FD8072
:101E40000C811B81AA81B981CE0FD11D0FB6F894E8
:101E5000DEBF0FBECDBFED0108955058BB27AA27A6
:101E60000E94450F0C94BC0E0E94AE0E38F00E94EA
:101E7000B50E20F039F49F3F19F426F40C94AB0E04
:101E80000EF4E095E7FB0C94A50EE92F0E94CD0E11
:101E900058F3BA17620773078407950720F079F49F
:101EA000A6F50C94EF0E0EF4E0950B2EBA2FA02D94
:101EB0000B01B90190010C01CA01A0011124FF27F7
:101EC000591B99F0593F50F4503E68F11A16F040F2
:101ED000A22F232F342F4427585FF3CF46953795F1
:101EE0002795A795F0405395C9F77EF41F16BA0BB6
:101EF000620B730B840BBAF09150A1F0FF0FBB1F64
:101F0000661F771F881FC2F70EC0BA0F621F731FAC
:101F1000841F48F4879577956795B795F7959E3F09
:101F200008F0B0CF9395880F08F09927EE0F97959A
:101F3000879508950E94AE0F0C94BC0E0E94B50EBA
:101F400058F00E94AE0E40F029F45F3F29F00C9447
:101F5000A50E51110C94F00E0C94AB0E0E94CD0EF8
:101F600068F39923B1F3552391F3951B550BBB27C8
:101F7000AA2762177307840738F09F5F5F4F220F0D
:101F8000331F441FAA1FA9F335D00E2E3AF0E0E804
:101F900032D091505040E695001CCAF72BD0FE2F4E
:101FA00029D0660F771F881FBB1F261737074807E2
:101FB000AB07B0E809F0BB0B802DBF01FF2793589A
:101FC0005F4F3AF09E3F510578F00C94A50E0C94AB
:101FD000F00E5F3FE4F3983ED4F3869577956795CE
:101FE000B795F7959F5FC9F7880F911D96958795CF
:101FF00097F90895E1E0660F771F881FBB1F6217EE
:1020000073078407BA0720F0621B730B840BBA0BAB
:10201000EE1F88F7E09508950E9413106894B1119F
:102020000C94F00E08950E94D50E88F09F5798F0FA
:10203000B92F9927B751B0F0E1F0660F771F881FCD
:10204000991F1AF0BA95C9F714C0B13091F00E94E7
:10205000EF0EB1E008950C94EF0E672F782F8827CC
:10206000B85F39F0B93FCCF3869577956795B3950E
:10207000D9F73EF490958095709561957F4F8F4F7D
:102080009F4F08950E94810E08F48FEF089597FBEB
:10209000072E16F4009407D077FD09D00E945B103C
:1020A00007FC05D03EF4909581959F4F089570955B
:1020B00061957F4F0895AA1BBB1B51E107C0AA1F62
:1020C000BB1FA617B70710F0A61BB70B881F991FD9
:1020D0005A95A9F780959095BC01CD010895EE0F12
:1020E000FF1F0590F491E02D09940F931F93CF9358
:1020F000DF938230910510F482E090E0E0912705B3
:10210000F091280520E030E0A0E0B0E0309719F130
:10211000408151810281138148175907C8F0841703
:10212000950769F4109731F012960C931297139655
:102130001C9327C0009327051093280522C0211562
:10214000310519F04217530718F49A01BD01EF0148
:10215000DF01F801DBCF21153105F9F0281B390B20
:102160002430310580F48A819B816115710521F04D
:10217000FB019383828304C09093280580932705F5
:10218000FE01329644C0FE01E20FF31F819391934A
:1021900022503109398328833AC020912505309196
:1021A0002605232B41F42091040130910501309341
:1021B0002605209325052091020130910301211568
:1021C000310541F42DB73EB740910601509107010A
:1021D000241B350BE0912505F0912605E217F30746
:1021E000A0F42E1B3F0B2817390778F0AC014E5F87
:1021F0005F4F2417350748F04E0F5F1F5093260599
:10220000409325058193919302C0E0E0F0E0CF0177
:10221000DF91CF911F910F910895CF93DF93009796
:1022200009F481C0FC01329713821282A091270524
:10223000B0912805109781F420813181820F931F7E
:1022400020912505309126052817390751F5F0937F
:102250002605E093250567C0ED0120E030E0CE17AC
:10226000DF0740F44A815B819E0141155105F1F081
:10227000EA01F5CFD383C28340815181840F951F3A
:10228000C817D90759F488819981840F951F029640
:10229000918380838A819B81938382832115310579
:1022A00029F4F0932805E09327053DC0E901FB835D
:1022B000EA8349915991C40FD51FEC17FD0761F4CA
:1022C00080819181840F951F0296E901998388830B
:1022D000828193819B838A83E0E0F0E012968D9166
:1022E0009C911397009719F0FD01DC01F7CF8D91B8
:1022F0009C9111979D012E5F3F4F820F931F20915C
:102300002505309126052817390769F4309729F4F7
:10231000109228051092270502C013821282B093F2
:102320002605A0932505DF91CF910895A0E0B0E0A8
:10233000ECE9F1E10C94FA0EEC01009721F4CB01E9
:102340000E947510B4C0FC01E60FF71F9C012250DB
:102350003109E217F30708F4A8C0D9010D911C91C7
:10236000119706171707B0F00530110508F49BC048
:10237000C80104978617970708F495C00250110901
:10238000061B170B019311936D937C93CF010E9451
:102390000D1189C05B01A01AB10A4C01800E911E7B
:1023A000A0912705B0912805612C712CE12CF12C0E
:1023B000109709F446C08D919C911197A815B90505
:1023C000B1F56C0142E0C40ED11CCA14DB0478F1F3
:1023D0004C018A189B08640142E0C40ED11C12967D
:1023E000BC9012971396AC91B5E0CB16D10440F097
:1023F000B282A38391828082D9016D937C9309C0BC
:102400000E5F1F4F800F911FF90191838083EB2D89
:10241000FA2FE114F10431F0D7011396FC93EE93F7
:10242000129741C0F0932805E09327053CC0681639
:10243000790608F43C017D0112960D90BC91A02D07
:10244000B7CF809125059091260588169906E1F46D
:1024500066167706C8F480910201909103010097F7
:1024600041F48DB79EB74091060150910701841B3E
:10247000950BE817F907C8F4F0932605E0932505B6
:10248000F901718360830FC0CB010E9475107C013C
:10249000009759F0A801BE010E946112CE010E946E
:1024A0000D11C70104C0CE0102C080E090E0CDB79D
:1024B000DEB7EEE00C94160F81E090E0F8940C94F7
:1024C0007112FB01DC0102C001900D92415050409D
:1024D000D8F70895FB01DC0101900D920020E1F78F
:1024E000089510E0C2E6D0E004C0FE010E946F1023
:0C24F0002196C336D107C9F7F894FFCF3E
:1024FC0001FF000029058000010000000202030416
:10250C0000000000F600BF078D004301BE009C00D8
:10251C00B00000000000840279029F02B001720238
:10252C006F026C0200000000B101BF079F02B001F6
:10253C00010219029801000000009502BF079F02DA
:0A254C00B001A402C60298010000CD
:107E0000112484B714BE81FFF0D085E080938100F7
:107E100082E08093C00088E18093C10086E0809377
:107E2000C20080E18093C4008EE0C9D0259A86E02C
:107E300020E33CEF91E0309385002093840096BBD3
:107E4000B09BFECF1D9AA8958150A9F7CC24DD24C4
:107E500088248394B5E0AB2EA1E19A2EF3E0BF2EE7
:107E6000A2D0813461F49FD0082FAFD0023811F036
:107E7000013811F484E001C083E08DD089C08234E0
:107E800011F484E103C0853419F485E0A6D080C0E4
:107E9000853579F488D0E82EFF2485D0082F10E0AE
:107EA000102F00270E291F29000F111F8ED06801E7
:107EB0006FC0863521F484E090D080E0DECF843638
:107EC00009F040C070D06FD0082F6DD080E0C81688
:107ED00080E7D80618F4F601B7BEE895C0E0D1E017
:107EE00062D089930C17E1F7F0E0CF16F0E7DF06D8
:107EF00018F0F601B7BEE89568D007B600FCFDCFD4
:107F0000A601A0E0B1E02C9130E011968C91119780
:107F100090E0982F8827822B932B1296FA010C0160
:107F200087BEE89511244E5F5F4FF1E0A038BF0790
:107F300051F7F601A7BEE89507B600FCFDCF97BE46
:107F4000E89526C08437B1F42ED02DD0F82E2BD052
:107F50003CD0F601EF2C8F010F5F1F4F84911BD097
:107F6000EA94F801C1F70894C11CD11CFA94CF0C13
:107F7000D11C0EC0853739F428D08EE10CD085E9AC
:107F80000AD08FE07ACF813511F488E018D01DD067
:107F900080E101D065CF982F8091C00085FFFCCF94
:107FA0009093C60008958091C00087FFFCCF809118
:107FB000C00084FD01C0A8958091C6000895E0E648
:107FC000F0E098E1908380830895EDDF803219F02E
:107FD00088E0F5DFFFCF84E1DECF1F93182FE3DFCA
:107FE0001150E9F7F2DF1F91089580E0E8DFEE27F6
:047FF000FF270994CA
:027FFE00040479
:0400000300007E007B
:00000001FF