:100000000C9463000C948B000C948B000C94D4041F
:100010000C94D4040C94D4040C948B000C94DC0643
:100020000C948B000C948B000C948B000C94780631
:100030000C948B000C948B000C948B000C948B0014
:100040000C948A040C948B000C9406030C94E0022C
:100050000C948B000C948B000C948B000C948B00F4
:100060000C944E050C948B00000000002400270027
:100070002A0000000008000201000003040700003D
:1000800000000000000000000000230026002900FE
:1000900000000000250028002B00040404040404D0
:1000A0000404020202020202030303030303010227
:1000B00004081020408001020408102001020408F6
:1000C0001020290CD20B11241FBECFEFD8E0DEBFC9
:1000D000CDBF11E0A0E0B1E0E2E6F0E202C00590A1
:1000E0000D92A43BB107D9F726E0A4EBB1E001C023
:1000F0001D92AC3EB207E1F710E0C2E6D0E004C0CA
:100100002197FE010E94220EC136D107C9F70E9435
:1001100089090C9424100C940000FC01538D448D2B
:10012000252F30E0842F90E0821B930B541710F0A2
:10013000CF96089501970895FC01918D828D9817AF
:1001400061F0828DDF01A80FB11D5D968C91928DBB
:100150009F5F9F73928F90E008958FEF9FEF0895B8
:10016000FC01918D828D981731F0828DE80FF11D81
:10017000858D90E008958FEF9FEF0895FC01918D9C
:10018000228D892F90E0805C9F4F821B91098F7395
:10019000992708958EE093E00E94BE0021E0892B0C
:1001A00009F420E0822F0895FC01848DDF01A80F5F
:1001B000B11DA35ABF4F2C91848D90E001968F738F
:1001C0009927848FA689B7892C93A089B1898C91AE
:1001D000837080648C93938D848D981306C00288FD
:1001E000F389E02D80818F7D80830895EF92FF92C7
:1001F0000F931F93CF93DF93EC0181E0888F9B8D4A
:100200008C8D981305C0E889F989808185FD26C009
:10021000F62E0B8D10E00F5F1F4F0F731127E02E8E
:100220008C8DE8120CC00FB607FCFACFE889F9896B
:10023000808185FFF5CFCE010E94D400F1CF8B8D58
:10024000FE01E80FF11DE35AFF4FF0829FB7F894CB
:100250000B8FEA89FB89808180620AC09FB7F8947E
:10026000EE89FF896083E889F989808183708064E1
:1002700080839FBF81E090E0DF91CF911F910F912C
:10028000FF90EF900895CF93DF93EC01888D882342
:10029000C9F0EA89FB89808185FD05C0A889B989F3
:1002A0008C9186FD0FC00FB607FCF5CF808185FFCE
:1002B000F2CFA889B9898C9185FFEDCFCE010E943C
:1002C000D400E7CFDF91CF91089580E090E0892BB3
:1002D00029F00E94CA0081110C9400000895833017
:1002E00081F028F4813099F08230A1F008958730B0
:1002F000A9F08830B9F08430D1F4809180008F7DEE
:1003000003C0809180008F7780938000089584B52A
:100310008F7702C084B58F7D84BD08958091B00031
:100320008F7703C08091B0008F7D8093B0000895D7
:100330002091D7033091D8032817390771F4909191
:100340000A0380910B03981741F0E0910A03F0E053
:10035000EF53FD4F808190E008958FEF9FEF089558
:1003600008951F93CF93DF93DC015C968D919C9150
:100370005D97009739F421E030E013963C932E937B
:1003800012973BC05196ED91FC91529750962C914B
:100390005097322F30951FB75E964C915E97742F11
:1003A000727041FD6095F8944081772311F0422BE3
:1003B00001C043234083EC012197F1F748E05081CD
:1003C00060FF02C0522B01C053235083EC012197E0
:1003D000F1F76695415099F78081772319F08323CF
:1003E000808302C0282B20831FBF5C968D919C9137
:1003F0005D970197F1F781E090E0DF91CF911F9138
:1004000008952091D7033091D8032817390771F444
:1004100080910B0320910A0390E0805C9F4F821B28
:10042000910960E470E00E94FA0D089580E090E088
:1004300008952091D7033091D80328173907B9F4CC
:1004400090910A0380910B03981789F0E0910A03B9
:10045000F0E0EF53FD4F808120910A0330E02F5FE1
:100460003F4F2F73332720930A0390E008958FEFB7
:100470009FEF089585ED8093BC008091BC0084FDC2
:10048000FCCF10929B02089540917702262F30E016
:10049000240F311D21323105DCF420919B022430E0
:1004A000C9F4FC0180E090E0861758F4309177029F
:1004B0002191DC01A95ABD4FA30FB11D2C930196C8
:1004C000F3CF80917702680F6093770280E0089500
:1004D00081E0089582E008958FEF9FEF08958FEFF8
:1004E0009FEF08958091560290E091958195910932
:1004F0000895CF93DF93CB01EA01642F0E94440259
:10050000CE01DF91CF910895CF93DF931F92CDB7A6
:10051000DEB7698361E0CE0101960E94440281E06A
:1005200090E00F90DF91CF910895FC0123A1222349
:1005300021F08EE093E00C94F6000C94B10180E081
:1005400090E008950E940F10CF93DF93FC0124A147
:10055000222371F0EC010E94DB0888A799A79095EF
:10056000991F9927991F892F90E0DF91CF910895C6
:10057000FC0123A1222331F08EE093E0DF91CF91A3
:100580000C94BE00DF91CF910C940102FC0124A1D8
:10059000222351F020A531A54FEF5FEF51A740A7CF
:1005A00037FF0CC00C94DB08FC0123A1222321F0AF
:1005B0008EE093E00C949C000C941902C9010895FC
:1005C0001F920F920FB60F9211242F933F934F93C8
:1005D0005F936F937F938F939F93AF93BF93EF93AB
:1005E000FF938EE093E00E94D400FF91EF91BF91C2
:1005F000AF919F918F917F916F915F914F913F91BB
:100600002F910F900FBE0F901F9018951F920F9271
:100610000FB60F9211242F938F939F93EF93FF9315
:10062000E0911E03F0911F038081E0912403F0917B
:10063000250382FD12C09081809127038F5F8F7305
:1006400020912803821751F0E0912703F0E0E25F48
:10065000FC4F958F8093270301C08081FF91EF911C
:100660009F918F912F910F900FBE0F901F90189513
:10067000CF93DF93282F30E0F901EE58FF4F84919C
:10068000F901E255FF4FD491F901E656FF4FC491AD
:10069000CC2391F081110E946F01EC2FF0E0EE0F5E
:1006A000FF1FEA57FF4FA591B491EC91ED2381E034
:1006B00090E021F480E002C080E090E0DF91CF91F3
:1006C00008951F93CF93DF93282F30E0F901EE5860
:1006D000FF4F8491F901E255FF4FD491F901E6569D
:1006E000FF4FC491CC23C1F0162F81110E946F01DE
:1006F000EC2FF0E0EE0FFF1FE057FF4FA591B491F4
:100700009FB7F894111104C08C91D095D82302C0E2
:10071000EC91DE2BDC939FBFDF91CF911F91089569
:10072000CF93DF9390E0FC01E255FF4F2491FC0151
:10073000E656FF4F8491882361F190E0880F991F5E
:10074000FC01E859FF4FC591D491FC01E057FF4FE0
:10075000A591B491611109C09FB7F8948881209543
:1007600082238883EC912E230BC0623061F49FB703
:10077000F8948881322F309583238883EC912E2B37
:100780002C939FBF06C08FB7F894E8812E2B288347
:100790008FBFDF91CF9108951F93CF93DF93182FD1
:1007A000EB0161E00E949003209711F460E004C027
:1007B000CF3FD10539F461E0812FDF91CF911F91B7
:1007C0000C946103E12FF0E0EE58FF4FE491E33029
:1007D000F9F048F4E130B9F0E230A1F584B5806277
:1007E00084BDC8BD34C0E730E9F0E83019F1E43029
:1007F00049F580918000806280938000D0938B00C7
:10080000C0938A0024C084B5806884BDC7BD1FC062
:1008100080918000806880938000D0938900C0938D
:10082000880015C08091B00080688093B000C093AC
:10083000B3000DC08091B00080628093B000C0937F
:10084000B40005C0C038D1050CF0B5CFAFCFDF91F3
:10085000CF911F9108950F931F93CF93DF938C0136
:100860006F3F710519F014F06FEF70E0EB0161302C
:100870007F4F14F4C1E0DFEFF80186819781C8173C
:10088000D90761F1D783C68361E0D7FD0EC08181AE
:100890000E94900361E0F80181810E9461038FE072
:1008A00090E00197F1F7BE0111C0F80181810E942B
:1008B000900360E0F80181810E9461038FE090E085
:1008C0000197F1F7662777276C1B7D0BF801808174
:1008D000DF91CF911F910F910C94CC03DF91CF91B9
:1008E0001F910F9108958230910538F0880F991F5C
:1008F000880F991F05970197F1F708952FB7F8947E
:100900006091060370910703809108039091090399
:100910002FBF08951F920F920FB60F9211242F939D
:100920003F938F939F93AF93BF93809106039091D2
:100930000703A0910803B09109033091050323E058
:10094000230F2D3720F40196A11DB11D05C026E807
:10095000230F0296A11DB11D20930503809306036A
:1009600090930703A0930803B093090380910103B8
:1009700090910203A0910303B09104030196A11D7D
:10098000B11D8093010390930203A0930303B093DE
:100990000403BF91AF919F918F913F912F910F9041
:1009A0000FBE0F901F9018951F920F920FB60F92C7
:1009B00011242F933F934F935F936F937F938F9364
:1009C0009F93AF93BF93EF93FF93E091D703F09181
:1009D000D803309709F451C0968DA685B7858585D3
:1009E00091FF04C09C91892329F447C09C918923DD
:1009F00009F043C0A389B4899C9185898095892396
:100A00008C93868997890197F1F7608D718DA68502
:100A1000B785558538E020E0CB010197F1F7822FAB
:100A200090E095958795282F4C91452309F02068F3
:100A3000315091F7868D81FD209580910B0390E0D8
:100A400001968F73992730910A03381749F0A091C6
:100A50000B03B0E0AF53BD4F2C9380930B0303C047
:100A6000868D8160868F828D938D0197F1F7A389A2
:100A7000B4899C918589892B8C93FF91EF91BF91CB
:100A8000AF919F918F917F916F915F914F913F9126
:100A90002F910F900FBE0F901F9018951F920F92DD
:100AA0000FB60F9211242F933F934F935F936F9341
:100AB0007F938F939F93AF93BF93EF93FF93809117
:100AC000B900887F803609F49CC068F5883209F443
:100AD0005BC090F4803109F454C038F4882309F4E1
:100AE000F2C0883009F44DC0F2C0883109F44CC01E
:100AF000803209F45DC0EBC0803409F468C048F46A
:100B0000803309F455C0883309F0E1C080939A021C
:100B1000D4C0803509F44FC0883509F45DC08834ED
:100B200009F0D5C0D2C0883909F4C3C0A8F4883709
:100B300009F467C038F4883609F463C0803709F4D3
:100B400060C0C5C0883809F4B4C0803909F45FC0FA
:100B5000803809F0BCC05BC0803B09F484C038F425
:100B6000803A09F466C0883A09F47DC0B0C0803C80
:100B700009F4A3C0883C09F4A0C0883B09F486C0EE
:100B8000A6C08091C00210C09091BF028091BE02A9
:100B9000981770F5E091BF0281E08E0F8093BF023D
:100BA000F0E0E256FD4F80818093BB0085EC82C06F
:100BB00080939A028AC0E091BF0281E08E0F8093F9
:100BC000BF028091BB00F0E0E256FD4F8083909120
:100BD000BF028091BE026AC0E091BF0281E08E0F29
:100BE0008093BF028091BB00F0E0E256FD4F80830E
:100BF00080919D02811169C081E080939C0284EA0A
:100C00005DC083E080939B0210929902CFCF8091C8
:100C10009902803208F04DC0E091990281E08E0F78
:100C2000809399028091BB00F0E0E758FD4F8083EC
:100C3000BDCF85EC8093BC0010929B0280919902FD
:100C4000803230F4E0919902F0E0E758FD4F1082D5
:100C50006091990270E089E792E0E0E0F0E00995A8
:100C60001092990234C084E080939B021092780223
:100C700010927702E0E0F0E009958091770281110F
:100C800005C081E08093770210925702E0917802CC
:100C900081E08E0F80937802F0E0E95AFD4F808169
:100CA0008093BB009091780280917702981708F4A6
:100CB0007DCF85E88093BC000AC085EC8093BC00A2
:100CC00010929B0204C010929A020E943A02FF9175
:100CD000EF91BF91AF919F918F917F916F915F91B4
:100CE0004F913F912F910F900FBE0F901F9018952D
:100CF0001F920F920FB60F9211242F933F938F9351
:100D00009F93EF93FF938091550287FF05C0109248
:100D100085001092840005C08091550287FD809166
:100D20005502809155028F5F809355028091550244
:100D300087FF20C0809155028C30E4F4209184001C
:100D40003091850080915502082E000C990BFC0112
:100D5000EE0FFF1F8E0F9F1FFC01EF5CFD4F818187
:100D60009281820F931F90938900809388008091D5
:100D7000550217C0809184009091850004968034BC
:100D80009C4918F480E49CE905C08091840090910E
:100D90008500049690938900809388008FEF80935C
:100DA0005502FF91EF919F918F913F912F910F905D
:100DB0000FBE0F901F9018951F920F920FB60F92B3
:100DC00011240F931F932F933F934F935F936F9330
:100DD0007F938F939F93AF93BF93CF93EF93FF93A3
:100DE00082E00E943803C82F8091CA019091CB0104
:100DF00001969093CB018093CA0180913002843692
:100E000018F085E08093C5018091C501833079F0A9
:100E100018F4823039F072C0843011F1853009F451
:100E20004AC06CC0C1116AC01092300229C0C130E2
:100E300009F064C0E091300281E08E0F80933002AF
:100E4000F0E08091CA019091CB01EC53FE4F808776
:100E50001092CB011092CA0184E08093C5014EC06C
:100E6000C11114C0E091300281E08E0F80933002F6
:100E7000F0E08091CA019091CB01EC53FE4F808746
:100E80001092CB011092CA0183E0E7CF8091CA0192
:100E90009091CB018536910588F185E08093C5015D
:100EA0000E947E046093C6017093C7018093C801BD
:100EB0009093C90123C00E947E040091C601109145
:100EC000C7012091C8013091C901DC01CB01801B11
:100ED000910BA20BB30B893C9105A105B10540F024
:100EE000109230021092CB011092CA0182E0B5CF6D
:100EF000C11104C01092CB011092CA01FF91EF9171
:100F0000CF91BF91AF919F918F917F916F915F91A1
:100F10004F913F912F911F910F910F900FBE0F9006
:100F20001F9018950895CF92DF92EF92FF920F9342
:100F30001F93CF93DF936C017A018B01C0E0D0E067
:100F4000CE15DF0581F0D8016D918D01D601ED91AF
:100F5000FC910190F081E02DC6010995892B11F0DB
:100F60002196EECF7E01C701DF91CF911F910F91A6
:100F7000FF90EF90DF90CF900895CF92DF92EF92A5
:100F8000FF920F931F93CF93DF93C091C003D09133
:100F9000C1030E947E040091B0031091B10320911F
:100FA000B2033091B3036B017C01C01AD10AE20A8B
:100FB000F30A97018601093011052105310508F46E
:100FC00075C06093B0037093B1038093B2039093A4
:100FD000B30360E08091AD030E9490038091AD0364
:100FE0008E3008F08E508770806480937C008091F2
:100FF0007A00806480937A0080917A0086FDFCCF2D
:10100000809178002091790090E0922B4091B40378
:101010005091B5036091B6037091B703452B462BF1
:10102000472B69F4AC01092E000C660B770B40933B
:10103000BC035093BD036093BE037093BF03409104
:10104000BC035091BD036091BE037091BF03841B2C
:10105000950B97FF03C091958195910944979CF456
:101060008091B8039091B903A091BA03B091BB03EA
:101070000196A11DB11D8093B8039093B903A0936D
:10108000BA03B093BB038091B4039091B503A091D0
:10109000B603B091B7030196A11DB11D8093B403AF
:1010A0009093B503A093B603B093B7038091B403B4
:1010B0009091B503A091B603B091B7030597A10530
:1010C000B10571F51092B4031092B5031092B603F6
:1010D0001092B7038091B8039091B903A091BA031D
:1010E000B091BB030397A105B10570F08091BC03DB
:1010F0009091BD03A091BE03B091BF03EC0190930A
:10110000C1038093C00304C0C091C003D091C10348
:101110001092B8031092B9031092BA031092BB0355
:10112000CE0164E670E00E94FA0D6830710528F483
:10113000FB01E75FFE4F808101C080E0DF91CF912E
:101140001F910F91FF90EF90DF90CF9008950F9334
:101150001F930E947E0460930D0570930E0580938B
:101160000F059093100585E095E00E94C60297FF59
:101170001FC00E947E0400910D0510910E05209164
:101180000F0530911005DC01CB01801B910BA20BE8
:10119000B30B0091090510910A0520910B053091C0
:1011A0000C0580179107A207B307E8F28FEF9FEFB6
:1011B0001F910F910895CF92DF92EF92FF920F93BC
:1011C0001F93CF93DF93FC01C6A0D7A0F3E0CF1A03
:1011D000D1088C010A581F4FF80180810E94380302
:1011E000892B01F5C0E0D0E0E12CF12CC6010E9472
:1011F0007304F80180810E9438030E2C02C0880F0E
:10120000991F0A94E2F7C82BD92BFFEFEF1AFF0AB8
:1012100028E0E216F10451F7C6010E947304CE01E2
:10122000992702C08FEF9FEFDF91CF911F910F9110
:10123000FF90EF90DF90CF9008950F931F93CF937F
:10124000DF93EC0188819981009729F02A813B8105
:101250002617370788F48B016F5F7F4F0E94490F75
:10126000009761F0998388831B830A832C813D81D9
:10127000232B11F4FC01108281E001C080E0DF919A
:10128000CF911F910F910895FC01808191810C9461
:10129000C00EEF92FF920F931F93CF93DF93EC0159
:1012A000198218821B821A821D821C8261157105A7
:1012B00049F18B01FB0101900020E9F731977F0193
:1012C000E61AF70AB7010E941D09288139818111A8
:1012D0000DC02115310519F0C9010E94C00E1982F7
:1012E00018821D821C821B821A820CC0FD82EC8235
:1012F000B801C901DF91CF911F910F91FF90EF903D
:101300000C941D10DF91CF911F910F91FF90EF90E2
:101310000895CF93DF93CDB7DEB728970FB6F89433
:10132000DEBF0FBECDBF789484B5826084BD84B526
:10133000816084BD85B5826085BD85B5816085BDD0
:1013400080916E00816080936E0010928100809188
:101350008100826080938100809181008160809310
:101360008100809180008160809380008091B10035
:1013700084608093B1008091B00081608093B00060
:1013800080917A00846080937A0080917A008260F4
:1013900080937A0080917A00816080937A008091B6
:1013A0007A00806880937A001092C10085E1809372
:1013B000C2038093AD0386EB93E09093C1038093C7
:1013C000C00388E090E090932C0580932B058091DA
:1013D00028058823A9F1E0911E03F0911F0382E004
:1013E0008083E0911A03F0911B031082E0911C03AB
:1013F000F0911D0380E1808310922603E091220387
:10140000F091230386E08083E0912003F091210393
:10141000808180618083E0912003F09121038081AD
:1014200088608083E0912003F091210380818068AF
:101430008083E0912003F091210380818F7D9DC006
:101440001092200510921F0510921E0510921D0586
:1014500010921C0510921B058FE190E090932205DD
:101460008093210590911105963108F058C021E034
:1014700030E030931C0520931B052DE130E03093C4
:101480001E0520931D052DE030E0309320052093AC
:101490001F0540916800983058F031E09E3008F404
:1014A00030E021E0822F01C0880F3A95EAF701C0B1
:1014B00084E0842B80936800983038F09E3040F0B0
:1014C000963148F42CE630E008C02DE630E005C047
:1014D0002BE630E002C020E030E030931905209385
:1014E0001805983030F481E001C0880F9A95EAF72A
:1014F0000EC0292F30E09E3018F42850310902C068
:101500002E50310981E001C0880F2A95EAF78093B7
:101510001A0580912105909122050197F1F780919C
:101520001F0590912005892B49F1E091D703F09197
:10153000D80385E0E530F80709F1309739F0A38941
:10154000B4899C918589809589238C93809123050A
:101550008E7F8093230510920B0310920A0385E07F
:1015600095E09093D8038093D703E0911805F0910C
:101570001905908180911A05892B808389E190E07B
:10158000A0E0B0E08093090590930A05A0930B05B5
:10159000B0930C05EE24E39486E0F82E0E94BD077C
:1015A000882371F080910001882351F0109200018E
:1015B000809102018F5F823008F4EEC01092020128
:1015C0000E94BD07811105C080910001882309F4A4
:1015D000E6C010910201112391F0113009F0CDC045
:1015E00060E070E08BEC93E00E942B0460E070E020
:1015F00083EC93E00E942B0410930101BEC0809104
:101600000101882311F161E08091AB030E949003F6
:1016100000E010E061E08091AB030E9461038AEC7E
:1016200092E00E94730460E08091AB030E9461032A
:101630008AEC92E00E947304A8950F5F1F4F0F354C
:10164000E1E01E0739F7109201016FE871E0CE0169
:1016500001960E9449090E94A70897FD1BC08F832D
:1016600018860D811E810F5F1F4FB801CE010196B4
:101670000E941D09882379F329813A818D819E81F9
:10168000BE01695F7F4F820F931F0E941D101E8352
:101690000D83E1CFC0900C03D0900D03FC9C800122
:1016A000FD9C100D112407521C4FF801808191817F
:1016B0000097B1F069817A816115710579F04281F5
:1016C00053812D813E814217530740F00E941D1027
:1016D0008D819E81F8019583848319C00E94C00E7C
:1016E000FC9CF001FD9CF00D1124E752FC4F898118
:1016F0009A81918380838B819C81938382838D8166
:101700009E81958384831A8219821C821B821E8289
:101710001D82CE0101960E94440980910C03909194
:101720000D03F89EF001F99EF00D1124E752FC4FD5
:1017300024813581232B29F0019690930D0380930A
:101740000C0380910C0390910D03181619060CF4EC
:101750000197F89EF001F99EF00D1124E752FC4F1D
:10176000848195810497A8F061E87FEF8BEC93E08A
:101770000E942B046FE770E008C060E070E08BEC23
:1017800093E00E942B0460E070E083EC93E00E9401
:101790002B040E94650102CF8093020111CFE092D9
:1017A000000117CFCF93DF938BE491E09093060570
:1017B0008093050583E795E00E94440989E391E061
:1017C00090930605809305058091D7039091D803E7
:1017D0008550954071F4E0911805F09119059081BC
:1017E00080911A058095892380831092D8031092E6
:1017F000D703C5E0D5E02697CE010E94440983E0D7
:10180000C93DD807C1F787EC95E00E94440981ECF7
:1018100095E00E9444098BEB95E00E94440985EB1A
:1018200095E00E9444098FEA95E00E94440989EA04
:1018300095E00E94440983EA95E00E9444098DE9FD
:1018400095E00E94440987E995E0DF91CF910C94DF
:1018500044090F931F93CF93DF93109211031092BB
:10186000100388EE93E0A0E0B0E080931203909321
:101870001303A0931403B093150325E131E03093D3
:101880000F0320930E0325EC30E030931B032093CD
:101890001A0324EC30E030931D0320931C0320EC4A
:1018A00030E030931F0320931E0321EC30E030938F
:1018B00021032093200322EC30E030932303209374
:1018C000220326EC30E0309325032093240310926A
:1018D0002703109228031092290310922A031092D2
:1018E000800510927F058093810590938205A093D7
:1018F0008305B093840587E291E090937E05809301
:101900007D0581E090E09093CE058093CD05109207
:10191000CF061092D0061092D1061092D2061092E5
:10192000D3061092D4061092D5061092D6061092C5
:10193000D7061092D8061092D9061092DA061092A5
:10194000DB061092DC061092DE061092DD06109285
:10195000DF061092E0061092E1061092E206109265
:10196000E3061092E4061092E5061092E606109245
:10197000E70669E571E087E995E00E94490963E6B9
:1019800071E08DE995E00E9449096EE671E083EA15
:1019900095E00E94490969E771E089EA95E00E94B3
:1019A000490965E871E08FEA95E00E94490960E91C
:1019B00071E085EB95E00E9449096CE971E08BEBE1
:1019C00095E00E94490969EA71E081EC95E00E9486
:1019D00049096EEA71E087EC95E00E944909C9ED7A
:1019E000D3E06FE871E0CE010E944909269685E0B8
:1019F000C530D807B1F71092D3031092D4031092D8
:101A0000D50388E08093AB0386E08093CB0387E027
:101A10008093CC0389E08093CD0385E08093C3035A
:101A200084E08093C4038AE08093C50380E18093BF
:101A3000890581E180938A0583E080938B0510926C
:101A4000AC031092AD031092AE03109224051092D5
:101A5000250510922605109208051092070588EEBC
:101A600093E0A0E0B0E08093090590930A05A0936D
:101A70000B05B0930C0589E391E0909306058093E4
:101A8000050510921C0510921B0510921E05109260
:101A90001D051092200510921F051092220510922C
:101AA0002105609123056E7F6D7F60932305669508
:101AB000617081E0682780E00E94610361E080E05E
:101AC0000E9490030EEA10E0F801849180931505BE
:101AD000CAE9D0E0FE018491E82FF0E0EE0FFF1F8D
:101AE000E057FF4F859194919093170580931605C9
:101AF00060E080E00E9490038091230581FD04C096
:101B000061E080E00E94610310921105F8010491E8
:101B100000931205FE01C491EC2FF0E0EE0FFF1FC1
:101B2000EA57FF4F85919491909314058093130584
:101B30008BE491E090930605809305056FE871E0D2
:101B400083E795E00E94490910922A051092290521
:101B50008091250580937B058091240580937C05E9
:101B600081E090912605953009F080E0809328056A
:101B70008BE491E09093060580930505DF91CF916A
:101B80001F910F9108952F923F924F925F926F9203
:101B90007F928F929F92AF92BF92CF92DF92EF92FD
:101BA000FF920F931F93CF93DF93CDB7DEB7CA1B7E
:101BB000DB0B0FB6F894DEBF0FBECDBF09942A88A9
:101BC000398848885F846E847D848C849B84AA8451
:101BD000B984C884DF80EE80FD800C811B81AA81DE
:101BE000B981CE0FD11D0FB6F894DEBF0FBECDBFA9
:101BF000ED01089597FB072E16F4009407D077FDAA
:101C000009D00E940E0E07FC05D03EF490958195F8
:101C10009F4F0895709561957F4F0895AA1BBB1B38
:101C200051E107C0AA1FBB1FA617B70710F0A61BDC
:101C3000B70B881F991F5A95A9F780959095BC01FD
:101C4000CD010895EE0FFF1F0590F491E02D09944A
:101C50000F931F93CF93DF938230910510F482E0AE
:101C600090E0E091EA06F091EB0620E030E0A0E0A1
:101C7000B0E0309719F140815181028113814817FA
:101C80005907C8F08417950769F4109731F0129638
:101C90000C93129713961C9327C00093EA06109397
:101CA000EB0622C02115310519F04217530718F42D
:101CB0009A01BD01EF01DF01F801DBCF21153105EC
:101CC000F9F0281B390B2430310580F48A819B817F
:101CD0006115710521F0FB019383828304C0909309
:101CE000EB068093EA06FE01329644C0FE01E20F45
:101CF000F31F8193919322503109398328833AC08D
:101D00002091E8063091E906232B41F4209105014A
:101D1000309106013093E9062093E80620910301F3
:101D2000309104012115310541F42DB73EB74091A2
:101D3000070150910801241B350BE091E806F09152
:101D4000E906E217F307A0F42E1B3F0B281739070B
:101D500078F0AC014E5F5F4F2417350748F04E0F07
:101D60005F1F5093E9064093E8068193919302C068
:101D7000E0E0F0E0CF01DF91CF911F910F91089546
:101D8000CF93DF93009709F481C0FC01329713824F
:101D90001282A091EA06B091EB06109781F420819F
:101DA0003181820F931F2091E8063091E9062817B0
:101DB000390751F5F093E906E093E80667C0ED01B5
:101DC00020E030E0CE17DF0740F44A815B819E01BE
:101DD00041155105F1F0EA01F5CFD383C28340816B
:101DE0005181840F951FC817D90759F488819981AB
:101DF000840F951F0296918380838A819B819383B0
:101E000082832115310529F4F093EB06E093EA066D
:101E10003DC0E901FB83EA8349915991C40FD51F65
:101E2000EC17FD0761F480819181840F951F029664
:101E3000E90199838883828193819B838A83E0E08F
:101E4000F0E012968D919C911397009719F0FD0187
:101E5000DC01F7CF8D919C9111979D012E5F3F4F33
:101E6000820F931F2091E8063091E9062817390761
:101E700069F4309729F41092EB061092EA0602C03A
:101E800013821282B093E906A093E806DF91CF9106
:101E90000895A0E0B0E0EFE4FFE00C94C70DEC0182
:101EA000009721F4CB010E94280EB4C0FC01E60F7C
:101EB000F71F9C0122503109E217F30708F4A8C06C
:101EC000D9010D911C91119706171707B0F0053035
:101ED000110508F49BC0C80104978617970708F4FA
:101EE00095C002501109061B170B019311936D93B6
:101EF0007C93CF010E94C00E89C05B01A01AB10A79
:101F00004C01800E911EA091EA06B091EB06612C67
:101F1000712CE12CF12C109709F446C08D919C9105
:101F20001197A815B905B1F56C0142E0C40ED11C9A
:101F3000CA14DB0478F14C018A189B08640142E062
:101F4000C40ED11C1296BC9012971396AC91B5E0BA
:101F5000CB16D10440F0B282A38391828082D90152
:101F60006D937C9309C00E5F1F4F800F911FF90185
:101F700091838083EB2DFA2FE114F10431F0D70126
:101F80001396FC93EE93129741C0F093EB06E09307
:101F9000EA063CC06816790608F43C017D011296F9
:101FA0000D90BC91A02DB7CF8091E8069091E906E5
:101FB00088169906E1F466167706C8F48091030145
:101FC00090910401009741F48DB79EB740910701AD
:101FD00050910801841B950BE817F907C8F4F0939A
:101FE000E906E093E806F901718360830FC0CB0135
:101FF0000E94280E7C01009759F0A801BE010E94A2
:102000001410CE010E94C00EC70104C0CE0102C050
:1020100080E090E0CDB7DEB7EEE00C94E30D81E018
:1020200090E0F8940C942410FB01DC0102C00190B4
:102030000D9241505040D8F70895FB01DC0101900A
:102040000D920020E1F7089510E0C2E6D0E004C050
:10205000FE010E94220E2196C336D107C9F7F894DB
:02206000FFCFB0
:102062000101FF0000EC06800001000000020203F3
:102072000400000000F60093078D004301BE009C9F
:1020820000B00000000000840279029F02B00172D9
:10209200026F026C0200000000B10193079F02B0C0
:1020A2000101021902980100000000950293079FA6
:1020B20002B001A402C602980152756E4D6F746F90
:1020C20072730053746F704D6F746F727300526F3E
:1020D200746174654C65667400526F746174655204
:1020E2006967687400526F7461746546756C6C0040
:1020F200537065656455704C656674005370656510
:102102006455705269676874004F766572004E7547
:042112006C6C0000F1
:107E0000112484B714BE81FFF0D085E080938100F7
:107E100082E08093C00088E18093C10086E0809377
:107E2000C20080E18093C4008EE0C9D0259A86E02C
:107E300020E33CEF91E0309385002093840096BBD3
:107E4000B09BFECF1D9AA8958150A9F7CC24DD24C4
:107E500088248394B5E0AB2EA1E19A2EF3E0BF2EE7
:107E6000A2D0813461F49FD0082FAFD0023811F036
:107E7000013811F484E001C083E08DD089C08234E0
:107E800011F484E103C0853419F485E0A6D080C0E4
:107E9000853579F488D0E82EFF2485D0082F10E0AE
:107EA000102F00270E291F29000F111F8ED06801E7
:107EB0006FC0863521F484E090D080E0DECF843638
:107EC00009F040C070D06FD0082F6DD080E0C81688
:107ED00080E7D80618F4F601B7BEE895C0E0D1E017
:107EE00062D089930C17E1F7F0E0CF16F0E7DF06D8
:107EF00018F0F601B7BEE89568D007B600FCFDCFD4
:107F0000A601A0E0B1E02C9130E011968C91119780
:107F100090E0982F8827822B932B1296FA010C0160
:107F200087BEE89511244E5F5F4FF1E0A038BF0790
:107F300051F7F601A7BEE89507B600FCFDCF97BE46
:107F4000E89526C08437B1F42ED02DD0F82E2BD052
:107F50003CD0F601EF2C8F010F5F1F4F84911BD097
:107F6000EA94F801C1F70894C11CD11CFA94CF0C13
:107F7000D11C0EC0853739F428D08EE10CD085E9AC
:107F80000AD08FE07ACF813511F488E018D01DD067
:107F900080E101D065CF982F8091C00085FFFCCF94
:107FA0009093C60008958091C00087FFFCCF809118
:107FB000C00084FD01C0A8958091C6000895E0E648
:107FC000F0E098E1908380830895EDDF803219F02E
:107FD00088E0F5DFFFCF84E1DECF1F93182FE3DFCA
:107FE0001150E9F7F2DF1F91089580E0E8DFEE27F6
:047FF000FF270994CA
:027FFE00040479
:0400000300007E007B
:00000001FF