:100000000C9462000C948A000C948A000C948A0070
:100010000C948A000C948A000C948A000C94BC0501
:100020000C948A000C948A000C948A000C94480565
:100030000C948A000C948A000C948A000C948A0018
:100040000C94D4030C948A000C9445020C941E0169
:100050000C948A000C948A000C948A000C948A00F8
:100060000C941E040C948A0000000000230026005B
:10007000290004040404040404040202020202022B
:10008000030303030303010204081020408001025C
:1000900004081020010204081020000000002400C1
:1000A00027002A0000000000250028002B00000087
:1000B0000008000201000003040700000000000027
:1000C00000000E0711241FBECFEFD8E0DEBFCDBF6A
:1000D00011E0A0E0B1E0EAE9F9E102C005900D927B
:1000E000AA34B107D9F724E0AAE4B1E001C01D9217
:1000F000A239B207E1F710E0C2E6D0E004C02197D0
:10010000FE010E94C00CC136D107C9F70E94A607A4
:100110000C94CB0C0C940000CF92DF92EF92FF92E4
:100120000F931F93CF93DF936C017A018B01C0E093
:10013000D0E0CE15DF0581F0D8016D918D01D6019B
:10014000ED91FC910190F081E02DC6010995892B7C
:1001500011F02196EECF7E01C701DF91CF911F9163
:100160000F91FF90EF90DF90CF9008958AE491E097
:100170000E94750121E0892B09F420E0822F089567
:100180006115710579F0FB0101900020E9F73197C5
:10019000AF01461B570BDC01ED91FC910280F3810E
:1001A000E02D099480E090E008958F929F92AF92A5
:1001B000BF92EF92FF920F931F93CF93DF93CDB730
:1001C000DEB7A1970FB6F894DEBF0FBECDBF7C019E
:1001D000FA01CB0119A2223008F42AE08E010F5D4A
:1001E0001F4F822E912CA12CB12CBF01A50194018F
:1001F0000E94F10BF901CA01015011096A3014F48F
:10020000605D01C0695CD8016C93232B242B252BE6
:1002100061F7B801C7010E94C000A1960FB6F8941B
:10022000DEBF0FBECDBFDF91CF911F910F91FF9029
:10023000EF90BF90AF909F908F9008951F920F9274
:100240000FB60F9211242F933F934F935F936F93A9
:100250007F938F939F93AF93BF93EF93FF938AE422
:1002600091E00E947702FF91EF91BF91AF919F9132
:100270008F917F916F915F914F913F912F910F904F
:100280000FBE0F901F901895FC01538D448D252FA4
:1002900030E0842F90E0821B930B541710F0CF9620
:1002A000089501970895FC01918D828D981761F052
:1002B000828DDF01A80FB11D5D968C91928D9F5F9D
:1002C0009F73928F90E008958FEF9FEF0895FC0148
:1002D000918D828D981731F0828DE80FF11D858DFB
:1002E00090E008958FEF9FEF0895FC01918D228D8E
:1002F000892F90E0805C9F4F821B91098F73992713
:10030000089580E090E0892B29F00E94B6008111C9
:100310000C9400000895833081F028F4813099F026
:100320008230A1F008958730A9F08830B9F0843088
:10033000D1F4809180008F7D03C0809180008F7701
:1003400080938000089584B58F7702C084B58F7D37
:1003500084BD08958091B0008F7703C08091B00074
:100360008F7D8093B00008951F93CF93DF93282F44
:1003700030E0F901E255FF4F8491F901EA57FF4F50
:10038000D491F901EE58FF4FC491CC23C1F0162F40
:1003900081110E948B01EC2FF0E0EE0FFF1FEC5556
:1003A000FF4FA591B4919FB7F894111104C08C919F
:1003B000D095D82302C0EC91DE2BDC939FBFDF9158
:1003C000CF911F91089585ED8093BC008091BC0072
:1003D00084FDFCCF10926304089540913F04262FC2
:1003E00030E0240F311D21323105DCF4209163040B
:1003F0002430C9F4FC0180E090E0861758F4309175
:100400003F042191DC01A15EBB4FA30FB11D2C93D2
:100410000196F3CF80913F04680F60933F0480E022
:10042000089581E0089582E0089508958FEF9FEF89
:1004300008958FEF9FEF089580911E0490E09195AD
:10044000819591090895CF93DF93CB01EA01642F41
:100450000E94ED01CE01DF91CF910895CF93DF93FC
:100460001F92CDB7DEB7698361E0CE0101960E948D
:10047000ED0181E090E00F90DF91CF910895089514
:1004800080E090E008950E94C60C1F920F920FB674
:100490000F9211242F938F939F93EF93FF93E091EB
:1004A0005A01F0915B018081E0916001F09161015E
:1004B00082FD12C09081809163018F5F8F732091C4
:1004C0006401821751F0E0916301F0E0E65BFE4FBA
:1004D000958F8093630101C08081FF91EF919F917F
:1004E0008F912F910F900FBE0F901F901895FC01C8
:1004F000848DDF01A80FB11DA35ABF4F2C91848DAD
:1005000090E001968F739927848FA689B7892C93E1
:10051000A089B1898C91837080648C93938D848D34
:10052000981306C00288F389E02D80818F7D808337
:100530000895EF92FF920F931F93CF93DF93EC01F7
:1005400081E0888F9B8D8C8D981305C0E889F9898F
:10055000808185FD26C0F62E0B8D10E00F5F1F4FAA
:100560000F731127E02E8C8DE8120CC00FB607FC1C
:10057000FACFE889F989808185FFF5CFCE010E9405
:100580007702F1CF8B8DFE01E80FF11DE35AFF4F8B
:10059000F0829FB7F8940B8FEA89FB898081806293
:1005A0000AC09FB7F894EE89FF896083E889F989CA
:1005B00080818370806480839FBF81E090E0DF91C1
:1005C000CF911F910F91FF90EF900895CF93DF93FC
:1005D000EC01888D8823C9F0EA89FB89808185FD3B
:1005E00005C0A889B9898C9186FD0FC00FB607FC9C
:1005F000F5CF808185FFF2CFA889B9898C9185FFDD
:10060000EDCFCE010E947702E7CFDF91CF91089521
:10061000CF93DF9390E0FC01EA57FF4F2491FC0158
:10062000EE58FF4F8491882361F190E0880F991F65
:10063000FC01E656FF4FC591D491FC01EC55FF4FEC
:10064000A591B491611109C09FB7F8948881209554
:1006500082238883EC912E230BC0623061F49FB714
:10066000F8948881322F309583238883EC912E2B48
:100670002C939FBF06C08FB7F894E8812E2B288358
:100680008FBFDF91CF9108951F93CF93DF93182FE2
:10069000EB0161E00E940803209711F460E004C0C0
:1006A000CF3FD10539F461E0812FDF91CF911F91C8
:1006B0000C94B401E12FF0E0E255FF4FE491E330F8
:1006C000F9F048F4E130B9F0E230A1F584B5806288
:1006D00084BDC8BD34C0E730E9F0E83019F1E4303A
:1006E00049F580918000806280938000D0938B00D8
:1006F000C0938A0024C084B5806884BDC7BD1FC074
:1007000080918000806880938000D0938900C0939E
:10071000880015C08091B00080688093B000C093BD
:10072000B3000DC08091B00080628093B000C09390
:10073000B40005C0C038D1050CF0B5CFAFCFDF9104
:10074000CF911F9108953FB7F89480918E049091B6
:100750008F04A0919004B091910426B5A89B05C088
:100760002F3F19F00196A11DB11D3FBFBA2FA92F30
:10077000982F8827820F911DA11DB11DBC01CD01AD
:1007800042E0660F771F881F991F4A95D1F7089599
:100790002FB7F89460918A0470918B0480918C0437
:1007A00090918D042FBF08951F920F920FB60F9254
:1007B00011242F933F938F939F93AF93BF93809177
:1007C0008A0490918B04A0918C04B0918D04309197
:1007D000890423E0230F2D3720F40196A11DB11DBC
:1007E00005C026E8230F0296A11DB11D20938904A0
:1007F00080938A0490938B04A0938C04B0938D040F
:1008000080918E0490918F04A0919004B0919104F6
:100810000196A11DB11D80938E0490938F04A09327
:100820009004B0939104BF91AF919F918F913F91AC
:100830002F910F900FBE0F901F9018951F920F923F
:100840000FB60F9211242F933F934F935F936F93A3
:100850007F938F939F93AF93BF93EF93FF93809179
:10086000B900887F803609F49CC068F5883209F4A5
:100870005BC090F4803109F454C038F4882309F443
:10088000F2C0883009F44DC0F2C0883109F44CC080
:10089000803209F45DC0EBC0803409F468C048F4CC
:1008A000803309F455C0883309F0E1C080936204B5
:1008B000D4C0803509F44FC0883509F45DC0883450
:1008C00009F0D5C0D2C0883909F4C3C0A8F488376C
:1008D00009F467C038F4883609F463C0803709F436
:1008E00060C0C5C0883809F4B4C0803909F45FC05D
:1008F000803809F0BCC05BC0803B09F484C038F488
:10090000803A09F466C0883A09F47DC0B0C0803CE2
:1009100009F4A3C0883C09F4A0C0883B09F486C050
:10092000A6C08091880410C09091870480918604AD
:10093000981770F5E091870481E08E0F809387040B
:10094000F0E0EA59FB4F80818093BB0085EC82C0C8
:10095000809362048AC0E091870481E08E0F8093C7
:1009600087048091BB00F0E0EA59FB4F80839091AF
:100970008704809186046AC0E091870481E08E0F2D
:10098000809387048091BB00F0E0EA59FB4F80839D
:1009900080916504811169C081E08093640484EAD8
:1009A0005DC083E08093630410926104CFCF809197
:1009B0006104803208F04DC0E091610481E08E0F47
:1009C000809361048091BB00F0E0EF5BFB4F80837C
:1009D000BDCF85EC8093BC001092630480916104CC
:1009E000803230F4E0916104F0E0EF5BFB4F108265
:1009F0006091610470E081E494E0E0E0F0E009954A
:100A00001092610434C084E0809363041092400427
:100A100010923F04E0E0F0E0099580913F048111DD
:100A200005C081E080933F0410921F04E0914004D0
:100A300081E08E0F80934004F0E0E15EFB4F808107
:100A40008093BB009091400480913F04981708F474
:100A50007DCF85E88093BC000AC085EC8093BC0004
:100A60001092630404C0109262040E94E301FF919B
:100A7000EF91BF91AF919F918F917F916F915F9116
:100A80004F913F912F910F900FBE0F901F9018958F
:100A90001F920F920FB60F9211242F933F938F93B3
:100AA0009F93EF93FF9380911D0487FF05C01092E1
:100AB00085001092840005C080911D0487FD8091FF
:100AC0001D0480911D048F5F80931D0480911D047F
:100AD00087FF20C080911D048C30E4F420918400B5
:100AE0003091850080911D04082E000C990BFC01AB
:100AF000EE0FFF1F8E0F9F1FFC01E750FC4F8181FF
:100B00009281820F931F9093890080938800809137
:100B10001D0417C080918400909185000496803454
:100B20009C4918F480E49CE905C080918400909170
:100B30008500049690938900809388008FEF8093BE
:100B40001D04FF91EF919F918F913F912F910F90F5
:100B50000FBE0F901F9018951F93CF93DF93EC015A
:100B6000162F61E089810E940803612F8981DF913E
:100B7000CF911F910C94B4011F920F920FB60F9258
:100B800011240F931F932F933F934F935F936F9372
:100B90007F938F939F93AF93BF93CF93DF93EF9305
:100BA000FF93E0EBF0E08491E8E8F0E0D491E4E733
:100BB000F0E0C491CC2379F081110E948B01EC2FDD
:100BC000F0E0EE0FFF1FE859FF4FA591B491EC91B3
:100BD000ED23C1E009F4C0E080919203909193036A
:100BE000019690939303809392038091F803843647
:100BF00018F085E080938D0380918D03833079F028
:100C000018F4823039F072C0843011F1853009F463
:100C10004AC06CC0C1116AC01092F80329C0C1302B
:100C200009F064C0E091F80381E08E0F8093F8032F
:100C3000F0E08091920390919303E457FC4F8087FA
:100C4000109293031092920384E080938D034EC020
:100C5000C11114C0E091F80381E08E0F8093F80376
:100C6000F0E08091920390919303E457FC4F8087CA
:100C7000109293031092920383E0E7CF8091920346
:100C8000909193038536910588F185E080938D03DB
:100C90000E94C80360938E0370938F038093900328
:100CA0009093910323C00E94C80300918E0310917A
:100CB0008F032091900330919103DC01CB01801BC5
:100CC000910BA20BB30B893C9105A105B10540F036
:100CD0001092F803109293031092920382E0B5CF22
:100CE000C11104C01092930310929203FF91EF91EF
:100CF000DF91CF91BF91AF919F918F917F916F9134
:100D00005F914F913F912F911F910F910F900FBEC7
:100D10000F901F9018950F931F93CF93DF938C0123
:100D20006F3F710519F014F06FEF70E0EB01613067
:100D30007F4F14F4C1E0DFEFF80186819781C81777
:100D4000D90711F1D783C683D7FD0AC061E0C80176
:100D50000E94AC058FE090E00197F1F7BE010CC056
:100D600060E0C8010E94AC058FE090E00197F1F7C8
:100D7000662777276C1B7D0BF8018081DF91CF916F
:100D80001F910F910C944403DF91CF911F910F910C
:100D90000895CF92DF92EF92FF920F931F93E82F67
:100DA000F92F05C0015011092109310961F1908124
:100DB00096239417B9F305C001501109210931098F
:100DC00011F1908196239413F7CFC12CD12CE12CF3
:100DD000F12C0AC08FEFC81AD80AE80AF80A0C15D5
:100DE0001D052E053F0579F080818623841791F338
:100DF0006C2D7D2D8E2D9F2D1F910F91FF90EF90CB
:100E0000DF90CF90089560E070E080E090E01F9167
:100E10000F91FF90EF90DF90CF900895EAE4F1E01A
:100E20001382128288EE93E0A0E0B0E08483958381
:100E3000A683B78324E031E03183208325EC30E0C2
:100E40003587248724EC30E03787268720EC30E094
:100E5000318B208B21EC30E0338B228B22EC30E085
:100E6000358B248B26EC30E0378B268B118E128E3F
:100E7000138E148EEFEEF1E0168217821086118623
:100E8000128613861486158616861786108A118A8E
:100E9000128A138A148A158AE7E3F2E01382128217
:100EA00084839583A683B78386E191E091838083D1
:100EB00081E090E0909344028093430210924503B6
:100EC0001092460310924703109248031092490370
:100ED00010924A0310924B0310924C0310924D0350
:100EE00010924E0310924F03109250031092510330
:100EF0001092520310925403109253031092550310
:100F000010925603109257031092580310925903EF
:100F100010925A0310925B0310925C0310925D03CF
:100F2000E4E7F3E086E0808387E0818389E08283E1
:100F3000ECE6F3E085E0808384E081838AE08283CD
:100F4000EEE5F3E01082118212820895CF93DF93D1
:100F5000CDB7DEB72E970FB6F894DEBF0FBECDBF6C
:100F6000789484B5826084BD84B5816084BD85B584
:100F7000826085BD85B5816085BD80916E00816090
:100F800080936E0010928100809181008260809336
:100F90008100809181008160809381008091800038
:100FA0008160809380008091B10084608093B10063
:100FB0008091B00081608093B00080917A0084605D
:100FC00080937A0080917A00826080937A00809189
:100FD0007A00816080937A0080917A0080688093A3
:100FE0007A001092C10010923302109234021092D3
:100FF0003502109236021092F1011092F201109215
:10100000F3011092F4010E94C8036B017C014B01B3
:101010005C0128EB820E2BE0921EA11CB11C0E94E9
:10102000C8036C157D058E059F0528F0861697066A
:10103000A806B906A0F78AE491E090933202809363
:101040003102E0915A01F0915B0182E08083E091EE
:101050005601F09157011082E0915801F091590129
:1010600080E1808310926201E0915E01F0915F0166
:1010700086E08083E0915C01F0915D018081806178
:101080008083E0915C01F0915D01808188608083C4
:10109000E0915C01F0915D01808180688083E09146
:1010A0005C01F0915D0180818F7D80830E94C80387
:1010B0006093F1017093F2018093F3019093F40136
:1010C00064E271E080913102909132020E94C0008E
:1010D0000E94C8036B017C014B015C013AE0830E66
:1010E000911CA11CB11C0E94C8036C157D058E05C6
:1010F0009F0528F086169706A806B906A0F781E096
:101100008093050280E1898381E18A8383E08B8378
:101110008EE0FE013196AEE5B3E001900D928A9526
:10112000E1F785EB94EBA4EBBEE38093E7019093AA
:10113000E801A093E901B093EA0124EF822E9924FB
:101140009394A12CB12C33E0232E312C0E94C803A0
:10115000672B682B692B41F40E94C803623071052C
:101160008105910508F410C10E94C803C090EB01ED
:10117000D090EC01E090ED01F090EE016C157D0552
:101180008E059F0540F46093EB017093EC01809312
:10119000ED019093EE01C090EB01D090EC01E09056
:1011A000ED01F090EE019B01AC012C193D094E09B7
:1011B0005F0969017A013AEFC316D104E104F10431
:1011C00008F4E2C06093EB017093EC018093ED01B1
:1011D0009093EE018092FD019092FE01A092FF019A
:1011E000B0920002109201021092020210920302C9
:1011F000109204028091F5019091F601A091F701FF
:10120000B091F8018093F9019093FA01A093FB014A
:10121000B093FC010E94C8036093F5017093F6013E
:101220008093F7019093F8010E94C8036093F10145
:101230007093F2018093F3019093F4010E94C8032C
:101240006B017C0166E371E0809131029091320282
:101250000E94C0002AE041E050E060E070E0809130
:101260003102909132020E94D5006DE371E08091CD
:101270003102909132020E94C0002AE0B701A6011B
:1012800080913102909132020E94D5006FE371E0AB
:1012900080913102909132020E94C0008091F5014C
:1012A0009091F601A091F701B091F801B701A60164
:1012B000481B590B6A0B7B0B2AE0809131029091FD
:1012C00032020E94D5006FE371E08091310290916B
:1012D00032020E94C0004091F5015091F6016091E8
:1012E000F7017091F8018091F9019091FA01A091B4
:1012F000FB01B091FC01481B590B6A0B7B0B2AE0E8
:1013000080913102909132020E94D50061E471E037
:1013100080913102909132020E94C0000E94C80365
:10132000AB01BC012AE080913102909132020E940F
:10133000D500E0903102F090320263E471E0C70121
:101340000E94C00063E371E0C7010E94C0000E94D8
:10135000C8032B013C016B017C0145E0C40ED11C8C
:10136000E11CF11C0E94C8036415750586059705EC
:1013700008F011C10E94C8036093F5017093F60153
:101380008093F7019093F8010E94C803C090640312
:10139000D0906503E0906603F0906703DC01CB0119
:1013A0008C199D09AE09BF094897A105B10518F030
:1013B00051E05093630380916303882309F45FC075
:1013C0000E94C8036093640370936503809366036F
:1013D000909367031092630360E08EE593E00E94B0
:1013E000AC05C1010197F1F761E08EE593E00E9441
:1013F000AC0583E290E00197F1F760E08EE593E0C1
:101400000E94AC0560E080915F030E940803809118
:101410005F0390E0FC01EA57FF4F6491FC01EE5836
:10142000FF4FE491F0E0EE0FFF1FE859FF4F859169
:10143000949108EB16E520E030E0462F0E94C906A3
:10144000611571058105910551F06B017C012FEF4C
:10145000C21AD20AE20AF20A3FE0F32203C0C12C08
:10146000D12C7601C701B6010E94D40A60936803AB
:101470007093690380936A0390936B030CC060912F
:1014800068037091690380916A0390916B030E94D5
:10149000850C6B017C01C114D104E104F10431F429
:1014A00080EAC82E8AE5D82EE12CF12CC701B601BE
:1014B0000E94D40A20E030E048E652E40E94130C77
:1014C00020E030E040E751E40E94BB0C18166CF4B9
:1014D0006AE67FEF84E793E00E948B0666E970E09E
:1014E0008CE693E00E948B0653C027E936E946E17B
:1014F0005FE36091E7017091E8018091E9019091CB
:10150000EA010E94330B9B01AC0160E070E084EBC8
:1015100092E40E94130C6B017C0166E970E084E7A1
:1015200093E00E948B0666E970E08CE693E00E94EF
:101530008B06C701B6010E94850C6B01770FEE0880
:10154000FF080E94A3032B013C01C114D104E10454
:10155000F104F1F00E94A303DC01CB018419950989
:10156000A609B709883E9340A105B10570F341E093
:10157000C41AD108E108F10858EE450E53E0551E93
:10158000611C711CC114D104E104F10419F7DDCF11
:101590000E948101DBCDC616D706E806F90608F0E1
:1015A000E1CEE8CEE89409C097FB3EF49095809593
:1015B000709561957F4F8F4F9F4F9923A9F0F92F19
:1015C00096E9BB279395F695879577956795B79597
:1015D000F111F8CFFAF4BB0F11F460FF1BC06F5F7D
:1015E0007F4F8F4F9F4F16C0882311F096E911C08F
:1015F000772321F09EE8872F762F05C0662371F0B0
:1016000096E8862F70E060E02AF09A95660F771FC3
:10161000881FDAF7880F9695879597F90895990F9F
:101620000008550FAA0BE0E8FEEF16161706E807AC
:10163000F907C0F012161306E407F50798F0621BCD
:10164000730B840B950B39F40A2661F0232B242BA2
:10165000252B21F408950A2609F4A140A6958FEFC1
:10166000811D811D08950E94460B0C94B70B0E94AA
:10167000A90B38F00E94B00B20F0952311F00C94C8
:10168000A00B0C94A60B11240C94EB0B0E94C80B1E
:1016900070F3959FC1F3950F50E0551F629FF001C5
:1016A000729FBB27F00DB11D639FAA27F00DB11DDE
:1016B000AA1F649F6627B00DA11D661F829F222767
:1016C000B00DA11D621F739FB00DA11D621F839FEE
:1016D000A00D611D221F749F3327A00D611D231FC4
:1016E000849F600D211D822F762F6A2F11249F5712
:1016F00050409AF0F1F088234AF0EE0FFF1FBB1F15
:10170000661F771F881F91505040A9F79E3F5105D3
:1017100080F00C94A00B0C94EB0B5F3FE4F3983E2D
:10172000D4F3869577956795B795F795E7959F5F7D
:10173000C1F7FE2B880F911D9695879597F908950F
:1017400097F99F6780E870E060E008959FEF80EC74
:10175000089500240A941616170618060906089517
:1017600000240A9412161306140605060895092E7D
:101770000394000C11F4882352F0BB0F40F4BF2BEC
:1017800011F460FF04C06F5F7F4F8F4F9F4F08952C
:1017900057FD9058440F551F59F05F3F71F0479522
:1017A000880F97FB991F61F09F3F79F08795089507
:1017B000121613061406551FF2CF4695F1DF08C026
:1017C000161617061806991FF1CF86957105610543
:1017D00008940895E894BB2766277727CB0197F9EB
:1017E0000895A1E21A2EAA1BBB1BFD010DC0AA1F62
:1017F000BB1FEE1FFF1FA217B307E407F50720F07A
:10180000A21BB30BE40BF50B661F771F881F991FF4
:101810001A9469F760957095809590959B01AC013D
:10182000BD01CF0108950E94270C0C94B70B0E94B4
:10183000B00B58F00E94A90B40F029F45F3F29F04B
:101840000C94A00B51110C94EB0B0C94A60B0E9462
:10185000C80B68F39923B1F3552391F3951B550BEE
:10186000BB27AA2762177307840738F09F5F5F4F73
:10187000220F331F441FAA1FA9F335D00E2E3AF0B2
:10188000E0E832D091505040E695001CCAF72BD0CA
:10189000FE2F29D0660F771F881FBB1F261737071B
:1018A0004807AB07B0E809F0BB0B802DBF01FF274D
:1018B00093585F4F3AF09E3F510578F00C94A00B7F
:1018C0000C94EB0B5F3FE4F3983ED4F38695779549
:1018D0006795B795F7959F5FC9F7880F911D969506
:1018E000879597F90895E1E0660F771F881FBB1F62
:1018F000621773078407BA0720F0621B730B840B0F
:10190000BA0BEE1F88F7E09508950E948C0C68943E
:10191000B1110C94EB0B08950E94D00B88F09F57E7
:1019200098F0B92F9927B751B0F0E1F0660F771F03
:10193000881F991F1AF0BA95C9F714C0B13091F0F9
:101940000E94EA0BB1E008950C94EA0B672F782F00
:101950008827B85F39F0B93FCCF3869577956795BE
:10196000B395D9F73EF490958095709561957F4F2A
:101970008F4F9F4F08950E940F0B08F48FEF08952B
:10198000EE0FFF1F0590F491E02D099481E090E0A7
:0A199000F8940C94CB0CF894FFCFF0
:10199A000000000099028C004401E602750153011F
:1019AA006701000000002E022302400215021C02F9
:1019BA0019021602564D4450565F317C315F564D1E
:1019CA004450560D0A00564D4450455F003A323A8B
:0A19DA00007C005F564D44504500AC
:00000001FF
